{
	"contracts/Twitter.sol": {
		"Twitter": {
			"abi": [
				{
					"inputs": [],
					"stateMutability": "nonpayable",
					"type": "constructor"
				},
				{
					"inputs": [],
					"name": "MAX_TWEET_LENGTH",
					"outputs": [
						{
							"internalType": "uint16",
							"name": "",
							"type": "uint16"
						}
					],
					"stateMutability": "view",
					"type": "function"
				},
				{
					"inputs": [
						{
							"internalType": "uint16",
							"name": "newTweetLength",
							"type": "uint16"
						}
					],
					"name": "changeTweetLength",
					"outputs": [],
					"stateMutability": "nonpayable",
					"type": "function"
				},
				{
					"inputs": [
						{
							"internalType": "string",
							"name": "_tweet",
							"type": "string"
						}
					],
					"name": "createTweet",
					"outputs": [],
					"stateMutability": "nonpayable",
					"type": "function"
				},
				{
					"inputs": [],
					"name": "getAllTweets",
					"outputs": [
						{
							"components": [
								{
									"internalType": "address",
									"name": "author",
									"type": "address"
								},
								{
									"internalType": "string",
									"name": "content",
									"type": "string"
								},
								{
									"internalType": "uint256",
									"name": "timestamp",
									"type": "uint256"
								},
								{
									"internalType": "uint256",
									"name": "likes",
									"type": "uint256"
								}
							],
							"internalType": "struct Twitter.Tweet[]",
							"name": "",
							"type": "tuple[]"
						}
					],
					"stateMutability": "view",
					"type": "function"
				},
				{
					"inputs": [
						{
							"internalType": "uint256",
							"name": "_i",
							"type": "uint256"
						}
					],
					"name": "getTweet",
					"outputs": [
						{
							"components": [
								{
									"internalType": "address",
									"name": "author",
									"type": "address"
								},
								{
									"internalType": "string",
									"name": "content",
									"type": "string"
								},
								{
									"internalType": "uint256",
									"name": "timestamp",
									"type": "uint256"
								},
								{
									"internalType": "uint256",
									"name": "likes",
									"type": "uint256"
								}
							],
							"internalType": "struct Twitter.Tweet",
							"name": "",
							"type": "tuple"
						}
					],
					"stateMutability": "view",
					"type": "function"
				},
				{
					"inputs": [],
					"name": "owner",
					"outputs": [
						{
							"internalType": "address",
							"name": "",
							"type": "address"
						}
					],
					"stateMutability": "view",
					"type": "function"
				},
				{
					"inputs": [
						{
							"internalType": "address",
							"name": "",
							"type": "address"
						},
						{
							"internalType": "uint256",
							"name": "",
							"type": "uint256"
						}
					],
					"name": "tweets",
					"outputs": [
						{
							"internalType": "address",
							"name": "author",
							"type": "address"
						},
						{
							"internalType": "string",
							"name": "content",
							"type": "string"
						},
						{
							"internalType": "uint256",
							"name": "timestamp",
							"type": "uint256"
						},
						{
							"internalType": "uint256",
							"name": "likes",
							"type": "uint256"
						}
					],
					"stateMutability": "view",
					"type": "function"
				}
			],
			"devdoc": {
				"kind": "dev",
				"methods": {},
				"version": 1
			},
			"evm": {
				"assembly": "    /* \"contracts/Twitter.sol\":63:1252  contract Twitter {... */\n  mstore(0x40, 0x80)\n    /* \"contracts/Twitter.sol\":122:125  280 */\n  0x0118\n    /* \"contracts/Twitter.sol\":89:125  uint16 public MAX_TWEET_LENGTH = 280 */\n  0x00\n  dup1\n  0x0100\n  exp\n  dup2\n  sload\n  dup2\n  0xffff\n  mul\n  not\n  and\n  swap1\n  dup4\n  0xffff\n  and\n  mul\n  or\n  swap1\n  sstore\n  pop\n    /* \"contracts/Twitter.sol\":344:395  constructor() {... */\n  callvalue\n  dup1\n  iszero\n  tag_1\n  jumpi\n  0x00\n  dup1\n  revert\ntag_1:\n  pop\n    /* \"contracts/Twitter.sol\":377:387  msg.sender */\n  caller\n    /* \"contracts/Twitter.sol\":369:374  owner */\n  0x02\n  0x00\n    /* \"contracts/Twitter.sol\":369:387  owner = msg.sender */\n  0x0100\n  exp\n  dup2\n  sload\n  dup2\n  0xffffffffffffffffffffffffffffffffffffffff\n  mul\n  not\n  and\n  swap1\n  dup4\n  0xffffffffffffffffffffffffffffffffffffffff\n  and\n  mul\n  or\n  swap1\n  sstore\n  pop\n    /* \"contracts/Twitter.sol\":63:1252  contract Twitter {... */\n  dataSize(sub_0)\n  dup1\n  dataOffset(sub_0)\n  0x00\n  codecopy\n  0x00\n  return\nstop\n\nsub_0: assembly {\n        /* \"contracts/Twitter.sol\":63:1252  contract Twitter {... */\n      mstore(0x40, 0x80)\n      callvalue\n      dup1\n      iszero\n      tag_1\n      jumpi\n      0x00\n      dup1\n      revert\n    tag_1:\n      pop\n      jumpi(tag_2, lt(calldatasize, 0x04))\n      shr(0xe0, calldataload(0x00))\n      dup1\n      0x6eb10797\n      gt\n      tag_10\n      jumpi\n      dup1\n      0x6eb10797\n      eq\n      tag_6\n      jumpi\n      dup1\n      0x7c9cd2bc\n      eq\n      tag_7\n      jumpi\n      dup1\n      0x8da5cb5b\n      eq\n      tag_8\n      jumpi\n      dup1\n      0xc3ad5ecb\n      eq\n      tag_9\n      jumpi\n      jump(tag_2)\n    tag_10:\n      dup1\n      0x05a1b4a9\n      eq\n      tag_3\n      jumpi\n      dup1\n      0x53256135\n      eq\n      tag_4\n      jumpi\n      dup1\n      0x58bfa4ab\n      eq\n      tag_5\n      jumpi\n    tag_2:\n      0x00\n      dup1\n      revert\n        /* \"contracts/Twitter.sol\":265:306  mapping(address => Tweet[]) public tweets */\n    tag_3:\n      tag_11\n      0x04\n      dup1\n      calldatasize\n      sub\n      dup2\n      add\n      swap1\n      tag_12\n      swap2\n      swap1\n      tag_13\n      jump\t// in\n    tag_12:\n      tag_14\n      jump\t// in\n    tag_11:\n      mload(0x40)\n      tag_15\n      swap5\n      swap4\n      swap3\n      swap2\n      swap1\n      tag_16\n      jump\t// in\n    tag_15:\n      mload(0x40)\n      dup1\n      swap2\n      sub\n      swap1\n      return\n        /* \"contracts/Twitter.sol\":1142:1247  function getAllTweets() public view returns (Tweet[] memory) {... */\n    tag_4:\n      tag_17\n      tag_18\n      jump\t// in\n    tag_17:\n      mload(0x40)\n      tag_19\n      swap2\n      swap1\n      tag_20\n      jump\t// in\n    tag_19:\n      mload(0x40)\n      dup1\n      swap2\n      sub\n      swap1\n      return\n        /* \"contracts/Twitter.sol\":516:635  function changeTweetLength(uint16 newTweetLength) public onlyOwner {... */\n    tag_5:\n      tag_21\n      0x04\n      dup1\n      calldatasize\n      sub\n      dup2\n      add\n      swap1\n      tag_22\n      swap2\n      swap1\n      tag_23\n      jump\t// in\n    tag_22:\n      tag_24\n      jump\t// in\n    tag_21:\n      stop\n        /* \"contracts/Twitter.sol\":89:125  uint16 public MAX_TWEET_LENGTH = 280 */\n    tag_6:\n      tag_25\n      tag_26\n      jump\t// in\n    tag_25:\n      mload(0x40)\n      tag_27\n      swap2\n      swap1\n      tag_28\n      jump\t// in\n    tag_27:\n      mload(0x40)\n      dup1\n      swap2\n      sub\n      swap1\n      return\n        /* \"contracts/Twitter.sol\":643:1016  function createTweet(string memory _tweet) public {... */\n    tag_7:\n      tag_29\n      0x04\n      dup1\n      calldatasize\n      sub\n      dup2\n      add\n      swap1\n      tag_30\n      swap2\n      swap1\n      tag_31\n      jump\t// in\n    tag_30:\n      tag_32\n      jump\t// in\n    tag_29:\n      stop\n        /* \"contracts/Twitter.sol\":315:335  address public owner */\n    tag_8:\n      tag_33\n      tag_34\n      jump\t// in\n    tag_33:\n      mload(0x40)\n      tag_35\n      swap2\n      swap1\n      tag_36\n      jump\t// in\n    tag_35:\n      mload(0x40)\n      dup1\n      swap2\n      sub\n      swap1\n      return\n        /* \"contracts/Twitter.sol\":1024:1134  function getTweet(uint _i) public view returns (Tweet memory) {... */\n    tag_9:\n      tag_37\n      0x04\n      dup1\n      calldatasize\n      sub\n      dup2\n      add\n      swap1\n      tag_38\n      swap2\n      swap1\n      tag_39\n      jump\t// in\n    tag_38:\n      tag_40\n      jump\t// in\n    tag_37:\n      mload(0x40)\n      tag_41\n      swap2\n      swap1\n      tag_42\n      jump\t// in\n    tag_41:\n      mload(0x40)\n      dup1\n      swap2\n      sub\n      swap1\n      return\n        /* \"contracts/Twitter.sol\":265:306  mapping(address => Tweet[]) public tweets */\n    tag_14:\n      mstore(0x20, 0x01)\n      dup2\n      0x00\n      mstore\n      keccak256(0x00, 0x40)\n      dup2\n      dup2\n      sload\n      dup2\n      lt\n      tag_43\n      jumpi\n      0x00\n      dup1\n      revert\n    tag_43:\n      swap1\n      0x00\n      mstore\n      keccak256(0x00, 0x20)\n      swap1\n      0x04\n      mul\n      add\n      0x00\n      swap2\n      pop\n      swap2\n      pop\n      pop\n      dup1\n      0x00\n      add\n      0x00\n      swap1\n      sload\n      swap1\n      0x0100\n      exp\n      swap1\n      div\n      0xffffffffffffffffffffffffffffffffffffffff\n      and\n      swap1\n      dup1\n      0x01\n      add\n      dup1\n      sload\n      tag_45\n      swap1\n      tag_46\n      jump\t// in\n    tag_45:\n      dup1\n      0x1f\n      add\n      0x20\n      dup1\n      swap2\n      div\n      mul\n      0x20\n      add\n      mload(0x40)\n      swap1\n      dup2\n      add\n      0x40\n      mstore\n      dup1\n      swap3\n      swap2\n      swap1\n      dup2\n      dup2\n      mstore\n      0x20\n      add\n      dup3\n      dup1\n      sload\n      tag_47\n      swap1\n      tag_46\n      jump\t// in\n    tag_47:\n      dup1\n      iszero\n      tag_48\n      jumpi\n      dup1\n      0x1f\n      lt\n      tag_49\n      jumpi\n      0x0100\n      dup1\n      dup4\n      sload\n      div\n      mul\n      dup4\n      mstore\n      swap2\n      0x20\n      add\n      swap2\n      jump(tag_48)\n    tag_49:\n      dup3\n      add\n      swap2\n      swap1\n      0x00\n      mstore\n      keccak256(0x00, 0x20)\n      swap1\n    tag_50:\n      dup2\n      sload\n      dup2\n      mstore\n      swap1\n      0x01\n      add\n      swap1\n      0x20\n      add\n      dup1\n      dup4\n      gt\n      tag_50\n      jumpi\n      dup3\n      swap1\n      sub\n      0x1f\n      and\n      dup3\n      add\n      swap2\n    tag_48:\n      pop\n      pop\n      pop\n      pop\n      pop\n      swap1\n      dup1\n      0x02\n      add\n      sload\n      swap1\n      dup1\n      0x03\n      add\n      sload\n      swap1\n      pop\n      dup5\n      jump\t// out\n        /* \"contracts/Twitter.sol\":1142:1247  function getAllTweets() public view returns (Tweet[] memory) {... */\n    tag_18:\n        /* \"contracts/Twitter.sol\":1187:1201  Tweet[] memory */\n      0x60\n        /* \"contracts/Twitter.sol\":1221:1227  tweets */\n      0x01\n        /* \"contracts/Twitter.sol\":1221:1239  tweets[msg.sender] */\n      0x00\n        /* \"contracts/Twitter.sol\":1228:1238  msg.sender */\n      caller\n        /* \"contracts/Twitter.sol\":1221:1239  tweets[msg.sender] */\n      0xffffffffffffffffffffffffffffffffffffffff\n      and\n      0xffffffffffffffffffffffffffffffffffffffff\n      and\n      dup2\n      mstore\n      0x20\n      add\n      swap1\n      dup2\n      mstore\n      0x20\n      add\n      0x00\n      keccak256\n        /* \"contracts/Twitter.sol\":1214:1239  return tweets[msg.sender] */\n      dup1\n      sload\n      dup1\n      0x20\n      mul\n      0x20\n      add\n      mload(0x40)\n      swap1\n      dup2\n      add\n      0x40\n      mstore\n      dup1\n      swap3\n      swap2\n      swap1\n      dup2\n      dup2\n      mstore\n      0x20\n      add\n      0x00\n      swap1\n    tag_52:\n      dup3\n      dup3\n      lt\n      iszero\n      tag_53\n      jumpi\n      dup4\n      dup3\n      swap1\n      0x00\n      mstore\n      keccak256(0x00, 0x20)\n      swap1\n      0x04\n      mul\n      add\n      mload(0x40)\n      dup1\n      0x80\n      add\n      0x40\n      mstore\n      swap1\n      dup2\n      0x00\n      dup3\n      add\n      0x00\n      swap1\n      sload\n      swap1\n      0x0100\n      exp\n      swap1\n      div\n      0xffffffffffffffffffffffffffffffffffffffff\n      and\n      0xffffffffffffffffffffffffffffffffffffffff\n      and\n      0xffffffffffffffffffffffffffffffffffffffff\n      and\n      dup2\n      mstore\n      0x20\n      add\n      0x01\n      dup3\n      add\n      dup1\n      sload\n      tag_55\n      swap1\n      tag_46\n      jump\t// in\n    tag_55:\n      dup1\n      0x1f\n      add\n      0x20\n      dup1\n      swap2\n      div\n      mul\n      0x20\n      add\n      mload(0x40)\n      swap1\n      dup2\n      add\n      0x40\n      mstore\n      dup1\n      swap3\n      swap2\n      swap1\n      dup2\n      dup2\n      mstore\n      0x20\n      add\n      dup3\n      dup1\n      sload\n      tag_56\n      swap1\n      tag_46\n      jump\t// in\n    tag_56:\n      dup1\n      iszero\n      tag_57\n      jumpi\n      dup1\n      0x1f\n      lt\n      tag_58\n      jumpi\n      0x0100\n      dup1\n      dup4\n      sload\n      div\n      mul\n      dup4\n      mstore\n      swap2\n      0x20\n      add\n      swap2\n      jump(tag_57)\n    tag_58:\n      dup3\n      add\n      swap2\n      swap1\n      0x00\n      mstore\n      keccak256(0x00, 0x20)\n      swap1\n    tag_59:\n      dup2\n      sload\n      dup2\n      mstore\n      swap1\n      0x01\n      add\n      swap1\n      0x20\n      add\n      dup1\n      dup4\n      gt\n      tag_59\n      jumpi\n      dup3\n      swap1\n      sub\n      0x1f\n      and\n      dup3\n      add\n      swap2\n    tag_57:\n      pop\n      pop\n      pop\n      pop\n      pop\n      dup2\n      mstore\n      0x20\n      add\n      0x02\n      dup3\n      add\n      sload\n      dup2\n      mstore\n      0x20\n      add\n      0x03\n      dup3\n      add\n      sload\n      dup2\n      mstore\n      pop\n      pop\n      dup2\n      mstore\n      0x20\n      add\n      swap1\n      0x01\n      add\n      swap1\n      jump(tag_52)\n    tag_53:\n      pop\n      pop\n      pop\n      pop\n      swap1\n      pop\n        /* \"contracts/Twitter.sol\":1142:1247  function getAllTweets() public view returns (Tweet[] memory) {... */\n      swap1\n      jump\t// out\n        /* \"contracts/Twitter.sol\":516:635  function changeTweetLength(uint16 newTweetLength) public onlyOwner {... */\n    tag_24:\n        /* \"contracts/Twitter.sol\":457:462  owner */\n      0x02\n      0x00\n      swap1\n      sload\n      swap1\n      0x0100\n      exp\n      swap1\n      div\n      0xffffffffffffffffffffffffffffffffffffffff\n      and\n        /* \"contracts/Twitter.sol\":443:462  msg.sender == owner */\n      0xffffffffffffffffffffffffffffffffffffffff\n      and\n        /* \"contracts/Twitter.sol\":443:453  msg.sender */\n      caller\n        /* \"contracts/Twitter.sol\":443:462  msg.sender == owner */\n      0xffffffffffffffffffffffffffffffffffffffff\n      and\n      eq\n        /* \"contracts/Twitter.sol\":435:488  require(msg.sender == owner, \"YOU ARE NOT THE OWNE!\") */\n      tag_61\n      jumpi\n      mload(0x40)\n      0x08c379a000000000000000000000000000000000000000000000000000000000\n      dup2\n      mstore\n      0x04\n      add\n      tag_62\n      swap1\n      tag_63\n      jump\t// in\n    tag_62:\n      mload(0x40)\n      dup1\n      swap2\n      sub\n      swap1\n      revert\n    tag_61:\n        /* \"contracts/Twitter.sol\":613:627  newTweetLength */\n      dup1\n        /* \"contracts/Twitter.sol\":594:610  MAX_TWEET_LENGTH */\n      0x00\n      dup1\n        /* \"contracts/Twitter.sol\":594:627  MAX_TWEET_LENGTH = newTweetLength */\n      0x0100\n      exp\n      dup2\n      sload\n      dup2\n      0xffff\n      mul\n      not\n      and\n      swap1\n      dup4\n      0xffff\n      and\n      mul\n      or\n      swap1\n      sstore\n      pop\n        /* \"contracts/Twitter.sol\":516:635  function changeTweetLength(uint16 newTweetLength) public onlyOwner {... */\n      pop\n      jump\t// out\n        /* \"contracts/Twitter.sol\":89:125  uint16 public MAX_TWEET_LENGTH = 280 */\n    tag_26:\n      0x00\n      dup1\n      sload\n      swap1\n      0x0100\n      exp\n      swap1\n      div\n      0xffff\n      and\n      dup2\n      jump\t// out\n        /* \"contracts/Twitter.sol\":643:1016  function createTweet(string memory _tweet) public {... */\n    tag_32:\n        /* \"contracts/Twitter.sol\":736:752  MAX_TWEET_LENGTH */\n      0x00\n      dup1\n      sload\n      swap1\n      0x0100\n      exp\n      swap1\n      div\n      0xffff\n      and\n        /* \"contracts/Twitter.sol\":712:752  bytes(_tweet).length <= MAX_TWEET_LENGTH */\n      0xffff\n      and\n        /* \"contracts/Twitter.sol\":718:724  _tweet */\n      dup2\n        /* \"contracts/Twitter.sol\":712:732  bytes(_tweet).length */\n      mload\n        /* \"contracts/Twitter.sol\":712:752  bytes(_tweet).length <= MAX_TWEET_LENGTH */\n      gt\n      iszero\n        /* \"contracts/Twitter.sol\":704:780  require(bytes(_tweet).length <= MAX_TWEET_LENGTH, \"This Tweet is too long!\") */\n      tag_66\n      jumpi\n      mload(0x40)\n      0x08c379a000000000000000000000000000000000000000000000000000000000\n      dup2\n      mstore\n      0x04\n      add\n      tag_67\n      swap1\n      tag_68\n      jump\t// in\n    tag_67:\n      mload(0x40)\n      dup1\n      swap2\n      sub\n      swap1\n      revert\n    tag_66:\n        /* \"contracts/Twitter.sol\":793:814  Tweet memory newTweet */\n      0x00\n        /* \"contracts/Twitter.sol\":817:962  Tweet({... */\n      mload(0x40)\n      dup1\n      0x80\n      add\n      0x40\n      mstore\n      dup1\n        /* \"contracts/Twitter.sol\":846:856  msg.sender */\n      caller\n        /* \"contracts/Twitter.sol\":817:962  Tweet({... */\n      0xffffffffffffffffffffffffffffffffffffffff\n      and\n      dup2\n      mstore\n      0x20\n      add\n        /* \"contracts/Twitter.sol\":880:886  _tweet */\n      dup4\n        /* \"contracts/Twitter.sol\":817:962  Tweet({... */\n      dup2\n      mstore\n      0x20\n      add\n        /* \"contracts/Twitter.sol\":912:927  block.timestamp */\n      timestamp\n        /* \"contracts/Twitter.sol\":817:962  Tweet({... */\n      dup2\n      mstore\n      0x20\n      add\n        /* \"contracts/Twitter.sol\":949:950  0 */\n      0x00\n        /* \"contracts/Twitter.sol\":817:962  Tweet({... */\n      dup2\n      mstore\n      pop\n        /* \"contracts/Twitter.sol\":793:962  Tweet memory newTweet = Tweet({... */\n      swap1\n      pop\n        /* \"contracts/Twitter.sol\":975:981  tweets */\n      0x01\n        /* \"contracts/Twitter.sol\":975:993  tweets[msg.sender] */\n      0x00\n        /* \"contracts/Twitter.sol\":982:992  msg.sender */\n      caller\n        /* \"contracts/Twitter.sol\":975:993  tweets[msg.sender] */\n      0xffffffffffffffffffffffffffffffffffffffff\n      and\n      0xffffffffffffffffffffffffffffffffffffffff\n      and\n      dup2\n      mstore\n      0x20\n      add\n      swap1\n      dup2\n      mstore\n      0x20\n      add\n      0x00\n      keccak256\n        /* \"contracts/Twitter.sol\":999:1007  newTweet */\n      dup2\n        /* \"contracts/Twitter.sol\":975:1008  tweets[msg.sender].push(newTweet) */\n      swap1\n      dup1\n      0x01\n      dup2\n      sload\n      add\n      dup1\n      dup3\n      sstore\n      dup1\n      swap2\n      pop\n      pop\n      0x01\n      swap1\n      sub\n      swap1\n      0x00\n      mstore\n      keccak256(0x00, 0x20)\n      swap1\n      0x04\n      mul\n      add\n      0x00\n      swap1\n      swap2\n      swap1\n      swap2\n      swap1\n      swap2\n      pop\n      0x00\n      dup3\n      add\n      mload\n      dup2\n      0x00\n      add\n      exp(0x0100, 0x00)\n      dup2\n      sload\n      dup2\n      0xffffffffffffffffffffffffffffffffffffffff\n      mul\n      not\n      and\n      swap1\n      dup4\n      0xffffffffffffffffffffffffffffffffffffffff\n      and\n      mul\n      or\n      swap1\n      sstore\n      pop\n      0x20\n      dup3\n      add\n      mload\n      dup2\n      0x01\n      add\n      swap1\n      dup2\n      tag_70\n      swap2\n      swap1\n      tag_71\n      jump\t// in\n    tag_70:\n      pop\n      0x40\n      dup3\n      add\n      mload\n      dup2\n      0x02\n      add\n      sstore\n      0x60\n      dup3\n      add\n      mload\n      dup2\n      0x03\n      add\n      sstore\n      pop\n      pop\n        /* \"contracts/Twitter.sol\":693:1016  {... */\n      pop\n        /* \"contracts/Twitter.sol\":643:1016  function createTweet(string memory _tweet) public {... */\n      pop\n      jump\t// out\n        /* \"contracts/Twitter.sol\":315:335  address public owner */\n    tag_34:\n      0x02\n      0x00\n      swap1\n      sload\n      swap1\n      0x0100\n      exp\n      swap1\n      div\n      0xffffffffffffffffffffffffffffffffffffffff\n      and\n      dup2\n      jump\t// out\n        /* \"contracts/Twitter.sol\":1024:1134  function getTweet(uint _i) public view returns (Tweet memory) {... */\n    tag_40:\n        /* \"contracts/Twitter.sol\":1072:1084  Tweet memory */\n      tag_72\n      tag_73\n      jump\t// in\n    tag_72:\n        /* \"contracts/Twitter.sol\":1104:1110  tweets */\n      0x01\n        /* \"contracts/Twitter.sol\":1104:1122  tweets[msg.sender] */\n      0x00\n        /* \"contracts/Twitter.sol\":1111:1121  msg.sender */\n      caller\n        /* \"contracts/Twitter.sol\":1104:1122  tweets[msg.sender] */\n      0xffffffffffffffffffffffffffffffffffffffff\n      and\n      0xffffffffffffffffffffffffffffffffffffffff\n      and\n      dup2\n      mstore\n      0x20\n      add\n      swap1\n      dup2\n      mstore\n      0x20\n      add\n      0x00\n      keccak256\n        /* \"contracts/Twitter.sol\":1123:1125  _i */\n      dup3\n        /* \"contracts/Twitter.sol\":1104:1126  tweets[msg.sender][_i] */\n      dup2\n      sload\n      dup2\n      lt\n      tag_75\n      jumpi\n      tag_76\n      tag_77\n      jump\t// in\n    tag_76:\n    tag_75:\n      swap1\n      0x00\n      mstore\n      keccak256(0x00, 0x20)\n      swap1\n      0x04\n      mul\n      add\n        /* \"contracts/Twitter.sol\":1097:1126  return tweets[msg.sender][_i] */\n      mload(0x40)\n      dup1\n      0x80\n      add\n      0x40\n      mstore\n      swap1\n      dup2\n      0x00\n      dup3\n      add\n      0x00\n      swap1\n      sload\n      swap1\n      0x0100\n      exp\n      swap1\n      div\n      0xffffffffffffffffffffffffffffffffffffffff\n      and\n      0xffffffffffffffffffffffffffffffffffffffff\n      and\n      0xffffffffffffffffffffffffffffffffffffffff\n      and\n      dup2\n      mstore\n      0x20\n      add\n      0x01\n      dup3\n      add\n      dup1\n      sload\n      tag_79\n      swap1\n      tag_46\n      jump\t// in\n    tag_79:\n      dup1\n      0x1f\n      add\n      0x20\n      dup1\n      swap2\n      div\n      mul\n      0x20\n      add\n      mload(0x40)\n      swap1\n      dup2\n      add\n      0x40\n      mstore\n      dup1\n      swap3\n      swap2\n      swap1\n      dup2\n      dup2\n      mstore\n      0x20\n      add\n      dup3\n      dup1\n      sload\n      tag_80\n      swap1\n      tag_46\n      jump\t// in\n    tag_80:\n      dup1\n      iszero\n      tag_81\n      jumpi\n      dup1\n      0x1f\n      lt\n      tag_82\n      jumpi\n      0x0100\n      dup1\n      dup4\n      sload\n      div\n      mul\n      dup4\n      mstore\n      swap2\n      0x20\n      add\n      swap2\n      jump(tag_81)\n    tag_82:\n      dup3\n      add\n      swap2\n      swap1\n      0x00\n      mstore\n      keccak256(0x00, 0x20)\n      swap1\n    tag_83:\n      dup2\n      sload\n      dup2\n      mstore\n      swap1\n      0x01\n      add\n      swap1\n      0x20\n      add\n      dup1\n      dup4\n      gt\n      tag_83\n      jumpi\n      dup3\n      swap1\n      sub\n      0x1f\n      and\n      dup3\n      add\n      swap2\n    tag_81:\n      pop\n      pop\n      pop\n      pop\n      pop\n      dup2\n      mstore\n      0x20\n      add\n      0x02\n      dup3\n      add\n      sload\n      dup2\n      mstore\n      0x20\n      add\n      0x03\n      dup3\n      add\n      sload\n      dup2\n      mstore\n      pop\n      pop\n      swap1\n      pop\n        /* \"contracts/Twitter.sol\":1024:1134  function getTweet(uint _i) public view returns (Tweet memory) {... */\n      swap2\n      swap1\n      pop\n      jump\t// out\n    tag_73:\n      mload(0x40)\n      dup1\n      0x80\n      add\n      0x40\n      mstore\n      dup1\n      and(0xffffffffffffffffffffffffffffffffffffffff, 0x00)\n      dup2\n      mstore\n      0x20\n      add\n      0x60\n      dup2\n      mstore\n      0x20\n      add\n      0x00\n      dup2\n      mstore\n      0x20\n      add\n      0x00\n      dup2\n      mstore\n      pop\n      swap1\n      jump\t// out\n        /* \"#utility.yul\":7:82   */\n    tag_84:\n        /* \"#utility.yul\":40:46   */\n      0x00\n        /* \"#utility.yul\":73:75   */\n      0x40\n        /* \"#utility.yul\":67:76   */\n      mload\n        /* \"#utility.yul\":57:76   */\n      swap1\n      pop\n        /* \"#utility.yul\":7:82   */\n      swap1\n      jump\t// out\n        /* \"#utility.yul\":88:205   */\n    tag_85:\n        /* \"#utility.yul\":197:198   */\n      0x00\n        /* \"#utility.yul\":194:195   */\n      dup1\n        /* \"#utility.yul\":187:199   */\n      revert\n        /* \"#utility.yul\":211:328   */\n    tag_86:\n        /* \"#utility.yul\":320:321   */\n      0x00\n        /* \"#utility.yul\":317:318   */\n      dup1\n        /* \"#utility.yul\":310:322   */\n      revert\n        /* \"#utility.yul\":334:460   */\n    tag_87:\n        /* \"#utility.yul\":371:378   */\n      0x00\n        /* \"#utility.yul\":411:453   */\n      0xffffffffffffffffffffffffffffffffffffffff\n        /* \"#utility.yul\":404:409   */\n      dup3\n        /* \"#utility.yul\":400:454   */\n      and\n        /* \"#utility.yul\":389:454   */\n      swap1\n      pop\n        /* \"#utility.yul\":334:460   */\n      swap2\n      swap1\n      pop\n      jump\t// out\n        /* \"#utility.yul\":466:562   */\n    tag_88:\n        /* \"#utility.yul\":503:510   */\n      0x00\n        /* \"#utility.yul\":532:556   */\n      tag_152\n        /* \"#utility.yul\":550:555   */\n      dup3\n        /* \"#utility.yul\":532:556   */\n      tag_87\n      jump\t// in\n    tag_152:\n        /* \"#utility.yul\":521:556   */\n      swap1\n      pop\n        /* \"#utility.yul\":466:562   */\n      swap2\n      swap1\n      pop\n      jump\t// out\n        /* \"#utility.yul\":568:690   */\n    tag_89:\n        /* \"#utility.yul\":641:665   */\n      tag_154\n        /* \"#utility.yul\":659:664   */\n      dup2\n        /* \"#utility.yul\":641:665   */\n      tag_88\n      jump\t// in\n    tag_154:\n        /* \"#utility.yul\":634:639   */\n      dup2\n        /* \"#utility.yul\":631:666   */\n      eq\n        /* \"#utility.yul\":621:684   */\n      tag_155\n      jumpi\n        /* \"#utility.yul\":680:681   */\n      0x00\n        /* \"#utility.yul\":677:678   */\n      dup1\n        /* \"#utility.yul\":670:682   */\n      revert\n        /* \"#utility.yul\":621:684   */\n    tag_155:\n        /* \"#utility.yul\":568:690   */\n      pop\n      jump\t// out\n        /* \"#utility.yul\":696:835   */\n    tag_90:\n        /* \"#utility.yul\":742:747   */\n      0x00\n        /* \"#utility.yul\":780:786   */\n      dup2\n        /* \"#utility.yul\":767:787   */\n      calldataload\n        /* \"#utility.yul\":758:787   */\n      swap1\n      pop\n        /* \"#utility.yul\":796:829   */\n      tag_157\n        /* \"#utility.yul\":823:828   */\n      dup2\n        /* \"#utility.yul\":796:829   */\n      tag_89\n      jump\t// in\n    tag_157:\n        /* \"#utility.yul\":696:835   */\n      swap3\n      swap2\n      pop\n      pop\n      jump\t// out\n        /* \"#utility.yul\":841:918   */\n    tag_91:\n        /* \"#utility.yul\":878:885   */\n      0x00\n        /* \"#utility.yul\":907:912   */\n      dup2\n        /* \"#utility.yul\":896:912   */\n      swap1\n      pop\n        /* \"#utility.yul\":841:918   */\n      swap2\n      swap1\n      pop\n      jump\t// out\n        /* \"#utility.yul\":924:1046   */\n    tag_92:\n        /* \"#utility.yul\":997:1021   */\n      tag_160\n        /* \"#utility.yul\":1015:1020   */\n      dup2\n        /* \"#utility.yul\":997:1021   */\n      tag_91\n      jump\t// in\n    tag_160:\n        /* \"#utility.yul\":990:995   */\n      dup2\n        /* \"#utility.yul\":987:1022   */\n      eq\n        /* \"#utility.yul\":977:1040   */\n      tag_161\n      jumpi\n        /* \"#utility.yul\":1036:1037   */\n      0x00\n        /* \"#utility.yul\":1033:1034   */\n      dup1\n        /* \"#utility.yul\":1026:1038   */\n      revert\n        /* \"#utility.yul\":977:1040   */\n    tag_161:\n        /* \"#utility.yul\":924:1046   */\n      pop\n      jump\t// out\n        /* \"#utility.yul\":1052:1191   */\n    tag_93:\n        /* \"#utility.yul\":1098:1103   */\n      0x00\n        /* \"#utility.yul\":1136:1142   */\n      dup2\n        /* \"#utility.yul\":1123:1143   */\n      calldataload\n        /* \"#utility.yul\":1114:1143   */\n      swap1\n      pop\n        /* \"#utility.yul\":1152:1185   */\n      tag_163\n        /* \"#utility.yul\":1179:1184   */\n      dup2\n        /* \"#utility.yul\":1152:1185   */\n      tag_92\n      jump\t// in\n    tag_163:\n        /* \"#utility.yul\":1052:1191   */\n      swap3\n      swap2\n      pop\n      pop\n      jump\t// out\n        /* \"#utility.yul\":1197:1671   */\n    tag_13:\n        /* \"#utility.yul\":1265:1271   */\n      0x00\n        /* \"#utility.yul\":1273:1279   */\n      dup1\n        /* \"#utility.yul\":1322:1324   */\n      0x40\n        /* \"#utility.yul\":1310:1319   */\n      dup4\n        /* \"#utility.yul\":1301:1308   */\n      dup6\n        /* \"#utility.yul\":1297:1320   */\n      sub\n        /* \"#utility.yul\":1293:1325   */\n      slt\n        /* \"#utility.yul\":1290:1409   */\n      iszero\n      tag_165\n      jumpi\n        /* \"#utility.yul\":1328:1407   */\n      tag_166\n      tag_85\n      jump\t// in\n    tag_166:\n        /* \"#utility.yul\":1290:1409   */\n    tag_165:\n        /* \"#utility.yul\":1448:1449   */\n      0x00\n        /* \"#utility.yul\":1473:1526   */\n      tag_167\n        /* \"#utility.yul\":1518:1525   */\n      dup6\n        /* \"#utility.yul\":1509:1515   */\n      dup3\n        /* \"#utility.yul\":1498:1507   */\n      dup7\n        /* \"#utility.yul\":1494:1516   */\n      add\n        /* \"#utility.yul\":1473:1526   */\n      tag_90\n      jump\t// in\n    tag_167:\n        /* \"#utility.yul\":1463:1526   */\n      swap3\n      pop\n        /* \"#utility.yul\":1419:1536   */\n      pop\n        /* \"#utility.yul\":1575:1577   */\n      0x20\n        /* \"#utility.yul\":1601:1654   */\n      tag_168\n        /* \"#utility.yul\":1646:1653   */\n      dup6\n        /* \"#utility.yul\":1637:1643   */\n      dup3\n        /* \"#utility.yul\":1626:1635   */\n      dup7\n        /* \"#utility.yul\":1622:1644   */\n      add\n        /* \"#utility.yul\":1601:1654   */\n      tag_93\n      jump\t// in\n    tag_168:\n        /* \"#utility.yul\":1591:1654   */\n      swap2\n      pop\n        /* \"#utility.yul\":1546:1664   */\n      pop\n        /* \"#utility.yul\":1197:1671   */\n      swap3\n      pop\n      swap3\n      swap1\n      pop\n      jump\t// out\n        /* \"#utility.yul\":1677:1795   */\n    tag_94:\n        /* \"#utility.yul\":1764:1788   */\n      tag_170\n        /* \"#utility.yul\":1782:1787   */\n      dup2\n        /* \"#utility.yul\":1764:1788   */\n      tag_88\n      jump\t// in\n    tag_170:\n        /* \"#utility.yul\":1759:1762   */\n      dup3\n        /* \"#utility.yul\":1752:1789   */\n      mstore\n        /* \"#utility.yul\":1677:1795   */\n      pop\n      pop\n      jump\t// out\n        /* \"#utility.yul\":1801:1900   */\n    tag_95:\n        /* \"#utility.yul\":1853:1859   */\n      0x00\n        /* \"#utility.yul\":1887:1892   */\n      dup2\n        /* \"#utility.yul\":1881:1893   */\n      mload\n        /* \"#utility.yul\":1871:1893   */\n      swap1\n      pop\n        /* \"#utility.yul\":1801:1900   */\n      swap2\n      swap1\n      pop\n      jump\t// out\n        /* \"#utility.yul\":1906:2075   */\n    tag_96:\n        /* \"#utility.yul\":1990:2001   */\n      0x00\n        /* \"#utility.yul\":2024:2030   */\n      dup3\n        /* \"#utility.yul\":2019:2022   */\n      dup3\n        /* \"#utility.yul\":2012:2031   */\n      mstore\n        /* \"#utility.yul\":2064:2068   */\n      0x20\n        /* \"#utility.yul\":2059:2062   */\n      dup3\n        /* \"#utility.yul\":2055:2069   */\n      add\n        /* \"#utility.yul\":2040:2069   */\n      swap1\n      pop\n        /* \"#utility.yul\":1906:2075   */\n      swap3\n      swap2\n      pop\n      pop\n      jump\t// out\n        /* \"#utility.yul\":2081:2220   */\n    tag_97:\n        /* \"#utility.yul\":2170:2176   */\n      dup3\n        /* \"#utility.yul\":2165:2168   */\n      dup2\n        /* \"#utility.yul\":2160:2163   */\n      dup4\n        /* \"#utility.yul\":2154:2177   */\n      mcopy\n        /* \"#utility.yul\":2211:2212   */\n      0x00\n        /* \"#utility.yul\":2202:2208   */\n      dup4\n        /* \"#utility.yul\":2197:2200   */\n      dup4\n        /* \"#utility.yul\":2193:2209   */\n      add\n        /* \"#utility.yul\":2186:2213   */\n      mstore\n        /* \"#utility.yul\":2081:2220   */\n      pop\n      pop\n      pop\n      jump\t// out\n        /* \"#utility.yul\":2226:2328   */\n    tag_98:\n        /* \"#utility.yul\":2267:2273   */\n      0x00\n        /* \"#utility.yul\":2318:2320   */\n      0x1f\n        /* \"#utility.yul\":2314:2321   */\n      not\n        /* \"#utility.yul\":2309:2311   */\n      0x1f\n        /* \"#utility.yul\":2302:2307   */\n      dup4\n        /* \"#utility.yul\":2298:2312   */\n      add\n        /* \"#utility.yul\":2294:2322   */\n      and\n        /* \"#utility.yul\":2284:2322   */\n      swap1\n      pop\n        /* \"#utility.yul\":2226:2328   */\n      swap2\n      swap1\n      pop\n      jump\t// out\n        /* \"#utility.yul\":2334:2711   */\n    tag_99:\n        /* \"#utility.yul\":2422:2425   */\n      0x00\n        /* \"#utility.yul\":2450:2489   */\n      tag_176\n        /* \"#utility.yul\":2483:2488   */\n      dup3\n        /* \"#utility.yul\":2450:2489   */\n      tag_95\n      jump\t// in\n    tag_176:\n        /* \"#utility.yul\":2505:2576   */\n      tag_177\n        /* \"#utility.yul\":2569:2575   */\n      dup2\n        /* \"#utility.yul\":2564:2567   */\n      dup6\n        /* \"#utility.yul\":2505:2576   */\n      tag_96\n      jump\t// in\n    tag_177:\n        /* \"#utility.yul\":2498:2576   */\n      swap4\n      pop\n        /* \"#utility.yul\":2585:2650   */\n      tag_178\n        /* \"#utility.yul\":2643:2649   */\n      dup2\n        /* \"#utility.yul\":2638:2641   */\n      dup6\n        /* \"#utility.yul\":2631:2635   */\n      0x20\n        /* \"#utility.yul\":2624:2629   */\n      dup7\n        /* \"#utility.yul\":2620:2636   */\n      add\n        /* \"#utility.yul\":2585:2650   */\n      tag_97\n      jump\t// in\n    tag_178:\n        /* \"#utility.yul\":2675:2704   */\n      tag_179\n        /* \"#utility.yul\":2697:2703   */\n      dup2\n        /* \"#utility.yul\":2675:2704   */\n      tag_98\n      jump\t// in\n    tag_179:\n        /* \"#utility.yul\":2670:2673   */\n      dup5\n        /* \"#utility.yul\":2666:2705   */\n      add\n        /* \"#utility.yul\":2659:2705   */\n      swap2\n      pop\n        /* \"#utility.yul\":2426:2711   */\n      pop\n        /* \"#utility.yul\":2334:2711   */\n      swap3\n      swap2\n      pop\n      pop\n      jump\t// out\n        /* \"#utility.yul\":2717:2835   */\n    tag_100:\n        /* \"#utility.yul\":2804:2828   */\n      tag_181\n        /* \"#utility.yul\":2822:2827   */\n      dup2\n        /* \"#utility.yul\":2804:2828   */\n      tag_91\n      jump\t// in\n    tag_181:\n        /* \"#utility.yul\":2799:2802   */\n      dup3\n        /* \"#utility.yul\":2792:2829   */\n      mstore\n        /* \"#utility.yul\":2717:2835   */\n      pop\n      pop\n      jump\t// out\n        /* \"#utility.yul\":2841:3485   */\n    tag_16:\n        /* \"#utility.yul\":3038:3042   */\n      0x00\n        /* \"#utility.yul\":3076:3079   */\n      0x80\n        /* \"#utility.yul\":3065:3074   */\n      dup3\n        /* \"#utility.yul\":3061:3080   */\n      add\n        /* \"#utility.yul\":3053:3080   */\n      swap1\n      pop\n        /* \"#utility.yul\":3090:3161   */\n      tag_183\n        /* \"#utility.yul\":3158:3159   */\n      0x00\n        /* \"#utility.yul\":3147:3156   */\n      dup4\n        /* \"#utility.yul\":3143:3160   */\n      add\n        /* \"#utility.yul\":3134:3140   */\n      dup8\n        /* \"#utility.yul\":3090:3161   */\n      tag_94\n      jump\t// in\n    tag_183:\n        /* \"#utility.yul\":3208:3217   */\n      dup2\n        /* \"#utility.yul\":3202:3206   */\n      dup2\n        /* \"#utility.yul\":3198:3218   */\n      sub\n        /* \"#utility.yul\":3193:3195   */\n      0x20\n        /* \"#utility.yul\":3182:3191   */\n      dup4\n        /* \"#utility.yul\":3178:3196   */\n      add\n        /* \"#utility.yul\":3171:3219   */\n      mstore\n        /* \"#utility.yul\":3236:3314   */\n      tag_184\n        /* \"#utility.yul\":3309:3313   */\n      dup2\n        /* \"#utility.yul\":3300:3306   */\n      dup7\n        /* \"#utility.yul\":3236:3314   */\n      tag_99\n      jump\t// in\n    tag_184:\n        /* \"#utility.yul\":3228:3314   */\n      swap1\n      pop\n        /* \"#utility.yul\":3324:3396   */\n      tag_185\n        /* \"#utility.yul\":3392:3394   */\n      0x40\n        /* \"#utility.yul\":3381:3390   */\n      dup4\n        /* \"#utility.yul\":3377:3395   */\n      add\n        /* \"#utility.yul\":3368:3374   */\n      dup6\n        /* \"#utility.yul\":3324:3396   */\n      tag_100\n      jump\t// in\n    tag_185:\n        /* \"#utility.yul\":3406:3478   */\n      tag_186\n        /* \"#utility.yul\":3474:3476   */\n      0x60\n        /* \"#utility.yul\":3463:3472   */\n      dup4\n        /* \"#utility.yul\":3459:3477   */\n      add\n        /* \"#utility.yul\":3450:3456   */\n      dup5\n        /* \"#utility.yul\":3406:3478   */\n      tag_100\n      jump\t// in\n    tag_186:\n        /* \"#utility.yul\":2841:3485   */\n      swap6\n      swap5\n      pop\n      pop\n      pop\n      pop\n      pop\n      jump\t// out\n        /* \"#utility.yul\":3491:3626   */\n    tag_101:\n        /* \"#utility.yul\":3579:3585   */\n      0x00\n        /* \"#utility.yul\":3613:3618   */\n      dup2\n        /* \"#utility.yul\":3607:3619   */\n      mload\n        /* \"#utility.yul\":3597:3619   */\n      swap1\n      pop\n        /* \"#utility.yul\":3491:3626   */\n      swap2\n      swap1\n      pop\n      jump\t// out\n        /* \"#utility.yul\":3632:3837   */\n    tag_102:\n        /* \"#utility.yul\":3752:3763   */\n      0x00\n        /* \"#utility.yul\":3786:3792   */\n      dup3\n        /* \"#utility.yul\":3781:3784   */\n      dup3\n        /* \"#utility.yul\":3774:3793   */\n      mstore\n        /* \"#utility.yul\":3826:3830   */\n      0x20\n        /* \"#utility.yul\":3821:3824   */\n      dup3\n        /* \"#utility.yul\":3817:3831   */\n      add\n        /* \"#utility.yul\":3802:3831   */\n      swap1\n      pop\n        /* \"#utility.yul\":3632:3837   */\n      swap3\n      swap2\n      pop\n      pop\n      jump\t// out\n        /* \"#utility.yul\":3843:3996   */\n    tag_103:\n        /* \"#utility.yul\":3931:3935   */\n      0x00\n        /* \"#utility.yul\":3954:3957   */\n      dup2\n        /* \"#utility.yul\":3946:3957   */\n      swap1\n      pop\n        /* \"#utility.yul\":3984:3988   */\n      0x20\n        /* \"#utility.yul\":3979:3982   */\n      dup3\n        /* \"#utility.yul\":3975:3989   */\n      add\n        /* \"#utility.yul\":3967:3989   */\n      swap1\n      pop\n        /* \"#utility.yul\":3843:3996   */\n      swap2\n      swap1\n      pop\n      jump\t// out\n        /* \"#utility.yul\":4002:4110   */\n    tag_104:\n        /* \"#utility.yul\":4079:4103   */\n      tag_191\n        /* \"#utility.yul\":4097:4102   */\n      dup2\n        /* \"#utility.yul\":4079:4103   */\n      tag_88\n      jump\t// in\n    tag_191:\n        /* \"#utility.yul\":4074:4077   */\n      dup3\n        /* \"#utility.yul\":4067:4104   */\n      mstore\n        /* \"#utility.yul\":4002:4110   */\n      pop\n      pop\n      jump\t// out\n        /* \"#utility.yul\":4116:4275   */\n    tag_105:\n        /* \"#utility.yul\":4190:4201   */\n      0x00\n        /* \"#utility.yul\":4224:4230   */\n      dup3\n        /* \"#utility.yul\":4219:4222   */\n      dup3\n        /* \"#utility.yul\":4212:4231   */\n      mstore\n        /* \"#utility.yul\":4264:4268   */\n      0x20\n        /* \"#utility.yul\":4259:4262   */\n      dup3\n        /* \"#utility.yul\":4255:4269   */\n      add\n        /* \"#utility.yul\":4240:4269   */\n      swap1\n      pop\n        /* \"#utility.yul\":4116:4275   */\n      swap3\n      swap2\n      pop\n      pop\n      jump\t// out\n        /* \"#utility.yul\":4281:4638   */\n    tag_106:\n        /* \"#utility.yul\":4359:4362   */\n      0x00\n        /* \"#utility.yul\":4387:4426   */\n      tag_194\n        /* \"#utility.yul\":4420:4425   */\n      dup3\n        /* \"#utility.yul\":4387:4426   */\n      tag_95\n      jump\t// in\n    tag_194:\n        /* \"#utility.yul\":4442:4503   */\n      tag_195\n        /* \"#utility.yul\":4496:4502   */\n      dup2\n        /* \"#utility.yul\":4491:4494   */\n      dup6\n        /* \"#utility.yul\":4442:4503   */\n      tag_105\n      jump\t// in\n    tag_195:\n        /* \"#utility.yul\":4435:4503   */\n      swap4\n      pop\n        /* \"#utility.yul\":4512:4577   */\n      tag_196\n        /* \"#utility.yul\":4570:4576   */\n      dup2\n        /* \"#utility.yul\":4565:4568   */\n      dup6\n        /* \"#utility.yul\":4558:4562   */\n      0x20\n        /* \"#utility.yul\":4551:4556   */\n      dup7\n        /* \"#utility.yul\":4547:4563   */\n      add\n        /* \"#utility.yul\":4512:4577   */\n      tag_97\n      jump\t// in\n    tag_196:\n        /* \"#utility.yul\":4602:4631   */\n      tag_197\n        /* \"#utility.yul\":4624:4630   */\n      dup2\n        /* \"#utility.yul\":4602:4631   */\n      tag_98\n      jump\t// in\n    tag_197:\n        /* \"#utility.yul\":4597:4600   */\n      dup5\n        /* \"#utility.yul\":4593:4632   */\n      add\n        /* \"#utility.yul\":4586:4632   */\n      swap2\n      pop\n        /* \"#utility.yul\":4363:4638   */\n      pop\n        /* \"#utility.yul\":4281:4638   */\n      swap3\n      swap2\n      pop\n      pop\n      jump\t// out\n        /* \"#utility.yul\":4644:4752   */\n    tag_107:\n        /* \"#utility.yul\":4721:4745   */\n      tag_199\n        /* \"#utility.yul\":4739:4744   */\n      dup2\n        /* \"#utility.yul\":4721:4745   */\n      tag_91\n      jump\t// in\n    tag_199:\n        /* \"#utility.yul\":4716:4719   */\n      dup3\n        /* \"#utility.yul\":4709:4746   */\n      mstore\n        /* \"#utility.yul\":4644:4752   */\n      pop\n      pop\n      jump\t// out\n        /* \"#utility.yul\":4810:5757   */\n    tag_108:\n        /* \"#utility.yul\":4911:4914   */\n      0x00\n        /* \"#utility.yul\":4947:4951   */\n      0x80\n        /* \"#utility.yul\":4942:4945   */\n      dup4\n        /* \"#utility.yul\":4938:4952   */\n      add\n        /* \"#utility.yul\":5036:5040   */\n      0x00\n        /* \"#utility.yul\":5029:5034   */\n      dup4\n        /* \"#utility.yul\":5025:5041   */\n      add\n        /* \"#utility.yul\":5019:5042   */\n      mload\n        /* \"#utility.yul\":5055:5118   */\n      tag_201\n        /* \"#utility.yul\":5112:5116   */\n      0x00\n        /* \"#utility.yul\":5107:5110   */\n      dup7\n        /* \"#utility.yul\":5103:5117   */\n      add\n        /* \"#utility.yul\":5089:5101   */\n      dup3\n        /* \"#utility.yul\":5055:5118   */\n      tag_104\n      jump\t// in\n    tag_201:\n        /* \"#utility.yul\":4962:5128   */\n      pop\n        /* \"#utility.yul\":5213:5217   */\n      0x20\n        /* \"#utility.yul\":5206:5211   */\n      dup4\n        /* \"#utility.yul\":5202:5218   */\n      add\n        /* \"#utility.yul\":5196:5219   */\n      mload\n        /* \"#utility.yul\":5266:5269   */\n      dup5\n        /* \"#utility.yul\":5260:5264   */\n      dup3\n        /* \"#utility.yul\":5256:5270   */\n      sub\n        /* \"#utility.yul\":5249:5253   */\n      0x20\n        /* \"#utility.yul\":5244:5247   */\n      dup7\n        /* \"#utility.yul\":5240:5254   */\n      add\n        /* \"#utility.yul\":5233:5271   */\n      mstore\n        /* \"#utility.yul\":5292:5365   */\n      tag_202\n        /* \"#utility.yul\":5360:5364   */\n      dup3\n        /* \"#utility.yul\":5346:5358   */\n      dup3\n        /* \"#utility.yul\":5292:5365   */\n      tag_106\n      jump\t// in\n    tag_202:\n        /* \"#utility.yul\":5284:5365   */\n      swap2\n      pop\n        /* \"#utility.yul\":5138:5376   */\n      pop\n        /* \"#utility.yul\":5463:5467   */\n      0x40\n        /* \"#utility.yul\":5456:5461   */\n      dup4\n        /* \"#utility.yul\":5452:5468   */\n      add\n        /* \"#utility.yul\":5446:5469   */\n      mload\n        /* \"#utility.yul\":5482:5545   */\n      tag_203\n        /* \"#utility.yul\":5539:5543   */\n      0x40\n        /* \"#utility.yul\":5534:5537   */\n      dup7\n        /* \"#utility.yul\":5530:5544   */\n      add\n        /* \"#utility.yul\":5516:5528   */\n      dup3\n        /* \"#utility.yul\":5482:5545   */\n      tag_107\n      jump\t// in\n    tag_203:\n        /* \"#utility.yul\":5386:5555   */\n      pop\n        /* \"#utility.yul\":5638:5642   */\n      0x60\n        /* \"#utility.yul\":5631:5636   */\n      dup4\n        /* \"#utility.yul\":5627:5643   */\n      add\n        /* \"#utility.yul\":5621:5644   */\n      mload\n        /* \"#utility.yul\":5657:5720   */\n      tag_204\n        /* \"#utility.yul\":5714:5718   */\n      0x60\n        /* \"#utility.yul\":5709:5712   */\n      dup7\n        /* \"#utility.yul\":5705:5719   */\n      add\n        /* \"#utility.yul\":5691:5703   */\n      dup3\n        /* \"#utility.yul\":5657:5720   */\n      tag_107\n      jump\t// in\n    tag_204:\n        /* \"#utility.yul\":5565:5730   */\n      pop\n        /* \"#utility.yul\":5747:5751   */\n      dup1\n        /* \"#utility.yul\":5740:5751   */\n      swap2\n      pop\n        /* \"#utility.yul\":4916:5757   */\n      pop\n        /* \"#utility.yul\":4810:5757   */\n      swap3\n      swap2\n      pop\n      pop\n      jump\t// out\n        /* \"#utility.yul\":5763:6003   */\n    tag_109:\n        /* \"#utility.yul\":5874:5884   */\n      0x00\n        /* \"#utility.yul\":5909:5997   */\n      tag_206\n        /* \"#utility.yul\":5993:5996   */\n      dup4\n        /* \"#utility.yul\":5985:5991   */\n      dup4\n        /* \"#utility.yul\":5909:5997   */\n      tag_108\n      jump\t// in\n    tag_206:\n        /* \"#utility.yul\":5895:5997   */\n      swap1\n      pop\n        /* \"#utility.yul\":5763:6003   */\n      swap3\n      swap2\n      pop\n      pop\n      jump\t// out\n        /* \"#utility.yul\":6009:6143   */\n    tag_110:\n        /* \"#utility.yul\":6100:6104   */\n      0x00\n        /* \"#utility.yul\":6132:6136   */\n      0x20\n        /* \"#utility.yul\":6127:6130   */\n      dup3\n        /* \"#utility.yul\":6123:6137   */\n      add\n        /* \"#utility.yul\":6115:6137   */\n      swap1\n      pop\n        /* \"#utility.yul\":6009:6143   */\n      swap2\n      swap1\n      pop\n      jump\t// out\n        /* \"#utility.yul\":6205:7284   */\n    tag_111:\n        /* \"#utility.yul\":6366:6369   */\n      0x00\n        /* \"#utility.yul\":6395:6470   */\n      tag_209\n        /* \"#utility.yul\":6464:6469   */\n      dup3\n        /* \"#utility.yul\":6395:6470   */\n      tag_101\n      jump\t// in\n    tag_209:\n        /* \"#utility.yul\":6486:6593   */\n      tag_210\n        /* \"#utility.yul\":6586:6592   */\n      dup2\n        /* \"#utility.yul\":6581:6584   */\n      dup6\n        /* \"#utility.yul\":6486:6593   */\n      tag_102\n      jump\t// in\n    tag_210:\n        /* \"#utility.yul\":6479:6593   */\n      swap4\n      pop\n        /* \"#utility.yul\":6619:6622   */\n      dup4\n        /* \"#utility.yul\":6664:6668   */\n      0x20\n        /* \"#utility.yul\":6656:6662   */\n      dup3\n        /* \"#utility.yul\":6652:6669   */\n      mul\n        /* \"#utility.yul\":6647:6650   */\n      dup6\n        /* \"#utility.yul\":6643:6670   */\n      add\n        /* \"#utility.yul\":6694:6771   */\n      tag_211\n        /* \"#utility.yul\":6765:6770   */\n      dup6\n        /* \"#utility.yul\":6694:6771   */\n      tag_103\n      jump\t// in\n    tag_211:\n        /* \"#utility.yul\":6794:6801   */\n      dup1\n        /* \"#utility.yul\":6825:6826   */\n      0x00\n        /* \"#utility.yul\":6810:7239   */\n    tag_212:\n        /* \"#utility.yul\":6835:6841   */\n      dup6\n        /* \"#utility.yul\":6832:6833   */\n      dup2\n        /* \"#utility.yul\":6829:6842   */\n      lt\n        /* \"#utility.yul\":6810:7239   */\n      iszero\n      tag_214\n      jumpi\n        /* \"#utility.yul\":6906:6915   */\n      dup5\n        /* \"#utility.yul\":6900:6904   */\n      dup5\n        /* \"#utility.yul\":6896:6916   */\n      sub\n        /* \"#utility.yul\":6891:6894   */\n      dup10\n        /* \"#utility.yul\":6884:6917   */\n      mstore\n        /* \"#utility.yul\":6957:6963   */\n      dup2\n        /* \"#utility.yul\":6951:6964   */\n      mload\n        /* \"#utility.yul\":6985:7091   */\n      tag_215\n        /* \"#utility.yul\":7086:7090   */\n      dup6\n        /* \"#utility.yul\":7071:7084   */\n      dup3\n        /* \"#utility.yul\":6985:7091   */\n      tag_109\n      jump\t// in\n    tag_215:\n        /* \"#utility.yul\":6977:7091   */\n      swap5\n      pop\n        /* \"#utility.yul\":7114:7195   */\n      tag_216\n        /* \"#utility.yul\":7188:7194   */\n      dup4\n        /* \"#utility.yul\":7114:7195   */\n      tag_110\n      jump\t// in\n    tag_216:\n        /* \"#utility.yul\":7104:7195   */\n      swap3\n      pop\n        /* \"#utility.yul\":7224:7228   */\n      0x20\n        /* \"#utility.yul\":7219:7222   */\n      dup11\n        /* \"#utility.yul\":7215:7229   */\n      add\n        /* \"#utility.yul\":7208:7229   */\n      swap10\n      pop\n        /* \"#utility.yul\":6870:7239   */\n      pop\n        /* \"#utility.yul\":6857:6858   */\n      0x01\n        /* \"#utility.yul\":6854:6855   */\n      dup2\n        /* \"#utility.yul\":6850:6859   */\n      add\n        /* \"#utility.yul\":6845:6859   */\n      swap1\n      pop\n        /* \"#utility.yul\":6810:7239   */\n      jump(tag_212)\n    tag_214:\n        /* \"#utility.yul\":6814:6828   */\n      pop\n        /* \"#utility.yul\":7255:7259   */\n      dup3\n        /* \"#utility.yul\":7248:7259   */\n      swap8\n      pop\n        /* \"#utility.yul\":7275:7278   */\n      dup8\n        /* \"#utility.yul\":7268:7278   */\n      swap6\n      pop\n        /* \"#utility.yul\":6371:7284   */\n      pop\n      pop\n      pop\n      pop\n      pop\n        /* \"#utility.yul\":6205:7284   */\n      swap3\n      swap2\n      pop\n      pop\n      jump\t// out\n        /* \"#utility.yul\":7290:7747   */\n    tag_20:\n        /* \"#utility.yul\":7475:7479   */\n      0x00\n        /* \"#utility.yul\":7513:7515   */\n      0x20\n        /* \"#utility.yul\":7502:7511   */\n      dup3\n        /* \"#utility.yul\":7498:7516   */\n      add\n        /* \"#utility.yul\":7490:7516   */\n      swap1\n      pop\n        /* \"#utility.yul\":7562:7571   */\n      dup2\n        /* \"#utility.yul\":7556:7560   */\n      dup2\n        /* \"#utility.yul\":7552:7572   */\n      sub\n        /* \"#utility.yul\":7548:7549   */\n      0x00\n        /* \"#utility.yul\":7537:7546   */\n      dup4\n        /* \"#utility.yul\":7533:7550   */\n      add\n        /* \"#utility.yul\":7526:7573   */\n      mstore\n        /* \"#utility.yul\":7590:7740   */\n      tag_218\n        /* \"#utility.yul\":7735:7739   */\n      dup2\n        /* \"#utility.yul\":7726:7732   */\n      dup5\n        /* \"#utility.yul\":7590:7740   */\n      tag_111\n      jump\t// in\n    tag_218:\n        /* \"#utility.yul\":7582:7740   */\n      swap1\n      pop\n        /* \"#utility.yul\":7290:7747   */\n      swap3\n      swap2\n      pop\n      pop\n      jump\t// out\n        /* \"#utility.yul\":7753:7842   */\n    tag_112:\n        /* \"#utility.yul\":7789:7796   */\n      0x00\n        /* \"#utility.yul\":7829:7835   */\n      0xffff\n        /* \"#utility.yul\":7822:7827   */\n      dup3\n        /* \"#utility.yul\":7818:7836   */\n      and\n        /* \"#utility.yul\":7807:7836   */\n      swap1\n      pop\n        /* \"#utility.yul\":7753:7842   */\n      swap2\n      swap1\n      pop\n      jump\t// out\n        /* \"#utility.yul\":7848:7968   */\n    tag_113:\n        /* \"#utility.yul\":7920:7943   */\n      tag_221\n        /* \"#utility.yul\":7937:7942   */\n      dup2\n        /* \"#utility.yul\":7920:7943   */\n      tag_112\n      jump\t// in\n    tag_221:\n        /* \"#utility.yul\":7913:7918   */\n      dup2\n        /* \"#utility.yul\":7910:7944   */\n      eq\n        /* \"#utility.yul\":7900:7962   */\n      tag_222\n      jumpi\n        /* \"#utility.yul\":7958:7959   */\n      0x00\n        /* \"#utility.yul\":7955:7956   */\n      dup1\n        /* \"#utility.yul\":7948:7960   */\n      revert\n        /* \"#utility.yul\":7900:7962   */\n    tag_222:\n        /* \"#utility.yul\":7848:7968   */\n      pop\n      jump\t// out\n        /* \"#utility.yul\":7974:8111   */\n    tag_114:\n        /* \"#utility.yul\":8019:8024   */\n      0x00\n        /* \"#utility.yul\":8057:8063   */\n      dup2\n        /* \"#utility.yul\":8044:8064   */\n      calldataload\n        /* \"#utility.yul\":8035:8064   */\n      swap1\n      pop\n        /* \"#utility.yul\":8073:8105   */\n      tag_224\n        /* \"#utility.yul\":8099:8104   */\n      dup2\n        /* \"#utility.yul\":8073:8105   */\n      tag_113\n      jump\t// in\n    tag_224:\n        /* \"#utility.yul\":7974:8111   */\n      swap3\n      swap2\n      pop\n      pop\n      jump\t// out\n        /* \"#utility.yul\":8117:8444   */\n    tag_23:\n        /* \"#utility.yul\":8175:8181   */\n      0x00\n        /* \"#utility.yul\":8224:8226   */\n      0x20\n        /* \"#utility.yul\":8212:8221   */\n      dup3\n        /* \"#utility.yul\":8203:8210   */\n      dup5\n        /* \"#utility.yul\":8199:8222   */\n      sub\n        /* \"#utility.yul\":8195:8227   */\n      slt\n        /* \"#utility.yul\":8192:8311   */\n      iszero\n      tag_226\n      jumpi\n        /* \"#utility.yul\":8230:8309   */\n      tag_227\n      tag_85\n      jump\t// in\n    tag_227:\n        /* \"#utility.yul\":8192:8311   */\n    tag_226:\n        /* \"#utility.yul\":8350:8351   */\n      0x00\n        /* \"#utility.yul\":8375:8427   */\n      tag_228\n        /* \"#utility.yul\":8419:8426   */\n      dup5\n        /* \"#utility.yul\":8410:8416   */\n      dup3\n        /* \"#utility.yul\":8399:8408   */\n      dup6\n        /* \"#utility.yul\":8395:8417   */\n      add\n        /* \"#utility.yul\":8375:8427   */\n      tag_114\n      jump\t// in\n    tag_228:\n        /* \"#utility.yul\":8365:8427   */\n      swap2\n      pop\n        /* \"#utility.yul\":8321:8437   */\n      pop\n        /* \"#utility.yul\":8117:8444   */\n      swap3\n      swap2\n      pop\n      pop\n      jump\t// out\n        /* \"#utility.yul\":8450:8565   */\n    tag_115:\n        /* \"#utility.yul\":8535:8558   */\n      tag_230\n        /* \"#utility.yul\":8552:8557   */\n      dup2\n        /* \"#utility.yul\":8535:8558   */\n      tag_112\n      jump\t// in\n    tag_230:\n        /* \"#utility.yul\":8530:8533   */\n      dup3\n        /* \"#utility.yul\":8523:8559   */\n      mstore\n        /* \"#utility.yul\":8450:8565   */\n      pop\n      pop\n      jump\t// out\n        /* \"#utility.yul\":8571:8789   */\n    tag_28:\n        /* \"#utility.yul\":8662:8666   */\n      0x00\n        /* \"#utility.yul\":8700:8702   */\n      0x20\n        /* \"#utility.yul\":8689:8698   */\n      dup3\n        /* \"#utility.yul\":8685:8703   */\n      add\n        /* \"#utility.yul\":8677:8703   */\n      swap1\n      pop\n        /* \"#utility.yul\":8713:8782   */\n      tag_232\n        /* \"#utility.yul\":8779:8780   */\n      0x00\n        /* \"#utility.yul\":8768:8777   */\n      dup4\n        /* \"#utility.yul\":8764:8781   */\n      add\n        /* \"#utility.yul\":8755:8761   */\n      dup5\n        /* \"#utility.yul\":8713:8782   */\n      tag_115\n      jump\t// in\n    tag_232:\n        /* \"#utility.yul\":8571:8789   */\n      swap3\n      swap2\n      pop\n      pop\n      jump\t// out\n        /* \"#utility.yul\":8795:8912   */\n    tag_116:\n        /* \"#utility.yul\":8904:8905   */\n      0x00\n        /* \"#utility.yul\":8901:8902   */\n      dup1\n        /* \"#utility.yul\":8894:8906   */\n      revert\n        /* \"#utility.yul\":8918:9035   */\n    tag_117:\n        /* \"#utility.yul\":9027:9028   */\n      0x00\n        /* \"#utility.yul\":9024:9025   */\n      dup1\n        /* \"#utility.yul\":9017:9029   */\n      revert\n        /* \"#utility.yul\":9041:9221   */\n    tag_118:\n        /* \"#utility.yul\":9089:9166   */\n      0x4e487b7100000000000000000000000000000000000000000000000000000000\n        /* \"#utility.yul\":9086:9087   */\n      0x00\n        /* \"#utility.yul\":9079:9167   */\n      mstore\n        /* \"#utility.yul\":9186:9190   */\n      0x41\n        /* \"#utility.yul\":9183:9184   */\n      0x04\n        /* \"#utility.yul\":9176:9191   */\n      mstore\n        /* \"#utility.yul\":9210:9214   */\n      0x24\n        /* \"#utility.yul\":9207:9208   */\n      0x00\n        /* \"#utility.yul\":9200:9215   */\n      revert\n        /* \"#utility.yul\":9227:9508   */\n    tag_119:\n        /* \"#utility.yul\":9310:9337   */\n      tag_237\n        /* \"#utility.yul\":9332:9336   */\n      dup3\n        /* \"#utility.yul\":9310:9337   */\n      tag_98\n      jump\t// in\n    tag_237:\n        /* \"#utility.yul\":9302:9308   */\n      dup2\n        /* \"#utility.yul\":9298:9338   */\n      add\n        /* \"#utility.yul\":9440:9446   */\n      dup2\n        /* \"#utility.yul\":9428:9438   */\n      dup2\n        /* \"#utility.yul\":9425:9447   */\n      lt\n        /* \"#utility.yul\":9404:9422   */\n      0xffffffffffffffff\n        /* \"#utility.yul\":9392:9402   */\n      dup3\n        /* \"#utility.yul\":9389:9423   */\n      gt\n        /* \"#utility.yul\":9386:9448   */\n      or\n        /* \"#utility.yul\":9383:9471   */\n      iszero\n      tag_238\n      jumpi\n        /* \"#utility.yul\":9451:9469   */\n      tag_239\n      tag_118\n      jump\t// in\n    tag_239:\n        /* \"#utility.yul\":9383:9471   */\n    tag_238:\n        /* \"#utility.yul\":9491:9501   */\n      dup1\n        /* \"#utility.yul\":9487:9489   */\n      0x40\n        /* \"#utility.yul\":9480:9502   */\n      mstore\n        /* \"#utility.yul\":9270:9508   */\n      pop\n        /* \"#utility.yul\":9227:9508   */\n      pop\n      pop\n      jump\t// out\n        /* \"#utility.yul\":9514:9643   */\n    tag_120:\n        /* \"#utility.yul\":9548:9554   */\n      0x00\n        /* \"#utility.yul\":9575:9595   */\n      tag_241\n      tag_84\n      jump\t// in\n    tag_241:\n        /* \"#utility.yul\":9565:9595   */\n      swap1\n      pop\n        /* \"#utility.yul\":9604:9637   */\n      tag_242\n        /* \"#utility.yul\":9632:9636   */\n      dup3\n        /* \"#utility.yul\":9624:9630   */\n      dup3\n        /* \"#utility.yul\":9604:9637   */\n      tag_119\n      jump\t// in\n    tag_242:\n        /* \"#utility.yul\":9514:9643   */\n      swap2\n      swap1\n      pop\n      jump\t// out\n        /* \"#utility.yul\":9649:9957   */\n    tag_121:\n        /* \"#utility.yul\":9711:9715   */\n      0x00\n        /* \"#utility.yul\":9801:9819   */\n      0xffffffffffffffff\n        /* \"#utility.yul\":9793:9799   */\n      dup3\n        /* \"#utility.yul\":9790:9820   */\n      gt\n        /* \"#utility.yul\":9787:9843   */\n      iszero\n      tag_244\n      jumpi\n        /* \"#utility.yul\":9823:9841   */\n      tag_245\n      tag_118\n      jump\t// in\n    tag_245:\n        /* \"#utility.yul\":9787:9843   */\n    tag_244:\n        /* \"#utility.yul\":9861:9890   */\n      tag_246\n        /* \"#utility.yul\":9883:9889   */\n      dup3\n        /* \"#utility.yul\":9861:9890   */\n      tag_98\n      jump\t// in\n    tag_246:\n        /* \"#utility.yul\":9853:9890   */\n      swap1\n      pop\n        /* \"#utility.yul\":9945:9949   */\n      0x20\n        /* \"#utility.yul\":9939:9943   */\n      dup2\n        /* \"#utility.yul\":9935:9950   */\n      add\n        /* \"#utility.yul\":9927:9950   */\n      swap1\n      pop\n        /* \"#utility.yul\":9649:9957   */\n      swap2\n      swap1\n      pop\n      jump\t// out\n        /* \"#utility.yul\":9963:10111   */\n    tag_122:\n        /* \"#utility.yul\":10061:10067   */\n      dup3\n        /* \"#utility.yul\":10056:10059   */\n      dup2\n        /* \"#utility.yul\":10051:10054   */\n      dup4\n        /* \"#utility.yul\":10038:10068   */\n      calldatacopy\n        /* \"#utility.yul\":10102:10103   */\n      0x00\n        /* \"#utility.yul\":10093:10099   */\n      dup4\n        /* \"#utility.yul\":10088:10091   */\n      dup4\n        /* \"#utility.yul\":10084:10100   */\n      add\n        /* \"#utility.yul\":10077:10104   */\n      mstore\n        /* \"#utility.yul\":9963:10111   */\n      pop\n      pop\n      pop\n      jump\t// out\n        /* \"#utility.yul\":10117:10542   */\n    tag_123:\n        /* \"#utility.yul\":10195:10200   */\n      0x00\n        /* \"#utility.yul\":10220:10286   */\n      tag_249\n        /* \"#utility.yul\":10236:10285   */\n      tag_250\n        /* \"#utility.yul\":10278:10284   */\n      dup5\n        /* \"#utility.yul\":10236:10285   */\n      tag_121\n      jump\t// in\n    tag_250:\n        /* \"#utility.yul\":10220:10286   */\n      tag_120\n      jump\t// in\n    tag_249:\n        /* \"#utility.yul\":10211:10286   */\n      swap1\n      pop\n        /* \"#utility.yul\":10309:10315   */\n      dup3\n        /* \"#utility.yul\":10302:10307   */\n      dup2\n        /* \"#utility.yul\":10295:10316   */\n      mstore\n        /* \"#utility.yul\":10347:10351   */\n      0x20\n        /* \"#utility.yul\":10340:10345   */\n      dup2\n        /* \"#utility.yul\":10336:10352   */\n      add\n        /* \"#utility.yul\":10385:10388   */\n      dup5\n        /* \"#utility.yul\":10376:10382   */\n      dup5\n        /* \"#utility.yul\":10371:10374   */\n      dup5\n        /* \"#utility.yul\":10367:10383   */\n      add\n        /* \"#utility.yul\":10364:10389   */\n      gt\n        /* \"#utility.yul\":10361:10473   */\n      iszero\n      tag_251\n      jumpi\n        /* \"#utility.yul\":10392:10471   */\n      tag_252\n      tag_117\n      jump\t// in\n    tag_252:\n        /* \"#utility.yul\":10361:10473   */\n    tag_251:\n        /* \"#utility.yul\":10482:10536   */\n      tag_253\n        /* \"#utility.yul\":10529:10535   */\n      dup5\n        /* \"#utility.yul\":10524:10527   */\n      dup3\n        /* \"#utility.yul\":10519:10522   */\n      dup6\n        /* \"#utility.yul\":10482:10536   */\n      tag_122\n      jump\t// in\n    tag_253:\n        /* \"#utility.yul\":10201:10542   */\n      pop\n        /* \"#utility.yul\":10117:10542   */\n      swap4\n      swap3\n      pop\n      pop\n      pop\n      jump\t// out\n        /* \"#utility.yul\":10562:10902   */\n    tag_124:\n        /* \"#utility.yul\":10618:10623   */\n      0x00\n        /* \"#utility.yul\":10667:10670   */\n      dup3\n        /* \"#utility.yul\":10660:10664   */\n      0x1f\n        /* \"#utility.yul\":10652:10658   */\n      dup4\n        /* \"#utility.yul\":10648:10665   */\n      add\n        /* \"#utility.yul\":10644:10671   */\n      slt\n        /* \"#utility.yul\":10634:10756   */\n      tag_255\n      jumpi\n        /* \"#utility.yul\":10675:10754   */\n      tag_256\n      tag_116\n      jump\t// in\n    tag_256:\n        /* \"#utility.yul\":10634:10756   */\n    tag_255:\n        /* \"#utility.yul\":10792:10798   */\n      dup2\n        /* \"#utility.yul\":10779:10799   */\n      calldataload\n        /* \"#utility.yul\":10817:10896   */\n      tag_257\n        /* \"#utility.yul\":10892:10895   */\n      dup5\n        /* \"#utility.yul\":10884:10890   */\n      dup3\n        /* \"#utility.yul\":10877:10881   */\n      0x20\n        /* \"#utility.yul\":10869:10875   */\n      dup7\n        /* \"#utility.yul\":10865:10882   */\n      add\n        /* \"#utility.yul\":10817:10896   */\n      tag_123\n      jump\t// in\n    tag_257:\n        /* \"#utility.yul\":10808:10896   */\n      swap2\n      pop\n        /* \"#utility.yul\":10624:10902   */\n      pop\n        /* \"#utility.yul\":10562:10902   */\n      swap3\n      swap2\n      pop\n      pop\n      jump\t// out\n        /* \"#utility.yul\":10908:11417   */\n    tag_31:\n        /* \"#utility.yul\":10977:10983   */\n      0x00\n        /* \"#utility.yul\":11026:11028   */\n      0x20\n        /* \"#utility.yul\":11014:11023   */\n      dup3\n        /* \"#utility.yul\":11005:11012   */\n      dup5\n        /* \"#utility.yul\":11001:11024   */\n      sub\n        /* \"#utility.yul\":10997:11029   */\n      slt\n        /* \"#utility.yul\":10994:11113   */\n      iszero\n      tag_259\n      jumpi\n        /* \"#utility.yul\":11032:11111   */\n      tag_260\n      tag_85\n      jump\t// in\n    tag_260:\n        /* \"#utility.yul\":10994:11113   */\n    tag_259:\n        /* \"#utility.yul\":11180:11181   */\n      0x00\n        /* \"#utility.yul\":11169:11178   */\n      dup3\n        /* \"#utility.yul\":11165:11182   */\n      add\n        /* \"#utility.yul\":11152:11183   */\n      calldataload\n        /* \"#utility.yul\":11210:11228   */\n      0xffffffffffffffff\n        /* \"#utility.yul\":11202:11208   */\n      dup2\n        /* \"#utility.yul\":11199:11229   */\n      gt\n        /* \"#utility.yul\":11196:11313   */\n      iszero\n      tag_261\n      jumpi\n        /* \"#utility.yul\":11232:11311   */\n      tag_262\n      tag_86\n      jump\t// in\n    tag_262:\n        /* \"#utility.yul\":11196:11313   */\n    tag_261:\n        /* \"#utility.yul\":11337:11400   */\n      tag_263\n        /* \"#utility.yul\":11392:11399   */\n      dup5\n        /* \"#utility.yul\":11383:11389   */\n      dup3\n        /* \"#utility.yul\":11372:11381   */\n      dup6\n        /* \"#utility.yul\":11368:11390   */\n      add\n        /* \"#utility.yul\":11337:11400   */\n      tag_124\n      jump\t// in\n    tag_263:\n        /* \"#utility.yul\":11327:11400   */\n      swap2\n      pop\n        /* \"#utility.yul\":11123:11410   */\n      pop\n        /* \"#utility.yul\":10908:11417   */\n      swap3\n      swap2\n      pop\n      pop\n      jump\t// out\n        /* \"#utility.yul\":11423:11645   */\n    tag_36:\n        /* \"#utility.yul\":11516:11520   */\n      0x00\n        /* \"#utility.yul\":11554:11556   */\n      0x20\n        /* \"#utility.yul\":11543:11552   */\n      dup3\n        /* \"#utility.yul\":11539:11557   */\n      add\n        /* \"#utility.yul\":11531:11557   */\n      swap1\n      pop\n        /* \"#utility.yul\":11567:11638   */\n      tag_265\n        /* \"#utility.yul\":11635:11636   */\n      0x00\n        /* \"#utility.yul\":11624:11633   */\n      dup4\n        /* \"#utility.yul\":11620:11637   */\n      add\n        /* \"#utility.yul\":11611:11617   */\n      dup5\n        /* \"#utility.yul\":11567:11638   */\n      tag_94\n      jump\t// in\n    tag_265:\n        /* \"#utility.yul\":11423:11645   */\n      swap3\n      swap2\n      pop\n      pop\n      jump\t// out\n        /* \"#utility.yul\":11651:11980   */\n    tag_39:\n        /* \"#utility.yul\":11710:11716   */\n      0x00\n        /* \"#utility.yul\":11759:11761   */\n      0x20\n        /* \"#utility.yul\":11747:11756   */\n      dup3\n        /* \"#utility.yul\":11738:11745   */\n      dup5\n        /* \"#utility.yul\":11734:11757   */\n      sub\n        /* \"#utility.yul\":11730:11762   */\n      slt\n        /* \"#utility.yul\":11727:11846   */\n      iszero\n      tag_267\n      jumpi\n        /* \"#utility.yul\":11765:11844   */\n      tag_268\n      tag_85\n      jump\t// in\n    tag_268:\n        /* \"#utility.yul\":11727:11846   */\n    tag_267:\n        /* \"#utility.yul\":11885:11886   */\n      0x00\n        /* \"#utility.yul\":11910:11963   */\n      tag_269\n        /* \"#utility.yul\":11955:11962   */\n      dup5\n        /* \"#utility.yul\":11946:11952   */\n      dup3\n        /* \"#utility.yul\":11935:11944   */\n      dup6\n        /* \"#utility.yul\":11931:11953   */\n      add\n        /* \"#utility.yul\":11910:11963   */\n      tag_93\n      jump\t// in\n    tag_269:\n        /* \"#utility.yul\":11900:11963   */\n      swap2\n      pop\n        /* \"#utility.yul\":11856:11973   */\n      pop\n        /* \"#utility.yul\":11651:11980   */\n      swap3\n      swap2\n      pop\n      pop\n      jump\t// out\n        /* \"#utility.yul\":12038:12995   */\n    tag_125:\n        /* \"#utility.yul\":12149:12152   */\n      0x00\n        /* \"#utility.yul\":12185:12189   */\n      0x80\n        /* \"#utility.yul\":12180:12183   */\n      dup4\n        /* \"#utility.yul\":12176:12190   */\n      add\n        /* \"#utility.yul\":12274:12278   */\n      0x00\n        /* \"#utility.yul\":12267:12272   */\n      dup4\n        /* \"#utility.yul\":12263:12279   */\n      add\n        /* \"#utility.yul\":12257:12280   */\n      mload\n        /* \"#utility.yul\":12293:12356   */\n      tag_271\n        /* \"#utility.yul\":12350:12354   */\n      0x00\n        /* \"#utility.yul\":12345:12348   */\n      dup7\n        /* \"#utility.yul\":12341:12355   */\n      add\n        /* \"#utility.yul\":12327:12339   */\n      dup3\n        /* \"#utility.yul\":12293:12356   */\n      tag_104\n      jump\t// in\n    tag_271:\n        /* \"#utility.yul\":12200:12366   */\n      pop\n        /* \"#utility.yul\":12451:12455   */\n      0x20\n        /* \"#utility.yul\":12444:12449   */\n      dup4\n        /* \"#utility.yul\":12440:12456   */\n      add\n        /* \"#utility.yul\":12434:12457   */\n      mload\n        /* \"#utility.yul\":12504:12507   */\n      dup5\n        /* \"#utility.yul\":12498:12502   */\n      dup3\n        /* \"#utility.yul\":12494:12508   */\n      sub\n        /* \"#utility.yul\":12487:12491   */\n      0x20\n        /* \"#utility.yul\":12482:12485   */\n      dup7\n        /* \"#utility.yul\":12478:12492   */\n      add\n        /* \"#utility.yul\":12471:12509   */\n      mstore\n        /* \"#utility.yul\":12530:12603   */\n      tag_272\n        /* \"#utility.yul\":12598:12602   */\n      dup3\n        /* \"#utility.yul\":12584:12596   */\n      dup3\n        /* \"#utility.yul\":12530:12603   */\n      tag_106\n      jump\t// in\n    tag_272:\n        /* \"#utility.yul\":12522:12603   */\n      swap2\n      pop\n        /* \"#utility.yul\":12376:12614   */\n      pop\n        /* \"#utility.yul\":12701:12705   */\n      0x40\n        /* \"#utility.yul\":12694:12699   */\n      dup4\n        /* \"#utility.yul\":12690:12706   */\n      add\n        /* \"#utility.yul\":12684:12707   */\n      mload\n        /* \"#utility.yul\":12720:12783   */\n      tag_273\n        /* \"#utility.yul\":12777:12781   */\n      0x40\n        /* \"#utility.yul\":12772:12775   */\n      dup7\n        /* \"#utility.yul\":12768:12782   */\n      add\n        /* \"#utility.yul\":12754:12766   */\n      dup3\n        /* \"#utility.yul\":12720:12783   */\n      tag_107\n      jump\t// in\n    tag_273:\n        /* \"#utility.yul\":12624:12793   */\n      pop\n        /* \"#utility.yul\":12876:12880   */\n      0x60\n        /* \"#utility.yul\":12869:12874   */\n      dup4\n        /* \"#utility.yul\":12865:12881   */\n      add\n        /* \"#utility.yul\":12859:12882   */\n      mload\n        /* \"#utility.yul\":12895:12958   */\n      tag_274\n        /* \"#utility.yul\":12952:12956   */\n      0x60\n        /* \"#utility.yul\":12947:12950   */\n      dup7\n        /* \"#utility.yul\":12943:12957   */\n      add\n        /* \"#utility.yul\":12929:12941   */\n      dup3\n        /* \"#utility.yul\":12895:12958   */\n      tag_107\n      jump\t// in\n    tag_274:\n        /* \"#utility.yul\":12803:12968   */\n      pop\n        /* \"#utility.yul\":12985:12989   */\n      dup1\n        /* \"#utility.yul\":12978:12989   */\n      swap2\n      pop\n        /* \"#utility.yul\":12154:12995   */\n      pop\n        /* \"#utility.yul\":12038:12995   */\n      swap3\n      swap2\n      pop\n      pop\n      jump\t// out\n        /* \"#utility.yul\":13001:13358   */\n    tag_42:\n        /* \"#utility.yul\":13136:13140   */\n      0x00\n        /* \"#utility.yul\":13174:13176   */\n      0x20\n        /* \"#utility.yul\":13163:13172   */\n      dup3\n        /* \"#utility.yul\":13159:13177   */\n      add\n        /* \"#utility.yul\":13151:13177   */\n      swap1\n      pop\n        /* \"#utility.yul\":13223:13232   */\n      dup2\n        /* \"#utility.yul\":13217:13221   */\n      dup2\n        /* \"#utility.yul\":13213:13233   */\n      sub\n        /* \"#utility.yul\":13209:13210   */\n      0x00\n        /* \"#utility.yul\":13198:13207   */\n      dup4\n        /* \"#utility.yul\":13194:13211   */\n      add\n        /* \"#utility.yul\":13187:13234   */\n      mstore\n        /* \"#utility.yul\":13251:13351   */\n      tag_276\n        /* \"#utility.yul\":13346:13350   */\n      dup2\n        /* \"#utility.yul\":13337:13343   */\n      dup5\n        /* \"#utility.yul\":13251:13351   */\n      tag_125\n      jump\t// in\n    tag_276:\n        /* \"#utility.yul\":13243:13351   */\n      swap1\n      pop\n        /* \"#utility.yul\":13001:13358   */\n      swap3\n      swap2\n      pop\n      pop\n      jump\t// out\n        /* \"#utility.yul\":13364:13544   */\n    tag_126:\n        /* \"#utility.yul\":13412:13489   */\n      0x4e487b7100000000000000000000000000000000000000000000000000000000\n        /* \"#utility.yul\":13409:13410   */\n      0x00\n        /* \"#utility.yul\":13402:13490   */\n      mstore\n        /* \"#utility.yul\":13509:13513   */\n      0x22\n        /* \"#utility.yul\":13506:13507   */\n      0x04\n        /* \"#utility.yul\":13499:13514   */\n      mstore\n        /* \"#utility.yul\":13533:13537   */\n      0x24\n        /* \"#utility.yul\":13530:13531   */\n      0x00\n        /* \"#utility.yul\":13523:13538   */\n      revert\n        /* \"#utility.yul\":13550:13870   */\n    tag_46:\n        /* \"#utility.yul\":13594:13600   */\n      0x00\n        /* \"#utility.yul\":13631:13632   */\n      0x02\n        /* \"#utility.yul\":13625:13629   */\n      dup3\n        /* \"#utility.yul\":13621:13633   */\n      div\n        /* \"#utility.yul\":13611:13633   */\n      swap1\n      pop\n        /* \"#utility.yul\":13678:13679   */\n      0x01\n        /* \"#utility.yul\":13672:13676   */\n      dup3\n        /* \"#utility.yul\":13668:13680   */\n      and\n        /* \"#utility.yul\":13699:13717   */\n      dup1\n        /* \"#utility.yul\":13689:13770   */\n      tag_279\n      jumpi\n        /* \"#utility.yul\":13755:13759   */\n      0x7f\n        /* \"#utility.yul\":13747:13753   */\n      dup3\n        /* \"#utility.yul\":13743:13760   */\n      and\n        /* \"#utility.yul\":13733:13760   */\n      swap2\n      pop\n        /* \"#utility.yul\":13689:13770   */\n    tag_279:\n        /* \"#utility.yul\":13817:13819   */\n      0x20\n        /* \"#utility.yul\":13809:13815   */\n      dup3\n        /* \"#utility.yul\":13806:13820   */\n      lt\n        /* \"#utility.yul\":13786:13804   */\n      dup2\n        /* \"#utility.yul\":13783:13821   */\n      sub\n        /* \"#utility.yul\":13780:13864   */\n      tag_280\n      jumpi\n        /* \"#utility.yul\":13836:13854   */\n      tag_281\n      tag_126\n      jump\t// in\n    tag_281:\n        /* \"#utility.yul\":13780:13864   */\n    tag_280:\n        /* \"#utility.yul\":13601:13870   */\n      pop\n        /* \"#utility.yul\":13550:13870   */\n      swap2\n      swap1\n      pop\n      jump\t// out\n        /* \"#utility.yul\":13876:14047   */\n    tag_127:\n        /* \"#utility.yul\":14016:14039   */\n      0x594f5520415245204e4f5420544845204f574e45210000000000000000000000\n        /* \"#utility.yul\":14012:14013   */\n      0x00\n        /* \"#utility.yul\":14004:14010   */\n      dup3\n        /* \"#utility.yul\":14000:14014   */\n      add\n        /* \"#utility.yul\":13993:14040   */\n      mstore\n        /* \"#utility.yul\":13876:14047   */\n      pop\n      jump\t// out\n        /* \"#utility.yul\":14053:14419   */\n    tag_128:\n        /* \"#utility.yul\":14195:14198   */\n      0x00\n        /* \"#utility.yul\":14216:14283   */\n      tag_284\n        /* \"#utility.yul\":14280:14282   */\n      0x15\n        /* \"#utility.yul\":14275:14278   */\n      dup4\n        /* \"#utility.yul\":14216:14283   */\n      tag_96\n      jump\t// in\n    tag_284:\n        /* \"#utility.yul\":14209:14283   */\n      swap2\n      pop\n        /* \"#utility.yul\":14292:14385   */\n      tag_285\n        /* \"#utility.yul\":14381:14384   */\n      dup3\n        /* \"#utility.yul\":14292:14385   */\n      tag_127\n      jump\t// in\n    tag_285:\n        /* \"#utility.yul\":14410:14412   */\n      0x20\n        /* \"#utility.yul\":14405:14408   */\n      dup3\n        /* \"#utility.yul\":14401:14413   */\n      add\n        /* \"#utility.yul\":14394:14413   */\n      swap1\n      pop\n        /* \"#utility.yul\":14053:14419   */\n      swap2\n      swap1\n      pop\n      jump\t// out\n        /* \"#utility.yul\":14425:14844   */\n    tag_63:\n        /* \"#utility.yul\":14591:14595   */\n      0x00\n        /* \"#utility.yul\":14629:14631   */\n      0x20\n        /* \"#utility.yul\":14618:14627   */\n      dup3\n        /* \"#utility.yul\":14614:14632   */\n      add\n        /* \"#utility.yul\":14606:14632   */\n      swap1\n      pop\n        /* \"#utility.yul\":14678:14687   */\n      dup2\n        /* \"#utility.yul\":14672:14676   */\n      dup2\n        /* \"#utility.yul\":14668:14688   */\n      sub\n        /* \"#utility.yul\":14664:14665   */\n      0x00\n        /* \"#utility.yul\":14653:14662   */\n      dup4\n        /* \"#utility.yul\":14649:14666   */\n      add\n        /* \"#utility.yul\":14642:14689   */\n      mstore\n        /* \"#utility.yul\":14706:14837   */\n      tag_287\n        /* \"#utility.yul\":14832:14836   */\n      dup2\n        /* \"#utility.yul\":14706:14837   */\n      tag_128\n      jump\t// in\n    tag_287:\n        /* \"#utility.yul\":14698:14837   */\n      swap1\n      pop\n        /* \"#utility.yul\":14425:14844   */\n      swap2\n      swap1\n      pop\n      jump\t// out\n        /* \"#utility.yul\":14850:15023   */\n    tag_129:\n        /* \"#utility.yul\":14990:15015   */\n      0x5468697320547765657420697320746f6f206c6f6e6721000000000000000000\n        /* \"#utility.yul\":14986:14987   */\n      0x00\n        /* \"#utility.yul\":14978:14984   */\n      dup3\n        /* \"#utility.yul\":14974:14988   */\n      add\n        /* \"#utility.yul\":14967:15016   */\n      mstore\n        /* \"#utility.yul\":14850:15023   */\n      pop\n      jump\t// out\n        /* \"#utility.yul\":15029:15395   */\n    tag_130:\n        /* \"#utility.yul\":15171:15174   */\n      0x00\n        /* \"#utility.yul\":15192:15259   */\n      tag_290\n        /* \"#utility.yul\":15256:15258   */\n      0x17\n        /* \"#utility.yul\":15251:15254   */\n      dup4\n        /* \"#utility.yul\":15192:15259   */\n      tag_96\n      jump\t// in\n    tag_290:\n        /* \"#utility.yul\":15185:15259   */\n      swap2\n      pop\n        /* \"#utility.yul\":15268:15361   */\n      tag_291\n        /* \"#utility.yul\":15357:15360   */\n      dup3\n        /* \"#utility.yul\":15268:15361   */\n      tag_129\n      jump\t// in\n    tag_291:\n        /* \"#utility.yul\":15386:15388   */\n      0x20\n        /* \"#utility.yul\":15381:15384   */\n      dup3\n        /* \"#utility.yul\":15377:15389   */\n      add\n        /* \"#utility.yul\":15370:15389   */\n      swap1\n      pop\n        /* \"#utility.yul\":15029:15395   */\n      swap2\n      swap1\n      pop\n      jump\t// out\n        /* \"#utility.yul\":15401:15820   */\n    tag_68:\n        /* \"#utility.yul\":15567:15571   */\n      0x00\n        /* \"#utility.yul\":15605:15607   */\n      0x20\n        /* \"#utility.yul\":15594:15603   */\n      dup3\n        /* \"#utility.yul\":15590:15608   */\n      add\n        /* \"#utility.yul\":15582:15608   */\n      swap1\n      pop\n        /* \"#utility.yul\":15654:15663   */\n      dup2\n        /* \"#utility.yul\":15648:15652   */\n      dup2\n        /* \"#utility.yul\":15644:15664   */\n      sub\n        /* \"#utility.yul\":15640:15641   */\n      0x00\n        /* \"#utility.yul\":15629:15638   */\n      dup4\n        /* \"#utility.yul\":15625:15642   */\n      add\n        /* \"#utility.yul\":15618:15665   */\n      mstore\n        /* \"#utility.yul\":15682:15813   */\n      tag_293\n        /* \"#utility.yul\":15808:15812   */\n      dup2\n        /* \"#utility.yul\":15682:15813   */\n      tag_130\n      jump\t// in\n    tag_293:\n        /* \"#utility.yul\":15674:15813   */\n      swap1\n      pop\n        /* \"#utility.yul\":15401:15820   */\n      swap2\n      swap1\n      pop\n      jump\t// out\n        /* \"#utility.yul\":15826:15967   */\n    tag_131:\n        /* \"#utility.yul\":15875:15879   */\n      0x00\n        /* \"#utility.yul\":15898:15901   */\n      dup2\n        /* \"#utility.yul\":15890:15901   */\n      swap1\n      pop\n        /* \"#utility.yul\":15921:15924   */\n      dup2\n        /* \"#utility.yul\":15918:15919   */\n      0x00\n        /* \"#utility.yul\":15911:15925   */\n      mstore\n        /* \"#utility.yul\":15955:15959   */\n      0x20\n        /* \"#utility.yul\":15952:15953   */\n      0x00\n        /* \"#utility.yul\":15942:15960   */\n      keccak256\n        /* \"#utility.yul\":15934:15960   */\n      swap1\n      pop\n        /* \"#utility.yul\":15826:15967   */\n      swap2\n      swap1\n      pop\n      jump\t// out\n        /* \"#utility.yul\":15973:16066   */\n    tag_132:\n        /* \"#utility.yul\":16010:16016   */\n      0x00\n        /* \"#utility.yul\":16057:16059   */\n      0x20\n        /* \"#utility.yul\":16052:16054   */\n      0x1f\n        /* \"#utility.yul\":16045:16050   */\n      dup4\n        /* \"#utility.yul\":16041:16055   */\n      add\n        /* \"#utility.yul\":16037:16060   */\n      div\n        /* \"#utility.yul\":16027:16060   */\n      swap1\n      pop\n        /* \"#utility.yul\":15973:16066   */\n      swap2\n      swap1\n      pop\n      jump\t// out\n        /* \"#utility.yul\":16072:16179   */\n    tag_133:\n        /* \"#utility.yul\":16116:16124   */\n      0x00\n        /* \"#utility.yul\":16166:16171   */\n      dup3\n        /* \"#utility.yul\":16160:16164   */\n      dup3\n        /* \"#utility.yul\":16156:16172   */\n      shl\n        /* \"#utility.yul\":16135:16172   */\n      swap1\n      pop\n        /* \"#utility.yul\":16072:16179   */\n      swap3\n      swap2\n      pop\n      pop\n      jump\t// out\n        /* \"#utility.yul\":16185:16578   */\n    tag_134:\n        /* \"#utility.yul\":16254:16260   */\n      0x00\n        /* \"#utility.yul\":16304:16305   */\n      0x08\n        /* \"#utility.yul\":16292:16302   */\n      dup4\n        /* \"#utility.yul\":16288:16306   */\n      mul\n        /* \"#utility.yul\":16327:16424   */\n      tag_298\n        /* \"#utility.yul\":16357:16423   */\n      0xffffffffffffffffffffffffffffffffffffffffffffffffffffffffffffffff\n        /* \"#utility.yul\":16346:16355   */\n      dup3\n        /* \"#utility.yul\":16327:16424   */\n      tag_133\n      jump\t// in\n    tag_298:\n        /* \"#utility.yul\":16445:16484   */\n      tag_299\n        /* \"#utility.yul\":16475:16483   */\n      dup7\n        /* \"#utility.yul\":16464:16473   */\n      dup4\n        /* \"#utility.yul\":16445:16484   */\n      tag_133\n      jump\t// in\n    tag_299:\n        /* \"#utility.yul\":16433:16484   */\n      swap6\n      pop\n        /* \"#utility.yul\":16517:16521   */\n      dup1\n        /* \"#utility.yul\":16513:16522   */\n      not\n        /* \"#utility.yul\":16506:16511   */\n      dup5\n        /* \"#utility.yul\":16502:16523   */\n      and\n        /* \"#utility.yul\":16493:16523   */\n      swap4\n      pop\n        /* \"#utility.yul\":16566:16570   */\n      dup1\n        /* \"#utility.yul\":16556:16564   */\n      dup7\n        /* \"#utility.yul\":16552:16571   */\n      and\n        /* \"#utility.yul\":16545:16550   */\n      dup5\n        /* \"#utility.yul\":16542:16572   */\n      or\n        /* \"#utility.yul\":16532:16572   */\n      swap3\n      pop\n        /* \"#utility.yul\":16261:16578   */\n      pop\n      pop\n        /* \"#utility.yul\":16185:16578   */\n      swap4\n      swap3\n      pop\n      pop\n      pop\n      jump\t// out\n        /* \"#utility.yul\":16584:16644   */\n    tag_135:\n        /* \"#utility.yul\":16612:16615   */\n      0x00\n        /* \"#utility.yul\":16633:16638   */\n      dup2\n        /* \"#utility.yul\":16626:16638   */\n      swap1\n      pop\n        /* \"#utility.yul\":16584:16644   */\n      swap2\n      swap1\n      pop\n      jump\t// out\n        /* \"#utility.yul\":16650:16792   */\n    tag_136:\n        /* \"#utility.yul\":16700:16709   */\n      0x00\n        /* \"#utility.yul\":16733:16786   */\n      tag_302\n        /* \"#utility.yul\":16751:16785   */\n      tag_303\n        /* \"#utility.yul\":16760:16784   */\n      tag_304\n        /* \"#utility.yul\":16778:16783   */\n      dup5\n        /* \"#utility.yul\":16760:16784   */\n      tag_91\n      jump\t// in\n    tag_304:\n        /* \"#utility.yul\":16751:16785   */\n      tag_135\n      jump\t// in\n    tag_303:\n        /* \"#utility.yul\":16733:16786   */\n      tag_91\n      jump\t// in\n    tag_302:\n        /* \"#utility.yul\":16720:16786   */\n      swap1\n      pop\n        /* \"#utility.yul\":16650:16792   */\n      swap2\n      swap1\n      pop\n      jump\t// out\n        /* \"#utility.yul\":16798:16873   */\n    tag_137:\n        /* \"#utility.yul\":16841:16844   */\n      0x00\n        /* \"#utility.yul\":16862:16867   */\n      dup2\n        /* \"#utility.yul\":16855:16867   */\n      swap1\n      pop\n        /* \"#utility.yul\":16798:16873   */\n      swap2\n      swap1\n      pop\n      jump\t// out\n        /* \"#utility.yul\":16879:17148   */\n    tag_138:\n        /* \"#utility.yul\":16989:17028   */\n      tag_307\n        /* \"#utility.yul\":17020:17027   */\n      dup4\n        /* \"#utility.yul\":16989:17028   */\n      tag_136\n      jump\t// in\n    tag_307:\n        /* \"#utility.yul\":17050:17141   */\n      tag_308\n        /* \"#utility.yul\":17099:17140   */\n      tag_309\n        /* \"#utility.yul\":17123:17139   */\n      dup3\n        /* \"#utility.yul\":17099:17140   */\n      tag_137\n      jump\t// in\n    tag_309:\n        /* \"#utility.yul\":17091:17097   */\n      dup5\n        /* \"#utility.yul\":17084:17088   */\n      dup5\n        /* \"#utility.yul\":17078:17089   */\n      sload\n        /* \"#utility.yul\":17050:17141   */\n      tag_134\n      jump\t// in\n    tag_308:\n        /* \"#utility.yul\":17044:17048   */\n      dup3\n        /* \"#utility.yul\":17037:17142   */\n      sstore\n        /* \"#utility.yul\":16955:17148   */\n      pop\n        /* \"#utility.yul\":16879:17148   */\n      pop\n      pop\n      pop\n      jump\t// out\n        /* \"#utility.yul\":17154:17227   */\n    tag_139:\n        /* \"#utility.yul\":17199:17202   */\n      0x00\n        /* \"#utility.yul\":17154:17227   */\n      swap1\n      jump\t// out\n        /* \"#utility.yul\":17233:17422   */\n    tag_140:\n        /* \"#utility.yul\":17310:17342   */\n      tag_312\n      tag_139\n      jump\t// in\n    tag_312:\n        /* \"#utility.yul\":17351:17416   */\n      tag_313\n        /* \"#utility.yul\":17409:17415   */\n      dup2\n        /* \"#utility.yul\":17401:17407   */\n      dup5\n        /* \"#utility.yul\":17395:17399   */\n      dup5\n        /* \"#utility.yul\":17351:17416   */\n      tag_138\n      jump\t// in\n    tag_313:\n        /* \"#utility.yul\":17286:17422   */\n      pop\n        /* \"#utility.yul\":17233:17422   */\n      pop\n      pop\n      jump\t// out\n        /* \"#utility.yul\":17428:17614   */\n    tag_141:\n        /* \"#utility.yul\":17488:17608   */\n    tag_315:\n        /* \"#utility.yul\":17505:17508   */\n      dup2\n        /* \"#utility.yul\":17498:17503   */\n      dup2\n        /* \"#utility.yul\":17495:17509   */\n      lt\n        /* \"#utility.yul\":17488:17608   */\n      iszero\n      tag_317\n      jumpi\n        /* \"#utility.yul\":17559:17598   */\n      tag_318\n        /* \"#utility.yul\":17596:17597   */\n      0x00\n        /* \"#utility.yul\":17589:17594   */\n      dup3\n        /* \"#utility.yul\":17559:17598   */\n      tag_140\n      jump\t// in\n    tag_318:\n        /* \"#utility.yul\":17532:17533   */\n      0x01\n        /* \"#utility.yul\":17525:17530   */\n      dup2\n        /* \"#utility.yul\":17521:17534   */\n      add\n        /* \"#utility.yul\":17512:17534   */\n      swap1\n      pop\n        /* \"#utility.yul\":17488:17608   */\n      jump(tag_315)\n    tag_317:\n        /* \"#utility.yul\":17428:17614   */\n      pop\n      pop\n      jump\t// out\n        /* \"#utility.yul\":17620:18163   */\n    tag_142:\n        /* \"#utility.yul\":17721:17723   */\n      0x1f\n        /* \"#utility.yul\":17716:17719   */\n      dup3\n        /* \"#utility.yul\":17713:17724   */\n      gt\n        /* \"#utility.yul\":17710:18156   */\n      iszero\n      tag_320\n      jumpi\n        /* \"#utility.yul\":17755:17793   */\n      tag_321\n        /* \"#utility.yul\":17787:17792   */\n      dup2\n        /* \"#utility.yul\":17755:17793   */\n      tag_131\n      jump\t// in\n    tag_321:\n        /* \"#utility.yul\":17839:17868   */\n      tag_322\n        /* \"#utility.yul\":17857:17867   */\n      dup5\n        /* \"#utility.yul\":17839:17868   */\n      tag_132\n      jump\t// in\n    tag_322:\n        /* \"#utility.yul\":17829:17837   */\n      dup2\n        /* \"#utility.yul\":17825:17869   */\n      add\n        /* \"#utility.yul\":18022:18024   */\n      0x20\n        /* \"#utility.yul\":18010:18020   */\n      dup6\n        /* \"#utility.yul\":18007:18025   */\n      lt\n        /* \"#utility.yul\":18004:18053   */\n      iszero\n      tag_323\n      jumpi\n        /* \"#utility.yul\":18043:18051   */\n      dup2\n        /* \"#utility.yul\":18028:18051   */\n      swap1\n      pop\n        /* \"#utility.yul\":18004:18053   */\n    tag_323:\n        /* \"#utility.yul\":18066:18146   */\n      tag_324\n        /* \"#utility.yul\":18122:18144   */\n      tag_325\n        /* \"#utility.yul\":18140:18143   */\n      dup6\n        /* \"#utility.yul\":18122:18144   */\n      tag_132\n      jump\t// in\n    tag_325:\n        /* \"#utility.yul\":18112:18120   */\n      dup4\n        /* \"#utility.yul\":18108:18145   */\n      add\n        /* \"#utility.yul\":18095:18106   */\n      dup3\n        /* \"#utility.yul\":18066:18146   */\n      tag_141\n      jump\t// in\n    tag_324:\n        /* \"#utility.yul\":17725:18156   */\n      pop\n      pop\n        /* \"#utility.yul\":17710:18156   */\n    tag_320:\n        /* \"#utility.yul\":17620:18163   */\n      pop\n      pop\n      pop\n      jump\t// out\n        /* \"#utility.yul\":18169:18286   */\n    tag_143:\n        /* \"#utility.yul\":18223:18231   */\n      0x00\n        /* \"#utility.yul\":18273:18278   */\n      dup3\n        /* \"#utility.yul\":18267:18271   */\n      dup3\n        /* \"#utility.yul\":18263:18279   */\n      shr\n        /* \"#utility.yul\":18242:18279   */\n      swap1\n      pop\n        /* \"#utility.yul\":18169:18286   */\n      swap3\n      swap2\n      pop\n      pop\n      jump\t// out\n        /* \"#utility.yul\":18292:18461   */\n    tag_144:\n        /* \"#utility.yul\":18336:18342   */\n      0x00\n        /* \"#utility.yul\":18369:18420   */\n      tag_328\n        /* \"#utility.yul\":18417:18418   */\n      0x00\n        /* \"#utility.yul\":18413:18419   */\n      not\n        /* \"#utility.yul\":18405:18410   */\n      dup5\n        /* \"#utility.yul\":18402:18403   */\n      0x08\n        /* \"#utility.yul\":18398:18411   */\n      mul\n        /* \"#utility.yul\":18369:18420   */\n      tag_143\n      jump\t// in\n    tag_328:\n        /* \"#utility.yul\":18365:18421   */\n      not\n        /* \"#utility.yul\":18450:18454   */\n      dup1\n        /* \"#utility.yul\":18444:18448   */\n      dup4\n        /* \"#utility.yul\":18440:18455   */\n      and\n        /* \"#utility.yul\":18430:18455   */\n      swap2\n      pop\n        /* \"#utility.yul\":18343:18461   */\n      pop\n        /* \"#utility.yul\":18292:18461   */\n      swap3\n      swap2\n      pop\n      pop\n      jump\t// out\n        /* \"#utility.yul\":18466:18761   */\n    tag_145:\n        /* \"#utility.yul\":18542:18546   */\n      0x00\n        /* \"#utility.yul\":18688:18717   */\n      tag_330\n        /* \"#utility.yul\":18713:18716   */\n      dup4\n        /* \"#utility.yul\":18707:18711   */\n      dup4\n        /* \"#utility.yul\":18688:18717   */\n      tag_144\n      jump\t// in\n    tag_330:\n        /* \"#utility.yul\":18680:18717   */\n      swap2\n      pop\n        /* \"#utility.yul\":18750:18753   */\n      dup3\n        /* \"#utility.yul\":18747:18748   */\n      0x02\n        /* \"#utility.yul\":18743:18754   */\n      mul\n        /* \"#utility.yul\":18737:18741   */\n      dup3\n        /* \"#utility.yul\":18734:18755   */\n      or\n        /* \"#utility.yul\":18726:18755   */\n      swap1\n      pop\n        /* \"#utility.yul\":18466:18761   */\n      swap3\n      swap2\n      pop\n      pop\n      jump\t// out\n        /* \"#utility.yul\":18766:20161   */\n    tag_71:\n        /* \"#utility.yul\":18883:18920   */\n      tag_332\n        /* \"#utility.yul\":18916:18919   */\n      dup3\n        /* \"#utility.yul\":18883:18920   */\n      tag_95\n      jump\t// in\n    tag_332:\n        /* \"#utility.yul\":18985:19003   */\n      0xffffffffffffffff\n        /* \"#utility.yul\":18977:18983   */\n      dup2\n        /* \"#utility.yul\":18974:19004   */\n      gt\n        /* \"#utility.yul\":18971:19027   */\n      iszero\n      tag_333\n      jumpi\n        /* \"#utility.yul\":19007:19025   */\n      tag_334\n      tag_118\n      jump\t// in\n    tag_334:\n        /* \"#utility.yul\":18971:19027   */\n    tag_333:\n        /* \"#utility.yul\":19051:19089   */\n      tag_335\n        /* \"#utility.yul\":19083:19087   */\n      dup3\n        /* \"#utility.yul\":19077:19088   */\n      sload\n        /* \"#utility.yul\":19051:19089   */\n      tag_46\n      jump\t// in\n    tag_335:\n        /* \"#utility.yul\":19136:19203   */\n      tag_336\n        /* \"#utility.yul\":19196:19202   */\n      dup3\n        /* \"#utility.yul\":19188:19194   */\n      dup3\n        /* \"#utility.yul\":19182:19186   */\n      dup6\n        /* \"#utility.yul\":19136:19203   */\n      tag_142\n      jump\t// in\n    tag_336:\n        /* \"#utility.yul\":19230:19231   */\n      0x00\n        /* \"#utility.yul\":19254:19258   */\n      0x20\n        /* \"#utility.yul\":19241:19258   */\n      swap1\n      pop\n        /* \"#utility.yul\":19286:19288   */\n      0x1f\n        /* \"#utility.yul\":19278:19284   */\n      dup4\n        /* \"#utility.yul\":19275:19289   */\n      gt\n        /* \"#utility.yul\":19303:19304   */\n      0x01\n        /* \"#utility.yul\":19298:19916   */\n      dup2\n      eq\n      tag_338\n      jumpi\n        /* \"#utility.yul\":19960:19961   */\n      0x00\n        /* \"#utility.yul\":19977:19983   */\n      dup5\n        /* \"#utility.yul\":19974:20051   */\n      iszero\n      tag_339\n      jumpi\n        /* \"#utility.yul\":20026:20035   */\n      dup3\n        /* \"#utility.yul\":20021:20024   */\n      dup8\n        /* \"#utility.yul\":20017:20036   */\n      add\n        /* \"#utility.yul\":20011:20037   */\n      mload\n        /* \"#utility.yul\":20002:20037   */\n      swap1\n      pop\n        /* \"#utility.yul\":19974:20051   */\n    tag_339:\n        /* \"#utility.yul\":20077:20144   */\n      tag_340\n        /* \"#utility.yul\":20137:20143   */\n      dup6\n        /* \"#utility.yul\":20130:20135   */\n      dup3\n        /* \"#utility.yul\":20077:20144   */\n      tag_145\n      jump\t// in\n    tag_340:\n        /* \"#utility.yul\":20071:20075   */\n      dup7\n        /* \"#utility.yul\":20064:20145   */\n      sstore\n        /* \"#utility.yul\":19933:20155   */\n      pop\n        /* \"#utility.yul\":19268:20155   */\n      jump(tag_337)\n        /* \"#utility.yul\":19298:19916   */\n    tag_338:\n        /* \"#utility.yul\":19350:19354   */\n      0x1f\n        /* \"#utility.yul\":19346:19355   */\n      not\n        /* \"#utility.yul\":19338:19344   */\n      dup5\n        /* \"#utility.yul\":19334:19356   */\n      and\n        /* \"#utility.yul\":19384:19421   */\n      tag_341\n        /* \"#utility.yul\":19416:19420   */\n      dup7\n        /* \"#utility.yul\":19384:19421   */\n      tag_131\n      jump\t// in\n    tag_341:\n        /* \"#utility.yul\":19443:19444   */\n      0x00\n        /* \"#utility.yul\":19457:19665   */\n    tag_342:\n        /* \"#utility.yul\":19471:19478   */\n      dup3\n        /* \"#utility.yul\":19468:19469   */\n      dup2\n        /* \"#utility.yul\":19465:19479   */\n      lt\n        /* \"#utility.yul\":19457:19665   */\n      iszero\n      tag_344\n      jumpi\n        /* \"#utility.yul\":19550:19559   */\n      dup5\n        /* \"#utility.yul\":19545:19548   */\n      dup10\n        /* \"#utility.yul\":19541:19560   */\n      add\n        /* \"#utility.yul\":19535:19561   */\n      mload\n        /* \"#utility.yul\":19527:19533   */\n      dup3\n        /* \"#utility.yul\":19520:19562   */\n      sstore\n        /* \"#utility.yul\":19601:19602   */\n      0x01\n        /* \"#utility.yul\":19593:19599   */\n      dup3\n        /* \"#utility.yul\":19589:19603   */\n      add\n        /* \"#utility.yul\":19579:19603   */\n      swap2\n      pop\n        /* \"#utility.yul\":19648:19650   */\n      0x20\n        /* \"#utility.yul\":19637:19646   */\n      dup6\n        /* \"#utility.yul\":19633:19651   */\n      add\n        /* \"#utility.yul\":19620:19651   */\n      swap5\n      pop\n        /* \"#utility.yul\":19494:19498   */\n      0x20\n        /* \"#utility.yul\":19491:19492   */\n      dup2\n        /* \"#utility.yul\":19487:19499   */\n      add\n        /* \"#utility.yul\":19482:19499   */\n      swap1\n      pop\n        /* \"#utility.yul\":19457:19665   */\n      jump(tag_342)\n    tag_344:\n        /* \"#utility.yul\":19693:19699   */\n      dup7\n        /* \"#utility.yul\":19684:19691   */\n      dup4\n        /* \"#utility.yul\":19681:19700   */\n      lt\n        /* \"#utility.yul\":19678:19857   */\n      iszero\n      tag_345\n      jumpi\n        /* \"#utility.yul\":19751:19760   */\n      dup5\n        /* \"#utility.yul\":19746:19749   */\n      dup10\n        /* \"#utility.yul\":19742:19761   */\n      add\n        /* \"#utility.yul\":19736:19762   */\n      mload\n        /* \"#utility.yul\":19794:19842   */\n      tag_346\n        /* \"#utility.yul\":19836:19840   */\n      0x1f\n        /* \"#utility.yul\":19828:19834   */\n      dup10\n        /* \"#utility.yul\":19824:19841   */\n      and\n        /* \"#utility.yul\":19813:19822   */\n      dup3\n        /* \"#utility.yul\":19794:19842   */\n      tag_144\n      jump\t// in\n    tag_346:\n        /* \"#utility.yul\":19786:19792   */\n      dup4\n        /* \"#utility.yul\":19779:19843   */\n      sstore\n        /* \"#utility.yul\":19701:19857   */\n      pop\n        /* \"#utility.yul\":19678:19857   */\n    tag_345:\n        /* \"#utility.yul\":19903:19904   */\n      0x01\n        /* \"#utility.yul\":19899:19900   */\n      0x02\n        /* \"#utility.yul\":19891:19897   */\n      dup9\n        /* \"#utility.yul\":19887:19901   */\n      mul\n        /* \"#utility.yul\":19883:19905   */\n      add\n        /* \"#utility.yul\":19877:19881   */\n      dup9\n        /* \"#utility.yul\":19870:19906   */\n      sstore\n        /* \"#utility.yul\":19305:19916   */\n      pop\n      pop\n      pop\n        /* \"#utility.yul\":19268:20155   */\n    tag_337:\n      pop\n        /* \"#utility.yul\":18858:20161   */\n      pop\n      pop\n      pop\n        /* \"#utility.yul\":18766:20161   */\n      pop\n      pop\n      jump\t// out\n        /* \"#utility.yul\":20167:20347   */\n    tag_77:\n        /* \"#utility.yul\":20215:20292   */\n      0x4e487b7100000000000000000000000000000000000000000000000000000000\n        /* \"#utility.yul\":20212:20213   */\n      0x00\n        /* \"#utility.yul\":20205:20293   */\n      mstore\n        /* \"#utility.yul\":20312:20316   */\n      0x32\n        /* \"#utility.yul\":20309:20310   */\n      0x04\n        /* \"#utility.yul\":20302:20317   */\n      mstore\n        /* \"#utility.yul\":20336:20340   */\n      0x24\n        /* \"#utility.yul\":20333:20334   */\n      0x00\n        /* \"#utility.yul\":20326:20341   */\n      revert\n\n    auxdata: 0xa264697066735822122056d39438b98fc1f265d441dba0dbfc48f5e5a7e0044cd0e0809b5b83e390d97964736f6c634300081a0033\n}\n",
				"bytecode": {
					"linkReferences": {},
					"object": "60806040526101185f806101000a81548161ffff021916908361ffff160217905550348015602b575f80fd5b503360025f6101000a81548173ffffffffffffffffffffffffffffffffffffffff021916908373ffffffffffffffffffffffffffffffffffffffff1602179055506111f2806100795f395ff3fe608060405234801561000f575f80fd5b506004361061007b575f3560e01c80636eb10797116100595780636eb10797146100ec5780637c9cd2bc1461010a5780638da5cb5b14610126578063c3ad5ecb146101445761007b565b806305a1b4a91461007f57806353256135146100b257806358bfa4ab146100d0575b5f80fd5b6100996004803603810190610094919061087e565b610174565b6040516100a9949392919061094a565b60405180910390f35b6100ba61025f565b6040516100c79190610b15565b60405180910390f35b6100ea60048036038101906100e59190610b6c565b6103ee565b005b6100f461049b565b6040516101019190610ba6565b60405180910390f35b610124600480360381019061011f9190610ceb565b6104ac565b005b61012e610613565b60405161013b9190610d32565b60405180910390f35b61015e60048036038101906101599190610d4b565b610638565b60405161016b9190610dd6565b60405180910390f35b6001602052815f5260405f20818154811061018d575f80fd5b905f5260205f2090600402015f9150915050805f015f9054906101000a900473ffffffffffffffffffffffffffffffffffffffff16908060010180546101d290610e23565b80601f01602080910402602001604051908101604052809291908181526020018280546101fe90610e23565b80156102495780601f1061022057610100808354040283529160200191610249565b820191905f5260205f20905b81548152906001019060200180831161022c57829003601f168201915b5050505050908060020154908060030154905084565b606060015f3373ffffffffffffffffffffffffffffffffffffffff1673ffffffffffffffffffffffffffffffffffffffff1681526020019081526020015f20805480602002602001604051908101604052809291908181526020015f905b828210156103e5578382905f5260205f2090600402016040518060800160405290815f82015f9054906101000a900473ffffffffffffffffffffffffffffffffffffffff1673ffffffffffffffffffffffffffffffffffffffff1673ffffffffffffffffffffffffffffffffffffffff16815260200160018201805461034290610e23565b80601f016020809104026020016040519081016040528092919081815260200182805461036e90610e23565b80156103b95780601f10610390576101008083540402835291602001916103b9565b820191905f5260205f20905b81548152906001019060200180831161039c57829003601f168201915b5050505050815260200160028201548152602001600382015481525050815260200190600101906102bd565b50505050905090565b60025f9054906101000a900473ffffffffffffffffffffffffffffffffffffffff1673ffffffffffffffffffffffffffffffffffffffff163373ffffffffffffffffffffffffffffffffffffffff161461047d576040517f08c379a000000000000000000000000000000000000000000000000000000000815260040161047490610e9d565b60405180910390fd5b805f806101000a81548161ffff021916908361ffff16021790555050565b5f8054906101000a900461ffff1681565b5f8054906101000a900461ffff1661ffff1681511115610501576040517f08c379a00000000000000000000000000000000000000000000000000000000081526004016104f890610f05565b60405180910390fd5b5f60405180608001604052803373ffffffffffffffffffffffffffffffffffffffff1681526020018381526020014281526020015f815250905060015f3373ffffffffffffffffffffffffffffffffffffffff1673ffffffffffffffffffffffffffffffffffffffff1681526020019081526020015f2081908060018154018082558091505060019003905f5260205f2090600402015f909190919091505f820151815f015f6101000a81548173ffffffffffffffffffffffffffffffffffffffff021916908373ffffffffffffffffffffffffffffffffffffffff16021790555060208201518160010190816105f891906110c0565b50604082015181600201556060820151816003015550505050565b60025f9054906101000a900473ffffffffffffffffffffffffffffffffffffffff1681565b6106406107a5565b60015f3373ffffffffffffffffffffffffffffffffffffffff1673ffffffffffffffffffffffffffffffffffffffff1681526020019081526020015f20828154811061068f5761068e61118f565b5b905f5260205f2090600402016040518060800160405290815f82015f9054906101000a900473ffffffffffffffffffffffffffffffffffffffff1673ffffffffffffffffffffffffffffffffffffffff1673ffffffffffffffffffffffffffffffffffffffff16815260200160018201805461070a90610e23565b80601f016020809104026020016040519081016040528092919081815260200182805461073690610e23565b80156107815780601f1061075857610100808354040283529160200191610781565b820191905f5260205f20905b81548152906001019060200180831161076457829003601f168201915b50505050508152602001600282015481526020016003820154815250509050919050565b60405180608001604052805f73ffffffffffffffffffffffffffffffffffffffff168152602001606081526020015f81526020015f81525090565b5f604051905090565b5f80fd5b5f80fd5b5f73ffffffffffffffffffffffffffffffffffffffff82169050919050565b5f61081a826107f1565b9050919050565b61082a81610810565b8114610834575f80fd5b50565b5f8135905061084581610821565b92915050565b5f819050919050565b61085d8161084b565b8114610867575f80fd5b50565b5f8135905061087881610854565b92915050565b5f8060408385031215610894576108936107e9565b5b5f6108a185828601610837565b92505060206108b28582860161086a565b9150509250929050565b6108c581610810565b82525050565b5f81519050919050565b5f82825260208201905092915050565b8281835e5f83830152505050565b5f601f19601f8301169050919050565b5f61090d826108cb565b61091781856108d5565b93506109278185602086016108e5565b610930816108f3565b840191505092915050565b6109448161084b565b82525050565b5f60808201905061095d5f8301876108bc565b818103602083015261096f8186610903565b905061097e604083018561093b565b61098b606083018461093b565b95945050505050565b5f81519050919050565b5f82825260208201905092915050565b5f819050602082019050919050565b6109c681610810565b82525050565b5f82825260208201905092915050565b5f6109e6826108cb565b6109f081856109cc565b9350610a008185602086016108e5565b610a09816108f3565b840191505092915050565b610a1d8161084b565b82525050565b5f608083015f830151610a385f8601826109bd565b5060208301518482036020860152610a5082826109dc565b9150506040830151610a656040860182610a14565b506060830151610a786060860182610a14565b508091505092915050565b5f610a8e8383610a23565b905092915050565b5f602082019050919050565b5f610aac82610994565b610ab6818561099e565b935083602082028501610ac8856109ae565b805f5b85811015610b035784840389528151610ae48582610a83565b9450610aef83610a96565b925060208a01995050600181019050610acb565b50829750879550505050505092915050565b5f6020820190508181035f830152610b2d8184610aa2565b905092915050565b5f61ffff82169050919050565b610b4b81610b35565b8114610b55575f80fd5b50565b5f81359050610b6681610b42565b92915050565b5f60208284031215610b8157610b806107e9565b5b5f610b8e84828501610b58565b91505092915050565b610ba081610b35565b82525050565b5f602082019050610bb95f830184610b97565b92915050565b5f80fd5b5f80fd5b7f4e487b71000000000000000000000000000000000000000000000000000000005f52604160045260245ffd5b610bfd826108f3565b810181811067ffffffffffffffff82111715610c1c57610c1b610bc7565b5b80604052505050565b5f610c2e6107e0565b9050610c3a8282610bf4565b919050565b5f67ffffffffffffffff821115610c5957610c58610bc7565b5b610c62826108f3565b9050602081019050919050565b828183375f83830152505050565b5f610c8f610c8a84610c3f565b610c25565b905082815260208101848484011115610cab57610caa610bc3565b5b610cb6848285610c6f565b509392505050565b5f82601f830112610cd257610cd1610bbf565b5b8135610ce2848260208601610c7d565b91505092915050565b5f60208284031215610d0057610cff6107e9565b5b5f82013567ffffffffffffffff811115610d1d57610d1c6107ed565b5b610d2984828501610cbe565b91505092915050565b5f602082019050610d455f8301846108bc565b92915050565b5f60208284031215610d6057610d5f6107e9565b5b5f610d6d8482850161086a565b91505092915050565b5f608083015f830151610d8b5f8601826109bd565b5060208301518482036020860152610da382826109dc565b9150506040830151610db86040860182610a14565b506060830151610dcb6060860182610a14565b508091505092915050565b5f6020820190508181035f830152610dee8184610d76565b905092915050565b7f4e487b71000000000000000000000000000000000000000000000000000000005f52602260045260245ffd5b5f6002820490506001821680610e3a57607f821691505b602082108103610e4d57610e4c610df6565b5b50919050565b7f594f5520415245204e4f5420544845204f574e452100000000000000000000005f82015250565b5f610e876015836108d5565b9150610e9282610e53565b602082019050919050565b5f6020820190508181035f830152610eb481610e7b565b9050919050565b7f5468697320547765657420697320746f6f206c6f6e67210000000000000000005f82015250565b5f610eef6017836108d5565b9150610efa82610ebb565b602082019050919050565b5f6020820190508181035f830152610f1c81610ee3565b9050919050565b5f819050815f5260205f209050919050565b5f6020601f8301049050919050565b5f82821b905092915050565b5f60088302610f7f7fffffffffffffffffffffffffffffffffffffffffffffffffffffffffffffffff82610f44565b610f898683610f44565b95508019841693508086168417925050509392505050565b5f819050919050565b5f610fc4610fbf610fba8461084b565b610fa1565b61084b565b9050919050565b5f819050919050565b610fdd83610faa565b610ff1610fe982610fcb565b848454610f50565b825550505050565b5f90565b611005610ff9565b611010818484610fd4565b505050565b5b81811015611033576110285f82610ffd565b600181019050611016565b5050565b601f8211156110785761104981610f23565b61105284610f35565b81016020851015611061578190505b61107561106d85610f35565b830182611015565b50505b505050565b5f82821c905092915050565b5f6110985f198460080261107d565b1980831691505092915050565b5f6110b08383611089565b9150826002028217905092915050565b6110c9826108cb565b67ffffffffffffffff8111156110e2576110e1610bc7565b5b6110ec8254610e23565b6110f7828285611037565b5f60209050601f831160018114611128575f8415611116578287015190505b61112085826110a5565b865550611187565b601f19841661113686610f23565b5f5b8281101561115d57848901518255600182019150602085019450602081019050611138565b8683101561117a5784890151611176601f891682611089565b8355505b6001600288020188555050505b505050505050565b7f4e487b71000000000000000000000000000000000000000000000000000000005f52603260045260245ffdfea264697066735822122056d39438b98fc1f265d441dba0dbfc48f5e5a7e0044cd0e0809b5b83e390d97964736f6c634300081a0033",
					"opcodes": "PUSH1 0x80 PUSH1 0x40 MSTORE PUSH2 0x118 PUSH0 DUP1 PUSH2 0x100 EXP DUP2 SLOAD DUP2 PUSH2 0xFFFF MUL NOT AND SWAP1 DUP4 PUSH2 0xFFFF AND MUL OR SWAP1 SSTORE POP CALLVALUE DUP1 ISZERO PUSH1 0x2B JUMPI PUSH0 DUP1 REVERT JUMPDEST POP CALLER PUSH1 0x2 PUSH0 PUSH2 0x100 EXP DUP2 SLOAD DUP2 PUSH20 0xFFFFFFFFFFFFFFFFFFFFFFFFFFFFFFFFFFFFFFFF MUL NOT AND SWAP1 DUP4 PUSH20 0xFFFFFFFFFFFFFFFFFFFFFFFFFFFFFFFFFFFFFFFF AND MUL OR SWAP1 SSTORE POP PUSH2 0x11F2 DUP1 PUSH2 0x79 PUSH0 CODECOPY PUSH0 RETURN INVALID PUSH1 0x80 PUSH1 0x40 MSTORE CALLVALUE DUP1 ISZERO PUSH2 0xF JUMPI PUSH0 DUP1 REVERT JUMPDEST POP PUSH1 0x4 CALLDATASIZE LT PUSH2 0x7B JUMPI PUSH0 CALLDATALOAD PUSH1 0xE0 SHR DUP1 PUSH4 0x6EB10797 GT PUSH2 0x59 JUMPI DUP1 PUSH4 0x6EB10797 EQ PUSH2 0xEC JUMPI DUP1 PUSH4 0x7C9CD2BC EQ PUSH2 0x10A JUMPI DUP1 PUSH4 0x8DA5CB5B EQ PUSH2 0x126 JUMPI DUP1 PUSH4 0xC3AD5ECB EQ PUSH2 0x144 JUMPI PUSH2 0x7B JUMP JUMPDEST DUP1 PUSH4 0x5A1B4A9 EQ PUSH2 0x7F JUMPI DUP1 PUSH4 0x53256135 EQ PUSH2 0xB2 JUMPI DUP1 PUSH4 0x58BFA4AB EQ PUSH2 0xD0 JUMPI JUMPDEST PUSH0 DUP1 REVERT JUMPDEST PUSH2 0x99 PUSH1 0x4 DUP1 CALLDATASIZE SUB DUP2 ADD SWAP1 PUSH2 0x94 SWAP2 SWAP1 PUSH2 0x87E JUMP JUMPDEST PUSH2 0x174 JUMP JUMPDEST PUSH1 0x40 MLOAD PUSH2 0xA9 SWAP5 SWAP4 SWAP3 SWAP2 SWAP1 PUSH2 0x94A JUMP JUMPDEST PUSH1 0x40 MLOAD DUP1 SWAP2 SUB SWAP1 RETURN JUMPDEST PUSH2 0xBA PUSH2 0x25F JUMP JUMPDEST PUSH1 0x40 MLOAD PUSH2 0xC7 SWAP2 SWAP1 PUSH2 0xB15 JUMP JUMPDEST PUSH1 0x40 MLOAD DUP1 SWAP2 SUB SWAP1 RETURN JUMPDEST PUSH2 0xEA PUSH1 0x4 DUP1 CALLDATASIZE SUB DUP2 ADD SWAP1 PUSH2 0xE5 SWAP2 SWAP1 PUSH2 0xB6C JUMP JUMPDEST PUSH2 0x3EE JUMP JUMPDEST STOP JUMPDEST PUSH2 0xF4 PUSH2 0x49B JUMP JUMPDEST PUSH1 0x40 MLOAD PUSH2 0x101 SWAP2 SWAP1 PUSH2 0xBA6 JUMP JUMPDEST PUSH1 0x40 MLOAD DUP1 SWAP2 SUB SWAP1 RETURN JUMPDEST PUSH2 0x124 PUSH1 0x4 DUP1 CALLDATASIZE SUB DUP2 ADD SWAP1 PUSH2 0x11F SWAP2 SWAP1 PUSH2 0xCEB JUMP JUMPDEST PUSH2 0x4AC JUMP JUMPDEST STOP JUMPDEST PUSH2 0x12E PUSH2 0x613 JUMP JUMPDEST PUSH1 0x40 MLOAD PUSH2 0x13B SWAP2 SWAP1 PUSH2 0xD32 JUMP JUMPDEST PUSH1 0x40 MLOAD DUP1 SWAP2 SUB SWAP1 RETURN JUMPDEST PUSH2 0x15E PUSH1 0x4 DUP1 CALLDATASIZE SUB DUP2 ADD SWAP1 PUSH2 0x159 SWAP2 SWAP1 PUSH2 0xD4B JUMP JUMPDEST PUSH2 0x638 JUMP JUMPDEST PUSH1 0x40 MLOAD PUSH2 0x16B SWAP2 SWAP1 PUSH2 0xDD6 JUMP JUMPDEST PUSH1 0x40 MLOAD DUP1 SWAP2 SUB SWAP1 RETURN JUMPDEST PUSH1 0x1 PUSH1 0x20 MSTORE DUP2 PUSH0 MSTORE PUSH1 0x40 PUSH0 KECCAK256 DUP2 DUP2 SLOAD DUP2 LT PUSH2 0x18D JUMPI PUSH0 DUP1 REVERT JUMPDEST SWAP1 PUSH0 MSTORE PUSH1 0x20 PUSH0 KECCAK256 SWAP1 PUSH1 0x4 MUL ADD PUSH0 SWAP2 POP SWAP2 POP POP DUP1 PUSH0 ADD PUSH0 SWAP1 SLOAD SWAP1 PUSH2 0x100 EXP SWAP1 DIV PUSH20 0xFFFFFFFFFFFFFFFFFFFFFFFFFFFFFFFFFFFFFFFF AND SWAP1 DUP1 PUSH1 0x1 ADD DUP1 SLOAD PUSH2 0x1D2 SWAP1 PUSH2 0xE23 JUMP JUMPDEST DUP1 PUSH1 0x1F ADD PUSH1 0x20 DUP1 SWAP2 DIV MUL PUSH1 0x20 ADD PUSH1 0x40 MLOAD SWAP1 DUP2 ADD PUSH1 0x40 MSTORE DUP1 SWAP3 SWAP2 SWAP1 DUP2 DUP2 MSTORE PUSH1 0x20 ADD DUP3 DUP1 SLOAD PUSH2 0x1FE SWAP1 PUSH2 0xE23 JUMP JUMPDEST DUP1 ISZERO PUSH2 0x249 JUMPI DUP1 PUSH1 0x1F LT PUSH2 0x220 JUMPI PUSH2 0x100 DUP1 DUP4 SLOAD DIV MUL DUP4 MSTORE SWAP2 PUSH1 0x20 ADD SWAP2 PUSH2 0x249 JUMP JUMPDEST DUP3 ADD SWAP2 SWAP1 PUSH0 MSTORE PUSH1 0x20 PUSH0 KECCAK256 SWAP1 JUMPDEST DUP2 SLOAD DUP2 MSTORE SWAP1 PUSH1 0x1 ADD SWAP1 PUSH1 0x20 ADD DUP1 DUP4 GT PUSH2 0x22C JUMPI DUP3 SWAP1 SUB PUSH1 0x1F AND DUP3 ADD SWAP2 JUMPDEST POP POP POP POP POP SWAP1 DUP1 PUSH1 0x2 ADD SLOAD SWAP1 DUP1 PUSH1 0x3 ADD SLOAD SWAP1 POP DUP5 JUMP JUMPDEST PUSH1 0x60 PUSH1 0x1 PUSH0 CALLER PUSH20 0xFFFFFFFFFFFFFFFFFFFFFFFFFFFFFFFFFFFFFFFF AND PUSH20 0xFFFFFFFFFFFFFFFFFFFFFFFFFFFFFFFFFFFFFFFF AND DUP2 MSTORE PUSH1 0x20 ADD SWAP1 DUP2 MSTORE PUSH1 0x20 ADD PUSH0 KECCAK256 DUP1 SLOAD DUP1 PUSH1 0x20 MUL PUSH1 0x20 ADD PUSH1 0x40 MLOAD SWAP1 DUP2 ADD PUSH1 0x40 MSTORE DUP1 SWAP3 SWAP2 SWAP1 DUP2 DUP2 MSTORE PUSH1 0x20 ADD PUSH0 SWAP1 JUMPDEST DUP3 DUP3 LT ISZERO PUSH2 0x3E5 JUMPI DUP4 DUP3 SWAP1 PUSH0 MSTORE PUSH1 0x20 PUSH0 KECCAK256 SWAP1 PUSH1 0x4 MUL ADD PUSH1 0x40 MLOAD DUP1 PUSH1 0x80 ADD PUSH1 0x40 MSTORE SWAP1 DUP2 PUSH0 DUP3 ADD PUSH0 SWAP1 SLOAD SWAP1 PUSH2 0x100 EXP SWAP1 DIV PUSH20 0xFFFFFFFFFFFFFFFFFFFFFFFFFFFFFFFFFFFFFFFF AND PUSH20 0xFFFFFFFFFFFFFFFFFFFFFFFFFFFFFFFFFFFFFFFF AND PUSH20 0xFFFFFFFFFFFFFFFFFFFFFFFFFFFFFFFFFFFFFFFF AND DUP2 MSTORE PUSH1 0x20 ADD PUSH1 0x1 DUP3 ADD DUP1 SLOAD PUSH2 0x342 SWAP1 PUSH2 0xE23 JUMP JUMPDEST DUP1 PUSH1 0x1F ADD PUSH1 0x20 DUP1 SWAP2 DIV MUL PUSH1 0x20 ADD PUSH1 0x40 MLOAD SWAP1 DUP2 ADD PUSH1 0x40 MSTORE DUP1 SWAP3 SWAP2 SWAP1 DUP2 DUP2 MSTORE PUSH1 0x20 ADD DUP3 DUP1 SLOAD PUSH2 0x36E SWAP1 PUSH2 0xE23 JUMP JUMPDEST DUP1 ISZERO PUSH2 0x3B9 JUMPI DUP1 PUSH1 0x1F LT PUSH2 0x390 JUMPI PUSH2 0x100 DUP1 DUP4 SLOAD DIV MUL DUP4 MSTORE SWAP2 PUSH1 0x20 ADD SWAP2 PUSH2 0x3B9 JUMP JUMPDEST DUP3 ADD SWAP2 SWAP1 PUSH0 MSTORE PUSH1 0x20 PUSH0 KECCAK256 SWAP1 JUMPDEST DUP2 SLOAD DUP2 MSTORE SWAP1 PUSH1 0x1 ADD SWAP1 PUSH1 0x20 ADD DUP1 DUP4 GT PUSH2 0x39C JUMPI DUP3 SWAP1 SUB PUSH1 0x1F AND DUP3 ADD SWAP2 JUMPDEST POP POP POP POP POP DUP2 MSTORE PUSH1 0x20 ADD PUSH1 0x2 DUP3 ADD SLOAD DUP2 MSTORE PUSH1 0x20 ADD PUSH1 0x3 DUP3 ADD SLOAD DUP2 MSTORE POP POP DUP2 MSTORE PUSH1 0x20 ADD SWAP1 PUSH1 0x1 ADD SWAP1 PUSH2 0x2BD JUMP JUMPDEST POP POP POP POP SWAP1 POP SWAP1 JUMP JUMPDEST PUSH1 0x2 PUSH0 SWAP1 SLOAD SWAP1 PUSH2 0x100 EXP SWAP1 DIV PUSH20 0xFFFFFFFFFFFFFFFFFFFFFFFFFFFFFFFFFFFFFFFF AND PUSH20 0xFFFFFFFFFFFFFFFFFFFFFFFFFFFFFFFFFFFFFFFF AND CALLER PUSH20 0xFFFFFFFFFFFFFFFFFFFFFFFFFFFFFFFFFFFFFFFF AND EQ PUSH2 0x47D JUMPI PUSH1 0x40 MLOAD PUSH32 0x8C379A000000000000000000000000000000000000000000000000000000000 DUP2 MSTORE PUSH1 0x4 ADD PUSH2 0x474 SWAP1 PUSH2 0xE9D JUMP JUMPDEST PUSH1 0x40 MLOAD DUP1 SWAP2 SUB SWAP1 REVERT JUMPDEST DUP1 PUSH0 DUP1 PUSH2 0x100 EXP DUP2 SLOAD DUP2 PUSH2 0xFFFF MUL NOT AND SWAP1 DUP4 PUSH2 0xFFFF AND MUL OR SWAP1 SSTORE POP POP JUMP JUMPDEST PUSH0 DUP1 SLOAD SWAP1 PUSH2 0x100 EXP SWAP1 DIV PUSH2 0xFFFF AND DUP2 JUMP JUMPDEST PUSH0 DUP1 SLOAD SWAP1 PUSH2 0x100 EXP SWAP1 DIV PUSH2 0xFFFF AND PUSH2 0xFFFF AND DUP2 MLOAD GT ISZERO PUSH2 0x501 JUMPI PUSH1 0x40 MLOAD PUSH32 0x8C379A000000000000000000000000000000000000000000000000000000000 DUP2 MSTORE PUSH1 0x4 ADD PUSH2 0x4F8 SWAP1 PUSH2 0xF05 JUMP JUMPDEST PUSH1 0x40 MLOAD DUP1 SWAP2 SUB SWAP1 REVERT JUMPDEST PUSH0 PUSH1 0x40 MLOAD DUP1 PUSH1 0x80 ADD PUSH1 0x40 MSTORE DUP1 CALLER PUSH20 0xFFFFFFFFFFFFFFFFFFFFFFFFFFFFFFFFFFFFFFFF AND DUP2 MSTORE PUSH1 0x20 ADD DUP4 DUP2 MSTORE PUSH1 0x20 ADD TIMESTAMP DUP2 MSTORE PUSH1 0x20 ADD PUSH0 DUP2 MSTORE POP SWAP1 POP PUSH1 0x1 PUSH0 CALLER PUSH20 0xFFFFFFFFFFFFFFFFFFFFFFFFFFFFFFFFFFFFFFFF AND PUSH20 0xFFFFFFFFFFFFFFFFFFFFFFFFFFFFFFFFFFFFFFFF AND DUP2 MSTORE PUSH1 0x20 ADD SWAP1 DUP2 MSTORE PUSH1 0x20 ADD PUSH0 KECCAK256 DUP2 SWAP1 DUP1 PUSH1 0x1 DUP2 SLOAD ADD DUP1 DUP3 SSTORE DUP1 SWAP2 POP POP PUSH1 0x1 SWAP1 SUB SWAP1 PUSH0 MSTORE PUSH1 0x20 PUSH0 KECCAK256 SWAP1 PUSH1 0x4 MUL ADD PUSH0 SWAP1 SWAP2 SWAP1 SWAP2 SWAP1 SWAP2 POP PUSH0 DUP3 ADD MLOAD DUP2 PUSH0 ADD PUSH0 PUSH2 0x100 EXP DUP2 SLOAD DUP2 PUSH20 0xFFFFFFFFFFFFFFFFFFFFFFFFFFFFFFFFFFFFFFFF MUL NOT AND SWAP1 DUP4 PUSH20 0xFFFFFFFFFFFFFFFFFFFFFFFFFFFFFFFFFFFFFFFF AND MUL OR SWAP1 SSTORE POP PUSH1 0x20 DUP3 ADD MLOAD DUP2 PUSH1 0x1 ADD SWAP1 DUP2 PUSH2 0x5F8 SWAP2 SWAP1 PUSH2 0x10C0 JUMP JUMPDEST POP PUSH1 0x40 DUP3 ADD MLOAD DUP2 PUSH1 0x2 ADD SSTORE PUSH1 0x60 DUP3 ADD MLOAD DUP2 PUSH1 0x3 ADD SSTORE POP POP POP POP JUMP JUMPDEST PUSH1 0x2 PUSH0 SWAP1 SLOAD SWAP1 PUSH2 0x100 EXP SWAP1 DIV PUSH20 0xFFFFFFFFFFFFFFFFFFFFFFFFFFFFFFFFFFFFFFFF AND DUP2 JUMP JUMPDEST PUSH2 0x640 PUSH2 0x7A5 JUMP JUMPDEST PUSH1 0x1 PUSH0 CALLER PUSH20 0xFFFFFFFFFFFFFFFFFFFFFFFFFFFFFFFFFFFFFFFF AND PUSH20 0xFFFFFFFFFFFFFFFFFFFFFFFFFFFFFFFFFFFFFFFF AND DUP2 MSTORE PUSH1 0x20 ADD SWAP1 DUP2 MSTORE PUSH1 0x20 ADD PUSH0 KECCAK256 DUP3 DUP2 SLOAD DUP2 LT PUSH2 0x68F JUMPI PUSH2 0x68E PUSH2 0x118F JUMP JUMPDEST JUMPDEST SWAP1 PUSH0 MSTORE PUSH1 0x20 PUSH0 KECCAK256 SWAP1 PUSH1 0x4 MUL ADD PUSH1 0x40 MLOAD DUP1 PUSH1 0x80 ADD PUSH1 0x40 MSTORE SWAP1 DUP2 PUSH0 DUP3 ADD PUSH0 SWAP1 SLOAD SWAP1 PUSH2 0x100 EXP SWAP1 DIV PUSH20 0xFFFFFFFFFFFFFFFFFFFFFFFFFFFFFFFFFFFFFFFF AND PUSH20 0xFFFFFFFFFFFFFFFFFFFFFFFFFFFFFFFFFFFFFFFF AND PUSH20 0xFFFFFFFFFFFFFFFFFFFFFFFFFFFFFFFFFFFFFFFF AND DUP2 MSTORE PUSH1 0x20 ADD PUSH1 0x1 DUP3 ADD DUP1 SLOAD PUSH2 0x70A SWAP1 PUSH2 0xE23 JUMP JUMPDEST DUP1 PUSH1 0x1F ADD PUSH1 0x20 DUP1 SWAP2 DIV MUL PUSH1 0x20 ADD PUSH1 0x40 MLOAD SWAP1 DUP2 ADD PUSH1 0x40 MSTORE DUP1 SWAP3 SWAP2 SWAP1 DUP2 DUP2 MSTORE PUSH1 0x20 ADD DUP3 DUP1 SLOAD PUSH2 0x736 SWAP1 PUSH2 0xE23 JUMP JUMPDEST DUP1 ISZERO PUSH2 0x781 JUMPI DUP1 PUSH1 0x1F LT PUSH2 0x758 JUMPI PUSH2 0x100 DUP1 DUP4 SLOAD DIV MUL DUP4 MSTORE SWAP2 PUSH1 0x20 ADD SWAP2 PUSH2 0x781 JUMP JUMPDEST DUP3 ADD SWAP2 SWAP1 PUSH0 MSTORE PUSH1 0x20 PUSH0 KECCAK256 SWAP1 JUMPDEST DUP2 SLOAD DUP2 MSTORE SWAP1 PUSH1 0x1 ADD SWAP1 PUSH1 0x20 ADD DUP1 DUP4 GT PUSH2 0x764 JUMPI DUP3 SWAP1 SUB PUSH1 0x1F AND DUP3 ADD SWAP2 JUMPDEST POP POP POP POP POP DUP2 MSTORE PUSH1 0x20 ADD PUSH1 0x2 DUP3 ADD SLOAD DUP2 MSTORE PUSH1 0x20 ADD PUSH1 0x3 DUP3 ADD SLOAD DUP2 MSTORE POP POP SWAP1 POP SWAP2 SWAP1 POP JUMP JUMPDEST PUSH1 0x40 MLOAD DUP1 PUSH1 0x80 ADD PUSH1 0x40 MSTORE DUP1 PUSH0 PUSH20 0xFFFFFFFFFFFFFFFFFFFFFFFFFFFFFFFFFFFFFFFF AND DUP2 MSTORE PUSH1 0x20 ADD PUSH1 0x60 DUP2 MSTORE PUSH1 0x20 ADD PUSH0 DUP2 MSTORE PUSH1 0x20 ADD PUSH0 DUP2 MSTORE POP SWAP1 JUMP JUMPDEST PUSH0 PUSH1 0x40 MLOAD SWAP1 POP SWAP1 JUMP JUMPDEST PUSH0 DUP1 REVERT JUMPDEST PUSH0 DUP1 REVERT JUMPDEST PUSH0 PUSH20 0xFFFFFFFFFFFFFFFFFFFFFFFFFFFFFFFFFFFFFFFF DUP3 AND SWAP1 POP SWAP2 SWAP1 POP JUMP JUMPDEST PUSH0 PUSH2 0x81A DUP3 PUSH2 0x7F1 JUMP JUMPDEST SWAP1 POP SWAP2 SWAP1 POP JUMP JUMPDEST PUSH2 0x82A DUP2 PUSH2 0x810 JUMP JUMPDEST DUP2 EQ PUSH2 0x834 JUMPI PUSH0 DUP1 REVERT JUMPDEST POP JUMP JUMPDEST PUSH0 DUP2 CALLDATALOAD SWAP1 POP PUSH2 0x845 DUP2 PUSH2 0x821 JUMP JUMPDEST SWAP3 SWAP2 POP POP JUMP JUMPDEST PUSH0 DUP2 SWAP1 POP SWAP2 SWAP1 POP JUMP JUMPDEST PUSH2 0x85D DUP2 PUSH2 0x84B JUMP JUMPDEST DUP2 EQ PUSH2 0x867 JUMPI PUSH0 DUP1 REVERT JUMPDEST POP JUMP JUMPDEST PUSH0 DUP2 CALLDATALOAD SWAP1 POP PUSH2 0x878 DUP2 PUSH2 0x854 JUMP JUMPDEST SWAP3 SWAP2 POP POP JUMP JUMPDEST PUSH0 DUP1 PUSH1 0x40 DUP4 DUP6 SUB SLT ISZERO PUSH2 0x894 JUMPI PUSH2 0x893 PUSH2 0x7E9 JUMP JUMPDEST JUMPDEST PUSH0 PUSH2 0x8A1 DUP6 DUP3 DUP7 ADD PUSH2 0x837 JUMP JUMPDEST SWAP3 POP POP PUSH1 0x20 PUSH2 0x8B2 DUP6 DUP3 DUP7 ADD PUSH2 0x86A JUMP JUMPDEST SWAP2 POP POP SWAP3 POP SWAP3 SWAP1 POP JUMP JUMPDEST PUSH2 0x8C5 DUP2 PUSH2 0x810 JUMP JUMPDEST DUP3 MSTORE POP POP JUMP JUMPDEST PUSH0 DUP2 MLOAD SWAP1 POP SWAP2 SWAP1 POP JUMP JUMPDEST PUSH0 DUP3 DUP3 MSTORE PUSH1 0x20 DUP3 ADD SWAP1 POP SWAP3 SWAP2 POP POP JUMP JUMPDEST DUP3 DUP2 DUP4 MCOPY PUSH0 DUP4 DUP4 ADD MSTORE POP POP POP JUMP JUMPDEST PUSH0 PUSH1 0x1F NOT PUSH1 0x1F DUP4 ADD AND SWAP1 POP SWAP2 SWAP1 POP JUMP JUMPDEST PUSH0 PUSH2 0x90D DUP3 PUSH2 0x8CB JUMP JUMPDEST PUSH2 0x917 DUP2 DUP6 PUSH2 0x8D5 JUMP JUMPDEST SWAP4 POP PUSH2 0x927 DUP2 DUP6 PUSH1 0x20 DUP7 ADD PUSH2 0x8E5 JUMP JUMPDEST PUSH2 0x930 DUP2 PUSH2 0x8F3 JUMP JUMPDEST DUP5 ADD SWAP2 POP POP SWAP3 SWAP2 POP POP JUMP JUMPDEST PUSH2 0x944 DUP2 PUSH2 0x84B JUMP JUMPDEST DUP3 MSTORE POP POP JUMP JUMPDEST PUSH0 PUSH1 0x80 DUP3 ADD SWAP1 POP PUSH2 0x95D PUSH0 DUP4 ADD DUP8 PUSH2 0x8BC JUMP JUMPDEST DUP2 DUP2 SUB PUSH1 0x20 DUP4 ADD MSTORE PUSH2 0x96F DUP2 DUP7 PUSH2 0x903 JUMP JUMPDEST SWAP1 POP PUSH2 0x97E PUSH1 0x40 DUP4 ADD DUP6 PUSH2 0x93B JUMP JUMPDEST PUSH2 0x98B PUSH1 0x60 DUP4 ADD DUP5 PUSH2 0x93B JUMP JUMPDEST SWAP6 SWAP5 POP POP POP POP POP JUMP JUMPDEST PUSH0 DUP2 MLOAD SWAP1 POP SWAP2 SWAP1 POP JUMP JUMPDEST PUSH0 DUP3 DUP3 MSTORE PUSH1 0x20 DUP3 ADD SWAP1 POP SWAP3 SWAP2 POP POP JUMP JUMPDEST PUSH0 DUP2 SWAP1 POP PUSH1 0x20 DUP3 ADD SWAP1 POP SWAP2 SWAP1 POP JUMP JUMPDEST PUSH2 0x9C6 DUP2 PUSH2 0x810 JUMP JUMPDEST DUP3 MSTORE POP POP JUMP JUMPDEST PUSH0 DUP3 DUP3 MSTORE PUSH1 0x20 DUP3 ADD SWAP1 POP SWAP3 SWAP2 POP POP JUMP JUMPDEST PUSH0 PUSH2 0x9E6 DUP3 PUSH2 0x8CB JUMP JUMPDEST PUSH2 0x9F0 DUP2 DUP6 PUSH2 0x9CC JUMP JUMPDEST SWAP4 POP PUSH2 0xA00 DUP2 DUP6 PUSH1 0x20 DUP7 ADD PUSH2 0x8E5 JUMP JUMPDEST PUSH2 0xA09 DUP2 PUSH2 0x8F3 JUMP JUMPDEST DUP5 ADD SWAP2 POP POP SWAP3 SWAP2 POP POP JUMP JUMPDEST PUSH2 0xA1D DUP2 PUSH2 0x84B JUMP JUMPDEST DUP3 MSTORE POP POP JUMP JUMPDEST PUSH0 PUSH1 0x80 DUP4 ADD PUSH0 DUP4 ADD MLOAD PUSH2 0xA38 PUSH0 DUP7 ADD DUP3 PUSH2 0x9BD JUMP JUMPDEST POP PUSH1 0x20 DUP4 ADD MLOAD DUP5 DUP3 SUB PUSH1 0x20 DUP7 ADD MSTORE PUSH2 0xA50 DUP3 DUP3 PUSH2 0x9DC JUMP JUMPDEST SWAP2 POP POP PUSH1 0x40 DUP4 ADD MLOAD PUSH2 0xA65 PUSH1 0x40 DUP7 ADD DUP3 PUSH2 0xA14 JUMP JUMPDEST POP PUSH1 0x60 DUP4 ADD MLOAD PUSH2 0xA78 PUSH1 0x60 DUP7 ADD DUP3 PUSH2 0xA14 JUMP JUMPDEST POP DUP1 SWAP2 POP POP SWAP3 SWAP2 POP POP JUMP JUMPDEST PUSH0 PUSH2 0xA8E DUP4 DUP4 PUSH2 0xA23 JUMP JUMPDEST SWAP1 POP SWAP3 SWAP2 POP POP JUMP JUMPDEST PUSH0 PUSH1 0x20 DUP3 ADD SWAP1 POP SWAP2 SWAP1 POP JUMP JUMPDEST PUSH0 PUSH2 0xAAC DUP3 PUSH2 0x994 JUMP JUMPDEST PUSH2 0xAB6 DUP2 DUP6 PUSH2 0x99E JUMP JUMPDEST SWAP4 POP DUP4 PUSH1 0x20 DUP3 MUL DUP6 ADD PUSH2 0xAC8 DUP6 PUSH2 0x9AE JUMP JUMPDEST DUP1 PUSH0 JUMPDEST DUP6 DUP2 LT ISZERO PUSH2 0xB03 JUMPI DUP5 DUP5 SUB DUP10 MSTORE DUP2 MLOAD PUSH2 0xAE4 DUP6 DUP3 PUSH2 0xA83 JUMP JUMPDEST SWAP5 POP PUSH2 0xAEF DUP4 PUSH2 0xA96 JUMP JUMPDEST SWAP3 POP PUSH1 0x20 DUP11 ADD SWAP10 POP POP PUSH1 0x1 DUP2 ADD SWAP1 POP PUSH2 0xACB JUMP JUMPDEST POP DUP3 SWAP8 POP DUP8 SWAP6 POP POP POP POP POP POP SWAP3 SWAP2 POP POP JUMP JUMPDEST PUSH0 PUSH1 0x20 DUP3 ADD SWAP1 POP DUP2 DUP2 SUB PUSH0 DUP4 ADD MSTORE PUSH2 0xB2D DUP2 DUP5 PUSH2 0xAA2 JUMP JUMPDEST SWAP1 POP SWAP3 SWAP2 POP POP JUMP JUMPDEST PUSH0 PUSH2 0xFFFF DUP3 AND SWAP1 POP SWAP2 SWAP1 POP JUMP JUMPDEST PUSH2 0xB4B DUP2 PUSH2 0xB35 JUMP JUMPDEST DUP2 EQ PUSH2 0xB55 JUMPI PUSH0 DUP1 REVERT JUMPDEST POP JUMP JUMPDEST PUSH0 DUP2 CALLDATALOAD SWAP1 POP PUSH2 0xB66 DUP2 PUSH2 0xB42 JUMP JUMPDEST SWAP3 SWAP2 POP POP JUMP JUMPDEST PUSH0 PUSH1 0x20 DUP3 DUP5 SUB SLT ISZERO PUSH2 0xB81 JUMPI PUSH2 0xB80 PUSH2 0x7E9 JUMP JUMPDEST JUMPDEST PUSH0 PUSH2 0xB8E DUP5 DUP3 DUP6 ADD PUSH2 0xB58 JUMP JUMPDEST SWAP2 POP POP SWAP3 SWAP2 POP POP JUMP JUMPDEST PUSH2 0xBA0 DUP2 PUSH2 0xB35 JUMP JUMPDEST DUP3 MSTORE POP POP JUMP JUMPDEST PUSH0 PUSH1 0x20 DUP3 ADD SWAP1 POP PUSH2 0xBB9 PUSH0 DUP4 ADD DUP5 PUSH2 0xB97 JUMP JUMPDEST SWAP3 SWAP2 POP POP JUMP JUMPDEST PUSH0 DUP1 REVERT JUMPDEST PUSH0 DUP1 REVERT JUMPDEST PUSH32 0x4E487B7100000000000000000000000000000000000000000000000000000000 PUSH0 MSTORE PUSH1 0x41 PUSH1 0x4 MSTORE PUSH1 0x24 PUSH0 REVERT JUMPDEST PUSH2 0xBFD DUP3 PUSH2 0x8F3 JUMP JUMPDEST DUP2 ADD DUP2 DUP2 LT PUSH8 0xFFFFFFFFFFFFFFFF DUP3 GT OR ISZERO PUSH2 0xC1C JUMPI PUSH2 0xC1B PUSH2 0xBC7 JUMP JUMPDEST JUMPDEST DUP1 PUSH1 0x40 MSTORE POP POP POP JUMP JUMPDEST PUSH0 PUSH2 0xC2E PUSH2 0x7E0 JUMP JUMPDEST SWAP1 POP PUSH2 0xC3A DUP3 DUP3 PUSH2 0xBF4 JUMP JUMPDEST SWAP2 SWAP1 POP JUMP JUMPDEST PUSH0 PUSH8 0xFFFFFFFFFFFFFFFF DUP3 GT ISZERO PUSH2 0xC59 JUMPI PUSH2 0xC58 PUSH2 0xBC7 JUMP JUMPDEST JUMPDEST PUSH2 0xC62 DUP3 PUSH2 0x8F3 JUMP JUMPDEST SWAP1 POP PUSH1 0x20 DUP2 ADD SWAP1 POP SWAP2 SWAP1 POP JUMP JUMPDEST DUP3 DUP2 DUP4 CALLDATACOPY PUSH0 DUP4 DUP4 ADD MSTORE POP POP POP JUMP JUMPDEST PUSH0 PUSH2 0xC8F PUSH2 0xC8A DUP5 PUSH2 0xC3F JUMP JUMPDEST PUSH2 0xC25 JUMP JUMPDEST SWAP1 POP DUP3 DUP2 MSTORE PUSH1 0x20 DUP2 ADD DUP5 DUP5 DUP5 ADD GT ISZERO PUSH2 0xCAB JUMPI PUSH2 0xCAA PUSH2 0xBC3 JUMP JUMPDEST JUMPDEST PUSH2 0xCB6 DUP5 DUP3 DUP6 PUSH2 0xC6F JUMP JUMPDEST POP SWAP4 SWAP3 POP POP POP JUMP JUMPDEST PUSH0 DUP3 PUSH1 0x1F DUP4 ADD SLT PUSH2 0xCD2 JUMPI PUSH2 0xCD1 PUSH2 0xBBF JUMP JUMPDEST JUMPDEST DUP2 CALLDATALOAD PUSH2 0xCE2 DUP5 DUP3 PUSH1 0x20 DUP7 ADD PUSH2 0xC7D JUMP JUMPDEST SWAP2 POP POP SWAP3 SWAP2 POP POP JUMP JUMPDEST PUSH0 PUSH1 0x20 DUP3 DUP5 SUB SLT ISZERO PUSH2 0xD00 JUMPI PUSH2 0xCFF PUSH2 0x7E9 JUMP JUMPDEST JUMPDEST PUSH0 DUP3 ADD CALLDATALOAD PUSH8 0xFFFFFFFFFFFFFFFF DUP2 GT ISZERO PUSH2 0xD1D JUMPI PUSH2 0xD1C PUSH2 0x7ED JUMP JUMPDEST JUMPDEST PUSH2 0xD29 DUP5 DUP3 DUP6 ADD PUSH2 0xCBE JUMP JUMPDEST SWAP2 POP POP SWAP3 SWAP2 POP POP JUMP JUMPDEST PUSH0 PUSH1 0x20 DUP3 ADD SWAP1 POP PUSH2 0xD45 PUSH0 DUP4 ADD DUP5 PUSH2 0x8BC JUMP JUMPDEST SWAP3 SWAP2 POP POP JUMP JUMPDEST PUSH0 PUSH1 0x20 DUP3 DUP5 SUB SLT ISZERO PUSH2 0xD60 JUMPI PUSH2 0xD5F PUSH2 0x7E9 JUMP JUMPDEST JUMPDEST PUSH0 PUSH2 0xD6D DUP5 DUP3 DUP6 ADD PUSH2 0x86A JUMP JUMPDEST SWAP2 POP POP SWAP3 SWAP2 POP POP JUMP JUMPDEST PUSH0 PUSH1 0x80 DUP4 ADD PUSH0 DUP4 ADD MLOAD PUSH2 0xD8B PUSH0 DUP7 ADD DUP3 PUSH2 0x9BD JUMP JUMPDEST POP PUSH1 0x20 DUP4 ADD MLOAD DUP5 DUP3 SUB PUSH1 0x20 DUP7 ADD MSTORE PUSH2 0xDA3 DUP3 DUP3 PUSH2 0x9DC JUMP JUMPDEST SWAP2 POP POP PUSH1 0x40 DUP4 ADD MLOAD PUSH2 0xDB8 PUSH1 0x40 DUP7 ADD DUP3 PUSH2 0xA14 JUMP JUMPDEST POP PUSH1 0x60 DUP4 ADD MLOAD PUSH2 0xDCB PUSH1 0x60 DUP7 ADD DUP3 PUSH2 0xA14 JUMP JUMPDEST POP DUP1 SWAP2 POP POP SWAP3 SWAP2 POP POP JUMP JUMPDEST PUSH0 PUSH1 0x20 DUP3 ADD SWAP1 POP DUP2 DUP2 SUB PUSH0 DUP4 ADD MSTORE PUSH2 0xDEE DUP2 DUP5 PUSH2 0xD76 JUMP JUMPDEST SWAP1 POP SWAP3 SWAP2 POP POP JUMP JUMPDEST PUSH32 0x4E487B7100000000000000000000000000000000000000000000000000000000 PUSH0 MSTORE PUSH1 0x22 PUSH1 0x4 MSTORE PUSH1 0x24 PUSH0 REVERT JUMPDEST PUSH0 PUSH1 0x2 DUP3 DIV SWAP1 POP PUSH1 0x1 DUP3 AND DUP1 PUSH2 0xE3A JUMPI PUSH1 0x7F DUP3 AND SWAP2 POP JUMPDEST PUSH1 0x20 DUP3 LT DUP2 SUB PUSH2 0xE4D JUMPI PUSH2 0xE4C PUSH2 0xDF6 JUMP JUMPDEST JUMPDEST POP SWAP2 SWAP1 POP JUMP JUMPDEST PUSH32 0x594F5520415245204E4F5420544845204F574E45210000000000000000000000 PUSH0 DUP3 ADD MSTORE POP JUMP JUMPDEST PUSH0 PUSH2 0xE87 PUSH1 0x15 DUP4 PUSH2 0x8D5 JUMP JUMPDEST SWAP2 POP PUSH2 0xE92 DUP3 PUSH2 0xE53 JUMP JUMPDEST PUSH1 0x20 DUP3 ADD SWAP1 POP SWAP2 SWAP1 POP JUMP JUMPDEST PUSH0 PUSH1 0x20 DUP3 ADD SWAP1 POP DUP2 DUP2 SUB PUSH0 DUP4 ADD MSTORE PUSH2 0xEB4 DUP2 PUSH2 0xE7B JUMP JUMPDEST SWAP1 POP SWAP2 SWAP1 POP JUMP JUMPDEST PUSH32 0x5468697320547765657420697320746F6F206C6F6E6721000000000000000000 PUSH0 DUP3 ADD MSTORE POP JUMP JUMPDEST PUSH0 PUSH2 0xEEF PUSH1 0x17 DUP4 PUSH2 0x8D5 JUMP JUMPDEST SWAP2 POP PUSH2 0xEFA DUP3 PUSH2 0xEBB JUMP JUMPDEST PUSH1 0x20 DUP3 ADD SWAP1 POP SWAP2 SWAP1 POP JUMP JUMPDEST PUSH0 PUSH1 0x20 DUP3 ADD SWAP1 POP DUP2 DUP2 SUB PUSH0 DUP4 ADD MSTORE PUSH2 0xF1C DUP2 PUSH2 0xEE3 JUMP JUMPDEST SWAP1 POP SWAP2 SWAP1 POP JUMP JUMPDEST PUSH0 DUP2 SWAP1 POP DUP2 PUSH0 MSTORE PUSH1 0x20 PUSH0 KECCAK256 SWAP1 POP SWAP2 SWAP1 POP JUMP JUMPDEST PUSH0 PUSH1 0x20 PUSH1 0x1F DUP4 ADD DIV SWAP1 POP SWAP2 SWAP1 POP JUMP JUMPDEST PUSH0 DUP3 DUP3 SHL SWAP1 POP SWAP3 SWAP2 POP POP JUMP JUMPDEST PUSH0 PUSH1 0x8 DUP4 MUL PUSH2 0xF7F PUSH32 0xFFFFFFFFFFFFFFFFFFFFFFFFFFFFFFFFFFFFFFFFFFFFFFFFFFFFFFFFFFFFFFFF DUP3 PUSH2 0xF44 JUMP JUMPDEST PUSH2 0xF89 DUP7 DUP4 PUSH2 0xF44 JUMP JUMPDEST SWAP6 POP DUP1 NOT DUP5 AND SWAP4 POP DUP1 DUP7 AND DUP5 OR SWAP3 POP POP POP SWAP4 SWAP3 POP POP POP JUMP JUMPDEST PUSH0 DUP2 SWAP1 POP SWAP2 SWAP1 POP JUMP JUMPDEST PUSH0 PUSH2 0xFC4 PUSH2 0xFBF PUSH2 0xFBA DUP5 PUSH2 0x84B JUMP JUMPDEST PUSH2 0xFA1 JUMP JUMPDEST PUSH2 0x84B JUMP JUMPDEST SWAP1 POP SWAP2 SWAP1 POP JUMP JUMPDEST PUSH0 DUP2 SWAP1 POP SWAP2 SWAP1 POP JUMP JUMPDEST PUSH2 0xFDD DUP4 PUSH2 0xFAA JUMP JUMPDEST PUSH2 0xFF1 PUSH2 0xFE9 DUP3 PUSH2 0xFCB JUMP JUMPDEST DUP5 DUP5 SLOAD PUSH2 0xF50 JUMP JUMPDEST DUP3 SSTORE POP POP POP POP JUMP JUMPDEST PUSH0 SWAP1 JUMP JUMPDEST PUSH2 0x1005 PUSH2 0xFF9 JUMP JUMPDEST PUSH2 0x1010 DUP2 DUP5 DUP5 PUSH2 0xFD4 JUMP JUMPDEST POP POP POP JUMP JUMPDEST JUMPDEST DUP2 DUP2 LT ISZERO PUSH2 0x1033 JUMPI PUSH2 0x1028 PUSH0 DUP3 PUSH2 0xFFD JUMP JUMPDEST PUSH1 0x1 DUP2 ADD SWAP1 POP PUSH2 0x1016 JUMP JUMPDEST POP POP JUMP JUMPDEST PUSH1 0x1F DUP3 GT ISZERO PUSH2 0x1078 JUMPI PUSH2 0x1049 DUP2 PUSH2 0xF23 JUMP JUMPDEST PUSH2 0x1052 DUP5 PUSH2 0xF35 JUMP JUMPDEST DUP2 ADD PUSH1 0x20 DUP6 LT ISZERO PUSH2 0x1061 JUMPI DUP2 SWAP1 POP JUMPDEST PUSH2 0x1075 PUSH2 0x106D DUP6 PUSH2 0xF35 JUMP JUMPDEST DUP4 ADD DUP3 PUSH2 0x1015 JUMP JUMPDEST POP POP JUMPDEST POP POP POP JUMP JUMPDEST PUSH0 DUP3 DUP3 SHR SWAP1 POP SWAP3 SWAP2 POP POP JUMP JUMPDEST PUSH0 PUSH2 0x1098 PUSH0 NOT DUP5 PUSH1 0x8 MUL PUSH2 0x107D JUMP JUMPDEST NOT DUP1 DUP4 AND SWAP2 POP POP SWAP3 SWAP2 POP POP JUMP JUMPDEST PUSH0 PUSH2 0x10B0 DUP4 DUP4 PUSH2 0x1089 JUMP JUMPDEST SWAP2 POP DUP3 PUSH1 0x2 MUL DUP3 OR SWAP1 POP SWAP3 SWAP2 POP POP JUMP JUMPDEST PUSH2 0x10C9 DUP3 PUSH2 0x8CB JUMP JUMPDEST PUSH8 0xFFFFFFFFFFFFFFFF DUP2 GT ISZERO PUSH2 0x10E2 JUMPI PUSH2 0x10E1 PUSH2 0xBC7 JUMP JUMPDEST JUMPDEST PUSH2 0x10EC DUP3 SLOAD PUSH2 0xE23 JUMP JUMPDEST PUSH2 0x10F7 DUP3 DUP3 DUP6 PUSH2 0x1037 JUMP JUMPDEST PUSH0 PUSH1 0x20 SWAP1 POP PUSH1 0x1F DUP4 GT PUSH1 0x1 DUP2 EQ PUSH2 0x1128 JUMPI PUSH0 DUP5 ISZERO PUSH2 0x1116 JUMPI DUP3 DUP8 ADD MLOAD SWAP1 POP JUMPDEST PUSH2 0x1120 DUP6 DUP3 PUSH2 0x10A5 JUMP JUMPDEST DUP7 SSTORE POP PUSH2 0x1187 JUMP JUMPDEST PUSH1 0x1F NOT DUP5 AND PUSH2 0x1136 DUP7 PUSH2 0xF23 JUMP JUMPDEST PUSH0 JUMPDEST DUP3 DUP2 LT ISZERO PUSH2 0x115D JUMPI DUP5 DUP10 ADD MLOAD DUP3 SSTORE PUSH1 0x1 DUP3 ADD SWAP2 POP PUSH1 0x20 DUP6 ADD SWAP5 POP PUSH1 0x20 DUP2 ADD SWAP1 POP PUSH2 0x1138 JUMP JUMPDEST DUP7 DUP4 LT ISZERO PUSH2 0x117A JUMPI DUP5 DUP10 ADD MLOAD PUSH2 0x1176 PUSH1 0x1F DUP10 AND DUP3 PUSH2 0x1089 JUMP JUMPDEST DUP4 SSTORE POP JUMPDEST PUSH1 0x1 PUSH1 0x2 DUP9 MUL ADD DUP9 SSTORE POP POP POP JUMPDEST POP POP POP POP POP POP JUMP JUMPDEST PUSH32 0x4E487B7100000000000000000000000000000000000000000000000000000000 PUSH0 MSTORE PUSH1 0x32 PUSH1 0x4 MSTORE PUSH1 0x24 PUSH0 REVERT INVALID LOG2 PUSH5 0x6970667358 0x22 SLT KECCAK256 JUMP 0xD3 SWAP5 CODESIZE 0xB9 DUP16 0xC1 CALLCODE PUSH6 0xD441DBA0DBFC BASEFEE CREATE2 0xE5 0xA7 0xE0 DIV 0x4C 0xD0 0xE0 DUP1 SWAP12 JUMPDEST DUP4 0xE3 SWAP1 0xD9 PUSH26 0x64736F6C634300081A0033000000000000000000000000000000 "
				},
				"gasEstimates": {
					"creation": {
						"codeDepositCost": "918800",
						"executionCost": "49484",
						"totalCost": "968284"
					},
					"external": {
						"MAX_TWEET_LENGTH()": "2463",
						"changeTweetLength(uint16)": "26887",
						"createTweet(string)": "infinite",
						"getAllTweets()": "infinite",
						"getTweet(uint256)": "infinite",
						"owner()": "2552",
						"tweets(address,uint256)": "infinite"
					}
				},
				"methodIdentifiers": {
					"MAX_TWEET_LENGTH()": "6eb10797",
					"changeTweetLength(uint16)": "58bfa4ab",
					"createTweet(string)": "7c9cd2bc",
					"getAllTweets()": "53256135",
					"getTweet(uint256)": "c3ad5ecb",
					"owner()": "8da5cb5b",
					"tweets(address,uint256)": "05a1b4a9"
				}
			},
			"storageLayout": {
				"storage": [
					{
						"astId": 4,
						"contract": "contracts/Twitter.sol:Twitter",
						"label": "MAX_TWEET_LENGTH",
						"offset": 0,
						"slot": "0",
						"type": "t_uint16"
					},
					{
						"astId": 19,
						"contract": "contracts/Twitter.sol:Twitter",
						"label": "tweets",
						"offset": 0,
						"slot": "1",
						"type": "t_mapping(t_address,t_array(t_struct(Tweet)13_storage)dyn_storage)"
					},
					{
						"astId": 21,
						"contract": "contracts/Twitter.sol:Twitter",
						"label": "owner",
						"offset": 0,
						"slot": "2",
						"type": "t_address"
					}
				],
				"types": {
					"t_address": {
						"encoding": "inplace",
						"label": "address",
						"numberOfBytes": "20"
					},
					"t_array(t_struct(Tweet)13_storage)dyn_storage": {
						"base": "t_struct(Tweet)13_storage",
						"encoding": "dynamic_array",
						"label": "struct Twitter.Tweet[]",
						"numberOfBytes": "32"
					},
					"t_mapping(t_address,t_array(t_struct(Tweet)13_storage)dyn_storage)": {
						"encoding": "mapping",
						"key": "t_address",
						"label": "mapping(address => struct Twitter.Tweet[])",
						"numberOfBytes": "32",
						"value": "t_array(t_struct(Tweet)13_storage)dyn_storage"
					},
					"t_string_storage": {
						"encoding": "bytes",
						"label": "string",
						"numberOfBytes": "32"
					},
					"t_struct(Tweet)13_storage": {
						"encoding": "inplace",
						"label": "struct Twitter.Tweet",
						"members": [
							{
								"astId": 6,
								"contract": "contracts/Twitter.sol:Twitter",
								"label": "author",
								"offset": 0,
								"slot": "0",
								"type": "t_address"
							},
							{
								"astId": 8,
								"contract": "contracts/Twitter.sol:Twitter",
								"label": "content",
								"offset": 0,
								"slot": "1",
								"type": "t_string_storage"
							},
							{
								"astId": 10,
								"contract": "contracts/Twitter.sol:Twitter",
								"label": "timestamp",
								"offset": 0,
								"slot": "2",
								"type": "t_uint256"
							},
							{
								"astId": 12,
								"contract": "contracts/Twitter.sol:Twitter",
								"label": "likes",
								"offset": 0,
								"slot": "3",
								"type": "t_uint256"
							}
						],
						"numberOfBytes": "128"
					},
					"t_uint16": {
						"encoding": "inplace",
						"label": "uint16",
						"numberOfBytes": "2"
					},
					"t_uint256": {
						"encoding": "inplace",
						"label": "uint256",
						"numberOfBytes": "32"
					}
				}
			},
			"userdoc": {
				"kind": "user",
				"methods": {},
				"version": 1
			}
		}
	}
}