{
	"contracts/Twitter.sol": {
		"Twitter": {
			"abi": [
				{
					"inputs": [],
					"stateMutability": "nonpayable",
					"type": "constructor"
				},
				{
					"anonymous": false,
					"inputs": [
						{
							"indexed": false,
							"internalType": "address",
							"name": "liker",
							"type": "address"
						},
						{
							"indexed": false,
							"internalType": "address",
							"name": "tweetAuthor",
							"type": "address"
						},
						{
							"indexed": false,
							"internalType": "uint256",
							"name": "tweetId",
							"type": "uint256"
						},
						{
							"indexed": false,
							"internalType": "uint256",
							"name": "newLikeCount",
							"type": "uint256"
						}
					],
					"name": "TweetLiked",
					"type": "event"
				},
				{
					"anonymous": false,
					"inputs": [
						{
							"indexed": false,
							"internalType": "address",
							"name": "unliker",
							"type": "address"
						},
						{
							"indexed": false,
							"internalType": "address",
							"name": "tweetAuthor",
							"type": "address"
						},
						{
							"indexed": false,
							"internalType": "uint256",
							"name": "tweetId",
							"type": "uint256"
						},
						{
							"indexed": false,
							"internalType": "uint256",
							"name": "newLikeCount",
							"type": "uint256"
						}
					],
					"name": "TweetUnliked",
					"type": "event"
				},
				{
					"anonymous": false,
					"inputs": [
						{
							"indexed": false,
							"internalType": "uint256",
							"name": "id",
							"type": "uint256"
						},
						{
							"indexed": false,
							"internalType": "address",
							"name": "author",
							"type": "address"
						},
						{
							"indexed": false,
							"internalType": "string",
							"name": "content",
							"type": "string"
						},
						{
							"indexed": false,
							"internalType": "uint256",
							"name": "timestamp",
							"type": "uint256"
						}
					],
					"name": "createdTweet",
					"type": "event"
				},
				{
					"inputs": [],
					"name": "MAX_TWEET_LENGTH",
					"outputs": [
						{
							"internalType": "uint16",
							"name": "",
							"type": "uint16"
						}
					],
					"stateMutability": "view",
					"type": "function"
				},
				{
					"inputs": [
						{
							"internalType": "uint16",
							"name": "newTweetLength",
							"type": "uint16"
						}
					],
					"name": "changeTweetLength",
					"outputs": [],
					"stateMutability": "nonpayable",
					"type": "function"
				},
				{
					"inputs": [
						{
							"internalType": "string",
							"name": "_tweet",
							"type": "string"
						}
					],
					"name": "createTweet",
					"outputs": [],
					"stateMutability": "nonpayable",
					"type": "function"
				},
				{
					"inputs": [],
					"name": "getAllTweets",
					"outputs": [
						{
							"components": [
								{
									"internalType": "uint256",
									"name": "id",
									"type": "uint256"
								},
								{
									"internalType": "address",
									"name": "author",
									"type": "address"
								},
								{
									"internalType": "string",
									"name": "content",
									"type": "string"
								},
								{
									"internalType": "uint256",
									"name": "timestamp",
									"type": "uint256"
								},
								{
									"internalType": "uint256",
									"name": "likes",
									"type": "uint256"
								}
							],
							"internalType": "struct Twitter.Tweet[]",
							"name": "",
							"type": "tuple[]"
						}
					],
					"stateMutability": "view",
					"type": "function"
				},
				{
					"inputs": [
						{
							"internalType": "uint256",
							"name": "_i",
							"type": "uint256"
						}
					],
					"name": "getTweet",
					"outputs": [
						{
							"components": [
								{
									"internalType": "uint256",
									"name": "id",
									"type": "uint256"
								},
								{
									"internalType": "address",
									"name": "author",
									"type": "address"
								},
								{
									"internalType": "string",
									"name": "content",
									"type": "string"
								},
								{
									"internalType": "uint256",
									"name": "timestamp",
									"type": "uint256"
								},
								{
									"internalType": "uint256",
									"name": "likes",
									"type": "uint256"
								}
							],
							"internalType": "struct Twitter.Tweet",
							"name": "",
							"type": "tuple"
						}
					],
					"stateMutability": "view",
					"type": "function"
				},
				{
					"inputs": [
						{
							"internalType": "address",
							"name": "author",
							"type": "address"
						},
						{
							"internalType": "uint256",
							"name": "id",
							"type": "uint256"
						}
					],
					"name": "likeTweet",
					"outputs": [],
					"stateMutability": "nonpayable",
					"type": "function"
				},
				{
					"inputs": [],
					"name": "owner",
					"outputs": [
						{
							"internalType": "address",
							"name": "",
							"type": "address"
						}
					],
					"stateMutability": "view",
					"type": "function"
				},
				{
					"inputs": [
						{
							"internalType": "address",
							"name": "",
							"type": "address"
						},
						{
							"internalType": "uint256",
							"name": "",
							"type": "uint256"
						}
					],
					"name": "tweets",
					"outputs": [
						{
							"internalType": "uint256",
							"name": "id",
							"type": "uint256"
						},
						{
							"internalType": "address",
							"name": "author",
							"type": "address"
						},
						{
							"internalType": "string",
							"name": "content",
							"type": "string"
						},
						{
							"internalType": "uint256",
							"name": "timestamp",
							"type": "uint256"
						},
						{
							"internalType": "uint256",
							"name": "likes",
							"type": "uint256"
						}
					],
					"stateMutability": "view",
					"type": "function"
				},
				{
					"inputs": [
						{
							"internalType": "address",
							"name": "author",
							"type": "address"
						},
						{
							"internalType": "uint256",
							"name": "id",
							"type": "uint256"
						}
					],
					"name": "unlikeTweet",
					"outputs": [],
					"stateMutability": "nonpayable",
					"type": "function"
				}
			],
			"devdoc": {
				"kind": "dev",
				"methods": {},
				"version": 1
			},
			"evm": {
				"assembly": "    /* \"contracts/Twitter.sol\":63:2300  contract Twitter {... */\n  mstore(0x40, 0x80)\n    /* \"contracts/Twitter.sol\":122:125  280 */\n  0x0118\n    /* \"contracts/Twitter.sol\":89:125  uint16 public MAX_TWEET_LENGTH = 280 */\n  0x00\n  dup1\n  0x0100\n  exp\n  dup2\n  sload\n  dup2\n  0xffff\n  mul\n  not\n  and\n  swap1\n  dup4\n  0xffff\n  and\n  mul\n  or\n  swap1\n  sstore\n  pop\n    /* \"contracts/Twitter.sol\":655:706  constructor() {... */\n  callvalue\n  dup1\n  iszero\n  tag_1\n  jumpi\n  0x00\n  dup1\n  revert\ntag_1:\n  pop\n    /* \"contracts/Twitter.sol\":688:698  msg.sender */\n  caller\n    /* \"contracts/Twitter.sol\":680:685  owner */\n  0x02\n  0x00\n    /* \"contracts/Twitter.sol\":680:698  owner = msg.sender */\n  0x0100\n  exp\n  dup2\n  sload\n  dup2\n  0xffffffffffffffffffffffffffffffffffffffff\n  mul\n  not\n  and\n  swap1\n  dup4\n  0xffffffffffffffffffffffffffffffffffffffff\n  and\n  mul\n  or\n  swap1\n  sstore\n  pop\n    /* \"contracts/Twitter.sol\":63:2300  contract Twitter {... */\n  dataSize(sub_0)\n  dup1\n  dataOffset(sub_0)\n  0x00\n  codecopy\n  0x00\n  return\nstop\n\nsub_0: assembly {\n        /* \"contracts/Twitter.sol\":63:2300  contract Twitter {... */\n      mstore(0x40, 0x80)\n      callvalue\n      dup1\n      iszero\n      tag_1\n      jumpi\n      0x00\n      dup1\n      revert\n    tag_1:\n      pop\n      jumpi(tag_2, lt(calldatasize, 0x04))\n      shr(0xe0, calldataload(0x00))\n      dup1\n      0x63378216\n      gt\n      tag_12\n      jumpi\n      dup1\n      0x63378216\n      eq\n      tag_7\n      jumpi\n      dup1\n      0x6eb10797\n      eq\n      tag_8\n      jumpi\n      dup1\n      0x7c9cd2bc\n      eq\n      tag_9\n      jumpi\n      dup1\n      0x8da5cb5b\n      eq\n      tag_10\n      jumpi\n      dup1\n      0xc3ad5ecb\n      eq\n      tag_11\n      jumpi\n      jump(tag_2)\n    tag_12:\n      dup1\n      0x05a1b4a9\n      eq\n      tag_3\n      jumpi\n      dup1\n      0x3d9b569f\n      eq\n      tag_4\n      jumpi\n      dup1\n      0x53256135\n      eq\n      tag_5\n      jumpi\n      dup1\n      0x58bfa4ab\n      eq\n      tag_6\n      jumpi\n    tag_2:\n      0x00\n      dup1\n      revert\n        /* \"contracts/Twitter.sol\":286:327  mapping(address => Tweet[]) public tweets */\n    tag_3:\n      tag_13\n      0x04\n      dup1\n      calldatasize\n      sub\n      dup2\n      add\n      swap1\n      tag_14\n      swap2\n      swap1\n      tag_15\n      jump\t// in\n    tag_14:\n      tag_16\n      jump\t// in\n    tag_13:\n      mload(0x40)\n      tag_17\n      swap6\n      swap5\n      swap4\n      swap3\n      swap2\n      swap1\n      tag_18\n      jump\t// in\n    tag_17:\n      mload(0x40)\n      dup1\n      swap2\n      sub\n      swap1\n      return\n        /* \"contracts/Twitter.sol\":1738:2064  function unlikeTweet(address author, uint256 id) external {... */\n    tag_4:\n      tag_19\n      0x04\n      dup1\n      calldatasize\n      sub\n      dup2\n      add\n      swap1\n      tag_20\n      swap2\n      swap1\n      tag_15\n      jump\t// in\n    tag_20:\n      tag_21\n      jump\t// in\n    tag_19:\n      stop\n        /* \"contracts/Twitter.sol\":2190:2295  function getAllTweets() public view returns (Tweet[] memory) {... */\n    tag_5:\n      tag_22\n      tag_23\n      jump\t// in\n    tag_22:\n      mload(0x40)\n      tag_24\n      swap2\n      swap1\n      tag_25\n      jump\t// in\n    tag_24:\n      mload(0x40)\n      dup1\n      swap2\n      sub\n      swap1\n      return\n        /* \"contracts/Twitter.sol\":828:947  function changeTweetLength(uint16 newTweetLength) public onlyOwner {... */\n    tag_6:\n      tag_26\n      0x04\n      dup1\n      calldatasize\n      sub\n      dup2\n      add\n      swap1\n      tag_27\n      swap2\n      swap1\n      tag_28\n      jump\t// in\n    tag_27:\n      tag_29\n      jump\t// in\n    tag_26:\n      stop\n        /* \"contracts/Twitter.sol\":1478:1730  function likeTweet(address author, uint256 id) external {... */\n    tag_7:\n      tag_30\n      0x04\n      dup1\n      calldatasize\n      sub\n      dup2\n      add\n      swap1\n      tag_31\n      swap2\n      swap1\n      tag_15\n      jump\t// in\n    tag_31:\n      tag_32\n      jump\t// in\n    tag_30:\n      stop\n        /* \"contracts/Twitter.sol\":89:125  uint16 public MAX_TWEET_LENGTH = 280 */\n    tag_8:\n      tag_33\n      tag_34\n      jump\t// in\n    tag_33:\n      mload(0x40)\n      tag_35\n      swap2\n      swap1\n      tag_36\n      jump\t// in\n    tag_35:\n      mload(0x40)\n      dup1\n      swap2\n      sub\n      swap1\n      return\n        /* \"contracts/Twitter.sol\":955:1470  function createTweet(string memory _tweet) public {... */\n    tag_9:\n      tag_37\n      0x04\n      dup1\n      calldatasize\n      sub\n      dup2\n      add\n      swap1\n      tag_38\n      swap2\n      swap1\n      tag_39\n      jump\t// in\n    tag_38:\n      tag_40\n      jump\t// in\n    tag_37:\n      stop\n        /* \"contracts/Twitter.sol\":336:356  address public owner */\n    tag_10:\n      tag_41\n      tag_42\n      jump\t// in\n    tag_41:\n      mload(0x40)\n      tag_43\n      swap2\n      swap1\n      tag_44\n      jump\t// in\n    tag_43:\n      mload(0x40)\n      dup1\n      swap2\n      sub\n      swap1\n      return\n        /* \"contracts/Twitter.sol\":2072:2182  function getTweet(uint _i) public view returns (Tweet memory) {... */\n    tag_11:\n      tag_45\n      0x04\n      dup1\n      calldatasize\n      sub\n      dup2\n      add\n      swap1\n      tag_46\n      swap2\n      swap1\n      tag_47\n      jump\t// in\n    tag_46:\n      tag_48\n      jump\t// in\n    tag_45:\n      mload(0x40)\n      tag_49\n      swap2\n      swap1\n      tag_50\n      jump\t// in\n    tag_49:\n      mload(0x40)\n      dup1\n      swap2\n      sub\n      swap1\n      return\n        /* \"contracts/Twitter.sol\":286:327  mapping(address => Tweet[]) public tweets */\n    tag_16:\n      mstore(0x20, 0x01)\n      dup2\n      0x00\n      mstore\n      keccak256(0x00, 0x40)\n      dup2\n      dup2\n      sload\n      dup2\n      lt\n      tag_51\n      jumpi\n      0x00\n      dup1\n      revert\n    tag_51:\n      swap1\n      0x00\n      mstore\n      keccak256(0x00, 0x20)\n      swap1\n      0x05\n      mul\n      add\n      0x00\n      swap2\n      pop\n      swap2\n      pop\n      pop\n      dup1\n      0x00\n      add\n      sload\n      swap1\n      dup1\n      0x01\n      add\n      0x00\n      swap1\n      sload\n      swap1\n      0x0100\n      exp\n      swap1\n      div\n      0xffffffffffffffffffffffffffffffffffffffff\n      and\n      swap1\n      dup1\n      0x02\n      add\n      dup1\n      sload\n      tag_53\n      swap1\n      tag_54\n      jump\t// in\n    tag_53:\n      dup1\n      0x1f\n      add\n      0x20\n      dup1\n      swap2\n      div\n      mul\n      0x20\n      add\n      mload(0x40)\n      swap1\n      dup2\n      add\n      0x40\n      mstore\n      dup1\n      swap3\n      swap2\n      swap1\n      dup2\n      dup2\n      mstore\n      0x20\n      add\n      dup3\n      dup1\n      sload\n      tag_55\n      swap1\n      tag_54\n      jump\t// in\n    tag_55:\n      dup1\n      iszero\n      tag_56\n      jumpi\n      dup1\n      0x1f\n      lt\n      tag_57\n      jumpi\n      0x0100\n      dup1\n      dup4\n      sload\n      div\n      mul\n      dup4\n      mstore\n      swap2\n      0x20\n      add\n      swap2\n      jump(tag_56)\n    tag_57:\n      dup3\n      add\n      swap2\n      swap1\n      0x00\n      mstore\n      keccak256(0x00, 0x20)\n      swap1\n    tag_58:\n      dup2\n      sload\n      dup2\n      mstore\n      swap1\n      0x01\n      add\n      swap1\n      0x20\n      add\n      dup1\n      dup4\n      gt\n      tag_58\n      jumpi\n      dup3\n      swap1\n      sub\n      0x1f\n      and\n      dup3\n      add\n      swap2\n    tag_56:\n      pop\n      pop\n      pop\n      pop\n      pop\n      swap1\n      dup1\n      0x03\n      add\n      sload\n      swap1\n      dup1\n      0x04\n      add\n      sload\n      swap1\n      pop\n      dup6\n      jump\t// out\n        /* \"contracts/Twitter.sol\":1738:2064  function unlikeTweet(address author, uint256 id) external {... */\n    tag_21:\n        /* \"contracts/Twitter.sol\":1840:1842  id */\n      dup1\n        /* \"contracts/Twitter.sol\":1815:1821  tweets */\n      0x01\n        /* \"contracts/Twitter.sol\":1815:1829  tweets[author] */\n      0x00\n        /* \"contracts/Twitter.sol\":1822:1828  author */\n      dup5\n        /* \"contracts/Twitter.sol\":1815:1829  tweets[author] */\n      0xffffffffffffffffffffffffffffffffffffffff\n      and\n      0xffffffffffffffffffffffffffffffffffffffff\n      and\n      dup2\n      mstore\n      0x20\n      add\n      swap1\n      dup2\n      mstore\n      0x20\n      add\n      0x00\n      keccak256\n        /* \"contracts/Twitter.sol\":1830:1832  id */\n      dup3\n        /* \"contracts/Twitter.sol\":1815:1833  tweets[author][id] */\n      dup2\n      sload\n      dup2\n      lt\n      tag_60\n      jumpi\n      tag_61\n      tag_62\n      jump\t// in\n    tag_61:\n    tag_60:\n      swap1\n      0x00\n      mstore\n      keccak256(0x00, 0x20)\n      swap1\n      0x05\n      mul\n      add\n        /* \"contracts/Twitter.sol\":1815:1836  tweets[author][id].id */\n      0x00\n      add\n      sload\n        /* \"contracts/Twitter.sol\":1815:1842  tweets[author][id].id == id */\n      eq\n        /* \"contracts/Twitter.sol\":1807:1867  require(tweets[author][id].id == id, \"TWEET DOES NOT EXIST\") */\n      tag_64\n      jumpi\n      mload(0x40)\n      0x08c379a000000000000000000000000000000000000000000000000000000000\n      dup2\n      mstore\n      0x04\n      add\n      tag_65\n      swap1\n      tag_66\n      jump\t// in\n    tag_65:\n      mload(0x40)\n      dup1\n      swap2\n      sub\n      swap1\n      revert\n    tag_64:\n        /* \"contracts/Twitter.sol\":1913:1914  0 */\n      0x00\n        /* \"contracts/Twitter.sol\":1886:1892  tweets */\n      0x01\n        /* \"contracts/Twitter.sol\":1886:1900  tweets[author] */\n      0x00\n        /* \"contracts/Twitter.sol\":1893:1899  author */\n      dup5\n        /* \"contracts/Twitter.sol\":1886:1900  tweets[author] */\n      0xffffffffffffffffffffffffffffffffffffffff\n      and\n      0xffffffffffffffffffffffffffffffffffffffff\n      and\n      dup2\n      mstore\n      0x20\n      add\n      swap1\n      dup2\n      mstore\n      0x20\n      add\n      0x00\n      keccak256\n        /* \"contracts/Twitter.sol\":1901:1903  id */\n      dup3\n        /* \"contracts/Twitter.sol\":1886:1904  tweets[author][id] */\n      dup2\n      sload\n      dup2\n      lt\n      tag_67\n      jumpi\n      tag_68\n      tag_62\n      jump\t// in\n    tag_68:\n    tag_67:\n      swap1\n      0x00\n      mstore\n      keccak256(0x00, 0x20)\n      swap1\n      0x05\n      mul\n      add\n        /* \"contracts/Twitter.sol\":1886:1910  tweets[author][id].likes */\n      0x04\n      add\n      sload\n        /* \"contracts/Twitter.sol\":1886:1914  tweets[author][id].likes > 0 */\n      gt\n        /* \"contracts/Twitter.sol\":1878:1937  require(tweets[author][id].likes > 0, \"TWEET HAS NO LIKES\") */\n      tag_70\n      jumpi\n      mload(0x40)\n      0x08c379a000000000000000000000000000000000000000000000000000000000\n      dup2\n      mstore\n      0x04\n      add\n      tag_71\n      swap1\n      tag_72\n      jump\t// in\n    tag_71:\n      mload(0x40)\n      dup1\n      swap2\n      sub\n      swap1\n      revert\n    tag_70:\n        /* \"contracts/Twitter.sol\":1950:1956  tweets */\n      0x01\n        /* \"contracts/Twitter.sol\":1950:1964  tweets[author] */\n      0x00\n        /* \"contracts/Twitter.sol\":1957:1963  author */\n      dup4\n        /* \"contracts/Twitter.sol\":1950:1964  tweets[author] */\n      0xffffffffffffffffffffffffffffffffffffffff\n      and\n      0xffffffffffffffffffffffffffffffffffffffff\n      and\n      dup2\n      mstore\n      0x20\n      add\n      swap1\n      dup2\n      mstore\n      0x20\n      add\n      0x00\n      keccak256\n        /* \"contracts/Twitter.sol\":1965:1967  id */\n      dup2\n        /* \"contracts/Twitter.sol\":1950:1968  tweets[author][id] */\n      dup2\n      sload\n      dup2\n      lt\n      tag_73\n      jumpi\n      tag_74\n      tag_62\n      jump\t// in\n    tag_74:\n    tag_73:\n      swap1\n      0x00\n      mstore\n      keccak256(0x00, 0x20)\n      swap1\n      0x05\n      mul\n      add\n        /* \"contracts/Twitter.sol\":1950:1974  tweets[author][id].likes */\n      0x04\n      add\n      0x00\n        /* \"contracts/Twitter.sol\":1950:1976  tweets[author][id].likes-- */\n      dup2\n      sload\n      dup1\n      swap3\n      swap2\n      swap1\n      tag_76\n      swap1\n      tag_77\n      jump\t// in\n    tag_76:\n      swap2\n      swap1\n      pop\n      sstore\n      pop\n        /* \"contracts/Twitter.sol\":1994:2056  TweetUnliked(msg.sender, author, id, tweets[author][id].likes) */\n      0x762c2616349603ac16eba0de8e6141b79129a07ab63bd99e0a80b3a471716943\n        /* \"contracts/Twitter.sol\":2007:2017  msg.sender */\n      caller\n        /* \"contracts/Twitter.sol\":2019:2025  author */\n      dup4\n        /* \"contracts/Twitter.sol\":2027:2029  id */\n      dup4\n        /* \"contracts/Twitter.sol\":2031:2037  tweets */\n      0x01\n        /* \"contracts/Twitter.sol\":2031:2045  tweets[author] */\n      0x00\n        /* \"contracts/Twitter.sol\":2038:2044  author */\n      dup8\n        /* \"contracts/Twitter.sol\":2031:2045  tweets[author] */\n      0xffffffffffffffffffffffffffffffffffffffff\n      and\n      0xffffffffffffffffffffffffffffffffffffffff\n      and\n      dup2\n      mstore\n      0x20\n      add\n      swap1\n      dup2\n      mstore\n      0x20\n      add\n      0x00\n      keccak256\n        /* \"contracts/Twitter.sol\":2046:2048  id */\n      dup6\n        /* \"contracts/Twitter.sol\":2031:2049  tweets[author][id] */\n      dup2\n      sload\n      dup2\n      lt\n      tag_78\n      jumpi\n      tag_79\n      tag_62\n      jump\t// in\n    tag_79:\n    tag_78:\n      swap1\n      0x00\n      mstore\n      keccak256(0x00, 0x20)\n      swap1\n      0x05\n      mul\n      add\n        /* \"contracts/Twitter.sol\":2031:2055  tweets[author][id].likes */\n      0x04\n      add\n      sload\n        /* \"contracts/Twitter.sol\":1994:2056  TweetUnliked(msg.sender, author, id, tweets[author][id].likes) */\n      mload(0x40)\n      tag_81\n      swap5\n      swap4\n      swap3\n      swap2\n      swap1\n      tag_82\n      jump\t// in\n    tag_81:\n      mload(0x40)\n      dup1\n      swap2\n      sub\n      swap1\n      log1\n        /* \"contracts/Twitter.sol\":1738:2064  function unlikeTweet(address author, uint256 id) external {... */\n      pop\n      pop\n      jump\t// out\n        /* \"contracts/Twitter.sol\":2190:2295  function getAllTweets() public view returns (Tweet[] memory) {... */\n    tag_23:\n        /* \"contracts/Twitter.sol\":2235:2249  Tweet[] memory */\n      0x60\n        /* \"contracts/Twitter.sol\":2269:2275  tweets */\n      0x01\n        /* \"contracts/Twitter.sol\":2269:2287  tweets[msg.sender] */\n      0x00\n        /* \"contracts/Twitter.sol\":2276:2286  msg.sender */\n      caller\n        /* \"contracts/Twitter.sol\":2269:2287  tweets[msg.sender] */\n      0xffffffffffffffffffffffffffffffffffffffff\n      and\n      0xffffffffffffffffffffffffffffffffffffffff\n      and\n      dup2\n      mstore\n      0x20\n      add\n      swap1\n      dup2\n      mstore\n      0x20\n      add\n      0x00\n      keccak256\n        /* \"contracts/Twitter.sol\":2262:2287  return tweets[msg.sender] */\n      dup1\n      sload\n      dup1\n      0x20\n      mul\n      0x20\n      add\n      mload(0x40)\n      swap1\n      dup2\n      add\n      0x40\n      mstore\n      dup1\n      swap3\n      swap2\n      swap1\n      dup2\n      dup2\n      mstore\n      0x20\n      add\n      0x00\n      swap1\n    tag_84:\n      dup3\n      dup3\n      lt\n      iszero\n      tag_85\n      jumpi\n      dup4\n      dup3\n      swap1\n      0x00\n      mstore\n      keccak256(0x00, 0x20)\n      swap1\n      0x05\n      mul\n      add\n      mload(0x40)\n      dup1\n      0xa0\n      add\n      0x40\n      mstore\n      swap1\n      dup2\n      0x00\n      dup3\n      add\n      sload\n      dup2\n      mstore\n      0x20\n      add\n      0x01\n      dup3\n      add\n      0x00\n      swap1\n      sload\n      swap1\n      0x0100\n      exp\n      swap1\n      div\n      0xffffffffffffffffffffffffffffffffffffffff\n      and\n      0xffffffffffffffffffffffffffffffffffffffff\n      and\n      0xffffffffffffffffffffffffffffffffffffffff\n      and\n      dup2\n      mstore\n      0x20\n      add\n      0x02\n      dup3\n      add\n      dup1\n      sload\n      tag_87\n      swap1\n      tag_54\n      jump\t// in\n    tag_87:\n      dup1\n      0x1f\n      add\n      0x20\n      dup1\n      swap2\n      div\n      mul\n      0x20\n      add\n      mload(0x40)\n      swap1\n      dup2\n      add\n      0x40\n      mstore\n      dup1\n      swap3\n      swap2\n      swap1\n      dup2\n      dup2\n      mstore\n      0x20\n      add\n      dup3\n      dup1\n      sload\n      tag_88\n      swap1\n      tag_54\n      jump\t// in\n    tag_88:\n      dup1\n      iszero\n      tag_89\n      jumpi\n      dup1\n      0x1f\n      lt\n      tag_90\n      jumpi\n      0x0100\n      dup1\n      dup4\n      sload\n      div\n      mul\n      dup4\n      mstore\n      swap2\n      0x20\n      add\n      swap2\n      jump(tag_89)\n    tag_90:\n      dup3\n      add\n      swap2\n      swap1\n      0x00\n      mstore\n      keccak256(0x00, 0x20)\n      swap1\n    tag_91:\n      dup2\n      sload\n      dup2\n      mstore\n      swap1\n      0x01\n      add\n      swap1\n      0x20\n      add\n      dup1\n      dup4\n      gt\n      tag_91\n      jumpi\n      dup3\n      swap1\n      sub\n      0x1f\n      and\n      dup3\n      add\n      swap2\n    tag_89:\n      pop\n      pop\n      pop\n      pop\n      pop\n      dup2\n      mstore\n      0x20\n      add\n      0x03\n      dup3\n      add\n      sload\n      dup2\n      mstore\n      0x20\n      add\n      0x04\n      dup3\n      add\n      sload\n      dup2\n      mstore\n      pop\n      pop\n      dup2\n      mstore\n      0x20\n      add\n      swap1\n      0x01\n      add\n      swap1\n      jump(tag_84)\n    tag_85:\n      pop\n      pop\n      pop\n      pop\n      swap1\n      pop\n        /* \"contracts/Twitter.sol\":2190:2295  function getAllTweets() public view returns (Tweet[] memory) {... */\n      swap1\n      jump\t// out\n        /* \"contracts/Twitter.sol\":828:947  function changeTweetLength(uint16 newTweetLength) public onlyOwner {... */\n    tag_29:\n        /* \"contracts/Twitter.sol\":768:773  owner */\n      0x02\n      0x00\n      swap1\n      sload\n      swap1\n      0x0100\n      exp\n      swap1\n      div\n      0xffffffffffffffffffffffffffffffffffffffff\n      and\n        /* \"contracts/Twitter.sol\":754:773  msg.sender == owner */\n      0xffffffffffffffffffffffffffffffffffffffff\n      and\n        /* \"contracts/Twitter.sol\":754:764  msg.sender */\n      caller\n        /* \"contracts/Twitter.sol\":754:773  msg.sender == owner */\n      0xffffffffffffffffffffffffffffffffffffffff\n      and\n      eq\n        /* \"contracts/Twitter.sol\":746:800  require(msg.sender == owner, \"YOU ARE NOT THE OWNER!\") */\n      tag_93\n      jumpi\n      mload(0x40)\n      0x08c379a000000000000000000000000000000000000000000000000000000000\n      dup2\n      mstore\n      0x04\n      add\n      tag_94\n      swap1\n      tag_95\n      jump\t// in\n    tag_94:\n      mload(0x40)\n      dup1\n      swap2\n      sub\n      swap1\n      revert\n    tag_93:\n        /* \"contracts/Twitter.sol\":925:939  newTweetLength */\n      dup1\n        /* \"contracts/Twitter.sol\":906:922  MAX_TWEET_LENGTH */\n      0x00\n      dup1\n        /* \"contracts/Twitter.sol\":906:939  MAX_TWEET_LENGTH = newTweetLength */\n      0x0100\n      exp\n      dup2\n      sload\n      dup2\n      0xffff\n      mul\n      not\n      and\n      swap1\n      dup4\n      0xffff\n      and\n      mul\n      or\n      swap1\n      sstore\n      pop\n        /* \"contracts/Twitter.sol\":828:947  function changeTweetLength(uint16 newTweetLength) public onlyOwner {... */\n      pop\n      jump\t// out\n        /* \"contracts/Twitter.sol\":1478:1730  function likeTweet(address author, uint256 id) external {... */\n    tag_32:\n        /* \"contracts/Twitter.sol\":1578:1580  id */\n      dup1\n        /* \"contracts/Twitter.sol\":1553:1559  tweets */\n      0x01\n        /* \"contracts/Twitter.sol\":1553:1567  tweets[author] */\n      0x00\n        /* \"contracts/Twitter.sol\":1560:1566  author */\n      dup5\n        /* \"contracts/Twitter.sol\":1553:1567  tweets[author] */\n      0xffffffffffffffffffffffffffffffffffffffff\n      and\n      0xffffffffffffffffffffffffffffffffffffffff\n      and\n      dup2\n      mstore\n      0x20\n      add\n      swap1\n      dup2\n      mstore\n      0x20\n      add\n      0x00\n      keccak256\n        /* \"contracts/Twitter.sol\":1568:1570  id */\n      dup3\n        /* \"contracts/Twitter.sol\":1553:1571  tweets[author][id] */\n      dup2\n      sload\n      dup2\n      lt\n      tag_98\n      jumpi\n      tag_99\n      tag_62\n      jump\t// in\n    tag_99:\n    tag_98:\n      swap1\n      0x00\n      mstore\n      keccak256(0x00, 0x20)\n      swap1\n      0x05\n      mul\n      add\n        /* \"contracts/Twitter.sol\":1553:1574  tweets[author][id].id */\n      0x00\n      add\n      sload\n        /* \"contracts/Twitter.sol\":1553:1580  tweets[author][id].id == id */\n      eq\n        /* \"contracts/Twitter.sol\":1545:1605  require(tweets[author][id].id == id, \"TWEET DOES NOT EXIST\") */\n      tag_101\n      jumpi\n      mload(0x40)\n      0x08c379a000000000000000000000000000000000000000000000000000000000\n      dup2\n      mstore\n      0x04\n      add\n      tag_102\n      swap1\n      tag_66\n      jump\t// in\n    tag_102:\n      mload(0x40)\n      dup1\n      swap2\n      sub\n      swap1\n      revert\n    tag_101:\n        /* \"contracts/Twitter.sol\":1618:1624  tweets */\n      0x01\n        /* \"contracts/Twitter.sol\":1618:1632  tweets[author] */\n      0x00\n        /* \"contracts/Twitter.sol\":1625:1631  author */\n      dup4\n        /* \"contracts/Twitter.sol\":1618:1632  tweets[author] */\n      0xffffffffffffffffffffffffffffffffffffffff\n      and\n      0xffffffffffffffffffffffffffffffffffffffff\n      and\n      dup2\n      mstore\n      0x20\n      add\n      swap1\n      dup2\n      mstore\n      0x20\n      add\n      0x00\n      keccak256\n        /* \"contracts/Twitter.sol\":1633:1635  id */\n      dup2\n        /* \"contracts/Twitter.sol\":1618:1636  tweets[author][id] */\n      dup2\n      sload\n      dup2\n      lt\n      tag_103\n      jumpi\n      tag_104\n      tag_62\n      jump\t// in\n    tag_104:\n    tag_103:\n      swap1\n      0x00\n      mstore\n      keccak256(0x00, 0x20)\n      swap1\n      0x05\n      mul\n      add\n        /* \"contracts/Twitter.sol\":1618:1642  tweets[author][id].likes */\n      0x04\n      add\n      0x00\n        /* \"contracts/Twitter.sol\":1618:1644  tweets[author][id].likes++ */\n      dup2\n      sload\n      dup1\n      swap3\n      swap2\n      swap1\n      tag_106\n      swap1\n      tag_107\n      jump\t// in\n    tag_106:\n      swap2\n      swap1\n      pop\n      sstore\n      pop\n        /* \"contracts/Twitter.sol\":1662:1722  TweetLiked(msg.sender, author, id, tweets[author][id].likes) */\n      0xe8a76fc0f16d11a00d1e93b689b63d76cf60af914dd3d915375dc41d01a0c3c8\n        /* \"contracts/Twitter.sol\":1673:1683  msg.sender */\n      caller\n        /* \"contracts/Twitter.sol\":1685:1691  author */\n      dup4\n        /* \"contracts/Twitter.sol\":1693:1695  id */\n      dup4\n        /* \"contracts/Twitter.sol\":1697:1703  tweets */\n      0x01\n        /* \"contracts/Twitter.sol\":1697:1711  tweets[author] */\n      0x00\n        /* \"contracts/Twitter.sol\":1704:1710  author */\n      dup8\n        /* \"contracts/Twitter.sol\":1697:1711  tweets[author] */\n      0xffffffffffffffffffffffffffffffffffffffff\n      and\n      0xffffffffffffffffffffffffffffffffffffffff\n      and\n      dup2\n      mstore\n      0x20\n      add\n      swap1\n      dup2\n      mstore\n      0x20\n      add\n      0x00\n      keccak256\n        /* \"contracts/Twitter.sol\":1712:1714  id */\n      dup6\n        /* \"contracts/Twitter.sol\":1697:1715  tweets[author][id] */\n      dup2\n      sload\n      dup2\n      lt\n      tag_108\n      jumpi\n      tag_109\n      tag_62\n      jump\t// in\n    tag_109:\n    tag_108:\n      swap1\n      0x00\n      mstore\n      keccak256(0x00, 0x20)\n      swap1\n      0x05\n      mul\n      add\n        /* \"contracts/Twitter.sol\":1697:1721  tweets[author][id].likes */\n      0x04\n      add\n      sload\n        /* \"contracts/Twitter.sol\":1662:1722  TweetLiked(msg.sender, author, id, tweets[author][id].likes) */\n      mload(0x40)\n      tag_111\n      swap5\n      swap4\n      swap3\n      swap2\n      swap1\n      tag_82\n      jump\t// in\n    tag_111:\n      mload(0x40)\n      dup1\n      swap2\n      sub\n      swap1\n      log1\n        /* \"contracts/Twitter.sol\":1478:1730  function likeTweet(address author, uint256 id) external {... */\n      pop\n      pop\n      jump\t// out\n        /* \"contracts/Twitter.sol\":89:125  uint16 public MAX_TWEET_LENGTH = 280 */\n    tag_34:\n      0x00\n      dup1\n      sload\n      swap1\n      0x0100\n      exp\n      swap1\n      div\n      0xffff\n      and\n      dup2\n      jump\t// out\n        /* \"contracts/Twitter.sol\":955:1470  function createTweet(string memory _tweet) public {... */\n    tag_40:\n        /* \"contracts/Twitter.sol\":1048:1064  MAX_TWEET_LENGTH */\n      0x00\n      dup1\n      sload\n      swap1\n      0x0100\n      exp\n      swap1\n      div\n      0xffff\n      and\n        /* \"contracts/Twitter.sol\":1024:1064  bytes(_tweet).length <= MAX_TWEET_LENGTH */\n      0xffff\n      and\n        /* \"contracts/Twitter.sol\":1030:1036  _tweet */\n      dup2\n        /* \"contracts/Twitter.sol\":1024:1044  bytes(_tweet).length */\n      mload\n        /* \"contracts/Twitter.sol\":1024:1064  bytes(_tweet).length <= MAX_TWEET_LENGTH */\n      gt\n      iszero\n        /* \"contracts/Twitter.sol\":1016:1092  require(bytes(_tweet).length <= MAX_TWEET_LENGTH, \"This Tweet is too long!\") */\n      tag_113\n      jumpi\n      mload(0x40)\n      0x08c379a000000000000000000000000000000000000000000000000000000000\n      dup2\n      mstore\n      0x04\n      add\n      tag_114\n      swap1\n      tag_115\n      jump\t// in\n    tag_114:\n      mload(0x40)\n      dup1\n      swap2\n      sub\n      swap1\n      revert\n    tag_113:\n        /* \"contracts/Twitter.sol\":1105:1126  Tweet memory newTweet */\n      0x00\n        /* \"contracts/Twitter.sol\":1129:1318  Tweet({... */\n      mload(0x40)\n      dup1\n      0xa0\n      add\n      0x40\n      mstore\n      dup1\n        /* \"contracts/Twitter.sol\":1154:1160  tweets */\n      0x01\n        /* \"contracts/Twitter.sol\":1154:1172  tweets[msg.sender] */\n      0x00\n        /* \"contracts/Twitter.sol\":1161:1171  msg.sender */\n      caller\n        /* \"contracts/Twitter.sol\":1154:1172  tweets[msg.sender] */\n      0xffffffffffffffffffffffffffffffffffffffff\n      and\n      0xffffffffffffffffffffffffffffffffffffffff\n      and\n      dup2\n      mstore\n      0x20\n      add\n      swap1\n      dup2\n      mstore\n      0x20\n      add\n      0x00\n      keccak256\n        /* \"contracts/Twitter.sol\":1154:1179  tweets[msg.sender].length */\n      dup1\n      sload\n      swap1\n      pop\n        /* \"contracts/Twitter.sol\":1129:1318  Tweet({... */\n      dup2\n      mstore\n      0x20\n      add\n        /* \"contracts/Twitter.sol\":1202:1212  msg.sender */\n      caller\n        /* \"contracts/Twitter.sol\":1129:1318  Tweet({... */\n      0xffffffffffffffffffffffffffffffffffffffff\n      and\n      dup2\n      mstore\n      0x20\n      add\n        /* \"contracts/Twitter.sol\":1236:1242  _tweet */\n      dup4\n        /* \"contracts/Twitter.sol\":1129:1318  Tweet({... */\n      dup2\n      mstore\n      0x20\n      add\n        /* \"contracts/Twitter.sol\":1268:1283  block.timestamp */\n      timestamp\n        /* \"contracts/Twitter.sol\":1129:1318  Tweet({... */\n      dup2\n      mstore\n      0x20\n      add\n        /* \"contracts/Twitter.sol\":1305:1306  0 */\n      0x00\n        /* \"contracts/Twitter.sol\":1129:1318  Tweet({... */\n      dup2\n      mstore\n      pop\n        /* \"contracts/Twitter.sol\":1105:1318  Tweet memory newTweet = Tweet({... */\n      swap1\n      pop\n        /* \"contracts/Twitter.sol\":1331:1337  tweets */\n      0x01\n        /* \"contracts/Twitter.sol\":1331:1349  tweets[msg.sender] */\n      0x00\n        /* \"contracts/Twitter.sol\":1338:1348  msg.sender */\n      caller\n        /* \"contracts/Twitter.sol\":1331:1349  tweets[msg.sender] */\n      0xffffffffffffffffffffffffffffffffffffffff\n      and\n      0xffffffffffffffffffffffffffffffffffffffff\n      and\n      dup2\n      mstore\n      0x20\n      add\n      swap1\n      dup2\n      mstore\n      0x20\n      add\n      0x00\n      keccak256\n        /* \"contracts/Twitter.sol\":1355:1363  newTweet */\n      dup2\n        /* \"contracts/Twitter.sol\":1331:1364  tweets[msg.sender].push(newTweet) */\n      swap1\n      dup1\n      0x01\n      dup2\n      sload\n      add\n      dup1\n      dup3\n      sstore\n      dup1\n      swap2\n      pop\n      pop\n      0x01\n      swap1\n      sub\n      swap1\n      0x00\n      mstore\n      keccak256(0x00, 0x20)\n      swap1\n      0x05\n      mul\n      add\n      0x00\n      swap1\n      swap2\n      swap1\n      swap2\n      swap1\n      swap2\n      pop\n      0x00\n      dup3\n      add\n      mload\n      dup2\n      0x00\n      add\n      sstore\n      0x20\n      dup3\n      add\n      mload\n      dup2\n      0x01\n      add\n      exp(0x0100, 0x00)\n      dup2\n      sload\n      dup2\n      0xffffffffffffffffffffffffffffffffffffffff\n      mul\n      not\n      and\n      swap1\n      dup4\n      0xffffffffffffffffffffffffffffffffffffffff\n      and\n      mul\n      or\n      swap1\n      sstore\n      pop\n      0x40\n      dup3\n      add\n      mload\n      dup2\n      0x02\n      add\n      swap1\n      dup2\n      tag_117\n      swap2\n      swap1\n      tag_118\n      jump\t// in\n    tag_117:\n      pop\n      0x60\n      dup3\n      add\n      mload\n      dup2\n      0x03\n      add\n      sstore\n      0x80\n      dup3\n      add\n      mload\n      dup2\n      0x04\n      add\n      sstore\n      pop\n      pop\n        /* \"contracts/Twitter.sol\":1382:1462  createdTweet(newTweet.id, newTweet.author, newTweet.content, newTweet.timestamp) */\n      0x164526cc93fdfacf70ced03a69cbd2b8530743d6700a895030bb72589871d482\n        /* \"contracts/Twitter.sol\":1395:1403  newTweet */\n      dup2\n        /* \"contracts/Twitter.sol\":1395:1406  newTweet.id */\n      0x00\n      add\n      mload\n        /* \"contracts/Twitter.sol\":1408:1416  newTweet */\n      dup3\n        /* \"contracts/Twitter.sol\":1408:1423  newTweet.author */\n      0x20\n      add\n      mload\n        /* \"contracts/Twitter.sol\":1425:1433  newTweet */\n      dup4\n        /* \"contracts/Twitter.sol\":1425:1441  newTweet.content */\n      0x40\n      add\n      mload\n        /* \"contracts/Twitter.sol\":1443:1451  newTweet */\n      dup5\n        /* \"contracts/Twitter.sol\":1443:1461  newTweet.timestamp */\n      0x60\n      add\n      mload\n        /* \"contracts/Twitter.sol\":1382:1462  createdTweet(newTweet.id, newTweet.author, newTweet.content, newTweet.timestamp) */\n      mload(0x40)\n      tag_119\n      swap5\n      swap4\n      swap3\n      swap2\n      swap1\n      tag_120\n      jump\t// in\n    tag_119:\n      mload(0x40)\n      dup1\n      swap2\n      sub\n      swap1\n      log1\n        /* \"contracts/Twitter.sol\":1005:1470  {... */\n      pop\n        /* \"contracts/Twitter.sol\":955:1470  function createTweet(string memory _tweet) public {... */\n      pop\n      jump\t// out\n        /* \"contracts/Twitter.sol\":336:356  address public owner */\n    tag_42:\n      0x02\n      0x00\n      swap1\n      sload\n      swap1\n      0x0100\n      exp\n      swap1\n      div\n      0xffffffffffffffffffffffffffffffffffffffff\n      and\n      dup2\n      jump\t// out\n        /* \"contracts/Twitter.sol\":2072:2182  function getTweet(uint _i) public view returns (Tweet memory) {... */\n    tag_48:\n        /* \"contracts/Twitter.sol\":2120:2132  Tweet memory */\n      tag_121\n      tag_122\n      jump\t// in\n    tag_121:\n        /* \"contracts/Twitter.sol\":2152:2158  tweets */\n      0x01\n        /* \"contracts/Twitter.sol\":2152:2170  tweets[msg.sender] */\n      0x00\n        /* \"contracts/Twitter.sol\":2159:2169  msg.sender */\n      caller\n        /* \"contracts/Twitter.sol\":2152:2170  tweets[msg.sender] */\n      0xffffffffffffffffffffffffffffffffffffffff\n      and\n      0xffffffffffffffffffffffffffffffffffffffff\n      and\n      dup2\n      mstore\n      0x20\n      add\n      swap1\n      dup2\n      mstore\n      0x20\n      add\n      0x00\n      keccak256\n        /* \"contracts/Twitter.sol\":2171:2173  _i */\n      dup3\n        /* \"contracts/Twitter.sol\":2152:2174  tweets[msg.sender][_i] */\n      dup2\n      sload\n      dup2\n      lt\n      tag_124\n      jumpi\n      tag_125\n      tag_62\n      jump\t// in\n    tag_125:\n    tag_124:\n      swap1\n      0x00\n      mstore\n      keccak256(0x00, 0x20)\n      swap1\n      0x05\n      mul\n      add\n        /* \"contracts/Twitter.sol\":2145:2174  return tweets[msg.sender][_i] */\n      mload(0x40)\n      dup1\n      0xa0\n      add\n      0x40\n      mstore\n      swap1\n      dup2\n      0x00\n      dup3\n      add\n      sload\n      dup2\n      mstore\n      0x20\n      add\n      0x01\n      dup3\n      add\n      0x00\n      swap1\n      sload\n      swap1\n      0x0100\n      exp\n      swap1\n      div\n      0xffffffffffffffffffffffffffffffffffffffff\n      and\n      0xffffffffffffffffffffffffffffffffffffffff\n      and\n      0xffffffffffffffffffffffffffffffffffffffff\n      and\n      dup2\n      mstore\n      0x20\n      add\n      0x02\n      dup3\n      add\n      dup1\n      sload\n      tag_127\n      swap1\n      tag_54\n      jump\t// in\n    tag_127:\n      dup1\n      0x1f\n      add\n      0x20\n      dup1\n      swap2\n      div\n      mul\n      0x20\n      add\n      mload(0x40)\n      swap1\n      dup2\n      add\n      0x40\n      mstore\n      dup1\n      swap3\n      swap2\n      swap1\n      dup2\n      dup2\n      mstore\n      0x20\n      add\n      dup3\n      dup1\n      sload\n      tag_128\n      swap1\n      tag_54\n      jump\t// in\n    tag_128:\n      dup1\n      iszero\n      tag_129\n      jumpi\n      dup1\n      0x1f\n      lt\n      tag_130\n      jumpi\n      0x0100\n      dup1\n      dup4\n      sload\n      div\n      mul\n      dup4\n      mstore\n      swap2\n      0x20\n      add\n      swap2\n      jump(tag_129)\n    tag_130:\n      dup3\n      add\n      swap2\n      swap1\n      0x00\n      mstore\n      keccak256(0x00, 0x20)\n      swap1\n    tag_131:\n      dup2\n      sload\n      dup2\n      mstore\n      swap1\n      0x01\n      add\n      swap1\n      0x20\n      add\n      dup1\n      dup4\n      gt\n      tag_131\n      jumpi\n      dup3\n      swap1\n      sub\n      0x1f\n      and\n      dup3\n      add\n      swap2\n    tag_129:\n      pop\n      pop\n      pop\n      pop\n      pop\n      dup2\n      mstore\n      0x20\n      add\n      0x03\n      dup3\n      add\n      sload\n      dup2\n      mstore\n      0x20\n      add\n      0x04\n      dup3\n      add\n      sload\n      dup2\n      mstore\n      pop\n      pop\n      swap1\n      pop\n        /* \"contracts/Twitter.sol\":2072:2182  function getTweet(uint _i) public view returns (Tweet memory) {... */\n      swap2\n      swap1\n      pop\n      jump\t// out\n    tag_122:\n      mload(0x40)\n      dup1\n      0xa0\n      add\n      0x40\n      mstore\n      dup1\n      0x00\n      dup2\n      mstore\n      0x20\n      add\n      and(0xffffffffffffffffffffffffffffffffffffffff, 0x00)\n      dup2\n      mstore\n      0x20\n      add\n      0x60\n      dup2\n      mstore\n      0x20\n      add\n      0x00\n      dup2\n      mstore\n      0x20\n      add\n      0x00\n      dup2\n      mstore\n      pop\n      swap1\n      jump\t// out\n        /* \"#utility.yul\":7:82   */\n    tag_132:\n        /* \"#utility.yul\":40:46   */\n      0x00\n        /* \"#utility.yul\":73:75   */\n      0x40\n        /* \"#utility.yul\":67:76   */\n      mload\n        /* \"#utility.yul\":57:76   */\n      swap1\n      pop\n        /* \"#utility.yul\":7:82   */\n      swap1\n      jump\t// out\n        /* \"#utility.yul\":88:205   */\n    tag_133:\n        /* \"#utility.yul\":197:198   */\n      0x00\n        /* \"#utility.yul\":194:195   */\n      dup1\n        /* \"#utility.yul\":187:199   */\n      revert\n        /* \"#utility.yul\":211:328   */\n    tag_134:\n        /* \"#utility.yul\":320:321   */\n      0x00\n        /* \"#utility.yul\":317:318   */\n      dup1\n        /* \"#utility.yul\":310:322   */\n      revert\n        /* \"#utility.yul\":334:460   */\n    tag_135:\n        /* \"#utility.yul\":371:378   */\n      0x00\n        /* \"#utility.yul\":411:453   */\n      0xffffffffffffffffffffffffffffffffffffffff\n        /* \"#utility.yul\":404:409   */\n      dup3\n        /* \"#utility.yul\":400:454   */\n      and\n        /* \"#utility.yul\":389:454   */\n      swap1\n      pop\n        /* \"#utility.yul\":334:460   */\n      swap2\n      swap1\n      pop\n      jump\t// out\n        /* \"#utility.yul\":466:562   */\n    tag_136:\n        /* \"#utility.yul\":503:510   */\n      0x00\n        /* \"#utility.yul\":532:556   */\n      tag_205\n        /* \"#utility.yul\":550:555   */\n      dup3\n        /* \"#utility.yul\":532:556   */\n      tag_135\n      jump\t// in\n    tag_205:\n        /* \"#utility.yul\":521:556   */\n      swap1\n      pop\n        /* \"#utility.yul\":466:562   */\n      swap2\n      swap1\n      pop\n      jump\t// out\n        /* \"#utility.yul\":568:690   */\n    tag_137:\n        /* \"#utility.yul\":641:665   */\n      tag_207\n        /* \"#utility.yul\":659:664   */\n      dup2\n        /* \"#utility.yul\":641:665   */\n      tag_136\n      jump\t// in\n    tag_207:\n        /* \"#utility.yul\":634:639   */\n      dup2\n        /* \"#utility.yul\":631:666   */\n      eq\n        /* \"#utility.yul\":621:684   */\n      tag_208\n      jumpi\n        /* \"#utility.yul\":680:681   */\n      0x00\n        /* \"#utility.yul\":677:678   */\n      dup1\n        /* \"#utility.yul\":670:682   */\n      revert\n        /* \"#utility.yul\":621:684   */\n    tag_208:\n        /* \"#utility.yul\":568:690   */\n      pop\n      jump\t// out\n        /* \"#utility.yul\":696:835   */\n    tag_138:\n        /* \"#utility.yul\":742:747   */\n      0x00\n        /* \"#utility.yul\":780:786   */\n      dup2\n        /* \"#utility.yul\":767:787   */\n      calldataload\n        /* \"#utility.yul\":758:787   */\n      swap1\n      pop\n        /* \"#utility.yul\":796:829   */\n      tag_210\n        /* \"#utility.yul\":823:828   */\n      dup2\n        /* \"#utility.yul\":796:829   */\n      tag_137\n      jump\t// in\n    tag_210:\n        /* \"#utility.yul\":696:835   */\n      swap3\n      swap2\n      pop\n      pop\n      jump\t// out\n        /* \"#utility.yul\":841:918   */\n    tag_139:\n        /* \"#utility.yul\":878:885   */\n      0x00\n        /* \"#utility.yul\":907:912   */\n      dup2\n        /* \"#utility.yul\":896:912   */\n      swap1\n      pop\n        /* \"#utility.yul\":841:918   */\n      swap2\n      swap1\n      pop\n      jump\t// out\n        /* \"#utility.yul\":924:1046   */\n    tag_140:\n        /* \"#utility.yul\":997:1021   */\n      tag_213\n        /* \"#utility.yul\":1015:1020   */\n      dup2\n        /* \"#utility.yul\":997:1021   */\n      tag_139\n      jump\t// in\n    tag_213:\n        /* \"#utility.yul\":990:995   */\n      dup2\n        /* \"#utility.yul\":987:1022   */\n      eq\n        /* \"#utility.yul\":977:1040   */\n      tag_214\n      jumpi\n        /* \"#utility.yul\":1036:1037   */\n      0x00\n        /* \"#utility.yul\":1033:1034   */\n      dup1\n        /* \"#utility.yul\":1026:1038   */\n      revert\n        /* \"#utility.yul\":977:1040   */\n    tag_214:\n        /* \"#utility.yul\":924:1046   */\n      pop\n      jump\t// out\n        /* \"#utility.yul\":1052:1191   */\n    tag_141:\n        /* \"#utility.yul\":1098:1103   */\n      0x00\n        /* \"#utility.yul\":1136:1142   */\n      dup2\n        /* \"#utility.yul\":1123:1143   */\n      calldataload\n        /* \"#utility.yul\":1114:1143   */\n      swap1\n      pop\n        /* \"#utility.yul\":1152:1185   */\n      tag_216\n        /* \"#utility.yul\":1179:1184   */\n      dup2\n        /* \"#utility.yul\":1152:1185   */\n      tag_140\n      jump\t// in\n    tag_216:\n        /* \"#utility.yul\":1052:1191   */\n      swap3\n      swap2\n      pop\n      pop\n      jump\t// out\n        /* \"#utility.yul\":1197:1671   */\n    tag_15:\n        /* \"#utility.yul\":1265:1271   */\n      0x00\n        /* \"#utility.yul\":1273:1279   */\n      dup1\n        /* \"#utility.yul\":1322:1324   */\n      0x40\n        /* \"#utility.yul\":1310:1319   */\n      dup4\n        /* \"#utility.yul\":1301:1308   */\n      dup6\n        /* \"#utility.yul\":1297:1320   */\n      sub\n        /* \"#utility.yul\":1293:1325   */\n      slt\n        /* \"#utility.yul\":1290:1409   */\n      iszero\n      tag_218\n      jumpi\n        /* \"#utility.yul\":1328:1407   */\n      tag_219\n      tag_133\n      jump\t// in\n    tag_219:\n        /* \"#utility.yul\":1290:1409   */\n    tag_218:\n        /* \"#utility.yul\":1448:1449   */\n      0x00\n        /* \"#utility.yul\":1473:1526   */\n      tag_220\n        /* \"#utility.yul\":1518:1525   */\n      dup6\n        /* \"#utility.yul\":1509:1515   */\n      dup3\n        /* \"#utility.yul\":1498:1507   */\n      dup7\n        /* \"#utility.yul\":1494:1516   */\n      add\n        /* \"#utility.yul\":1473:1526   */\n      tag_138\n      jump\t// in\n    tag_220:\n        /* \"#utility.yul\":1463:1526   */\n      swap3\n      pop\n        /* \"#utility.yul\":1419:1536   */\n      pop\n        /* \"#utility.yul\":1575:1577   */\n      0x20\n        /* \"#utility.yul\":1601:1654   */\n      tag_221\n        /* \"#utility.yul\":1646:1653   */\n      dup6\n        /* \"#utility.yul\":1637:1643   */\n      dup3\n        /* \"#utility.yul\":1626:1635   */\n      dup7\n        /* \"#utility.yul\":1622:1644   */\n      add\n        /* \"#utility.yul\":1601:1654   */\n      tag_141\n      jump\t// in\n    tag_221:\n        /* \"#utility.yul\":1591:1654   */\n      swap2\n      pop\n        /* \"#utility.yul\":1546:1664   */\n      pop\n        /* \"#utility.yul\":1197:1671   */\n      swap3\n      pop\n      swap3\n      swap1\n      pop\n      jump\t// out\n        /* \"#utility.yul\":1677:1795   */\n    tag_142:\n        /* \"#utility.yul\":1764:1788   */\n      tag_223\n        /* \"#utility.yul\":1782:1787   */\n      dup2\n        /* \"#utility.yul\":1764:1788   */\n      tag_139\n      jump\t// in\n    tag_223:\n        /* \"#utility.yul\":1759:1762   */\n      dup3\n        /* \"#utility.yul\":1752:1789   */\n      mstore\n        /* \"#utility.yul\":1677:1795   */\n      pop\n      pop\n      jump\t// out\n        /* \"#utility.yul\":1801:1919   */\n    tag_143:\n        /* \"#utility.yul\":1888:1912   */\n      tag_225\n        /* \"#utility.yul\":1906:1911   */\n      dup2\n        /* \"#utility.yul\":1888:1912   */\n      tag_136\n      jump\t// in\n    tag_225:\n        /* \"#utility.yul\":1883:1886   */\n      dup3\n        /* \"#utility.yul\":1876:1913   */\n      mstore\n        /* \"#utility.yul\":1801:1919   */\n      pop\n      pop\n      jump\t// out\n        /* \"#utility.yul\":1925:2024   */\n    tag_144:\n        /* \"#utility.yul\":1977:1983   */\n      0x00\n        /* \"#utility.yul\":2011:2016   */\n      dup2\n        /* \"#utility.yul\":2005:2017   */\n      mload\n        /* \"#utility.yul\":1995:2017   */\n      swap1\n      pop\n        /* \"#utility.yul\":1925:2024   */\n      swap2\n      swap1\n      pop\n      jump\t// out\n        /* \"#utility.yul\":2030:2199   */\n    tag_145:\n        /* \"#utility.yul\":2114:2125   */\n      0x00\n        /* \"#utility.yul\":2148:2154   */\n      dup3\n        /* \"#utility.yul\":2143:2146   */\n      dup3\n        /* \"#utility.yul\":2136:2155   */\n      mstore\n        /* \"#utility.yul\":2188:2192   */\n      0x20\n        /* \"#utility.yul\":2183:2186   */\n      dup3\n        /* \"#utility.yul\":2179:2193   */\n      add\n        /* \"#utility.yul\":2164:2193   */\n      swap1\n      pop\n        /* \"#utility.yul\":2030:2199   */\n      swap3\n      swap2\n      pop\n      pop\n      jump\t// out\n        /* \"#utility.yul\":2205:2344   */\n    tag_146:\n        /* \"#utility.yul\":2294:2300   */\n      dup3\n        /* \"#utility.yul\":2289:2292   */\n      dup2\n        /* \"#utility.yul\":2284:2287   */\n      dup4\n        /* \"#utility.yul\":2278:2301   */\n      mcopy\n        /* \"#utility.yul\":2335:2336   */\n      0x00\n        /* \"#utility.yul\":2326:2332   */\n      dup4\n        /* \"#utility.yul\":2321:2324   */\n      dup4\n        /* \"#utility.yul\":2317:2333   */\n      add\n        /* \"#utility.yul\":2310:2337   */\n      mstore\n        /* \"#utility.yul\":2205:2344   */\n      pop\n      pop\n      pop\n      jump\t// out\n        /* \"#utility.yul\":2350:2452   */\n    tag_147:\n        /* \"#utility.yul\":2391:2397   */\n      0x00\n        /* \"#utility.yul\":2442:2444   */\n      0x1f\n        /* \"#utility.yul\":2438:2445   */\n      not\n        /* \"#utility.yul\":2433:2435   */\n      0x1f\n        /* \"#utility.yul\":2426:2431   */\n      dup4\n        /* \"#utility.yul\":2422:2436   */\n      add\n        /* \"#utility.yul\":2418:2446   */\n      and\n        /* \"#utility.yul\":2408:2446   */\n      swap1\n      pop\n        /* \"#utility.yul\":2350:2452   */\n      swap2\n      swap1\n      pop\n      jump\t// out\n        /* \"#utility.yul\":2458:2835   */\n    tag_148:\n        /* \"#utility.yul\":2546:2549   */\n      0x00\n        /* \"#utility.yul\":2574:2613   */\n      tag_231\n        /* \"#utility.yul\":2607:2612   */\n      dup3\n        /* \"#utility.yul\":2574:2613   */\n      tag_144\n      jump\t// in\n    tag_231:\n        /* \"#utility.yul\":2629:2700   */\n      tag_232\n        /* \"#utility.yul\":2693:2699   */\n      dup2\n        /* \"#utility.yul\":2688:2691   */\n      dup6\n        /* \"#utility.yul\":2629:2700   */\n      tag_145\n      jump\t// in\n    tag_232:\n        /* \"#utility.yul\":2622:2700   */\n      swap4\n      pop\n        /* \"#utility.yul\":2709:2774   */\n      tag_233\n        /* \"#utility.yul\":2767:2773   */\n      dup2\n        /* \"#utility.yul\":2762:2765   */\n      dup6\n        /* \"#utility.yul\":2755:2759   */\n      0x20\n        /* \"#utility.yul\":2748:2753   */\n      dup7\n        /* \"#utility.yul\":2744:2760   */\n      add\n        /* \"#utility.yul\":2709:2774   */\n      tag_146\n      jump\t// in\n    tag_233:\n        /* \"#utility.yul\":2799:2828   */\n      tag_234\n        /* \"#utility.yul\":2821:2827   */\n      dup2\n        /* \"#utility.yul\":2799:2828   */\n      tag_147\n      jump\t// in\n    tag_234:\n        /* \"#utility.yul\":2794:2797   */\n      dup5\n        /* \"#utility.yul\":2790:2829   */\n      add\n        /* \"#utility.yul\":2783:2829   */\n      swap2\n      pop\n        /* \"#utility.yul\":2550:2835   */\n      pop\n        /* \"#utility.yul\":2458:2835   */\n      swap3\n      swap2\n      pop\n      pop\n      jump\t// out\n        /* \"#utility.yul\":2841:3596   */\n    tag_18:\n        /* \"#utility.yul\":3066:3070   */\n      0x00\n        /* \"#utility.yul\":3104:3107   */\n      0xa0\n        /* \"#utility.yul\":3093:3102   */\n      dup3\n        /* \"#utility.yul\":3089:3108   */\n      add\n        /* \"#utility.yul\":3081:3108   */\n      swap1\n      pop\n        /* \"#utility.yul\":3118:3189   */\n      tag_236\n        /* \"#utility.yul\":3186:3187   */\n      0x00\n        /* \"#utility.yul\":3175:3184   */\n      dup4\n        /* \"#utility.yul\":3171:3188   */\n      add\n        /* \"#utility.yul\":3162:3168   */\n      dup9\n        /* \"#utility.yul\":3118:3189   */\n      tag_142\n      jump\t// in\n    tag_236:\n        /* \"#utility.yul\":3199:3271   */\n      tag_237\n        /* \"#utility.yul\":3267:3269   */\n      0x20\n        /* \"#utility.yul\":3256:3265   */\n      dup4\n        /* \"#utility.yul\":3252:3270   */\n      add\n        /* \"#utility.yul\":3243:3249   */\n      dup8\n        /* \"#utility.yul\":3199:3271   */\n      tag_143\n      jump\t// in\n    tag_237:\n        /* \"#utility.yul\":3318:3327   */\n      dup2\n        /* \"#utility.yul\":3312:3316   */\n      dup2\n        /* \"#utility.yul\":3308:3328   */\n      sub\n        /* \"#utility.yul\":3303:3305   */\n      0x40\n        /* \"#utility.yul\":3292:3301   */\n      dup4\n        /* \"#utility.yul\":3288:3306   */\n      add\n        /* \"#utility.yul\":3281:3329   */\n      mstore\n        /* \"#utility.yul\":3346:3424   */\n      tag_238\n        /* \"#utility.yul\":3419:3423   */\n      dup2\n        /* \"#utility.yul\":3410:3416   */\n      dup7\n        /* \"#utility.yul\":3346:3424   */\n      tag_148\n      jump\t// in\n    tag_238:\n        /* \"#utility.yul\":3338:3424   */\n      swap1\n      pop\n        /* \"#utility.yul\":3434:3506   */\n      tag_239\n        /* \"#utility.yul\":3502:3504   */\n      0x60\n        /* \"#utility.yul\":3491:3500   */\n      dup4\n        /* \"#utility.yul\":3487:3505   */\n      add\n        /* \"#utility.yul\":3478:3484   */\n      dup6\n        /* \"#utility.yul\":3434:3506   */\n      tag_142\n      jump\t// in\n    tag_239:\n        /* \"#utility.yul\":3516:3589   */\n      tag_240\n        /* \"#utility.yul\":3584:3587   */\n      0x80\n        /* \"#utility.yul\":3573:3582   */\n      dup4\n        /* \"#utility.yul\":3569:3588   */\n      add\n        /* \"#utility.yul\":3560:3566   */\n      dup5\n        /* \"#utility.yul\":3516:3589   */\n      tag_142\n      jump\t// in\n    tag_240:\n        /* \"#utility.yul\":2841:3596   */\n      swap7\n      swap6\n      pop\n      pop\n      pop\n      pop\n      pop\n      pop\n      jump\t// out\n        /* \"#utility.yul\":3602:3737   */\n    tag_149:\n        /* \"#utility.yul\":3690:3696   */\n      0x00\n        /* \"#utility.yul\":3724:3729   */\n      dup2\n        /* \"#utility.yul\":3718:3730   */\n      mload\n        /* \"#utility.yul\":3708:3730   */\n      swap1\n      pop\n        /* \"#utility.yul\":3602:3737   */\n      swap2\n      swap1\n      pop\n      jump\t// out\n        /* \"#utility.yul\":3743:3948   */\n    tag_150:\n        /* \"#utility.yul\":3863:3874   */\n      0x00\n        /* \"#utility.yul\":3897:3903   */\n      dup3\n        /* \"#utility.yul\":3892:3895   */\n      dup3\n        /* \"#utility.yul\":3885:3904   */\n      mstore\n        /* \"#utility.yul\":3937:3941   */\n      0x20\n        /* \"#utility.yul\":3932:3935   */\n      dup3\n        /* \"#utility.yul\":3928:3942   */\n      add\n        /* \"#utility.yul\":3913:3942   */\n      swap1\n      pop\n        /* \"#utility.yul\":3743:3948   */\n      swap3\n      swap2\n      pop\n      pop\n      jump\t// out\n        /* \"#utility.yul\":3954:4107   */\n    tag_151:\n        /* \"#utility.yul\":4042:4046   */\n      0x00\n        /* \"#utility.yul\":4065:4068   */\n      dup2\n        /* \"#utility.yul\":4057:4068   */\n      swap1\n      pop\n        /* \"#utility.yul\":4095:4099   */\n      0x20\n        /* \"#utility.yul\":4090:4093   */\n      dup3\n        /* \"#utility.yul\":4086:4100   */\n      add\n        /* \"#utility.yul\":4078:4100   */\n      swap1\n      pop\n        /* \"#utility.yul\":3954:4107   */\n      swap2\n      swap1\n      pop\n      jump\t// out\n        /* \"#utility.yul\":4113:4221   */\n    tag_152:\n        /* \"#utility.yul\":4190:4214   */\n      tag_245\n        /* \"#utility.yul\":4208:4213   */\n      dup2\n        /* \"#utility.yul\":4190:4214   */\n      tag_139\n      jump\t// in\n    tag_245:\n        /* \"#utility.yul\":4185:4188   */\n      dup3\n        /* \"#utility.yul\":4178:4215   */\n      mstore\n        /* \"#utility.yul\":4113:4221   */\n      pop\n      pop\n      jump\t// out\n        /* \"#utility.yul\":4227:4335   */\n    tag_153:\n        /* \"#utility.yul\":4304:4328   */\n      tag_247\n        /* \"#utility.yul\":4322:4327   */\n      dup2\n        /* \"#utility.yul\":4304:4328   */\n      tag_136\n      jump\t// in\n    tag_247:\n        /* \"#utility.yul\":4299:4302   */\n      dup3\n        /* \"#utility.yul\":4292:4329   */\n      mstore\n        /* \"#utility.yul\":4227:4335   */\n      pop\n      pop\n      jump\t// out\n        /* \"#utility.yul\":4341:4500   */\n    tag_154:\n        /* \"#utility.yul\":4415:4426   */\n      0x00\n        /* \"#utility.yul\":4449:4455   */\n      dup3\n        /* \"#utility.yul\":4444:4447   */\n      dup3\n        /* \"#utility.yul\":4437:4456   */\n      mstore\n        /* \"#utility.yul\":4489:4493   */\n      0x20\n        /* \"#utility.yul\":4484:4487   */\n      dup3\n        /* \"#utility.yul\":4480:4494   */\n      add\n        /* \"#utility.yul\":4465:4494   */\n      swap1\n      pop\n        /* \"#utility.yul\":4341:4500   */\n      swap3\n      swap2\n      pop\n      pop\n      jump\t// out\n        /* \"#utility.yul\":4506:4863   */\n    tag_155:\n        /* \"#utility.yul\":4584:4587   */\n      0x00\n        /* \"#utility.yul\":4612:4651   */\n      tag_250\n        /* \"#utility.yul\":4645:4650   */\n      dup3\n        /* \"#utility.yul\":4612:4651   */\n      tag_144\n      jump\t// in\n    tag_250:\n        /* \"#utility.yul\":4667:4728   */\n      tag_251\n        /* \"#utility.yul\":4721:4727   */\n      dup2\n        /* \"#utility.yul\":4716:4719   */\n      dup6\n        /* \"#utility.yul\":4667:4728   */\n      tag_154\n      jump\t// in\n    tag_251:\n        /* \"#utility.yul\":4660:4728   */\n      swap4\n      pop\n        /* \"#utility.yul\":4737:4802   */\n      tag_252\n        /* \"#utility.yul\":4795:4801   */\n      dup2\n        /* \"#utility.yul\":4790:4793   */\n      dup6\n        /* \"#utility.yul\":4783:4787   */\n      0x20\n        /* \"#utility.yul\":4776:4781   */\n      dup7\n        /* \"#utility.yul\":4772:4788   */\n      add\n        /* \"#utility.yul\":4737:4802   */\n      tag_146\n      jump\t// in\n    tag_252:\n        /* \"#utility.yul\":4827:4856   */\n      tag_253\n        /* \"#utility.yul\":4849:4855   */\n      dup2\n        /* \"#utility.yul\":4827:4856   */\n      tag_147\n      jump\t// in\n    tag_253:\n        /* \"#utility.yul\":4822:4825   */\n      dup5\n        /* \"#utility.yul\":4818:4857   */\n      add\n        /* \"#utility.yul\":4811:4857   */\n      swap2\n      pop\n        /* \"#utility.yul\":4588:4863   */\n      pop\n        /* \"#utility.yul\":4506:4863   */\n      swap3\n      swap2\n      pop\n      pop\n      jump\t// out\n        /* \"#utility.yul\":4921:6040   */\n    tag_156:\n        /* \"#utility.yul\":5022:5025   */\n      0x00\n        /* \"#utility.yul\":5058:5062   */\n      0xa0\n        /* \"#utility.yul\":5053:5056   */\n      dup4\n        /* \"#utility.yul\":5049:5063   */\n      add\n        /* \"#utility.yul\":5143:5147   */\n      0x00\n        /* \"#utility.yul\":5136:5141   */\n      dup4\n        /* \"#utility.yul\":5132:5148   */\n      add\n        /* \"#utility.yul\":5126:5149   */\n      mload\n        /* \"#utility.yul\":5162:5225   */\n      tag_255\n        /* \"#utility.yul\":5219:5223   */\n      0x00\n        /* \"#utility.yul\":5214:5217   */\n      dup7\n        /* \"#utility.yul\":5210:5224   */\n      add\n        /* \"#utility.yul\":5196:5208   */\n      dup3\n        /* \"#utility.yul\":5162:5225   */\n      tag_152\n      jump\t// in\n    tag_255:\n        /* \"#utility.yul\":5073:5235   */\n      pop\n        /* \"#utility.yul\":5319:5323   */\n      0x20\n        /* \"#utility.yul\":5312:5317   */\n      dup4\n        /* \"#utility.yul\":5308:5324   */\n      add\n        /* \"#utility.yul\":5302:5325   */\n      mload\n        /* \"#utility.yul\":5338:5401   */\n      tag_256\n        /* \"#utility.yul\":5395:5399   */\n      0x20\n        /* \"#utility.yul\":5390:5393   */\n      dup7\n        /* \"#utility.yul\":5386:5400   */\n      add\n        /* \"#utility.yul\":5372:5384   */\n      dup3\n        /* \"#utility.yul\":5338:5401   */\n      tag_153\n      jump\t// in\n    tag_256:\n        /* \"#utility.yul\":5245:5411   */\n      pop\n        /* \"#utility.yul\":5496:5500   */\n      0x40\n        /* \"#utility.yul\":5489:5494   */\n      dup4\n        /* \"#utility.yul\":5485:5501   */\n      add\n        /* \"#utility.yul\":5479:5502   */\n      mload\n        /* \"#utility.yul\":5549:5552   */\n      dup5\n        /* \"#utility.yul\":5543:5547   */\n      dup3\n        /* \"#utility.yul\":5539:5553   */\n      sub\n        /* \"#utility.yul\":5532:5536   */\n      0x40\n        /* \"#utility.yul\":5527:5530   */\n      dup7\n        /* \"#utility.yul\":5523:5537   */\n      add\n        /* \"#utility.yul\":5516:5554   */\n      mstore\n        /* \"#utility.yul\":5575:5648   */\n      tag_257\n        /* \"#utility.yul\":5643:5647   */\n      dup3\n        /* \"#utility.yul\":5629:5641   */\n      dup3\n        /* \"#utility.yul\":5575:5648   */\n      tag_155\n      jump\t// in\n    tag_257:\n        /* \"#utility.yul\":5567:5648   */\n      swap2\n      pop\n        /* \"#utility.yul\":5421:5659   */\n      pop\n        /* \"#utility.yul\":5746:5750   */\n      0x60\n        /* \"#utility.yul\":5739:5744   */\n      dup4\n        /* \"#utility.yul\":5735:5751   */\n      add\n        /* \"#utility.yul\":5729:5752   */\n      mload\n        /* \"#utility.yul\":5765:5828   */\n      tag_258\n        /* \"#utility.yul\":5822:5826   */\n      0x60\n        /* \"#utility.yul\":5817:5820   */\n      dup7\n        /* \"#utility.yul\":5813:5827   */\n      add\n        /* \"#utility.yul\":5799:5811   */\n      dup3\n        /* \"#utility.yul\":5765:5828   */\n      tag_152\n      jump\t// in\n    tag_258:\n        /* \"#utility.yul\":5669:5838   */\n      pop\n        /* \"#utility.yul\":5921:5925   */\n      0x80\n        /* \"#utility.yul\":5914:5919   */\n      dup4\n        /* \"#utility.yul\":5910:5926   */\n      add\n        /* \"#utility.yul\":5904:5927   */\n      mload\n        /* \"#utility.yul\":5940:6003   */\n      tag_259\n        /* \"#utility.yul\":5997:6001   */\n      0x80\n        /* \"#utility.yul\":5992:5995   */\n      dup7\n        /* \"#utility.yul\":5988:6002   */\n      add\n        /* \"#utility.yul\":5974:5986   */\n      dup3\n        /* \"#utility.yul\":5940:6003   */\n      tag_152\n      jump\t// in\n    tag_259:\n        /* \"#utility.yul\":5848:6013   */\n      pop\n        /* \"#utility.yul\":6030:6034   */\n      dup1\n        /* \"#utility.yul\":6023:6034   */\n      swap2\n      pop\n        /* \"#utility.yul\":5027:6040   */\n      pop\n        /* \"#utility.yul\":4921:6040   */\n      swap3\n      swap2\n      pop\n      pop\n      jump\t// out\n        /* \"#utility.yul\":6046:6286   */\n    tag_157:\n        /* \"#utility.yul\":6157:6167   */\n      0x00\n        /* \"#utility.yul\":6192:6280   */\n      tag_261\n        /* \"#utility.yul\":6276:6279   */\n      dup4\n        /* \"#utility.yul\":6268:6274   */\n      dup4\n        /* \"#utility.yul\":6192:6280   */\n      tag_156\n      jump\t// in\n    tag_261:\n        /* \"#utility.yul\":6178:6280   */\n      swap1\n      pop\n        /* \"#utility.yul\":6046:6286   */\n      swap3\n      swap2\n      pop\n      pop\n      jump\t// out\n        /* \"#utility.yul\":6292:6426   */\n    tag_158:\n        /* \"#utility.yul\":6383:6387   */\n      0x00\n        /* \"#utility.yul\":6415:6419   */\n      0x20\n        /* \"#utility.yul\":6410:6413   */\n      dup3\n        /* \"#utility.yul\":6406:6420   */\n      add\n        /* \"#utility.yul\":6398:6420   */\n      swap1\n      pop\n        /* \"#utility.yul\":6292:6426   */\n      swap2\n      swap1\n      pop\n      jump\t// out\n        /* \"#utility.yul\":6488:7567   */\n    tag_159:\n        /* \"#utility.yul\":6649:6652   */\n      0x00\n        /* \"#utility.yul\":6678:6753   */\n      tag_264\n        /* \"#utility.yul\":6747:6752   */\n      dup3\n        /* \"#utility.yul\":6678:6753   */\n      tag_149\n      jump\t// in\n    tag_264:\n        /* \"#utility.yul\":6769:6876   */\n      tag_265\n        /* \"#utility.yul\":6869:6875   */\n      dup2\n        /* \"#utility.yul\":6864:6867   */\n      dup6\n        /* \"#utility.yul\":6769:6876   */\n      tag_150\n      jump\t// in\n    tag_265:\n        /* \"#utility.yul\":6762:6876   */\n      swap4\n      pop\n        /* \"#utility.yul\":6902:6905   */\n      dup4\n        /* \"#utility.yul\":6947:6951   */\n      0x20\n        /* \"#utility.yul\":6939:6945   */\n      dup3\n        /* \"#utility.yul\":6935:6952   */\n      mul\n        /* \"#utility.yul\":6930:6933   */\n      dup6\n        /* \"#utility.yul\":6926:6953   */\n      add\n        /* \"#utility.yul\":6977:7054   */\n      tag_266\n        /* \"#utility.yul\":7048:7053   */\n      dup6\n        /* \"#utility.yul\":6977:7054   */\n      tag_151\n      jump\t// in\n    tag_266:\n        /* \"#utility.yul\":7077:7084   */\n      dup1\n        /* \"#utility.yul\":7108:7109   */\n      0x00\n        /* \"#utility.yul\":7093:7522   */\n    tag_267:\n        /* \"#utility.yul\":7118:7124   */\n      dup6\n        /* \"#utility.yul\":7115:7116   */\n      dup2\n        /* \"#utility.yul\":7112:7125   */\n      lt\n        /* \"#utility.yul\":7093:7522   */\n      iszero\n      tag_269\n      jumpi\n        /* \"#utility.yul\":7189:7198   */\n      dup5\n        /* \"#utility.yul\":7183:7187   */\n      dup5\n        /* \"#utility.yul\":7179:7199   */\n      sub\n        /* \"#utility.yul\":7174:7177   */\n      dup10\n        /* \"#utility.yul\":7167:7200   */\n      mstore\n        /* \"#utility.yul\":7240:7246   */\n      dup2\n        /* \"#utility.yul\":7234:7247   */\n      mload\n        /* \"#utility.yul\":7268:7374   */\n      tag_270\n        /* \"#utility.yul\":7369:7373   */\n      dup6\n        /* \"#utility.yul\":7354:7367   */\n      dup3\n        /* \"#utility.yul\":7268:7374   */\n      tag_157\n      jump\t// in\n    tag_270:\n        /* \"#utility.yul\":7260:7374   */\n      swap5\n      pop\n        /* \"#utility.yul\":7397:7478   */\n      tag_271\n        /* \"#utility.yul\":7471:7477   */\n      dup4\n        /* \"#utility.yul\":7397:7478   */\n      tag_158\n      jump\t// in\n    tag_271:\n        /* \"#utility.yul\":7387:7478   */\n      swap3\n      pop\n        /* \"#utility.yul\":7507:7511   */\n      0x20\n        /* \"#utility.yul\":7502:7505   */\n      dup11\n        /* \"#utility.yul\":7498:7512   */\n      add\n        /* \"#utility.yul\":7491:7512   */\n      swap10\n      pop\n        /* \"#utility.yul\":7153:7522   */\n      pop\n        /* \"#utility.yul\":7140:7141   */\n      0x01\n        /* \"#utility.yul\":7137:7138   */\n      dup2\n        /* \"#utility.yul\":7133:7142   */\n      add\n        /* \"#utility.yul\":7128:7142   */\n      swap1\n      pop\n        /* \"#utility.yul\":7093:7522   */\n      jump(tag_267)\n    tag_269:\n        /* \"#utility.yul\":7097:7111   */\n      pop\n        /* \"#utility.yul\":7538:7542   */\n      dup3\n        /* \"#utility.yul\":7531:7542   */\n      swap8\n      pop\n        /* \"#utility.yul\":7558:7561   */\n      dup8\n        /* \"#utility.yul\":7551:7561   */\n      swap6\n      pop\n        /* \"#utility.yul\":6654:7567   */\n      pop\n      pop\n      pop\n      pop\n      pop\n        /* \"#utility.yul\":6488:7567   */\n      swap3\n      swap2\n      pop\n      pop\n      jump\t// out\n        /* \"#utility.yul\":7573:8030   */\n    tag_25:\n        /* \"#utility.yul\":7758:7762   */\n      0x00\n        /* \"#utility.yul\":7796:7798   */\n      0x20\n        /* \"#utility.yul\":7785:7794   */\n      dup3\n        /* \"#utility.yul\":7781:7799   */\n      add\n        /* \"#utility.yul\":7773:7799   */\n      swap1\n      pop\n        /* \"#utility.yul\":7845:7854   */\n      dup2\n        /* \"#utility.yul\":7839:7843   */\n      dup2\n        /* \"#utility.yul\":7835:7855   */\n      sub\n        /* \"#utility.yul\":7831:7832   */\n      0x00\n        /* \"#utility.yul\":7820:7829   */\n      dup4\n        /* \"#utility.yul\":7816:7833   */\n      add\n        /* \"#utility.yul\":7809:7856   */\n      mstore\n        /* \"#utility.yul\":7873:8023   */\n      tag_273\n        /* \"#utility.yul\":8018:8022   */\n      dup2\n        /* \"#utility.yul\":8009:8015   */\n      dup5\n        /* \"#utility.yul\":7873:8023   */\n      tag_159\n      jump\t// in\n    tag_273:\n        /* \"#utility.yul\":7865:8023   */\n      swap1\n      pop\n        /* \"#utility.yul\":7573:8030   */\n      swap3\n      swap2\n      pop\n      pop\n      jump\t// out\n        /* \"#utility.yul\":8036:8125   */\n    tag_160:\n        /* \"#utility.yul\":8072:8079   */\n      0x00\n        /* \"#utility.yul\":8112:8118   */\n      0xffff\n        /* \"#utility.yul\":8105:8110   */\n      dup3\n        /* \"#utility.yul\":8101:8119   */\n      and\n        /* \"#utility.yul\":8090:8119   */\n      swap1\n      pop\n        /* \"#utility.yul\":8036:8125   */\n      swap2\n      swap1\n      pop\n      jump\t// out\n        /* \"#utility.yul\":8131:8251   */\n    tag_161:\n        /* \"#utility.yul\":8203:8226   */\n      tag_276\n        /* \"#utility.yul\":8220:8225   */\n      dup2\n        /* \"#utility.yul\":8203:8226   */\n      tag_160\n      jump\t// in\n    tag_276:\n        /* \"#utility.yul\":8196:8201   */\n      dup2\n        /* \"#utility.yul\":8193:8227   */\n      eq\n        /* \"#utility.yul\":8183:8245   */\n      tag_277\n      jumpi\n        /* \"#utility.yul\":8241:8242   */\n      0x00\n        /* \"#utility.yul\":8238:8239   */\n      dup1\n        /* \"#utility.yul\":8231:8243   */\n      revert\n        /* \"#utility.yul\":8183:8245   */\n    tag_277:\n        /* \"#utility.yul\":8131:8251   */\n      pop\n      jump\t// out\n        /* \"#utility.yul\":8257:8394   */\n    tag_162:\n        /* \"#utility.yul\":8302:8307   */\n      0x00\n        /* \"#utility.yul\":8340:8346   */\n      dup2\n        /* \"#utility.yul\":8327:8347   */\n      calldataload\n        /* \"#utility.yul\":8318:8347   */\n      swap1\n      pop\n        /* \"#utility.yul\":8356:8388   */\n      tag_279\n        /* \"#utility.yul\":8382:8387   */\n      dup2\n        /* \"#utility.yul\":8356:8388   */\n      tag_161\n      jump\t// in\n    tag_279:\n        /* \"#utility.yul\":8257:8394   */\n      swap3\n      swap2\n      pop\n      pop\n      jump\t// out\n        /* \"#utility.yul\":8400:8727   */\n    tag_28:\n        /* \"#utility.yul\":8458:8464   */\n      0x00\n        /* \"#utility.yul\":8507:8509   */\n      0x20\n        /* \"#utility.yul\":8495:8504   */\n      dup3\n        /* \"#utility.yul\":8486:8493   */\n      dup5\n        /* \"#utility.yul\":8482:8505   */\n      sub\n        /* \"#utility.yul\":8478:8510   */\n      slt\n        /* \"#utility.yul\":8475:8594   */\n      iszero\n      tag_281\n      jumpi\n        /* \"#utility.yul\":8513:8592   */\n      tag_282\n      tag_133\n      jump\t// in\n    tag_282:\n        /* \"#utility.yul\":8475:8594   */\n    tag_281:\n        /* \"#utility.yul\":8633:8634   */\n      0x00\n        /* \"#utility.yul\":8658:8710   */\n      tag_283\n        /* \"#utility.yul\":8702:8709   */\n      dup5\n        /* \"#utility.yul\":8693:8699   */\n      dup3\n        /* \"#utility.yul\":8682:8691   */\n      dup6\n        /* \"#utility.yul\":8678:8700   */\n      add\n        /* \"#utility.yul\":8658:8710   */\n      tag_162\n      jump\t// in\n    tag_283:\n        /* \"#utility.yul\":8648:8710   */\n      swap2\n      pop\n        /* \"#utility.yul\":8604:8720   */\n      pop\n        /* \"#utility.yul\":8400:8727   */\n      swap3\n      swap2\n      pop\n      pop\n      jump\t// out\n        /* \"#utility.yul\":8733:8848   */\n    tag_163:\n        /* \"#utility.yul\":8818:8841   */\n      tag_285\n        /* \"#utility.yul\":8835:8840   */\n      dup2\n        /* \"#utility.yul\":8818:8841   */\n      tag_160\n      jump\t// in\n    tag_285:\n        /* \"#utility.yul\":8813:8816   */\n      dup3\n        /* \"#utility.yul\":8806:8842   */\n      mstore\n        /* \"#utility.yul\":8733:8848   */\n      pop\n      pop\n      jump\t// out\n        /* \"#utility.yul\":8854:9072   */\n    tag_36:\n        /* \"#utility.yul\":8945:8949   */\n      0x00\n        /* \"#utility.yul\":8983:8985   */\n      0x20\n        /* \"#utility.yul\":8972:8981   */\n      dup3\n        /* \"#utility.yul\":8968:8986   */\n      add\n        /* \"#utility.yul\":8960:8986   */\n      swap1\n      pop\n        /* \"#utility.yul\":8996:9065   */\n      tag_287\n        /* \"#utility.yul\":9062:9063   */\n      0x00\n        /* \"#utility.yul\":9051:9060   */\n      dup4\n        /* \"#utility.yul\":9047:9064   */\n      add\n        /* \"#utility.yul\":9038:9044   */\n      dup5\n        /* \"#utility.yul\":8996:9065   */\n      tag_163\n      jump\t// in\n    tag_287:\n        /* \"#utility.yul\":8854:9072   */\n      swap3\n      swap2\n      pop\n      pop\n      jump\t// out\n        /* \"#utility.yul\":9078:9195   */\n    tag_164:\n        /* \"#utility.yul\":9187:9188   */\n      0x00\n        /* \"#utility.yul\":9184:9185   */\n      dup1\n        /* \"#utility.yul\":9177:9189   */\n      revert\n        /* \"#utility.yul\":9201:9318   */\n    tag_165:\n        /* \"#utility.yul\":9310:9311   */\n      0x00\n        /* \"#utility.yul\":9307:9308   */\n      dup1\n        /* \"#utility.yul\":9300:9312   */\n      revert\n        /* \"#utility.yul\":9324:9504   */\n    tag_166:\n        /* \"#utility.yul\":9372:9449   */\n      0x4e487b7100000000000000000000000000000000000000000000000000000000\n        /* \"#utility.yul\":9369:9370   */\n      0x00\n        /* \"#utility.yul\":9362:9450   */\n      mstore\n        /* \"#utility.yul\":9469:9473   */\n      0x41\n        /* \"#utility.yul\":9466:9467   */\n      0x04\n        /* \"#utility.yul\":9459:9474   */\n      mstore\n        /* \"#utility.yul\":9493:9497   */\n      0x24\n        /* \"#utility.yul\":9490:9491   */\n      0x00\n        /* \"#utility.yul\":9483:9498   */\n      revert\n        /* \"#utility.yul\":9510:9791   */\n    tag_167:\n        /* \"#utility.yul\":9593:9620   */\n      tag_292\n        /* \"#utility.yul\":9615:9619   */\n      dup3\n        /* \"#utility.yul\":9593:9620   */\n      tag_147\n      jump\t// in\n    tag_292:\n        /* \"#utility.yul\":9585:9591   */\n      dup2\n        /* \"#utility.yul\":9581:9621   */\n      add\n        /* \"#utility.yul\":9723:9729   */\n      dup2\n        /* \"#utility.yul\":9711:9721   */\n      dup2\n        /* \"#utility.yul\":9708:9730   */\n      lt\n        /* \"#utility.yul\":9687:9705   */\n      0xffffffffffffffff\n        /* \"#utility.yul\":9675:9685   */\n      dup3\n        /* \"#utility.yul\":9672:9706   */\n      gt\n        /* \"#utility.yul\":9669:9731   */\n      or\n        /* \"#utility.yul\":9666:9754   */\n      iszero\n      tag_293\n      jumpi\n        /* \"#utility.yul\":9734:9752   */\n      tag_294\n      tag_166\n      jump\t// in\n    tag_294:\n        /* \"#utility.yul\":9666:9754   */\n    tag_293:\n        /* \"#utility.yul\":9774:9784   */\n      dup1\n        /* \"#utility.yul\":9770:9772   */\n      0x40\n        /* \"#utility.yul\":9763:9785   */\n      mstore\n        /* \"#utility.yul\":9553:9791   */\n      pop\n        /* \"#utility.yul\":9510:9791   */\n      pop\n      pop\n      jump\t// out\n        /* \"#utility.yul\":9797:9926   */\n    tag_168:\n        /* \"#utility.yul\":9831:9837   */\n      0x00\n        /* \"#utility.yul\":9858:9878   */\n      tag_296\n      tag_132\n      jump\t// in\n    tag_296:\n        /* \"#utility.yul\":9848:9878   */\n      swap1\n      pop\n        /* \"#utility.yul\":9887:9920   */\n      tag_297\n        /* \"#utility.yul\":9915:9919   */\n      dup3\n        /* \"#utility.yul\":9907:9913   */\n      dup3\n        /* \"#utility.yul\":9887:9920   */\n      tag_167\n      jump\t// in\n    tag_297:\n        /* \"#utility.yul\":9797:9926   */\n      swap2\n      swap1\n      pop\n      jump\t// out\n        /* \"#utility.yul\":9932:10240   */\n    tag_169:\n        /* \"#utility.yul\":9994:9998   */\n      0x00\n        /* \"#utility.yul\":10084:10102   */\n      0xffffffffffffffff\n        /* \"#utility.yul\":10076:10082   */\n      dup3\n        /* \"#utility.yul\":10073:10103   */\n      gt\n        /* \"#utility.yul\":10070:10126   */\n      iszero\n      tag_299\n      jumpi\n        /* \"#utility.yul\":10106:10124   */\n      tag_300\n      tag_166\n      jump\t// in\n    tag_300:\n        /* \"#utility.yul\":10070:10126   */\n    tag_299:\n        /* \"#utility.yul\":10144:10173   */\n      tag_301\n        /* \"#utility.yul\":10166:10172   */\n      dup3\n        /* \"#utility.yul\":10144:10173   */\n      tag_147\n      jump\t// in\n    tag_301:\n        /* \"#utility.yul\":10136:10173   */\n      swap1\n      pop\n        /* \"#utility.yul\":10228:10232   */\n      0x20\n        /* \"#utility.yul\":10222:10226   */\n      dup2\n        /* \"#utility.yul\":10218:10233   */\n      add\n        /* \"#utility.yul\":10210:10233   */\n      swap1\n      pop\n        /* \"#utility.yul\":9932:10240   */\n      swap2\n      swap1\n      pop\n      jump\t// out\n        /* \"#utility.yul\":10246:10394   */\n    tag_170:\n        /* \"#utility.yul\":10344:10350   */\n      dup3\n        /* \"#utility.yul\":10339:10342   */\n      dup2\n        /* \"#utility.yul\":10334:10337   */\n      dup4\n        /* \"#utility.yul\":10321:10351   */\n      calldatacopy\n        /* \"#utility.yul\":10385:10386   */\n      0x00\n        /* \"#utility.yul\":10376:10382   */\n      dup4\n        /* \"#utility.yul\":10371:10374   */\n      dup4\n        /* \"#utility.yul\":10367:10383   */\n      add\n        /* \"#utility.yul\":10360:10387   */\n      mstore\n        /* \"#utility.yul\":10246:10394   */\n      pop\n      pop\n      pop\n      jump\t// out\n        /* \"#utility.yul\":10400:10825   */\n    tag_171:\n        /* \"#utility.yul\":10478:10483   */\n      0x00\n        /* \"#utility.yul\":10503:10569   */\n      tag_304\n        /* \"#utility.yul\":10519:10568   */\n      tag_305\n        /* \"#utility.yul\":10561:10567   */\n      dup5\n        /* \"#utility.yul\":10519:10568   */\n      tag_169\n      jump\t// in\n    tag_305:\n        /* \"#utility.yul\":10503:10569   */\n      tag_168\n      jump\t// in\n    tag_304:\n        /* \"#utility.yul\":10494:10569   */\n      swap1\n      pop\n        /* \"#utility.yul\":10592:10598   */\n      dup3\n        /* \"#utility.yul\":10585:10590   */\n      dup2\n        /* \"#utility.yul\":10578:10599   */\n      mstore\n        /* \"#utility.yul\":10630:10634   */\n      0x20\n        /* \"#utility.yul\":10623:10628   */\n      dup2\n        /* \"#utility.yul\":10619:10635   */\n      add\n        /* \"#utility.yul\":10668:10671   */\n      dup5\n        /* \"#utility.yul\":10659:10665   */\n      dup5\n        /* \"#utility.yul\":10654:10657   */\n      dup5\n        /* \"#utility.yul\":10650:10666   */\n      add\n        /* \"#utility.yul\":10647:10672   */\n      gt\n        /* \"#utility.yul\":10644:10756   */\n      iszero\n      tag_306\n      jumpi\n        /* \"#utility.yul\":10675:10754   */\n      tag_307\n      tag_165\n      jump\t// in\n    tag_307:\n        /* \"#utility.yul\":10644:10756   */\n    tag_306:\n        /* \"#utility.yul\":10765:10819   */\n      tag_308\n        /* \"#utility.yul\":10812:10818   */\n      dup5\n        /* \"#utility.yul\":10807:10810   */\n      dup3\n        /* \"#utility.yul\":10802:10805   */\n      dup6\n        /* \"#utility.yul\":10765:10819   */\n      tag_170\n      jump\t// in\n    tag_308:\n        /* \"#utility.yul\":10484:10825   */\n      pop\n        /* \"#utility.yul\":10400:10825   */\n      swap4\n      swap3\n      pop\n      pop\n      pop\n      jump\t// out\n        /* \"#utility.yul\":10845:11185   */\n    tag_172:\n        /* \"#utility.yul\":10901:10906   */\n      0x00\n        /* \"#utility.yul\":10950:10953   */\n      dup3\n        /* \"#utility.yul\":10943:10947   */\n      0x1f\n        /* \"#utility.yul\":10935:10941   */\n      dup4\n        /* \"#utility.yul\":10931:10948   */\n      add\n        /* \"#utility.yul\":10927:10954   */\n      slt\n        /* \"#utility.yul\":10917:11039   */\n      tag_310\n      jumpi\n        /* \"#utility.yul\":10958:11037   */\n      tag_311\n      tag_164\n      jump\t// in\n    tag_311:\n        /* \"#utility.yul\":10917:11039   */\n    tag_310:\n        /* \"#utility.yul\":11075:11081   */\n      dup2\n        /* \"#utility.yul\":11062:11082   */\n      calldataload\n        /* \"#utility.yul\":11100:11179   */\n      tag_312\n        /* \"#utility.yul\":11175:11178   */\n      dup5\n        /* \"#utility.yul\":11167:11173   */\n      dup3\n        /* \"#utility.yul\":11160:11164   */\n      0x20\n        /* \"#utility.yul\":11152:11158   */\n      dup7\n        /* \"#utility.yul\":11148:11165   */\n      add\n        /* \"#utility.yul\":11100:11179   */\n      tag_171\n      jump\t// in\n    tag_312:\n        /* \"#utility.yul\":11091:11179   */\n      swap2\n      pop\n        /* \"#utility.yul\":10907:11185   */\n      pop\n        /* \"#utility.yul\":10845:11185   */\n      swap3\n      swap2\n      pop\n      pop\n      jump\t// out\n        /* \"#utility.yul\":11191:11700   */\n    tag_39:\n        /* \"#utility.yul\":11260:11266   */\n      0x00\n        /* \"#utility.yul\":11309:11311   */\n      0x20\n        /* \"#utility.yul\":11297:11306   */\n      dup3\n        /* \"#utility.yul\":11288:11295   */\n      dup5\n        /* \"#utility.yul\":11284:11307   */\n      sub\n        /* \"#utility.yul\":11280:11312   */\n      slt\n        /* \"#utility.yul\":11277:11396   */\n      iszero\n      tag_314\n      jumpi\n        /* \"#utility.yul\":11315:11394   */\n      tag_315\n      tag_133\n      jump\t// in\n    tag_315:\n        /* \"#utility.yul\":11277:11396   */\n    tag_314:\n        /* \"#utility.yul\":11463:11464   */\n      0x00\n        /* \"#utility.yul\":11452:11461   */\n      dup3\n        /* \"#utility.yul\":11448:11465   */\n      add\n        /* \"#utility.yul\":11435:11466   */\n      calldataload\n        /* \"#utility.yul\":11493:11511   */\n      0xffffffffffffffff\n        /* \"#utility.yul\":11485:11491   */\n      dup2\n        /* \"#utility.yul\":11482:11512   */\n      gt\n        /* \"#utility.yul\":11479:11596   */\n      iszero\n      tag_316\n      jumpi\n        /* \"#utility.yul\":11515:11594   */\n      tag_317\n      tag_134\n      jump\t// in\n    tag_317:\n        /* \"#utility.yul\":11479:11596   */\n    tag_316:\n        /* \"#utility.yul\":11620:11683   */\n      tag_318\n        /* \"#utility.yul\":11675:11682   */\n      dup5\n        /* \"#utility.yul\":11666:11672   */\n      dup3\n        /* \"#utility.yul\":11655:11664   */\n      dup6\n        /* \"#utility.yul\":11651:11673   */\n      add\n        /* \"#utility.yul\":11620:11683   */\n      tag_172\n      jump\t// in\n    tag_318:\n        /* \"#utility.yul\":11610:11683   */\n      swap2\n      pop\n        /* \"#utility.yul\":11406:11693   */\n      pop\n        /* \"#utility.yul\":11191:11700   */\n      swap3\n      swap2\n      pop\n      pop\n      jump\t// out\n        /* \"#utility.yul\":11706:11928   */\n    tag_44:\n        /* \"#utility.yul\":11799:11803   */\n      0x00\n        /* \"#utility.yul\":11837:11839   */\n      0x20\n        /* \"#utility.yul\":11826:11835   */\n      dup3\n        /* \"#utility.yul\":11822:11840   */\n      add\n        /* \"#utility.yul\":11814:11840   */\n      swap1\n      pop\n        /* \"#utility.yul\":11850:11921   */\n      tag_320\n        /* \"#utility.yul\":11918:11919   */\n      0x00\n        /* \"#utility.yul\":11907:11916   */\n      dup4\n        /* \"#utility.yul\":11903:11920   */\n      add\n        /* \"#utility.yul\":11894:11900   */\n      dup5\n        /* \"#utility.yul\":11850:11921   */\n      tag_143\n      jump\t// in\n    tag_320:\n        /* \"#utility.yul\":11706:11928   */\n      swap3\n      swap2\n      pop\n      pop\n      jump\t// out\n        /* \"#utility.yul\":11934:12263   */\n    tag_47:\n        /* \"#utility.yul\":11993:11999   */\n      0x00\n        /* \"#utility.yul\":12042:12044   */\n      0x20\n        /* \"#utility.yul\":12030:12039   */\n      dup3\n        /* \"#utility.yul\":12021:12028   */\n      dup5\n        /* \"#utility.yul\":12017:12040   */\n      sub\n        /* \"#utility.yul\":12013:12045   */\n      slt\n        /* \"#utility.yul\":12010:12129   */\n      iszero\n      tag_322\n      jumpi\n        /* \"#utility.yul\":12048:12127   */\n      tag_323\n      tag_133\n      jump\t// in\n    tag_323:\n        /* \"#utility.yul\":12010:12129   */\n    tag_322:\n        /* \"#utility.yul\":12168:12169   */\n      0x00\n        /* \"#utility.yul\":12193:12246   */\n      tag_324\n        /* \"#utility.yul\":12238:12245   */\n      dup5\n        /* \"#utility.yul\":12229:12235   */\n      dup3\n        /* \"#utility.yul\":12218:12227   */\n      dup6\n        /* \"#utility.yul\":12214:12236   */\n      add\n        /* \"#utility.yul\":12193:12246   */\n      tag_141\n      jump\t// in\n    tag_324:\n        /* \"#utility.yul\":12183:12246   */\n      swap2\n      pop\n        /* \"#utility.yul\":12139:12256   */\n      pop\n        /* \"#utility.yul\":11934:12263   */\n      swap3\n      swap2\n      pop\n      pop\n      jump\t// out\n        /* \"#utility.yul\":12321:13450   */\n    tag_173:\n        /* \"#utility.yul\":12432:12435   */\n      0x00\n        /* \"#utility.yul\":12468:12472   */\n      0xa0\n        /* \"#utility.yul\":12463:12466   */\n      dup4\n        /* \"#utility.yul\":12459:12473   */\n      add\n        /* \"#utility.yul\":12553:12557   */\n      0x00\n        /* \"#utility.yul\":12546:12551   */\n      dup4\n        /* \"#utility.yul\":12542:12558   */\n      add\n        /* \"#utility.yul\":12536:12559   */\n      mload\n        /* \"#utility.yul\":12572:12635   */\n      tag_326\n        /* \"#utility.yul\":12629:12633   */\n      0x00\n        /* \"#utility.yul\":12624:12627   */\n      dup7\n        /* \"#utility.yul\":12620:12634   */\n      add\n        /* \"#utility.yul\":12606:12618   */\n      dup3\n        /* \"#utility.yul\":12572:12635   */\n      tag_152\n      jump\t// in\n    tag_326:\n        /* \"#utility.yul\":12483:12645   */\n      pop\n        /* \"#utility.yul\":12729:12733   */\n      0x20\n        /* \"#utility.yul\":12722:12727   */\n      dup4\n        /* \"#utility.yul\":12718:12734   */\n      add\n        /* \"#utility.yul\":12712:12735   */\n      mload\n        /* \"#utility.yul\":12748:12811   */\n      tag_327\n        /* \"#utility.yul\":12805:12809   */\n      0x20\n        /* \"#utility.yul\":12800:12803   */\n      dup7\n        /* \"#utility.yul\":12796:12810   */\n      add\n        /* \"#utility.yul\":12782:12794   */\n      dup3\n        /* \"#utility.yul\":12748:12811   */\n      tag_153\n      jump\t// in\n    tag_327:\n        /* \"#utility.yul\":12655:12821   */\n      pop\n        /* \"#utility.yul\":12906:12910   */\n      0x40\n        /* \"#utility.yul\":12899:12904   */\n      dup4\n        /* \"#utility.yul\":12895:12911   */\n      add\n        /* \"#utility.yul\":12889:12912   */\n      mload\n        /* \"#utility.yul\":12959:12962   */\n      dup5\n        /* \"#utility.yul\":12953:12957   */\n      dup3\n        /* \"#utility.yul\":12949:12963   */\n      sub\n        /* \"#utility.yul\":12942:12946   */\n      0x40\n        /* \"#utility.yul\":12937:12940   */\n      dup7\n        /* \"#utility.yul\":12933:12947   */\n      add\n        /* \"#utility.yul\":12926:12964   */\n      mstore\n        /* \"#utility.yul\":12985:13058   */\n      tag_328\n        /* \"#utility.yul\":13053:13057   */\n      dup3\n        /* \"#utility.yul\":13039:13051   */\n      dup3\n        /* \"#utility.yul\":12985:13058   */\n      tag_155\n      jump\t// in\n    tag_328:\n        /* \"#utility.yul\":12977:13058   */\n      swap2\n      pop\n        /* \"#utility.yul\":12831:13069   */\n      pop\n        /* \"#utility.yul\":13156:13160   */\n      0x60\n        /* \"#utility.yul\":13149:13154   */\n      dup4\n        /* \"#utility.yul\":13145:13161   */\n      add\n        /* \"#utility.yul\":13139:13162   */\n      mload\n        /* \"#utility.yul\":13175:13238   */\n      tag_329\n        /* \"#utility.yul\":13232:13236   */\n      0x60\n        /* \"#utility.yul\":13227:13230   */\n      dup7\n        /* \"#utility.yul\":13223:13237   */\n      add\n        /* \"#utility.yul\":13209:13221   */\n      dup3\n        /* \"#utility.yul\":13175:13238   */\n      tag_152\n      jump\t// in\n    tag_329:\n        /* \"#utility.yul\":13079:13248   */\n      pop\n        /* \"#utility.yul\":13331:13335   */\n      0x80\n        /* \"#utility.yul\":13324:13329   */\n      dup4\n        /* \"#utility.yul\":13320:13336   */\n      add\n        /* \"#utility.yul\":13314:13337   */\n      mload\n        /* \"#utility.yul\":13350:13413   */\n      tag_330\n        /* \"#utility.yul\":13407:13411   */\n      0x80\n        /* \"#utility.yul\":13402:13405   */\n      dup7\n        /* \"#utility.yul\":13398:13412   */\n      add\n        /* \"#utility.yul\":13384:13396   */\n      dup3\n        /* \"#utility.yul\":13350:13413   */\n      tag_152\n      jump\t// in\n    tag_330:\n        /* \"#utility.yul\":13258:13423   */\n      pop\n        /* \"#utility.yul\":13440:13444   */\n      dup1\n        /* \"#utility.yul\":13433:13444   */\n      swap2\n      pop\n        /* \"#utility.yul\":12437:13450   */\n      pop\n        /* \"#utility.yul\":12321:13450   */\n      swap3\n      swap2\n      pop\n      pop\n      jump\t// out\n        /* \"#utility.yul\":13456:13813   */\n    tag_50:\n        /* \"#utility.yul\":13591:13595   */\n      0x00\n        /* \"#utility.yul\":13629:13631   */\n      0x20\n        /* \"#utility.yul\":13618:13627   */\n      dup3\n        /* \"#utility.yul\":13614:13632   */\n      add\n        /* \"#utility.yul\":13606:13632   */\n      swap1\n      pop\n        /* \"#utility.yul\":13678:13687   */\n      dup2\n        /* \"#utility.yul\":13672:13676   */\n      dup2\n        /* \"#utility.yul\":13668:13688   */\n      sub\n        /* \"#utility.yul\":13664:13665   */\n      0x00\n        /* \"#utility.yul\":13653:13662   */\n      dup4\n        /* \"#utility.yul\":13649:13666   */\n      add\n        /* \"#utility.yul\":13642:13689   */\n      mstore\n        /* \"#utility.yul\":13706:13806   */\n      tag_332\n        /* \"#utility.yul\":13801:13805   */\n      dup2\n        /* \"#utility.yul\":13792:13798   */\n      dup5\n        /* \"#utility.yul\":13706:13806   */\n      tag_173\n      jump\t// in\n    tag_332:\n        /* \"#utility.yul\":13698:13806   */\n      swap1\n      pop\n        /* \"#utility.yul\":13456:13813   */\n      swap3\n      swap2\n      pop\n      pop\n      jump\t// out\n        /* \"#utility.yul\":13819:13999   */\n    tag_174:\n        /* \"#utility.yul\":13867:13944   */\n      0x4e487b7100000000000000000000000000000000000000000000000000000000\n        /* \"#utility.yul\":13864:13865   */\n      0x00\n        /* \"#utility.yul\":13857:13945   */\n      mstore\n        /* \"#utility.yul\":13964:13968   */\n      0x22\n        /* \"#utility.yul\":13961:13962   */\n      0x04\n        /* \"#utility.yul\":13954:13969   */\n      mstore\n        /* \"#utility.yul\":13988:13992   */\n      0x24\n        /* \"#utility.yul\":13985:13986   */\n      0x00\n        /* \"#utility.yul\":13978:13993   */\n      revert\n        /* \"#utility.yul\":14005:14325   */\n    tag_54:\n        /* \"#utility.yul\":14049:14055   */\n      0x00\n        /* \"#utility.yul\":14086:14087   */\n      0x02\n        /* \"#utility.yul\":14080:14084   */\n      dup3\n        /* \"#utility.yul\":14076:14088   */\n      div\n        /* \"#utility.yul\":14066:14088   */\n      swap1\n      pop\n        /* \"#utility.yul\":14133:14134   */\n      0x01\n        /* \"#utility.yul\":14127:14131   */\n      dup3\n        /* \"#utility.yul\":14123:14135   */\n      and\n        /* \"#utility.yul\":14154:14172   */\n      dup1\n        /* \"#utility.yul\":14144:14225   */\n      tag_335\n      jumpi\n        /* \"#utility.yul\":14210:14214   */\n      0x7f\n        /* \"#utility.yul\":14202:14208   */\n      dup3\n        /* \"#utility.yul\":14198:14215   */\n      and\n        /* \"#utility.yul\":14188:14215   */\n      swap2\n      pop\n        /* \"#utility.yul\":14144:14225   */\n    tag_335:\n        /* \"#utility.yul\":14272:14274   */\n      0x20\n        /* \"#utility.yul\":14264:14270   */\n      dup3\n        /* \"#utility.yul\":14261:14275   */\n      lt\n        /* \"#utility.yul\":14241:14259   */\n      dup2\n        /* \"#utility.yul\":14238:14276   */\n      sub\n        /* \"#utility.yul\":14235:14319   */\n      tag_336\n      jumpi\n        /* \"#utility.yul\":14291:14309   */\n      tag_337\n      tag_174\n      jump\t// in\n    tag_337:\n        /* \"#utility.yul\":14235:14319   */\n    tag_336:\n        /* \"#utility.yul\":14056:14325   */\n      pop\n        /* \"#utility.yul\":14005:14325   */\n      swap2\n      swap1\n      pop\n      jump\t// out\n        /* \"#utility.yul\":14331:14511   */\n    tag_62:\n        /* \"#utility.yul\":14379:14456   */\n      0x4e487b7100000000000000000000000000000000000000000000000000000000\n        /* \"#utility.yul\":14376:14377   */\n      0x00\n        /* \"#utility.yul\":14369:14457   */\n      mstore\n        /* \"#utility.yul\":14476:14480   */\n      0x32\n        /* \"#utility.yul\":14473:14474   */\n      0x04\n        /* \"#utility.yul\":14466:14481   */\n      mstore\n        /* \"#utility.yul\":14500:14504   */\n      0x24\n        /* \"#utility.yul\":14497:14498   */\n      0x00\n        /* \"#utility.yul\":14490:14505   */\n      revert\n        /* \"#utility.yul\":14517:14687   */\n    tag_175:\n        /* \"#utility.yul\":14657:14679   */\n      0x545745455420444f4553204e4f54204558495354000000000000000000000000\n        /* \"#utility.yul\":14653:14654   */\n      0x00\n        /* \"#utility.yul\":14645:14651   */\n      dup3\n        /* \"#utility.yul\":14641:14655   */\n      add\n        /* \"#utility.yul\":14634:14680   */\n      mstore\n        /* \"#utility.yul\":14517:14687   */\n      pop\n      jump\t// out\n        /* \"#utility.yul\":14693:15059   */\n    tag_176:\n        /* \"#utility.yul\":14835:14838   */\n      0x00\n        /* \"#utility.yul\":14856:14923   */\n      tag_341\n        /* \"#utility.yul\":14920:14922   */\n      0x14\n        /* \"#utility.yul\":14915:14918   */\n      dup4\n        /* \"#utility.yul\":14856:14923   */\n      tag_145\n      jump\t// in\n    tag_341:\n        /* \"#utility.yul\":14849:14923   */\n      swap2\n      pop\n        /* \"#utility.yul\":14932:15025   */\n      tag_342\n        /* \"#utility.yul\":15021:15024   */\n      dup3\n        /* \"#utility.yul\":14932:15025   */\n      tag_175\n      jump\t// in\n    tag_342:\n        /* \"#utility.yul\":15050:15052   */\n      0x20\n        /* \"#utility.yul\":15045:15048   */\n      dup3\n        /* \"#utility.yul\":15041:15053   */\n      add\n        /* \"#utility.yul\":15034:15053   */\n      swap1\n      pop\n        /* \"#utility.yul\":14693:15059   */\n      swap2\n      swap1\n      pop\n      jump\t// out\n        /* \"#utility.yul\":15065:15484   */\n    tag_66:\n        /* \"#utility.yul\":15231:15235   */\n      0x00\n        /* \"#utility.yul\":15269:15271   */\n      0x20\n        /* \"#utility.yul\":15258:15267   */\n      dup3\n        /* \"#utility.yul\":15254:15272   */\n      add\n        /* \"#utility.yul\":15246:15272   */\n      swap1\n      pop\n        /* \"#utility.yul\":15318:15327   */\n      dup2\n        /* \"#utility.yul\":15312:15316   */\n      dup2\n        /* \"#utility.yul\":15308:15328   */\n      sub\n        /* \"#utility.yul\":15304:15305   */\n      0x00\n        /* \"#utility.yul\":15293:15302   */\n      dup4\n        /* \"#utility.yul\":15289:15306   */\n      add\n        /* \"#utility.yul\":15282:15329   */\n      mstore\n        /* \"#utility.yul\":15346:15477   */\n      tag_344\n        /* \"#utility.yul\":15472:15476   */\n      dup2\n        /* \"#utility.yul\":15346:15477   */\n      tag_176\n      jump\t// in\n    tag_344:\n        /* \"#utility.yul\":15338:15477   */\n      swap1\n      pop\n        /* \"#utility.yul\":15065:15484   */\n      swap2\n      swap1\n      pop\n      jump\t// out\n        /* \"#utility.yul\":15490:15658   */\n    tag_177:\n        /* \"#utility.yul\":15630:15650   */\n      0x545745455420484153204e4f204c494b45530000000000000000000000000000\n        /* \"#utility.yul\":15626:15627   */\n      0x00\n        /* \"#utility.yul\":15618:15624   */\n      dup3\n        /* \"#utility.yul\":15614:15628   */\n      add\n        /* \"#utility.yul\":15607:15651   */\n      mstore\n        /* \"#utility.yul\":15490:15658   */\n      pop\n      jump\t// out\n        /* \"#utility.yul\":15664:16030   */\n    tag_178:\n        /* \"#utility.yul\":15806:15809   */\n      0x00\n        /* \"#utility.yul\":15827:15894   */\n      tag_347\n        /* \"#utility.yul\":15891:15893   */\n      0x12\n        /* \"#utility.yul\":15886:15889   */\n      dup4\n        /* \"#utility.yul\":15827:15894   */\n      tag_145\n      jump\t// in\n    tag_347:\n        /* \"#utility.yul\":15820:15894   */\n      swap2\n      pop\n        /* \"#utility.yul\":15903:15996   */\n      tag_348\n        /* \"#utility.yul\":15992:15995   */\n      dup3\n        /* \"#utility.yul\":15903:15996   */\n      tag_177\n      jump\t// in\n    tag_348:\n        /* \"#utility.yul\":16021:16023   */\n      0x20\n        /* \"#utility.yul\":16016:16019   */\n      dup3\n        /* \"#utility.yul\":16012:16024   */\n      add\n        /* \"#utility.yul\":16005:16024   */\n      swap1\n      pop\n        /* \"#utility.yul\":15664:16030   */\n      swap2\n      swap1\n      pop\n      jump\t// out\n        /* \"#utility.yul\":16036:16455   */\n    tag_72:\n        /* \"#utility.yul\":16202:16206   */\n      0x00\n        /* \"#utility.yul\":16240:16242   */\n      0x20\n        /* \"#utility.yul\":16229:16238   */\n      dup3\n        /* \"#utility.yul\":16225:16243   */\n      add\n        /* \"#utility.yul\":16217:16243   */\n      swap1\n      pop\n        /* \"#utility.yul\":16289:16298   */\n      dup2\n        /* \"#utility.yul\":16283:16287   */\n      dup2\n        /* \"#utility.yul\":16279:16299   */\n      sub\n        /* \"#utility.yul\":16275:16276   */\n      0x00\n        /* \"#utility.yul\":16264:16273   */\n      dup4\n        /* \"#utility.yul\":16260:16277   */\n      add\n        /* \"#utility.yul\":16253:16300   */\n      mstore\n        /* \"#utility.yul\":16317:16448   */\n      tag_350\n        /* \"#utility.yul\":16443:16447   */\n      dup2\n        /* \"#utility.yul\":16317:16448   */\n      tag_178\n      jump\t// in\n    tag_350:\n        /* \"#utility.yul\":16309:16448   */\n      swap1\n      pop\n        /* \"#utility.yul\":16036:16455   */\n      swap2\n      swap1\n      pop\n      jump\t// out\n        /* \"#utility.yul\":16461:16641   */\n    tag_179:\n        /* \"#utility.yul\":16509:16586   */\n      0x4e487b7100000000000000000000000000000000000000000000000000000000\n        /* \"#utility.yul\":16506:16507   */\n      0x00\n        /* \"#utility.yul\":16499:16587   */\n      mstore\n        /* \"#utility.yul\":16606:16610   */\n      0x11\n        /* \"#utility.yul\":16603:16604   */\n      0x04\n        /* \"#utility.yul\":16596:16611   */\n      mstore\n        /* \"#utility.yul\":16630:16634   */\n      0x24\n        /* \"#utility.yul\":16627:16628   */\n      0x00\n        /* \"#utility.yul\":16620:16635   */\n      revert\n        /* \"#utility.yul\":16647:16818   */\n    tag_77:\n        /* \"#utility.yul\":16686:16689   */\n      0x00\n        /* \"#utility.yul\":16709:16733   */\n      tag_353\n        /* \"#utility.yul\":16727:16732   */\n      dup3\n        /* \"#utility.yul\":16709:16733   */\n      tag_139\n      jump\t// in\n    tag_353:\n        /* \"#utility.yul\":16700:16733   */\n      swap2\n      pop\n        /* \"#utility.yul\":16755:16759   */\n      0x00\n        /* \"#utility.yul\":16748:16753   */\n      dup3\n        /* \"#utility.yul\":16745:16760   */\n      sub\n        /* \"#utility.yul\":16742:16783   */\n      tag_354\n      jumpi\n        /* \"#utility.yul\":16763:16781   */\n      tag_355\n      tag_179\n      jump\t// in\n    tag_355:\n        /* \"#utility.yul\":16742:16783   */\n    tag_354:\n        /* \"#utility.yul\":16810:16811   */\n      0x01\n        /* \"#utility.yul\":16803:16808   */\n      dup3\n        /* \"#utility.yul\":16799:16812   */\n      sub\n        /* \"#utility.yul\":16792:16812   */\n      swap1\n      pop\n        /* \"#utility.yul\":16647:16818   */\n      swap2\n      swap1\n      pop\n      jump\t// out\n        /* \"#utility.yul\":16824:17377   */\n    tag_82:\n        /* \"#utility.yul\":17001:17005   */\n      0x00\n        /* \"#utility.yul\":17039:17042   */\n      0x80\n        /* \"#utility.yul\":17028:17037   */\n      dup3\n        /* \"#utility.yul\":17024:17043   */\n      add\n        /* \"#utility.yul\":17016:17043   */\n      swap1\n      pop\n        /* \"#utility.yul\":17053:17124   */\n      tag_357\n        /* \"#utility.yul\":17121:17122   */\n      0x00\n        /* \"#utility.yul\":17110:17119   */\n      dup4\n        /* \"#utility.yul\":17106:17123   */\n      add\n        /* \"#utility.yul\":17097:17103   */\n      dup8\n        /* \"#utility.yul\":17053:17124   */\n      tag_143\n      jump\t// in\n    tag_357:\n        /* \"#utility.yul\":17134:17206   */\n      tag_358\n        /* \"#utility.yul\":17202:17204   */\n      0x20\n        /* \"#utility.yul\":17191:17200   */\n      dup4\n        /* \"#utility.yul\":17187:17205   */\n      add\n        /* \"#utility.yul\":17178:17184   */\n      dup7\n        /* \"#utility.yul\":17134:17206   */\n      tag_143\n      jump\t// in\n    tag_358:\n        /* \"#utility.yul\":17216:17288   */\n      tag_359\n        /* \"#utility.yul\":17284:17286   */\n      0x40\n        /* \"#utility.yul\":17273:17282   */\n      dup4\n        /* \"#utility.yul\":17269:17287   */\n      add\n        /* \"#utility.yul\":17260:17266   */\n      dup6\n        /* \"#utility.yul\":17216:17288   */\n      tag_142\n      jump\t// in\n    tag_359:\n        /* \"#utility.yul\":17298:17370   */\n      tag_360\n        /* \"#utility.yul\":17366:17368   */\n      0x60\n        /* \"#utility.yul\":17355:17364   */\n      dup4\n        /* \"#utility.yul\":17351:17369   */\n      add\n        /* \"#utility.yul\":17342:17348   */\n      dup5\n        /* \"#utility.yul\":17298:17370   */\n      tag_142\n      jump\t// in\n    tag_360:\n        /* \"#utility.yul\":16824:17377   */\n      swap6\n      swap5\n      pop\n      pop\n      pop\n      pop\n      pop\n      jump\t// out\n        /* \"#utility.yul\":17383:17555   */\n    tag_180:\n        /* \"#utility.yul\":17523:17547   */\n      0x594f5520415245204e4f5420544845204f574e45522100000000000000000000\n        /* \"#utility.yul\":17519:17520   */\n      0x00\n        /* \"#utility.yul\":17511:17517   */\n      dup3\n        /* \"#utility.yul\":17507:17521   */\n      add\n        /* \"#utility.yul\":17500:17548   */\n      mstore\n        /* \"#utility.yul\":17383:17555   */\n      pop\n      jump\t// out\n        /* \"#utility.yul\":17561:17927   */\n    tag_181:\n        /* \"#utility.yul\":17703:17706   */\n      0x00\n        /* \"#utility.yul\":17724:17791   */\n      tag_363\n        /* \"#utility.yul\":17788:17790   */\n      0x16\n        /* \"#utility.yul\":17783:17786   */\n      dup4\n        /* \"#utility.yul\":17724:17791   */\n      tag_145\n      jump\t// in\n    tag_363:\n        /* \"#utility.yul\":17717:17791   */\n      swap2\n      pop\n        /* \"#utility.yul\":17800:17893   */\n      tag_364\n        /* \"#utility.yul\":17889:17892   */\n      dup3\n        /* \"#utility.yul\":17800:17893   */\n      tag_180\n      jump\t// in\n    tag_364:\n        /* \"#utility.yul\":17918:17920   */\n      0x20\n        /* \"#utility.yul\":17913:17916   */\n      dup3\n        /* \"#utility.yul\":17909:17921   */\n      add\n        /* \"#utility.yul\":17902:17921   */\n      swap1\n      pop\n        /* \"#utility.yul\":17561:17927   */\n      swap2\n      swap1\n      pop\n      jump\t// out\n        /* \"#utility.yul\":17933:18352   */\n    tag_95:\n        /* \"#utility.yul\":18099:18103   */\n      0x00\n        /* \"#utility.yul\":18137:18139   */\n      0x20\n        /* \"#utility.yul\":18126:18135   */\n      dup3\n        /* \"#utility.yul\":18122:18140   */\n      add\n        /* \"#utility.yul\":18114:18140   */\n      swap1\n      pop\n        /* \"#utility.yul\":18186:18195   */\n      dup2\n        /* \"#utility.yul\":18180:18184   */\n      dup2\n        /* \"#utility.yul\":18176:18196   */\n      sub\n        /* \"#utility.yul\":18172:18173   */\n      0x00\n        /* \"#utility.yul\":18161:18170   */\n      dup4\n        /* \"#utility.yul\":18157:18174   */\n      add\n        /* \"#utility.yul\":18150:18197   */\n      mstore\n        /* \"#utility.yul\":18214:18345   */\n      tag_366\n        /* \"#utility.yul\":18340:18344   */\n      dup2\n        /* \"#utility.yul\":18214:18345   */\n      tag_181\n      jump\t// in\n    tag_366:\n        /* \"#utility.yul\":18206:18345   */\n      swap1\n      pop\n        /* \"#utility.yul\":17933:18352   */\n      swap2\n      swap1\n      pop\n      jump\t// out\n        /* \"#utility.yul\":18358:18591   */\n    tag_107:\n        /* \"#utility.yul\":18397:18400   */\n      0x00\n        /* \"#utility.yul\":18420:18444   */\n      tag_368\n        /* \"#utility.yul\":18438:18443   */\n      dup3\n        /* \"#utility.yul\":18420:18444   */\n      tag_139\n      jump\t// in\n    tag_368:\n        /* \"#utility.yul\":18411:18444   */\n      swap2\n      pop\n        /* \"#utility.yul\":18466:18532   */\n      0xffffffffffffffffffffffffffffffffffffffffffffffffffffffffffffffff\n        /* \"#utility.yul\":18459:18464   */\n      dup3\n        /* \"#utility.yul\":18456:18533   */\n      sub\n        /* \"#utility.yul\":18453:18556   */\n      tag_369\n      jumpi\n        /* \"#utility.yul\":18536:18554   */\n      tag_370\n      tag_179\n      jump\t// in\n    tag_370:\n        /* \"#utility.yul\":18453:18556   */\n    tag_369:\n        /* \"#utility.yul\":18583:18584   */\n      0x01\n        /* \"#utility.yul\":18576:18581   */\n      dup3\n        /* \"#utility.yul\":18572:18585   */\n      add\n        /* \"#utility.yul\":18565:18585   */\n      swap1\n      pop\n        /* \"#utility.yul\":18358:18591   */\n      swap2\n      swap1\n      pop\n      jump\t// out\n        /* \"#utility.yul\":18597:18770   */\n    tag_182:\n        /* \"#utility.yul\":18737:18762   */\n      0x5468697320547765657420697320746f6f206c6f6e6721000000000000000000\n        /* \"#utility.yul\":18733:18734   */\n      0x00\n        /* \"#utility.yul\":18725:18731   */\n      dup3\n        /* \"#utility.yul\":18721:18735   */\n      add\n        /* \"#utility.yul\":18714:18763   */\n      mstore\n        /* \"#utility.yul\":18597:18770   */\n      pop\n      jump\t// out\n        /* \"#utility.yul\":18776:19142   */\n    tag_183:\n        /* \"#utility.yul\":18918:18921   */\n      0x00\n        /* \"#utility.yul\":18939:19006   */\n      tag_373\n        /* \"#utility.yul\":19003:19005   */\n      0x17\n        /* \"#utility.yul\":18998:19001   */\n      dup4\n        /* \"#utility.yul\":18939:19006   */\n      tag_145\n      jump\t// in\n    tag_373:\n        /* \"#utility.yul\":18932:19006   */\n      swap2\n      pop\n        /* \"#utility.yul\":19015:19108   */\n      tag_374\n        /* \"#utility.yul\":19104:19107   */\n      dup3\n        /* \"#utility.yul\":19015:19108   */\n      tag_182\n      jump\t// in\n    tag_374:\n        /* \"#utility.yul\":19133:19135   */\n      0x20\n        /* \"#utility.yul\":19128:19131   */\n      dup3\n        /* \"#utility.yul\":19124:19136   */\n      add\n        /* \"#utility.yul\":19117:19136   */\n      swap1\n      pop\n        /* \"#utility.yul\":18776:19142   */\n      swap2\n      swap1\n      pop\n      jump\t// out\n        /* \"#utility.yul\":19148:19567   */\n    tag_115:\n        /* \"#utility.yul\":19314:19318   */\n      0x00\n        /* \"#utility.yul\":19352:19354   */\n      0x20\n        /* \"#utility.yul\":19341:19350   */\n      dup3\n        /* \"#utility.yul\":19337:19355   */\n      add\n        /* \"#utility.yul\":19329:19355   */\n      swap1\n      pop\n        /* \"#utility.yul\":19401:19410   */\n      dup2\n        /* \"#utility.yul\":19395:19399   */\n      dup2\n        /* \"#utility.yul\":19391:19411   */\n      sub\n        /* \"#utility.yul\":19387:19388   */\n      0x00\n        /* \"#utility.yul\":19376:19385   */\n      dup4\n        /* \"#utility.yul\":19372:19389   */\n      add\n        /* \"#utility.yul\":19365:19412   */\n      mstore\n        /* \"#utility.yul\":19429:19560   */\n      tag_376\n        /* \"#utility.yul\":19555:19559   */\n      dup2\n        /* \"#utility.yul\":19429:19560   */\n      tag_183\n      jump\t// in\n    tag_376:\n        /* \"#utility.yul\":19421:19560   */\n      swap1\n      pop\n        /* \"#utility.yul\":19148:19567   */\n      swap2\n      swap1\n      pop\n      jump\t// out\n        /* \"#utility.yul\":19573:19714   */\n    tag_184:\n        /* \"#utility.yul\":19622:19626   */\n      0x00\n        /* \"#utility.yul\":19645:19648   */\n      dup2\n        /* \"#utility.yul\":19637:19648   */\n      swap1\n      pop\n        /* \"#utility.yul\":19668:19671   */\n      dup2\n        /* \"#utility.yul\":19665:19666   */\n      0x00\n        /* \"#utility.yul\":19658:19672   */\n      mstore\n        /* \"#utility.yul\":19702:19706   */\n      0x20\n        /* \"#utility.yul\":19699:19700   */\n      0x00\n        /* \"#utility.yul\":19689:19707   */\n      keccak256\n        /* \"#utility.yul\":19681:19707   */\n      swap1\n      pop\n        /* \"#utility.yul\":19573:19714   */\n      swap2\n      swap1\n      pop\n      jump\t// out\n        /* \"#utility.yul\":19720:19813   */\n    tag_185:\n        /* \"#utility.yul\":19757:19763   */\n      0x00\n        /* \"#utility.yul\":19804:19806   */\n      0x20\n        /* \"#utility.yul\":19799:19801   */\n      0x1f\n        /* \"#utility.yul\":19792:19797   */\n      dup4\n        /* \"#utility.yul\":19788:19802   */\n      add\n        /* \"#utility.yul\":19784:19807   */\n      div\n        /* \"#utility.yul\":19774:19807   */\n      swap1\n      pop\n        /* \"#utility.yul\":19720:19813   */\n      swap2\n      swap1\n      pop\n      jump\t// out\n        /* \"#utility.yul\":19819:19926   */\n    tag_186:\n        /* \"#utility.yul\":19863:19871   */\n      0x00\n        /* \"#utility.yul\":19913:19918   */\n      dup3\n        /* \"#utility.yul\":19907:19911   */\n      dup3\n        /* \"#utility.yul\":19903:19919   */\n      shl\n        /* \"#utility.yul\":19882:19919   */\n      swap1\n      pop\n        /* \"#utility.yul\":19819:19926   */\n      swap3\n      swap2\n      pop\n      pop\n      jump\t// out\n        /* \"#utility.yul\":19932:20325   */\n    tag_187:\n        /* \"#utility.yul\":20001:20007   */\n      0x00\n        /* \"#utility.yul\":20051:20052   */\n      0x08\n        /* \"#utility.yul\":20039:20049   */\n      dup4\n        /* \"#utility.yul\":20035:20053   */\n      mul\n        /* \"#utility.yul\":20074:20171   */\n      tag_381\n        /* \"#utility.yul\":20104:20170   */\n      0xffffffffffffffffffffffffffffffffffffffffffffffffffffffffffffffff\n        /* \"#utility.yul\":20093:20102   */\n      dup3\n        /* \"#utility.yul\":20074:20171   */\n      tag_186\n      jump\t// in\n    tag_381:\n        /* \"#utility.yul\":20192:20231   */\n      tag_382\n        /* \"#utility.yul\":20222:20230   */\n      dup7\n        /* \"#utility.yul\":20211:20220   */\n      dup4\n        /* \"#utility.yul\":20192:20231   */\n      tag_186\n      jump\t// in\n    tag_382:\n        /* \"#utility.yul\":20180:20231   */\n      swap6\n      pop\n        /* \"#utility.yul\":20264:20268   */\n      dup1\n        /* \"#utility.yul\":20260:20269   */\n      not\n        /* \"#utility.yul\":20253:20258   */\n      dup5\n        /* \"#utility.yul\":20249:20270   */\n      and\n        /* \"#utility.yul\":20240:20270   */\n      swap4\n      pop\n        /* \"#utility.yul\":20313:20317   */\n      dup1\n        /* \"#utility.yul\":20303:20311   */\n      dup7\n        /* \"#utility.yul\":20299:20318   */\n      and\n        /* \"#utility.yul\":20292:20297   */\n      dup5\n        /* \"#utility.yul\":20289:20319   */\n      or\n        /* \"#utility.yul\":20279:20319   */\n      swap3\n      pop\n        /* \"#utility.yul\":20008:20325   */\n      pop\n      pop\n        /* \"#utility.yul\":19932:20325   */\n      swap4\n      swap3\n      pop\n      pop\n      pop\n      jump\t// out\n        /* \"#utility.yul\":20331:20391   */\n    tag_188:\n        /* \"#utility.yul\":20359:20362   */\n      0x00\n        /* \"#utility.yul\":20380:20385   */\n      dup2\n        /* \"#utility.yul\":20373:20385   */\n      swap1\n      pop\n        /* \"#utility.yul\":20331:20391   */\n      swap2\n      swap1\n      pop\n      jump\t// out\n        /* \"#utility.yul\":20397:20539   */\n    tag_189:\n        /* \"#utility.yul\":20447:20456   */\n      0x00\n        /* \"#utility.yul\":20480:20533   */\n      tag_385\n        /* \"#utility.yul\":20498:20532   */\n      tag_386\n        /* \"#utility.yul\":20507:20531   */\n      tag_387\n        /* \"#utility.yul\":20525:20530   */\n      dup5\n        /* \"#utility.yul\":20507:20531   */\n      tag_139\n      jump\t// in\n    tag_387:\n        /* \"#utility.yul\":20498:20532   */\n      tag_188\n      jump\t// in\n    tag_386:\n        /* \"#utility.yul\":20480:20533   */\n      tag_139\n      jump\t// in\n    tag_385:\n        /* \"#utility.yul\":20467:20533   */\n      swap1\n      pop\n        /* \"#utility.yul\":20397:20539   */\n      swap2\n      swap1\n      pop\n      jump\t// out\n        /* \"#utility.yul\":20545:20620   */\n    tag_190:\n        /* \"#utility.yul\":20588:20591   */\n      0x00\n        /* \"#utility.yul\":20609:20614   */\n      dup2\n        /* \"#utility.yul\":20602:20614   */\n      swap1\n      pop\n        /* \"#utility.yul\":20545:20620   */\n      swap2\n      swap1\n      pop\n      jump\t// out\n        /* \"#utility.yul\":20626:20895   */\n    tag_191:\n        /* \"#utility.yul\":20736:20775   */\n      tag_390\n        /* \"#utility.yul\":20767:20774   */\n      dup4\n        /* \"#utility.yul\":20736:20775   */\n      tag_189\n      jump\t// in\n    tag_390:\n        /* \"#utility.yul\":20797:20888   */\n      tag_391\n        /* \"#utility.yul\":20846:20887   */\n      tag_392\n        /* \"#utility.yul\":20870:20886   */\n      dup3\n        /* \"#utility.yul\":20846:20887   */\n      tag_190\n      jump\t// in\n    tag_392:\n        /* \"#utility.yul\":20838:20844   */\n      dup5\n        /* \"#utility.yul\":20831:20835   */\n      dup5\n        /* \"#utility.yul\":20825:20836   */\n      sload\n        /* \"#utility.yul\":20797:20888   */\n      tag_187\n      jump\t// in\n    tag_391:\n        /* \"#utility.yul\":20791:20795   */\n      dup3\n        /* \"#utility.yul\":20784:20889   */\n      sstore\n        /* \"#utility.yul\":20702:20895   */\n      pop\n        /* \"#utility.yul\":20626:20895   */\n      pop\n      pop\n      pop\n      jump\t// out\n        /* \"#utility.yul\":20901:20974   */\n    tag_192:\n        /* \"#utility.yul\":20946:20949   */\n      0x00\n        /* \"#utility.yul\":20901:20974   */\n      swap1\n      jump\t// out\n        /* \"#utility.yul\":20980:21169   */\n    tag_193:\n        /* \"#utility.yul\":21057:21089   */\n      tag_395\n      tag_192\n      jump\t// in\n    tag_395:\n        /* \"#utility.yul\":21098:21163   */\n      tag_396\n        /* \"#utility.yul\":21156:21162   */\n      dup2\n        /* \"#utility.yul\":21148:21154   */\n      dup5\n        /* \"#utility.yul\":21142:21146   */\n      dup5\n        /* \"#utility.yul\":21098:21163   */\n      tag_191\n      jump\t// in\n    tag_396:\n        /* \"#utility.yul\":21033:21169   */\n      pop\n        /* \"#utility.yul\":20980:21169   */\n      pop\n      pop\n      jump\t// out\n        /* \"#utility.yul\":21175:21361   */\n    tag_194:\n        /* \"#utility.yul\":21235:21355   */\n    tag_398:\n        /* \"#utility.yul\":21252:21255   */\n      dup2\n        /* \"#utility.yul\":21245:21250   */\n      dup2\n        /* \"#utility.yul\":21242:21256   */\n      lt\n        /* \"#utility.yul\":21235:21355   */\n      iszero\n      tag_400\n      jumpi\n        /* \"#utility.yul\":21306:21345   */\n      tag_401\n        /* \"#utility.yul\":21343:21344   */\n      0x00\n        /* \"#utility.yul\":21336:21341   */\n      dup3\n        /* \"#utility.yul\":21306:21345   */\n      tag_193\n      jump\t// in\n    tag_401:\n        /* \"#utility.yul\":21279:21280   */\n      0x01\n        /* \"#utility.yul\":21272:21277   */\n      dup2\n        /* \"#utility.yul\":21268:21281   */\n      add\n        /* \"#utility.yul\":21259:21281   */\n      swap1\n      pop\n        /* \"#utility.yul\":21235:21355   */\n      jump(tag_398)\n    tag_400:\n        /* \"#utility.yul\":21175:21361   */\n      pop\n      pop\n      jump\t// out\n        /* \"#utility.yul\":21367:21910   */\n    tag_195:\n        /* \"#utility.yul\":21468:21470   */\n      0x1f\n        /* \"#utility.yul\":21463:21466   */\n      dup3\n        /* \"#utility.yul\":21460:21471   */\n      gt\n        /* \"#utility.yul\":21457:21903   */\n      iszero\n      tag_403\n      jumpi\n        /* \"#utility.yul\":21502:21540   */\n      tag_404\n        /* \"#utility.yul\":21534:21539   */\n      dup2\n        /* \"#utility.yul\":21502:21540   */\n      tag_184\n      jump\t// in\n    tag_404:\n        /* \"#utility.yul\":21586:21615   */\n      tag_405\n        /* \"#utility.yul\":21604:21614   */\n      dup5\n        /* \"#utility.yul\":21586:21615   */\n      tag_185\n      jump\t// in\n    tag_405:\n        /* \"#utility.yul\":21576:21584   */\n      dup2\n        /* \"#utility.yul\":21572:21616   */\n      add\n        /* \"#utility.yul\":21769:21771   */\n      0x20\n        /* \"#utility.yul\":21757:21767   */\n      dup6\n        /* \"#utility.yul\":21754:21772   */\n      lt\n        /* \"#utility.yul\":21751:21800   */\n      iszero\n      tag_406\n      jumpi\n        /* \"#utility.yul\":21790:21798   */\n      dup2\n        /* \"#utility.yul\":21775:21798   */\n      swap1\n      pop\n        /* \"#utility.yul\":21751:21800   */\n    tag_406:\n        /* \"#utility.yul\":21813:21893   */\n      tag_407\n        /* \"#utility.yul\":21869:21891   */\n      tag_408\n        /* \"#utility.yul\":21887:21890   */\n      dup6\n        /* \"#utility.yul\":21869:21891   */\n      tag_185\n      jump\t// in\n    tag_408:\n        /* \"#utility.yul\":21859:21867   */\n      dup4\n        /* \"#utility.yul\":21855:21892   */\n      add\n        /* \"#utility.yul\":21842:21853   */\n      dup3\n        /* \"#utility.yul\":21813:21893   */\n      tag_194\n      jump\t// in\n    tag_407:\n        /* \"#utility.yul\":21472:21903   */\n      pop\n      pop\n        /* \"#utility.yul\":21457:21903   */\n    tag_403:\n        /* \"#utility.yul\":21367:21910   */\n      pop\n      pop\n      pop\n      jump\t// out\n        /* \"#utility.yul\":21916:22033   */\n    tag_196:\n        /* \"#utility.yul\":21970:21978   */\n      0x00\n        /* \"#utility.yul\":22020:22025   */\n      dup3\n        /* \"#utility.yul\":22014:22018   */\n      dup3\n        /* \"#utility.yul\":22010:22026   */\n      shr\n        /* \"#utility.yul\":21989:22026   */\n      swap1\n      pop\n        /* \"#utility.yul\":21916:22033   */\n      swap3\n      swap2\n      pop\n      pop\n      jump\t// out\n        /* \"#utility.yul\":22039:22208   */\n    tag_197:\n        /* \"#utility.yul\":22083:22089   */\n      0x00\n        /* \"#utility.yul\":22116:22167   */\n      tag_411\n        /* \"#utility.yul\":22164:22165   */\n      0x00\n        /* \"#utility.yul\":22160:22166   */\n      not\n        /* \"#utility.yul\":22152:22157   */\n      dup5\n        /* \"#utility.yul\":22149:22150   */\n      0x08\n        /* \"#utility.yul\":22145:22158   */\n      mul\n        /* \"#utility.yul\":22116:22167   */\n      tag_196\n      jump\t// in\n    tag_411:\n        /* \"#utility.yul\":22112:22168   */\n      not\n        /* \"#utility.yul\":22197:22201   */\n      dup1\n        /* \"#utility.yul\":22191:22195   */\n      dup4\n        /* \"#utility.yul\":22187:22202   */\n      and\n        /* \"#utility.yul\":22177:22202   */\n      swap2\n      pop\n        /* \"#utility.yul\":22090:22208   */\n      pop\n        /* \"#utility.yul\":22039:22208   */\n      swap3\n      swap2\n      pop\n      pop\n      jump\t// out\n        /* \"#utility.yul\":22213:22508   */\n    tag_198:\n        /* \"#utility.yul\":22289:22293   */\n      0x00\n        /* \"#utility.yul\":22435:22464   */\n      tag_413\n        /* \"#utility.yul\":22460:22463   */\n      dup4\n        /* \"#utility.yul\":22454:22458   */\n      dup4\n        /* \"#utility.yul\":22435:22464   */\n      tag_197\n      jump\t// in\n    tag_413:\n        /* \"#utility.yul\":22427:22464   */\n      swap2\n      pop\n        /* \"#utility.yul\":22497:22500   */\n      dup3\n        /* \"#utility.yul\":22494:22495   */\n      0x02\n        /* \"#utility.yul\":22490:22501   */\n      mul\n        /* \"#utility.yul\":22484:22488   */\n      dup3\n        /* \"#utility.yul\":22481:22502   */\n      or\n        /* \"#utility.yul\":22473:22502   */\n      swap1\n      pop\n        /* \"#utility.yul\":22213:22508   */\n      swap3\n      swap2\n      pop\n      pop\n      jump\t// out\n        /* \"#utility.yul\":22513:23908   */\n    tag_118:\n        /* \"#utility.yul\":22630:22667   */\n      tag_415\n        /* \"#utility.yul\":22663:22666   */\n      dup3\n        /* \"#utility.yul\":22630:22667   */\n      tag_144\n      jump\t// in\n    tag_415:\n        /* \"#utility.yul\":22732:22750   */\n      0xffffffffffffffff\n        /* \"#utility.yul\":22724:22730   */\n      dup2\n        /* \"#utility.yul\":22721:22751   */\n      gt\n        /* \"#utility.yul\":22718:22774   */\n      iszero\n      tag_416\n      jumpi\n        /* \"#utility.yul\":22754:22772   */\n      tag_417\n      tag_166\n      jump\t// in\n    tag_417:\n        /* \"#utility.yul\":22718:22774   */\n    tag_416:\n        /* \"#utility.yul\":22798:22836   */\n      tag_418\n        /* \"#utility.yul\":22830:22834   */\n      dup3\n        /* \"#utility.yul\":22824:22835   */\n      sload\n        /* \"#utility.yul\":22798:22836   */\n      tag_54\n      jump\t// in\n    tag_418:\n        /* \"#utility.yul\":22883:22950   */\n      tag_419\n        /* \"#utility.yul\":22943:22949   */\n      dup3\n        /* \"#utility.yul\":22935:22941   */\n      dup3\n        /* \"#utility.yul\":22929:22933   */\n      dup6\n        /* \"#utility.yul\":22883:22950   */\n      tag_195\n      jump\t// in\n    tag_419:\n        /* \"#utility.yul\":22977:22978   */\n      0x00\n        /* \"#utility.yul\":23001:23005   */\n      0x20\n        /* \"#utility.yul\":22988:23005   */\n      swap1\n      pop\n        /* \"#utility.yul\":23033:23035   */\n      0x1f\n        /* \"#utility.yul\":23025:23031   */\n      dup4\n        /* \"#utility.yul\":23022:23036   */\n      gt\n        /* \"#utility.yul\":23050:23051   */\n      0x01\n        /* \"#utility.yul\":23045:23663   */\n      dup2\n      eq\n      tag_421\n      jumpi\n        /* \"#utility.yul\":23707:23708   */\n      0x00\n        /* \"#utility.yul\":23724:23730   */\n      dup5\n        /* \"#utility.yul\":23721:23798   */\n      iszero\n      tag_422\n      jumpi\n        /* \"#utility.yul\":23773:23782   */\n      dup3\n        /* \"#utility.yul\":23768:23771   */\n      dup8\n        /* \"#utility.yul\":23764:23783   */\n      add\n        /* \"#utility.yul\":23758:23784   */\n      mload\n        /* \"#utility.yul\":23749:23784   */\n      swap1\n      pop\n        /* \"#utility.yul\":23721:23798   */\n    tag_422:\n        /* \"#utility.yul\":23824:23891   */\n      tag_423\n        /* \"#utility.yul\":23884:23890   */\n      dup6\n        /* \"#utility.yul\":23877:23882   */\n      dup3\n        /* \"#utility.yul\":23824:23891   */\n      tag_198\n      jump\t// in\n    tag_423:\n        /* \"#utility.yul\":23818:23822   */\n      dup7\n        /* \"#utility.yul\":23811:23892   */\n      sstore\n        /* \"#utility.yul\":23680:23902   */\n      pop\n        /* \"#utility.yul\":23015:23902   */\n      jump(tag_420)\n        /* \"#utility.yul\":23045:23663   */\n    tag_421:\n        /* \"#utility.yul\":23097:23101   */\n      0x1f\n        /* \"#utility.yul\":23093:23102   */\n      not\n        /* \"#utility.yul\":23085:23091   */\n      dup5\n        /* \"#utility.yul\":23081:23103   */\n      and\n        /* \"#utility.yul\":23131:23168   */\n      tag_424\n        /* \"#utility.yul\":23163:23167   */\n      dup7\n        /* \"#utility.yul\":23131:23168   */\n      tag_184\n      jump\t// in\n    tag_424:\n        /* \"#utility.yul\":23190:23191   */\n      0x00\n        /* \"#utility.yul\":23204:23412   */\n    tag_425:\n        /* \"#utility.yul\":23218:23225   */\n      dup3\n        /* \"#utility.yul\":23215:23216   */\n      dup2\n        /* \"#utility.yul\":23212:23226   */\n      lt\n        /* \"#utility.yul\":23204:23412   */\n      iszero\n      tag_427\n      jumpi\n        /* \"#utility.yul\":23297:23306   */\n      dup5\n        /* \"#utility.yul\":23292:23295   */\n      dup10\n        /* \"#utility.yul\":23288:23307   */\n      add\n        /* \"#utility.yul\":23282:23308   */\n      mload\n        /* \"#utility.yul\":23274:23280   */\n      dup3\n        /* \"#utility.yul\":23267:23309   */\n      sstore\n        /* \"#utility.yul\":23348:23349   */\n      0x01\n        /* \"#utility.yul\":23340:23346   */\n      dup3\n        /* \"#utility.yul\":23336:23350   */\n      add\n        /* \"#utility.yul\":23326:23350   */\n      swap2\n      pop\n        /* \"#utility.yul\":23395:23397   */\n      0x20\n        /* \"#utility.yul\":23384:23393   */\n      dup6\n        /* \"#utility.yul\":23380:23398   */\n      add\n        /* \"#utility.yul\":23367:23398   */\n      swap5\n      pop\n        /* \"#utility.yul\":23241:23245   */\n      0x20\n        /* \"#utility.yul\":23238:23239   */\n      dup2\n        /* \"#utility.yul\":23234:23246   */\n      add\n        /* \"#utility.yul\":23229:23246   */\n      swap1\n      pop\n        /* \"#utility.yul\":23204:23412   */\n      jump(tag_425)\n    tag_427:\n        /* \"#utility.yul\":23440:23446   */\n      dup7\n        /* \"#utility.yul\":23431:23438   */\n      dup4\n        /* \"#utility.yul\":23428:23447   */\n      lt\n        /* \"#utility.yul\":23425:23604   */\n      iszero\n      tag_428\n      jumpi\n        /* \"#utility.yul\":23498:23507   */\n      dup5\n        /* \"#utility.yul\":23493:23496   */\n      dup10\n        /* \"#utility.yul\":23489:23508   */\n      add\n        /* \"#utility.yul\":23483:23509   */\n      mload\n        /* \"#utility.yul\":23541:23589   */\n      tag_429\n        /* \"#utility.yul\":23583:23587   */\n      0x1f\n        /* \"#utility.yul\":23575:23581   */\n      dup10\n        /* \"#utility.yul\":23571:23588   */\n      and\n        /* \"#utility.yul\":23560:23569   */\n      dup3\n        /* \"#utility.yul\":23541:23589   */\n      tag_197\n      jump\t// in\n    tag_429:\n        /* \"#utility.yul\":23533:23539   */\n      dup4\n        /* \"#utility.yul\":23526:23590   */\n      sstore\n        /* \"#utility.yul\":23448:23604   */\n      pop\n        /* \"#utility.yul\":23425:23604   */\n    tag_428:\n        /* \"#utility.yul\":23650:23651   */\n      0x01\n        /* \"#utility.yul\":23646:23647   */\n      0x02\n        /* \"#utility.yul\":23638:23644   */\n      dup9\n        /* \"#utility.yul\":23634:23648   */\n      mul\n        /* \"#utility.yul\":23630:23652   */\n      add\n        /* \"#utility.yul\":23624:23628   */\n      dup9\n        /* \"#utility.yul\":23617:23653   */\n      sstore\n        /* \"#utility.yul\":23052:23663   */\n      pop\n      pop\n      pop\n        /* \"#utility.yul\":23015:23902   */\n    tag_420:\n      pop\n        /* \"#utility.yul\":22605:23908   */\n      pop\n      pop\n      pop\n        /* \"#utility.yul\":22513:23908   */\n      pop\n      pop\n      jump\t// out\n        /* \"#utility.yul\":23914:24558   */\n    tag_120:\n        /* \"#utility.yul\":24111:24115   */\n      0x00\n        /* \"#utility.yul\":24149:24152   */\n      0x80\n        /* \"#utility.yul\":24138:24147   */\n      dup3\n        /* \"#utility.yul\":24134:24153   */\n      add\n        /* \"#utility.yul\":24126:24153   */\n      swap1\n      pop\n        /* \"#utility.yul\":24163:24234   */\n      tag_431\n        /* \"#utility.yul\":24231:24232   */\n      0x00\n        /* \"#utility.yul\":24220:24229   */\n      dup4\n        /* \"#utility.yul\":24216:24233   */\n      add\n        /* \"#utility.yul\":24207:24213   */\n      dup8\n        /* \"#utility.yul\":24163:24234   */\n      tag_142\n      jump\t// in\n    tag_431:\n        /* \"#utility.yul\":24244:24316   */\n      tag_432\n        /* \"#utility.yul\":24312:24314   */\n      0x20\n        /* \"#utility.yul\":24301:24310   */\n      dup4\n        /* \"#utility.yul\":24297:24315   */\n      add\n        /* \"#utility.yul\":24288:24294   */\n      dup7\n        /* \"#utility.yul\":24244:24316   */\n      tag_143\n      jump\t// in\n    tag_432:\n        /* \"#utility.yul\":24363:24372   */\n      dup2\n        /* \"#utility.yul\":24357:24361   */\n      dup2\n        /* \"#utility.yul\":24353:24373   */\n      sub\n        /* \"#utility.yul\":24348:24350   */\n      0x40\n        /* \"#utility.yul\":24337:24346   */\n      dup4\n        /* \"#utility.yul\":24333:24351   */\n      add\n        /* \"#utility.yul\":24326:24374   */\n      mstore\n        /* \"#utility.yul\":24391:24469   */\n      tag_433\n        /* \"#utility.yul\":24464:24468   */\n      dup2\n        /* \"#utility.yul\":24455:24461   */\n      dup6\n        /* \"#utility.yul\":24391:24469   */\n      tag_148\n      jump\t// in\n    tag_433:\n        /* \"#utility.yul\":24383:24469   */\n      swap1\n      pop\n        /* \"#utility.yul\":24479:24551   */\n      tag_434\n        /* \"#utility.yul\":24547:24549   */\n      0x60\n        /* \"#utility.yul\":24536:24545   */\n      dup4\n        /* \"#utility.yul\":24532:24550   */\n      add\n        /* \"#utility.yul\":24523:24529   */\n      dup5\n        /* \"#utility.yul\":24479:24551   */\n      tag_142\n      jump\t// in\n    tag_434:\n        /* \"#utility.yul\":23914:24558   */\n      swap6\n      swap5\n      pop\n      pop\n      pop\n      pop\n      pop\n      jump\t// out\n\n    auxdata: 0xa2646970667358221220c9f809523b148f41217da02f97f14cdbb3f6488b259692aa6180f8ef82e77e0264736f6c634300081a0033\n}\n",
				"bytecode": {
					"linkReferences": {},
					"object": "60806040526101185f806101000a81548161ffff021916908361ffff160217905550348015602b575f80fd5b503360025f6101000a81548173ffffffffffffffffffffffffffffffffffffffff021916908373ffffffffffffffffffffffffffffffffffffffff16021790555061192b806100795f395ff3fe608060405234801561000f575f80fd5b5060043610610091575f3560e01c80636337821611610064578063633782161461011f5780636eb107971461013b5780637c9cd2bc146101595780638da5cb5b14610175578063c3ad5ecb1461019357610091565b806305a1b4a9146100955780633d9b569f146100c957806353256135146100e557806358bfa4ab14610103575b5f80fd5b6100af60048036038101906100aa9190610d8b565b6101c3565b6040516100c0959493929190610e57565b60405180910390f35b6100e360048036038101906100de9190610d8b565b6102b4565b005b6100ed610505565b6040516100fa9190611043565b60405180910390f35b61011d6004803603810190610118919061109a565b61069e565b005b61013960048036038101906101349190610d8b565b61074b565b005b6101436108fc565b60405161015091906110d4565b60405180910390f35b610173600480360381019061016e9190611219565b61090d565b005b61017d610b10565b60405161018a9190611260565b60405180910390f35b6101ad60048036038101906101a89190611279565b610b35565b6040516101ba9190611317565b60405180910390f35b6001602052815f5260405f2081815481106101dc575f80fd5b905f5260205f2090600502015f9150915050805f015490806001015f9054906101000a900473ffffffffffffffffffffffffffffffffffffffff169080600201805461022790611364565b80601f016020809104026020016040519081016040528092919081815260200182805461025390611364565b801561029e5780601f106102755761010080835404028352916020019161029e565b820191905f5260205f20905b81548152906001019060200180831161028157829003601f168201915b5050505050908060030154908060040154905085565b8060015f8473ffffffffffffffffffffffffffffffffffffffff1673ffffffffffffffffffffffffffffffffffffffff1681526020019081526020015f20828154811061030457610303611394565b5b905f5260205f2090600502015f015414610353576040517f08c379a000000000000000000000000000000000000000000000000000000000815260040161034a9061140b565b60405180910390fd5b5f60015f8473ffffffffffffffffffffffffffffffffffffffff1673ffffffffffffffffffffffffffffffffffffffff1681526020019081526020015f2082815481106103a3576103a2611394565b5b905f5260205f20906005020160040154116103f3576040517f08c379a00000000000000000000000000000000000000000000000000000000081526004016103ea90611473565b60405180910390fd5b60015f8373ffffffffffffffffffffffffffffffffffffffff1673ffffffffffffffffffffffffffffffffffffffff1681526020019081526020015f20818154811061044257610441611394565b5b905f5260205f2090600502016004015f815480929190610461906114be565b91905055507f762c2616349603ac16eba0de8e6141b79129a07ab63bd99e0a80b3a47171694333838360015f8773ffffffffffffffffffffffffffffffffffffffff1673ffffffffffffffffffffffffffffffffffffffff1681526020019081526020015f2085815481106104d9576104d8611394565b5b905f5260205f209060050201600401546040516104f994939291906114e5565b60405180910390a15050565b606060015f3373ffffffffffffffffffffffffffffffffffffffff1673ffffffffffffffffffffffffffffffffffffffff1681526020019081526020015f20805480602002602001604051908101604052809291908181526020015f905b82821015610695578382905f5260205f2090600502016040518060a00160405290815f8201548152602001600182015f9054906101000a900473ffffffffffffffffffffffffffffffffffffffff1673ffffffffffffffffffffffffffffffffffffffff1673ffffffffffffffffffffffffffffffffffffffff1681526020016002820180546105f290611364565b80601f016020809104026020016040519081016040528092919081815260200182805461061e90611364565b80156106695780601f1061064057610100808354040283529160200191610669565b820191905f5260205f20905b81548152906001019060200180831161064c57829003601f168201915b505050505081526020016003820154815260200160048201548152505081526020019060010190610563565b50505050905090565b60025f9054906101000a900473ffffffffffffffffffffffffffffffffffffffff1673ffffffffffffffffffffffffffffffffffffffff163373ffffffffffffffffffffffffffffffffffffffff161461072d576040517f08c379a000000000000000000000000000000000000000000000000000000000815260040161072490611572565b60405180910390fd5b805f806101000a81548161ffff021916908361ffff16021790555050565b8060015f8473ffffffffffffffffffffffffffffffffffffffff1673ffffffffffffffffffffffffffffffffffffffff1681526020019081526020015f20828154811061079b5761079a611394565b5b905f5260205f2090600502015f0154146107ea576040517f08c379a00000000000000000000000000000000000000000000000000000000081526004016107e19061140b565b60405180910390fd5b60015f8373ffffffffffffffffffffffffffffffffffffffff1673ffffffffffffffffffffffffffffffffffffffff1681526020019081526020015f20818154811061083957610838611394565b5b905f5260205f2090600502016004015f81548092919061085890611590565b91905055507fe8a76fc0f16d11a00d1e93b689b63d76cf60af914dd3d915375dc41d01a0c3c833838360015f8773ffffffffffffffffffffffffffffffffffffffff1673ffffffffffffffffffffffffffffffffffffffff1681526020019081526020015f2085815481106108d0576108cf611394565b5b905f5260205f209060050201600401546040516108f094939291906114e5565b60405180910390a15050565b5f8054906101000a900461ffff1681565b5f8054906101000a900461ffff1661ffff1681511115610962576040517f08c379a000000000000000000000000000000000000000000000000000000000815260040161095990611621565b60405180910390fd5b5f6040518060a0016040528060015f3373ffffffffffffffffffffffffffffffffffffffff1673ffffffffffffffffffffffffffffffffffffffff1681526020019081526020015f208054905081526020013373ffffffffffffffffffffffffffffffffffffffff1681526020018381526020014281526020015f815250905060015f3373ffffffffffffffffffffffffffffffffffffffff1673ffffffffffffffffffffffffffffffffffffffff1681526020019081526020015f2081908060018154018082558091505060019003905f5260205f2090600502015f909190919091505f820151815f01556020820151816001015f6101000a81548173ffffffffffffffffffffffffffffffffffffffff021916908373ffffffffffffffffffffffffffffffffffffffff1602179055506040820151816002019081610aa991906117dc565b50606082015181600301556080820151816004015550507f164526cc93fdfacf70ced03a69cbd2b8530743d6700a895030bb72589871d482815f0151826020015183604001518460600151604051610b0494939291906118ab565b60405180910390a15050565b60025f9054906101000a900473ffffffffffffffffffffffffffffffffffffffff1681565b610b3d610cac565b60015f3373ffffffffffffffffffffffffffffffffffffffff1673ffffffffffffffffffffffffffffffffffffffff1681526020019081526020015f208281548110610b8c57610b8b611394565b5b905f5260205f2090600502016040518060a00160405290815f8201548152602001600182015f9054906101000a900473ffffffffffffffffffffffffffffffffffffffff1673ffffffffffffffffffffffffffffffffffffffff1673ffffffffffffffffffffffffffffffffffffffff168152602001600282018054610c1190611364565b80601f0160208091040260200160405190810160405280929190818152602001828054610c3d90611364565b8015610c885780601f10610c5f57610100808354040283529160200191610c88565b820191905f5260205f20905b815481529060010190602001808311610c6b57829003601f168201915b50505050508152602001600382015481526020016004820154815250509050919050565b6040518060a001604052805f81526020015f73ffffffffffffffffffffffffffffffffffffffff168152602001606081526020015f81526020015f81525090565b5f604051905090565b5f80fd5b5f80fd5b5f73ffffffffffffffffffffffffffffffffffffffff82169050919050565b5f610d2782610cfe565b9050919050565b610d3781610d1d565b8114610d41575f80fd5b50565b5f81359050610d5281610d2e565b92915050565b5f819050919050565b610d6a81610d58565b8114610d74575f80fd5b50565b5f81359050610d8581610d61565b92915050565b5f8060408385031215610da157610da0610cf6565b5b5f610dae85828601610d44565b9250506020610dbf85828601610d77565b9150509250929050565b610dd281610d58565b82525050565b610de181610d1d565b82525050565b5f81519050919050565b5f82825260208201905092915050565b8281835e5f83830152505050565b5f601f19601f8301169050919050565b5f610e2982610de7565b610e338185610df1565b9350610e43818560208601610e01565b610e4c81610e0f565b840191505092915050565b5f60a082019050610e6a5f830188610dc9565b610e776020830187610dd8565b8181036040830152610e898186610e1f565b9050610e986060830185610dc9565b610ea56080830184610dc9565b9695505050505050565b5f81519050919050565b5f82825260208201905092915050565b5f819050602082019050919050565b610ee181610d58565b82525050565b610ef081610d1d565b82525050565b5f82825260208201905092915050565b5f610f1082610de7565b610f1a8185610ef6565b9350610f2a818560208601610e01565b610f3381610e0f565b840191505092915050565b5f60a083015f830151610f535f860182610ed8565b506020830151610f666020860182610ee7565b5060408301518482036040860152610f7e8282610f06565b9150506060830151610f936060860182610ed8565b506080830151610fa66080860182610ed8565b508091505092915050565b5f610fbc8383610f3e565b905092915050565b5f602082019050919050565b5f610fda82610eaf565b610fe48185610eb9565b935083602082028501610ff685610ec9565b805f5b8581101561103157848403895281516110128582610fb1565b945061101d83610fc4565b925060208a01995050600181019050610ff9565b50829750879550505050505092915050565b5f6020820190508181035f83015261105b8184610fd0565b905092915050565b5f61ffff82169050919050565b61107981611063565b8114611083575f80fd5b50565b5f8135905061109481611070565b92915050565b5f602082840312156110af576110ae610cf6565b5b5f6110bc84828501611086565b91505092915050565b6110ce81611063565b82525050565b5f6020820190506110e75f8301846110c5565b92915050565b5f80fd5b5f80fd5b7f4e487b71000000000000000000000000000000000000000000000000000000005f52604160045260245ffd5b61112b82610e0f565b810181811067ffffffffffffffff8211171561114a576111496110f5565b5b80604052505050565b5f61115c610ced565b90506111688282611122565b919050565b5f67ffffffffffffffff821115611187576111866110f5565b5b61119082610e0f565b9050602081019050919050565b828183375f83830152505050565b5f6111bd6111b88461116d565b611153565b9050828152602081018484840111156111d9576111d86110f1565b5b6111e484828561119d565b509392505050565b5f82601f830112611200576111ff6110ed565b5b81356112108482602086016111ab565b91505092915050565b5f6020828403121561122e5761122d610cf6565b5b5f82013567ffffffffffffffff81111561124b5761124a610cfa565b5b611257848285016111ec565b91505092915050565b5f6020820190506112735f830184610dd8565b92915050565b5f6020828403121561128e5761128d610cf6565b5b5f61129b84828501610d77565b91505092915050565b5f60a083015f8301516112b95f860182610ed8565b5060208301516112cc6020860182610ee7565b50604083015184820360408601526112e48282610f06565b91505060608301516112f96060860182610ed8565b50608083015161130c6080860182610ed8565b508091505092915050565b5f6020820190508181035f83015261132f81846112a4565b905092915050565b7f4e487b71000000000000000000000000000000000000000000000000000000005f52602260045260245ffd5b5f600282049050600182168061137b57607f821691505b60208210810361138e5761138d611337565b5b50919050565b7f4e487b71000000000000000000000000000000000000000000000000000000005f52603260045260245ffd5b7f545745455420444f4553204e4f542045584953540000000000000000000000005f82015250565b5f6113f5601483610df1565b9150611400826113c1565b602082019050919050565b5f6020820190508181035f830152611422816113e9565b9050919050565b7f545745455420484153204e4f204c494b455300000000000000000000000000005f82015250565b5f61145d601283610df1565b915061146882611429565b602082019050919050565b5f6020820190508181035f83015261148a81611451565b9050919050565b7f4e487b71000000000000000000000000000000000000000000000000000000005f52601160045260245ffd5b5f6114c882610d58565b91505f82036114da576114d9611491565b5b600182039050919050565b5f6080820190506114f85f830187610dd8565b6115056020830186610dd8565b6115126040830185610dc9565b61151f6060830184610dc9565b95945050505050565b7f594f5520415245204e4f5420544845204f574e455221000000000000000000005f82015250565b5f61155c601683610df1565b915061156782611528565b602082019050919050565b5f6020820190508181035f83015261158981611550565b9050919050565b5f61159a82610d58565b91507fffffffffffffffffffffffffffffffffffffffffffffffffffffffffffffffff82036115cc576115cb611491565b5b600182019050919050565b7f5468697320547765657420697320746f6f206c6f6e67210000000000000000005f82015250565b5f61160b601783610df1565b9150611616826115d7565b602082019050919050565b5f6020820190508181035f830152611638816115ff565b9050919050565b5f819050815f5260205f209050919050565b5f6020601f8301049050919050565b5f82821b905092915050565b5f6008830261169b7fffffffffffffffffffffffffffffffffffffffffffffffffffffffffffffffff82611660565b6116a58683611660565b95508019841693508086168417925050509392505050565b5f819050919050565b5f6116e06116db6116d684610d58565b6116bd565b610d58565b9050919050565b5f819050919050565b6116f9836116c6565b61170d611705826116e7565b84845461166c565b825550505050565b5f90565b611721611715565b61172c8184846116f0565b505050565b5b8181101561174f576117445f82611719565b600181019050611732565b5050565b601f821115611794576117658161163f565b61176e84611651565b8101602085101561177d578190505b61179161178985611651565b830182611731565b50505b505050565b5f82821c905092915050565b5f6117b45f1984600802611799565b1980831691505092915050565b5f6117cc83836117a5565b9150826002028217905092915050565b6117e582610de7565b67ffffffffffffffff8111156117fe576117fd6110f5565b5b6118088254611364565b611813828285611753565b5f60209050601f831160018114611844575f8415611832578287015190505b61183c85826117c1565b8655506118a3565b601f1984166118528661163f565b5f5b8281101561187957848901518255600182019150602085019450602081019050611854565b868310156118965784890151611892601f8916826117a5565b8355505b6001600288020188555050505b505050505050565b5f6080820190506118be5f830187610dc9565b6118cb6020830186610dd8565b81810360408301526118dd8185610e1f565b90506118ec6060830184610dc9565b9594505050505056fea2646970667358221220c9f809523b148f41217da02f97f14cdbb3f6488b259692aa6180f8ef82e77e0264736f6c634300081a0033",
					"opcodes": "PUSH1 0x80 PUSH1 0x40 MSTORE PUSH2 0x118 PUSH0 DUP1 PUSH2 0x100 EXP DUP2 SLOAD DUP2 PUSH2 0xFFFF MUL NOT AND SWAP1 DUP4 PUSH2 0xFFFF AND MUL OR SWAP1 SSTORE POP CALLVALUE DUP1 ISZERO PUSH1 0x2B JUMPI PUSH0 DUP1 REVERT JUMPDEST POP CALLER PUSH1 0x2 PUSH0 PUSH2 0x100 EXP DUP2 SLOAD DUP2 PUSH20 0xFFFFFFFFFFFFFFFFFFFFFFFFFFFFFFFFFFFFFFFF MUL NOT AND SWAP1 DUP4 PUSH20 0xFFFFFFFFFFFFFFFFFFFFFFFFFFFFFFFFFFFFFFFF AND MUL OR SWAP1 SSTORE POP PUSH2 0x192B DUP1 PUSH2 0x79 PUSH0 CODECOPY PUSH0 RETURN INVALID PUSH1 0x80 PUSH1 0x40 MSTORE CALLVALUE DUP1 ISZERO PUSH2 0xF JUMPI PUSH0 DUP1 REVERT JUMPDEST POP PUSH1 0x4 CALLDATASIZE LT PUSH2 0x91 JUMPI PUSH0 CALLDATALOAD PUSH1 0xE0 SHR DUP1 PUSH4 0x63378216 GT PUSH2 0x64 JUMPI DUP1 PUSH4 0x63378216 EQ PUSH2 0x11F JUMPI DUP1 PUSH4 0x6EB10797 EQ PUSH2 0x13B JUMPI DUP1 PUSH4 0x7C9CD2BC EQ PUSH2 0x159 JUMPI DUP1 PUSH4 0x8DA5CB5B EQ PUSH2 0x175 JUMPI DUP1 PUSH4 0xC3AD5ECB EQ PUSH2 0x193 JUMPI PUSH2 0x91 JUMP JUMPDEST DUP1 PUSH4 0x5A1B4A9 EQ PUSH2 0x95 JUMPI DUP1 PUSH4 0x3D9B569F EQ PUSH2 0xC9 JUMPI DUP1 PUSH4 0x53256135 EQ PUSH2 0xE5 JUMPI DUP1 PUSH4 0x58BFA4AB EQ PUSH2 0x103 JUMPI JUMPDEST PUSH0 DUP1 REVERT JUMPDEST PUSH2 0xAF PUSH1 0x4 DUP1 CALLDATASIZE SUB DUP2 ADD SWAP1 PUSH2 0xAA SWAP2 SWAP1 PUSH2 0xD8B JUMP JUMPDEST PUSH2 0x1C3 JUMP JUMPDEST PUSH1 0x40 MLOAD PUSH2 0xC0 SWAP6 SWAP5 SWAP4 SWAP3 SWAP2 SWAP1 PUSH2 0xE57 JUMP JUMPDEST PUSH1 0x40 MLOAD DUP1 SWAP2 SUB SWAP1 RETURN JUMPDEST PUSH2 0xE3 PUSH1 0x4 DUP1 CALLDATASIZE SUB DUP2 ADD SWAP1 PUSH2 0xDE SWAP2 SWAP1 PUSH2 0xD8B JUMP JUMPDEST PUSH2 0x2B4 JUMP JUMPDEST STOP JUMPDEST PUSH2 0xED PUSH2 0x505 JUMP JUMPDEST PUSH1 0x40 MLOAD PUSH2 0xFA SWAP2 SWAP1 PUSH2 0x1043 JUMP JUMPDEST PUSH1 0x40 MLOAD DUP1 SWAP2 SUB SWAP1 RETURN JUMPDEST PUSH2 0x11D PUSH1 0x4 DUP1 CALLDATASIZE SUB DUP2 ADD SWAP1 PUSH2 0x118 SWAP2 SWAP1 PUSH2 0x109A JUMP JUMPDEST PUSH2 0x69E JUMP JUMPDEST STOP JUMPDEST PUSH2 0x139 PUSH1 0x4 DUP1 CALLDATASIZE SUB DUP2 ADD SWAP1 PUSH2 0x134 SWAP2 SWAP1 PUSH2 0xD8B JUMP JUMPDEST PUSH2 0x74B JUMP JUMPDEST STOP JUMPDEST PUSH2 0x143 PUSH2 0x8FC JUMP JUMPDEST PUSH1 0x40 MLOAD PUSH2 0x150 SWAP2 SWAP1 PUSH2 0x10D4 JUMP JUMPDEST PUSH1 0x40 MLOAD DUP1 SWAP2 SUB SWAP1 RETURN JUMPDEST PUSH2 0x173 PUSH1 0x4 DUP1 CALLDATASIZE SUB DUP2 ADD SWAP1 PUSH2 0x16E SWAP2 SWAP1 PUSH2 0x1219 JUMP JUMPDEST PUSH2 0x90D JUMP JUMPDEST STOP JUMPDEST PUSH2 0x17D PUSH2 0xB10 JUMP JUMPDEST PUSH1 0x40 MLOAD PUSH2 0x18A SWAP2 SWAP1 PUSH2 0x1260 JUMP JUMPDEST PUSH1 0x40 MLOAD DUP1 SWAP2 SUB SWAP1 RETURN JUMPDEST PUSH2 0x1AD PUSH1 0x4 DUP1 CALLDATASIZE SUB DUP2 ADD SWAP1 PUSH2 0x1A8 SWAP2 SWAP1 PUSH2 0x1279 JUMP JUMPDEST PUSH2 0xB35 JUMP JUMPDEST PUSH1 0x40 MLOAD PUSH2 0x1BA SWAP2 SWAP1 PUSH2 0x1317 JUMP JUMPDEST PUSH1 0x40 MLOAD DUP1 SWAP2 SUB SWAP1 RETURN JUMPDEST PUSH1 0x1 PUSH1 0x20 MSTORE DUP2 PUSH0 MSTORE PUSH1 0x40 PUSH0 KECCAK256 DUP2 DUP2 SLOAD DUP2 LT PUSH2 0x1DC JUMPI PUSH0 DUP1 REVERT JUMPDEST SWAP1 PUSH0 MSTORE PUSH1 0x20 PUSH0 KECCAK256 SWAP1 PUSH1 0x5 MUL ADD PUSH0 SWAP2 POP SWAP2 POP POP DUP1 PUSH0 ADD SLOAD SWAP1 DUP1 PUSH1 0x1 ADD PUSH0 SWAP1 SLOAD SWAP1 PUSH2 0x100 EXP SWAP1 DIV PUSH20 0xFFFFFFFFFFFFFFFFFFFFFFFFFFFFFFFFFFFFFFFF AND SWAP1 DUP1 PUSH1 0x2 ADD DUP1 SLOAD PUSH2 0x227 SWAP1 PUSH2 0x1364 JUMP JUMPDEST DUP1 PUSH1 0x1F ADD PUSH1 0x20 DUP1 SWAP2 DIV MUL PUSH1 0x20 ADD PUSH1 0x40 MLOAD SWAP1 DUP2 ADD PUSH1 0x40 MSTORE DUP1 SWAP3 SWAP2 SWAP1 DUP2 DUP2 MSTORE PUSH1 0x20 ADD DUP3 DUP1 SLOAD PUSH2 0x253 SWAP1 PUSH2 0x1364 JUMP JUMPDEST DUP1 ISZERO PUSH2 0x29E JUMPI DUP1 PUSH1 0x1F LT PUSH2 0x275 JUMPI PUSH2 0x100 DUP1 DUP4 SLOAD DIV MUL DUP4 MSTORE SWAP2 PUSH1 0x20 ADD SWAP2 PUSH2 0x29E JUMP JUMPDEST DUP3 ADD SWAP2 SWAP1 PUSH0 MSTORE PUSH1 0x20 PUSH0 KECCAK256 SWAP1 JUMPDEST DUP2 SLOAD DUP2 MSTORE SWAP1 PUSH1 0x1 ADD SWAP1 PUSH1 0x20 ADD DUP1 DUP4 GT PUSH2 0x281 JUMPI DUP3 SWAP1 SUB PUSH1 0x1F AND DUP3 ADD SWAP2 JUMPDEST POP POP POP POP POP SWAP1 DUP1 PUSH1 0x3 ADD SLOAD SWAP1 DUP1 PUSH1 0x4 ADD SLOAD SWAP1 POP DUP6 JUMP JUMPDEST DUP1 PUSH1 0x1 PUSH0 DUP5 PUSH20 0xFFFFFFFFFFFFFFFFFFFFFFFFFFFFFFFFFFFFFFFF AND PUSH20 0xFFFFFFFFFFFFFFFFFFFFFFFFFFFFFFFFFFFFFFFF AND DUP2 MSTORE PUSH1 0x20 ADD SWAP1 DUP2 MSTORE PUSH1 0x20 ADD PUSH0 KECCAK256 DUP3 DUP2 SLOAD DUP2 LT PUSH2 0x304 JUMPI PUSH2 0x303 PUSH2 0x1394 JUMP JUMPDEST JUMPDEST SWAP1 PUSH0 MSTORE PUSH1 0x20 PUSH0 KECCAK256 SWAP1 PUSH1 0x5 MUL ADD PUSH0 ADD SLOAD EQ PUSH2 0x353 JUMPI PUSH1 0x40 MLOAD PUSH32 0x8C379A000000000000000000000000000000000000000000000000000000000 DUP2 MSTORE PUSH1 0x4 ADD PUSH2 0x34A SWAP1 PUSH2 0x140B JUMP JUMPDEST PUSH1 0x40 MLOAD DUP1 SWAP2 SUB SWAP1 REVERT JUMPDEST PUSH0 PUSH1 0x1 PUSH0 DUP5 PUSH20 0xFFFFFFFFFFFFFFFFFFFFFFFFFFFFFFFFFFFFFFFF AND PUSH20 0xFFFFFFFFFFFFFFFFFFFFFFFFFFFFFFFFFFFFFFFF AND DUP2 MSTORE PUSH1 0x20 ADD SWAP1 DUP2 MSTORE PUSH1 0x20 ADD PUSH0 KECCAK256 DUP3 DUP2 SLOAD DUP2 LT PUSH2 0x3A3 JUMPI PUSH2 0x3A2 PUSH2 0x1394 JUMP JUMPDEST JUMPDEST SWAP1 PUSH0 MSTORE PUSH1 0x20 PUSH0 KECCAK256 SWAP1 PUSH1 0x5 MUL ADD PUSH1 0x4 ADD SLOAD GT PUSH2 0x3F3 JUMPI PUSH1 0x40 MLOAD PUSH32 0x8C379A000000000000000000000000000000000000000000000000000000000 DUP2 MSTORE PUSH1 0x4 ADD PUSH2 0x3EA SWAP1 PUSH2 0x1473 JUMP JUMPDEST PUSH1 0x40 MLOAD DUP1 SWAP2 SUB SWAP1 REVERT JUMPDEST PUSH1 0x1 PUSH0 DUP4 PUSH20 0xFFFFFFFFFFFFFFFFFFFFFFFFFFFFFFFFFFFFFFFF AND PUSH20 0xFFFFFFFFFFFFFFFFFFFFFFFFFFFFFFFFFFFFFFFF AND DUP2 MSTORE PUSH1 0x20 ADD SWAP1 DUP2 MSTORE PUSH1 0x20 ADD PUSH0 KECCAK256 DUP2 DUP2 SLOAD DUP2 LT PUSH2 0x442 JUMPI PUSH2 0x441 PUSH2 0x1394 JUMP JUMPDEST JUMPDEST SWAP1 PUSH0 MSTORE PUSH1 0x20 PUSH0 KECCAK256 SWAP1 PUSH1 0x5 MUL ADD PUSH1 0x4 ADD PUSH0 DUP2 SLOAD DUP1 SWAP3 SWAP2 SWAP1 PUSH2 0x461 SWAP1 PUSH2 0x14BE JUMP JUMPDEST SWAP2 SWAP1 POP SSTORE POP PUSH32 0x762C2616349603AC16EBA0DE8E6141B79129A07AB63BD99E0A80B3A471716943 CALLER DUP4 DUP4 PUSH1 0x1 PUSH0 DUP8 PUSH20 0xFFFFFFFFFFFFFFFFFFFFFFFFFFFFFFFFFFFFFFFF AND PUSH20 0xFFFFFFFFFFFFFFFFFFFFFFFFFFFFFFFFFFFFFFFF AND DUP2 MSTORE PUSH1 0x20 ADD SWAP1 DUP2 MSTORE PUSH1 0x20 ADD PUSH0 KECCAK256 DUP6 DUP2 SLOAD DUP2 LT PUSH2 0x4D9 JUMPI PUSH2 0x4D8 PUSH2 0x1394 JUMP JUMPDEST JUMPDEST SWAP1 PUSH0 MSTORE PUSH1 0x20 PUSH0 KECCAK256 SWAP1 PUSH1 0x5 MUL ADD PUSH1 0x4 ADD SLOAD PUSH1 0x40 MLOAD PUSH2 0x4F9 SWAP5 SWAP4 SWAP3 SWAP2 SWAP1 PUSH2 0x14E5 JUMP JUMPDEST PUSH1 0x40 MLOAD DUP1 SWAP2 SUB SWAP1 LOG1 POP POP JUMP JUMPDEST PUSH1 0x60 PUSH1 0x1 PUSH0 CALLER PUSH20 0xFFFFFFFFFFFFFFFFFFFFFFFFFFFFFFFFFFFFFFFF AND PUSH20 0xFFFFFFFFFFFFFFFFFFFFFFFFFFFFFFFFFFFFFFFF AND DUP2 MSTORE PUSH1 0x20 ADD SWAP1 DUP2 MSTORE PUSH1 0x20 ADD PUSH0 KECCAK256 DUP1 SLOAD DUP1 PUSH1 0x20 MUL PUSH1 0x20 ADD PUSH1 0x40 MLOAD SWAP1 DUP2 ADD PUSH1 0x40 MSTORE DUP1 SWAP3 SWAP2 SWAP1 DUP2 DUP2 MSTORE PUSH1 0x20 ADD PUSH0 SWAP1 JUMPDEST DUP3 DUP3 LT ISZERO PUSH2 0x695 JUMPI DUP4 DUP3 SWAP1 PUSH0 MSTORE PUSH1 0x20 PUSH0 KECCAK256 SWAP1 PUSH1 0x5 MUL ADD PUSH1 0x40 MLOAD DUP1 PUSH1 0xA0 ADD PUSH1 0x40 MSTORE SWAP1 DUP2 PUSH0 DUP3 ADD SLOAD DUP2 MSTORE PUSH1 0x20 ADD PUSH1 0x1 DUP3 ADD PUSH0 SWAP1 SLOAD SWAP1 PUSH2 0x100 EXP SWAP1 DIV PUSH20 0xFFFFFFFFFFFFFFFFFFFFFFFFFFFFFFFFFFFFFFFF AND PUSH20 0xFFFFFFFFFFFFFFFFFFFFFFFFFFFFFFFFFFFFFFFF AND PUSH20 0xFFFFFFFFFFFFFFFFFFFFFFFFFFFFFFFFFFFFFFFF AND DUP2 MSTORE PUSH1 0x20 ADD PUSH1 0x2 DUP3 ADD DUP1 SLOAD PUSH2 0x5F2 SWAP1 PUSH2 0x1364 JUMP JUMPDEST DUP1 PUSH1 0x1F ADD PUSH1 0x20 DUP1 SWAP2 DIV MUL PUSH1 0x20 ADD PUSH1 0x40 MLOAD SWAP1 DUP2 ADD PUSH1 0x40 MSTORE DUP1 SWAP3 SWAP2 SWAP1 DUP2 DUP2 MSTORE PUSH1 0x20 ADD DUP3 DUP1 SLOAD PUSH2 0x61E SWAP1 PUSH2 0x1364 JUMP JUMPDEST DUP1 ISZERO PUSH2 0x669 JUMPI DUP1 PUSH1 0x1F LT PUSH2 0x640 JUMPI PUSH2 0x100 DUP1 DUP4 SLOAD DIV MUL DUP4 MSTORE SWAP2 PUSH1 0x20 ADD SWAP2 PUSH2 0x669 JUMP JUMPDEST DUP3 ADD SWAP2 SWAP1 PUSH0 MSTORE PUSH1 0x20 PUSH0 KECCAK256 SWAP1 JUMPDEST DUP2 SLOAD DUP2 MSTORE SWAP1 PUSH1 0x1 ADD SWAP1 PUSH1 0x20 ADD DUP1 DUP4 GT PUSH2 0x64C JUMPI DUP3 SWAP1 SUB PUSH1 0x1F AND DUP3 ADD SWAP2 JUMPDEST POP POP POP POP POP DUP2 MSTORE PUSH1 0x20 ADD PUSH1 0x3 DUP3 ADD SLOAD DUP2 MSTORE PUSH1 0x20 ADD PUSH1 0x4 DUP3 ADD SLOAD DUP2 MSTORE POP POP DUP2 MSTORE PUSH1 0x20 ADD SWAP1 PUSH1 0x1 ADD SWAP1 PUSH2 0x563 JUMP JUMPDEST POP POP POP POP SWAP1 POP SWAP1 JUMP JUMPDEST PUSH1 0x2 PUSH0 SWAP1 SLOAD SWAP1 PUSH2 0x100 EXP SWAP1 DIV PUSH20 0xFFFFFFFFFFFFFFFFFFFFFFFFFFFFFFFFFFFFFFFF AND PUSH20 0xFFFFFFFFFFFFFFFFFFFFFFFFFFFFFFFFFFFFFFFF AND CALLER PUSH20 0xFFFFFFFFFFFFFFFFFFFFFFFFFFFFFFFFFFFFFFFF AND EQ PUSH2 0x72D JUMPI PUSH1 0x40 MLOAD PUSH32 0x8C379A000000000000000000000000000000000000000000000000000000000 DUP2 MSTORE PUSH1 0x4 ADD PUSH2 0x724 SWAP1 PUSH2 0x1572 JUMP JUMPDEST PUSH1 0x40 MLOAD DUP1 SWAP2 SUB SWAP1 REVERT JUMPDEST DUP1 PUSH0 DUP1 PUSH2 0x100 EXP DUP2 SLOAD DUP2 PUSH2 0xFFFF MUL NOT AND SWAP1 DUP4 PUSH2 0xFFFF AND MUL OR SWAP1 SSTORE POP POP JUMP JUMPDEST DUP1 PUSH1 0x1 PUSH0 DUP5 PUSH20 0xFFFFFFFFFFFFFFFFFFFFFFFFFFFFFFFFFFFFFFFF AND PUSH20 0xFFFFFFFFFFFFFFFFFFFFFFFFFFFFFFFFFFFFFFFF AND DUP2 MSTORE PUSH1 0x20 ADD SWAP1 DUP2 MSTORE PUSH1 0x20 ADD PUSH0 KECCAK256 DUP3 DUP2 SLOAD DUP2 LT PUSH2 0x79B JUMPI PUSH2 0x79A PUSH2 0x1394 JUMP JUMPDEST JUMPDEST SWAP1 PUSH0 MSTORE PUSH1 0x20 PUSH0 KECCAK256 SWAP1 PUSH1 0x5 MUL ADD PUSH0 ADD SLOAD EQ PUSH2 0x7EA JUMPI PUSH1 0x40 MLOAD PUSH32 0x8C379A000000000000000000000000000000000000000000000000000000000 DUP2 MSTORE PUSH1 0x4 ADD PUSH2 0x7E1 SWAP1 PUSH2 0x140B JUMP JUMPDEST PUSH1 0x40 MLOAD DUP1 SWAP2 SUB SWAP1 REVERT JUMPDEST PUSH1 0x1 PUSH0 DUP4 PUSH20 0xFFFFFFFFFFFFFFFFFFFFFFFFFFFFFFFFFFFFFFFF AND PUSH20 0xFFFFFFFFFFFFFFFFFFFFFFFFFFFFFFFFFFFFFFFF AND DUP2 MSTORE PUSH1 0x20 ADD SWAP1 DUP2 MSTORE PUSH1 0x20 ADD PUSH0 KECCAK256 DUP2 DUP2 SLOAD DUP2 LT PUSH2 0x839 JUMPI PUSH2 0x838 PUSH2 0x1394 JUMP JUMPDEST JUMPDEST SWAP1 PUSH0 MSTORE PUSH1 0x20 PUSH0 KECCAK256 SWAP1 PUSH1 0x5 MUL ADD PUSH1 0x4 ADD PUSH0 DUP2 SLOAD DUP1 SWAP3 SWAP2 SWAP1 PUSH2 0x858 SWAP1 PUSH2 0x1590 JUMP JUMPDEST SWAP2 SWAP1 POP SSTORE POP PUSH32 0xE8A76FC0F16D11A00D1E93B689B63D76CF60AF914DD3D915375DC41D01A0C3C8 CALLER DUP4 DUP4 PUSH1 0x1 PUSH0 DUP8 PUSH20 0xFFFFFFFFFFFFFFFFFFFFFFFFFFFFFFFFFFFFFFFF AND PUSH20 0xFFFFFFFFFFFFFFFFFFFFFFFFFFFFFFFFFFFFFFFF AND DUP2 MSTORE PUSH1 0x20 ADD SWAP1 DUP2 MSTORE PUSH1 0x20 ADD PUSH0 KECCAK256 DUP6 DUP2 SLOAD DUP2 LT PUSH2 0x8D0 JUMPI PUSH2 0x8CF PUSH2 0x1394 JUMP JUMPDEST JUMPDEST SWAP1 PUSH0 MSTORE PUSH1 0x20 PUSH0 KECCAK256 SWAP1 PUSH1 0x5 MUL ADD PUSH1 0x4 ADD SLOAD PUSH1 0x40 MLOAD PUSH2 0x8F0 SWAP5 SWAP4 SWAP3 SWAP2 SWAP1 PUSH2 0x14E5 JUMP JUMPDEST PUSH1 0x40 MLOAD DUP1 SWAP2 SUB SWAP1 LOG1 POP POP JUMP JUMPDEST PUSH0 DUP1 SLOAD SWAP1 PUSH2 0x100 EXP SWAP1 DIV PUSH2 0xFFFF AND DUP2 JUMP JUMPDEST PUSH0 DUP1 SLOAD SWAP1 PUSH2 0x100 EXP SWAP1 DIV PUSH2 0xFFFF AND PUSH2 0xFFFF AND DUP2 MLOAD GT ISZERO PUSH2 0x962 JUMPI PUSH1 0x40 MLOAD PUSH32 0x8C379A000000000000000000000000000000000000000000000000000000000 DUP2 MSTORE PUSH1 0x4 ADD PUSH2 0x959 SWAP1 PUSH2 0x1621 JUMP JUMPDEST PUSH1 0x40 MLOAD DUP1 SWAP2 SUB SWAP1 REVERT JUMPDEST PUSH0 PUSH1 0x40 MLOAD DUP1 PUSH1 0xA0 ADD PUSH1 0x40 MSTORE DUP1 PUSH1 0x1 PUSH0 CALLER PUSH20 0xFFFFFFFFFFFFFFFFFFFFFFFFFFFFFFFFFFFFFFFF AND PUSH20 0xFFFFFFFFFFFFFFFFFFFFFFFFFFFFFFFFFFFFFFFF AND DUP2 MSTORE PUSH1 0x20 ADD SWAP1 DUP2 MSTORE PUSH1 0x20 ADD PUSH0 KECCAK256 DUP1 SLOAD SWAP1 POP DUP2 MSTORE PUSH1 0x20 ADD CALLER PUSH20 0xFFFFFFFFFFFFFFFFFFFFFFFFFFFFFFFFFFFFFFFF AND DUP2 MSTORE PUSH1 0x20 ADD DUP4 DUP2 MSTORE PUSH1 0x20 ADD TIMESTAMP DUP2 MSTORE PUSH1 0x20 ADD PUSH0 DUP2 MSTORE POP SWAP1 POP PUSH1 0x1 PUSH0 CALLER PUSH20 0xFFFFFFFFFFFFFFFFFFFFFFFFFFFFFFFFFFFFFFFF AND PUSH20 0xFFFFFFFFFFFFFFFFFFFFFFFFFFFFFFFFFFFFFFFF AND DUP2 MSTORE PUSH1 0x20 ADD SWAP1 DUP2 MSTORE PUSH1 0x20 ADD PUSH0 KECCAK256 DUP2 SWAP1 DUP1 PUSH1 0x1 DUP2 SLOAD ADD DUP1 DUP3 SSTORE DUP1 SWAP2 POP POP PUSH1 0x1 SWAP1 SUB SWAP1 PUSH0 MSTORE PUSH1 0x20 PUSH0 KECCAK256 SWAP1 PUSH1 0x5 MUL ADD PUSH0 SWAP1 SWAP2 SWAP1 SWAP2 SWAP1 SWAP2 POP PUSH0 DUP3 ADD MLOAD DUP2 PUSH0 ADD SSTORE PUSH1 0x20 DUP3 ADD MLOAD DUP2 PUSH1 0x1 ADD PUSH0 PUSH2 0x100 EXP DUP2 SLOAD DUP2 PUSH20 0xFFFFFFFFFFFFFFFFFFFFFFFFFFFFFFFFFFFFFFFF MUL NOT AND SWAP1 DUP4 PUSH20 0xFFFFFFFFFFFFFFFFFFFFFFFFFFFFFFFFFFFFFFFF AND MUL OR SWAP1 SSTORE POP PUSH1 0x40 DUP3 ADD MLOAD DUP2 PUSH1 0x2 ADD SWAP1 DUP2 PUSH2 0xAA9 SWAP2 SWAP1 PUSH2 0x17DC JUMP JUMPDEST POP PUSH1 0x60 DUP3 ADD MLOAD DUP2 PUSH1 0x3 ADD SSTORE PUSH1 0x80 DUP3 ADD MLOAD DUP2 PUSH1 0x4 ADD SSTORE POP POP PUSH32 0x164526CC93FDFACF70CED03A69CBD2B8530743D6700A895030BB72589871D482 DUP2 PUSH0 ADD MLOAD DUP3 PUSH1 0x20 ADD MLOAD DUP4 PUSH1 0x40 ADD MLOAD DUP5 PUSH1 0x60 ADD MLOAD PUSH1 0x40 MLOAD PUSH2 0xB04 SWAP5 SWAP4 SWAP3 SWAP2 SWAP1 PUSH2 0x18AB JUMP JUMPDEST PUSH1 0x40 MLOAD DUP1 SWAP2 SUB SWAP1 LOG1 POP POP JUMP JUMPDEST PUSH1 0x2 PUSH0 SWAP1 SLOAD SWAP1 PUSH2 0x100 EXP SWAP1 DIV PUSH20 0xFFFFFFFFFFFFFFFFFFFFFFFFFFFFFFFFFFFFFFFF AND DUP2 JUMP JUMPDEST PUSH2 0xB3D PUSH2 0xCAC JUMP JUMPDEST PUSH1 0x1 PUSH0 CALLER PUSH20 0xFFFFFFFFFFFFFFFFFFFFFFFFFFFFFFFFFFFFFFFF AND PUSH20 0xFFFFFFFFFFFFFFFFFFFFFFFFFFFFFFFFFFFFFFFF AND DUP2 MSTORE PUSH1 0x20 ADD SWAP1 DUP2 MSTORE PUSH1 0x20 ADD PUSH0 KECCAK256 DUP3 DUP2 SLOAD DUP2 LT PUSH2 0xB8C JUMPI PUSH2 0xB8B PUSH2 0x1394 JUMP JUMPDEST JUMPDEST SWAP1 PUSH0 MSTORE PUSH1 0x20 PUSH0 KECCAK256 SWAP1 PUSH1 0x5 MUL ADD PUSH1 0x40 MLOAD DUP1 PUSH1 0xA0 ADD PUSH1 0x40 MSTORE SWAP1 DUP2 PUSH0 DUP3 ADD SLOAD DUP2 MSTORE PUSH1 0x20 ADD PUSH1 0x1 DUP3 ADD PUSH0 SWAP1 SLOAD SWAP1 PUSH2 0x100 EXP SWAP1 DIV PUSH20 0xFFFFFFFFFFFFFFFFFFFFFFFFFFFFFFFFFFFFFFFF AND PUSH20 0xFFFFFFFFFFFFFFFFFFFFFFFFFFFFFFFFFFFFFFFF AND PUSH20 0xFFFFFFFFFFFFFFFFFFFFFFFFFFFFFFFFFFFFFFFF AND DUP2 MSTORE PUSH1 0x20 ADD PUSH1 0x2 DUP3 ADD DUP1 SLOAD PUSH2 0xC11 SWAP1 PUSH2 0x1364 JUMP JUMPDEST DUP1 PUSH1 0x1F ADD PUSH1 0x20 DUP1 SWAP2 DIV MUL PUSH1 0x20 ADD PUSH1 0x40 MLOAD SWAP1 DUP2 ADD PUSH1 0x40 MSTORE DUP1 SWAP3 SWAP2 SWAP1 DUP2 DUP2 MSTORE PUSH1 0x20 ADD DUP3 DUP1 SLOAD PUSH2 0xC3D SWAP1 PUSH2 0x1364 JUMP JUMPDEST DUP1 ISZERO PUSH2 0xC88 JUMPI DUP1 PUSH1 0x1F LT PUSH2 0xC5F JUMPI PUSH2 0x100 DUP1 DUP4 SLOAD DIV MUL DUP4 MSTORE SWAP2 PUSH1 0x20 ADD SWAP2 PUSH2 0xC88 JUMP JUMPDEST DUP3 ADD SWAP2 SWAP1 PUSH0 MSTORE PUSH1 0x20 PUSH0 KECCAK256 SWAP1 JUMPDEST DUP2 SLOAD DUP2 MSTORE SWAP1 PUSH1 0x1 ADD SWAP1 PUSH1 0x20 ADD DUP1 DUP4 GT PUSH2 0xC6B JUMPI DUP3 SWAP1 SUB PUSH1 0x1F AND DUP3 ADD SWAP2 JUMPDEST POP POP POP POP POP DUP2 MSTORE PUSH1 0x20 ADD PUSH1 0x3 DUP3 ADD SLOAD DUP2 MSTORE PUSH1 0x20 ADD PUSH1 0x4 DUP3 ADD SLOAD DUP2 MSTORE POP POP SWAP1 POP SWAP2 SWAP1 POP JUMP JUMPDEST PUSH1 0x40 MLOAD DUP1 PUSH1 0xA0 ADD PUSH1 0x40 MSTORE DUP1 PUSH0 DUP2 MSTORE PUSH1 0x20 ADD PUSH0 PUSH20 0xFFFFFFFFFFFFFFFFFFFFFFFFFFFFFFFFFFFFFFFF AND DUP2 MSTORE PUSH1 0x20 ADD PUSH1 0x60 DUP2 MSTORE PUSH1 0x20 ADD PUSH0 DUP2 MSTORE PUSH1 0x20 ADD PUSH0 DUP2 MSTORE POP SWAP1 JUMP JUMPDEST PUSH0 PUSH1 0x40 MLOAD SWAP1 POP SWAP1 JUMP JUMPDEST PUSH0 DUP1 REVERT JUMPDEST PUSH0 DUP1 REVERT JUMPDEST PUSH0 PUSH20 0xFFFFFFFFFFFFFFFFFFFFFFFFFFFFFFFFFFFFFFFF DUP3 AND SWAP1 POP SWAP2 SWAP1 POP JUMP JUMPDEST PUSH0 PUSH2 0xD27 DUP3 PUSH2 0xCFE JUMP JUMPDEST SWAP1 POP SWAP2 SWAP1 POP JUMP JUMPDEST PUSH2 0xD37 DUP2 PUSH2 0xD1D JUMP JUMPDEST DUP2 EQ PUSH2 0xD41 JUMPI PUSH0 DUP1 REVERT JUMPDEST POP JUMP JUMPDEST PUSH0 DUP2 CALLDATALOAD SWAP1 POP PUSH2 0xD52 DUP2 PUSH2 0xD2E JUMP JUMPDEST SWAP3 SWAP2 POP POP JUMP JUMPDEST PUSH0 DUP2 SWAP1 POP SWAP2 SWAP1 POP JUMP JUMPDEST PUSH2 0xD6A DUP2 PUSH2 0xD58 JUMP JUMPDEST DUP2 EQ PUSH2 0xD74 JUMPI PUSH0 DUP1 REVERT JUMPDEST POP JUMP JUMPDEST PUSH0 DUP2 CALLDATALOAD SWAP1 POP PUSH2 0xD85 DUP2 PUSH2 0xD61 JUMP JUMPDEST SWAP3 SWAP2 POP POP JUMP JUMPDEST PUSH0 DUP1 PUSH1 0x40 DUP4 DUP6 SUB SLT ISZERO PUSH2 0xDA1 JUMPI PUSH2 0xDA0 PUSH2 0xCF6 JUMP JUMPDEST JUMPDEST PUSH0 PUSH2 0xDAE DUP6 DUP3 DUP7 ADD PUSH2 0xD44 JUMP JUMPDEST SWAP3 POP POP PUSH1 0x20 PUSH2 0xDBF DUP6 DUP3 DUP7 ADD PUSH2 0xD77 JUMP JUMPDEST SWAP2 POP POP SWAP3 POP SWAP3 SWAP1 POP JUMP JUMPDEST PUSH2 0xDD2 DUP2 PUSH2 0xD58 JUMP JUMPDEST DUP3 MSTORE POP POP JUMP JUMPDEST PUSH2 0xDE1 DUP2 PUSH2 0xD1D JUMP JUMPDEST DUP3 MSTORE POP POP JUMP JUMPDEST PUSH0 DUP2 MLOAD SWAP1 POP SWAP2 SWAP1 POP JUMP JUMPDEST PUSH0 DUP3 DUP3 MSTORE PUSH1 0x20 DUP3 ADD SWAP1 POP SWAP3 SWAP2 POP POP JUMP JUMPDEST DUP3 DUP2 DUP4 MCOPY PUSH0 DUP4 DUP4 ADD MSTORE POP POP POP JUMP JUMPDEST PUSH0 PUSH1 0x1F NOT PUSH1 0x1F DUP4 ADD AND SWAP1 POP SWAP2 SWAP1 POP JUMP JUMPDEST PUSH0 PUSH2 0xE29 DUP3 PUSH2 0xDE7 JUMP JUMPDEST PUSH2 0xE33 DUP2 DUP6 PUSH2 0xDF1 JUMP JUMPDEST SWAP4 POP PUSH2 0xE43 DUP2 DUP6 PUSH1 0x20 DUP7 ADD PUSH2 0xE01 JUMP JUMPDEST PUSH2 0xE4C DUP2 PUSH2 0xE0F JUMP JUMPDEST DUP5 ADD SWAP2 POP POP SWAP3 SWAP2 POP POP JUMP JUMPDEST PUSH0 PUSH1 0xA0 DUP3 ADD SWAP1 POP PUSH2 0xE6A PUSH0 DUP4 ADD DUP9 PUSH2 0xDC9 JUMP JUMPDEST PUSH2 0xE77 PUSH1 0x20 DUP4 ADD DUP8 PUSH2 0xDD8 JUMP JUMPDEST DUP2 DUP2 SUB PUSH1 0x40 DUP4 ADD MSTORE PUSH2 0xE89 DUP2 DUP7 PUSH2 0xE1F JUMP JUMPDEST SWAP1 POP PUSH2 0xE98 PUSH1 0x60 DUP4 ADD DUP6 PUSH2 0xDC9 JUMP JUMPDEST PUSH2 0xEA5 PUSH1 0x80 DUP4 ADD DUP5 PUSH2 0xDC9 JUMP JUMPDEST SWAP7 SWAP6 POP POP POP POP POP POP JUMP JUMPDEST PUSH0 DUP2 MLOAD SWAP1 POP SWAP2 SWAP1 POP JUMP JUMPDEST PUSH0 DUP3 DUP3 MSTORE PUSH1 0x20 DUP3 ADD SWAP1 POP SWAP3 SWAP2 POP POP JUMP JUMPDEST PUSH0 DUP2 SWAP1 POP PUSH1 0x20 DUP3 ADD SWAP1 POP SWAP2 SWAP1 POP JUMP JUMPDEST PUSH2 0xEE1 DUP2 PUSH2 0xD58 JUMP JUMPDEST DUP3 MSTORE POP POP JUMP JUMPDEST PUSH2 0xEF0 DUP2 PUSH2 0xD1D JUMP JUMPDEST DUP3 MSTORE POP POP JUMP JUMPDEST PUSH0 DUP3 DUP3 MSTORE PUSH1 0x20 DUP3 ADD SWAP1 POP SWAP3 SWAP2 POP POP JUMP JUMPDEST PUSH0 PUSH2 0xF10 DUP3 PUSH2 0xDE7 JUMP JUMPDEST PUSH2 0xF1A DUP2 DUP6 PUSH2 0xEF6 JUMP JUMPDEST SWAP4 POP PUSH2 0xF2A DUP2 DUP6 PUSH1 0x20 DUP7 ADD PUSH2 0xE01 JUMP JUMPDEST PUSH2 0xF33 DUP2 PUSH2 0xE0F JUMP JUMPDEST DUP5 ADD SWAP2 POP POP SWAP3 SWAP2 POP POP JUMP JUMPDEST PUSH0 PUSH1 0xA0 DUP4 ADD PUSH0 DUP4 ADD MLOAD PUSH2 0xF53 PUSH0 DUP7 ADD DUP3 PUSH2 0xED8 JUMP JUMPDEST POP PUSH1 0x20 DUP4 ADD MLOAD PUSH2 0xF66 PUSH1 0x20 DUP7 ADD DUP3 PUSH2 0xEE7 JUMP JUMPDEST POP PUSH1 0x40 DUP4 ADD MLOAD DUP5 DUP3 SUB PUSH1 0x40 DUP7 ADD MSTORE PUSH2 0xF7E DUP3 DUP3 PUSH2 0xF06 JUMP JUMPDEST SWAP2 POP POP PUSH1 0x60 DUP4 ADD MLOAD PUSH2 0xF93 PUSH1 0x60 DUP7 ADD DUP3 PUSH2 0xED8 JUMP JUMPDEST POP PUSH1 0x80 DUP4 ADD MLOAD PUSH2 0xFA6 PUSH1 0x80 DUP7 ADD DUP3 PUSH2 0xED8 JUMP JUMPDEST POP DUP1 SWAP2 POP POP SWAP3 SWAP2 POP POP JUMP JUMPDEST PUSH0 PUSH2 0xFBC DUP4 DUP4 PUSH2 0xF3E JUMP JUMPDEST SWAP1 POP SWAP3 SWAP2 POP POP JUMP JUMPDEST PUSH0 PUSH1 0x20 DUP3 ADD SWAP1 POP SWAP2 SWAP1 POP JUMP JUMPDEST PUSH0 PUSH2 0xFDA DUP3 PUSH2 0xEAF JUMP JUMPDEST PUSH2 0xFE4 DUP2 DUP6 PUSH2 0xEB9 JUMP JUMPDEST SWAP4 POP DUP4 PUSH1 0x20 DUP3 MUL DUP6 ADD PUSH2 0xFF6 DUP6 PUSH2 0xEC9 JUMP JUMPDEST DUP1 PUSH0 JUMPDEST DUP6 DUP2 LT ISZERO PUSH2 0x1031 JUMPI DUP5 DUP5 SUB DUP10 MSTORE DUP2 MLOAD PUSH2 0x1012 DUP6 DUP3 PUSH2 0xFB1 JUMP JUMPDEST SWAP5 POP PUSH2 0x101D DUP4 PUSH2 0xFC4 JUMP JUMPDEST SWAP3 POP PUSH1 0x20 DUP11 ADD SWAP10 POP POP PUSH1 0x1 DUP2 ADD SWAP1 POP PUSH2 0xFF9 JUMP JUMPDEST POP DUP3 SWAP8 POP DUP8 SWAP6 POP POP POP POP POP POP SWAP3 SWAP2 POP POP JUMP JUMPDEST PUSH0 PUSH1 0x20 DUP3 ADD SWAP1 POP DUP2 DUP2 SUB PUSH0 DUP4 ADD MSTORE PUSH2 0x105B DUP2 DUP5 PUSH2 0xFD0 JUMP JUMPDEST SWAP1 POP SWAP3 SWAP2 POP POP JUMP JUMPDEST PUSH0 PUSH2 0xFFFF DUP3 AND SWAP1 POP SWAP2 SWAP1 POP JUMP JUMPDEST PUSH2 0x1079 DUP2 PUSH2 0x1063 JUMP JUMPDEST DUP2 EQ PUSH2 0x1083 JUMPI PUSH0 DUP1 REVERT JUMPDEST POP JUMP JUMPDEST PUSH0 DUP2 CALLDATALOAD SWAP1 POP PUSH2 0x1094 DUP2 PUSH2 0x1070 JUMP JUMPDEST SWAP3 SWAP2 POP POP JUMP JUMPDEST PUSH0 PUSH1 0x20 DUP3 DUP5 SUB SLT ISZERO PUSH2 0x10AF JUMPI PUSH2 0x10AE PUSH2 0xCF6 JUMP JUMPDEST JUMPDEST PUSH0 PUSH2 0x10BC DUP5 DUP3 DUP6 ADD PUSH2 0x1086 JUMP JUMPDEST SWAP2 POP POP SWAP3 SWAP2 POP POP JUMP JUMPDEST PUSH2 0x10CE DUP2 PUSH2 0x1063 JUMP JUMPDEST DUP3 MSTORE POP POP JUMP JUMPDEST PUSH0 PUSH1 0x20 DUP3 ADD SWAP1 POP PUSH2 0x10E7 PUSH0 DUP4 ADD DUP5 PUSH2 0x10C5 JUMP JUMPDEST SWAP3 SWAP2 POP POP JUMP JUMPDEST PUSH0 DUP1 REVERT JUMPDEST PUSH0 DUP1 REVERT JUMPDEST PUSH32 0x4E487B7100000000000000000000000000000000000000000000000000000000 PUSH0 MSTORE PUSH1 0x41 PUSH1 0x4 MSTORE PUSH1 0x24 PUSH0 REVERT JUMPDEST PUSH2 0x112B DUP3 PUSH2 0xE0F JUMP JUMPDEST DUP2 ADD DUP2 DUP2 LT PUSH8 0xFFFFFFFFFFFFFFFF DUP3 GT OR ISZERO PUSH2 0x114A JUMPI PUSH2 0x1149 PUSH2 0x10F5 JUMP JUMPDEST JUMPDEST DUP1 PUSH1 0x40 MSTORE POP POP POP JUMP JUMPDEST PUSH0 PUSH2 0x115C PUSH2 0xCED JUMP JUMPDEST SWAP1 POP PUSH2 0x1168 DUP3 DUP3 PUSH2 0x1122 JUMP JUMPDEST SWAP2 SWAP1 POP JUMP JUMPDEST PUSH0 PUSH8 0xFFFFFFFFFFFFFFFF DUP3 GT ISZERO PUSH2 0x1187 JUMPI PUSH2 0x1186 PUSH2 0x10F5 JUMP JUMPDEST JUMPDEST PUSH2 0x1190 DUP3 PUSH2 0xE0F JUMP JUMPDEST SWAP1 POP PUSH1 0x20 DUP2 ADD SWAP1 POP SWAP2 SWAP1 POP JUMP JUMPDEST DUP3 DUP2 DUP4 CALLDATACOPY PUSH0 DUP4 DUP4 ADD MSTORE POP POP POP JUMP JUMPDEST PUSH0 PUSH2 0x11BD PUSH2 0x11B8 DUP5 PUSH2 0x116D JUMP JUMPDEST PUSH2 0x1153 JUMP JUMPDEST SWAP1 POP DUP3 DUP2 MSTORE PUSH1 0x20 DUP2 ADD DUP5 DUP5 DUP5 ADD GT ISZERO PUSH2 0x11D9 JUMPI PUSH2 0x11D8 PUSH2 0x10F1 JUMP JUMPDEST JUMPDEST PUSH2 0x11E4 DUP5 DUP3 DUP6 PUSH2 0x119D JUMP JUMPDEST POP SWAP4 SWAP3 POP POP POP JUMP JUMPDEST PUSH0 DUP3 PUSH1 0x1F DUP4 ADD SLT PUSH2 0x1200 JUMPI PUSH2 0x11FF PUSH2 0x10ED JUMP JUMPDEST JUMPDEST DUP2 CALLDATALOAD PUSH2 0x1210 DUP5 DUP3 PUSH1 0x20 DUP7 ADD PUSH2 0x11AB JUMP JUMPDEST SWAP2 POP POP SWAP3 SWAP2 POP POP JUMP JUMPDEST PUSH0 PUSH1 0x20 DUP3 DUP5 SUB SLT ISZERO PUSH2 0x122E JUMPI PUSH2 0x122D PUSH2 0xCF6 JUMP JUMPDEST JUMPDEST PUSH0 DUP3 ADD CALLDATALOAD PUSH8 0xFFFFFFFFFFFFFFFF DUP2 GT ISZERO PUSH2 0x124B JUMPI PUSH2 0x124A PUSH2 0xCFA JUMP JUMPDEST JUMPDEST PUSH2 0x1257 DUP5 DUP3 DUP6 ADD PUSH2 0x11EC JUMP JUMPDEST SWAP2 POP POP SWAP3 SWAP2 POP POP JUMP JUMPDEST PUSH0 PUSH1 0x20 DUP3 ADD SWAP1 POP PUSH2 0x1273 PUSH0 DUP4 ADD DUP5 PUSH2 0xDD8 JUMP JUMPDEST SWAP3 SWAP2 POP POP JUMP JUMPDEST PUSH0 PUSH1 0x20 DUP3 DUP5 SUB SLT ISZERO PUSH2 0x128E JUMPI PUSH2 0x128D PUSH2 0xCF6 JUMP JUMPDEST JUMPDEST PUSH0 PUSH2 0x129B DUP5 DUP3 DUP6 ADD PUSH2 0xD77 JUMP JUMPDEST SWAP2 POP POP SWAP3 SWAP2 POP POP JUMP JUMPDEST PUSH0 PUSH1 0xA0 DUP4 ADD PUSH0 DUP4 ADD MLOAD PUSH2 0x12B9 PUSH0 DUP7 ADD DUP3 PUSH2 0xED8 JUMP JUMPDEST POP PUSH1 0x20 DUP4 ADD MLOAD PUSH2 0x12CC PUSH1 0x20 DUP7 ADD DUP3 PUSH2 0xEE7 JUMP JUMPDEST POP PUSH1 0x40 DUP4 ADD MLOAD DUP5 DUP3 SUB PUSH1 0x40 DUP7 ADD MSTORE PUSH2 0x12E4 DUP3 DUP3 PUSH2 0xF06 JUMP JUMPDEST SWAP2 POP POP PUSH1 0x60 DUP4 ADD MLOAD PUSH2 0x12F9 PUSH1 0x60 DUP7 ADD DUP3 PUSH2 0xED8 JUMP JUMPDEST POP PUSH1 0x80 DUP4 ADD MLOAD PUSH2 0x130C PUSH1 0x80 DUP7 ADD DUP3 PUSH2 0xED8 JUMP JUMPDEST POP DUP1 SWAP2 POP POP SWAP3 SWAP2 POP POP JUMP JUMPDEST PUSH0 PUSH1 0x20 DUP3 ADD SWAP1 POP DUP2 DUP2 SUB PUSH0 DUP4 ADD MSTORE PUSH2 0x132F DUP2 DUP5 PUSH2 0x12A4 JUMP JUMPDEST SWAP1 POP SWAP3 SWAP2 POP POP JUMP JUMPDEST PUSH32 0x4E487B7100000000000000000000000000000000000000000000000000000000 PUSH0 MSTORE PUSH1 0x22 PUSH1 0x4 MSTORE PUSH1 0x24 PUSH0 REVERT JUMPDEST PUSH0 PUSH1 0x2 DUP3 DIV SWAP1 POP PUSH1 0x1 DUP3 AND DUP1 PUSH2 0x137B JUMPI PUSH1 0x7F DUP3 AND SWAP2 POP JUMPDEST PUSH1 0x20 DUP3 LT DUP2 SUB PUSH2 0x138E JUMPI PUSH2 0x138D PUSH2 0x1337 JUMP JUMPDEST JUMPDEST POP SWAP2 SWAP1 POP JUMP JUMPDEST PUSH32 0x4E487B7100000000000000000000000000000000000000000000000000000000 PUSH0 MSTORE PUSH1 0x32 PUSH1 0x4 MSTORE PUSH1 0x24 PUSH0 REVERT JUMPDEST PUSH32 0x545745455420444F4553204E4F54204558495354000000000000000000000000 PUSH0 DUP3 ADD MSTORE POP JUMP JUMPDEST PUSH0 PUSH2 0x13F5 PUSH1 0x14 DUP4 PUSH2 0xDF1 JUMP JUMPDEST SWAP2 POP PUSH2 0x1400 DUP3 PUSH2 0x13C1 JUMP JUMPDEST PUSH1 0x20 DUP3 ADD SWAP1 POP SWAP2 SWAP1 POP JUMP JUMPDEST PUSH0 PUSH1 0x20 DUP3 ADD SWAP1 POP DUP2 DUP2 SUB PUSH0 DUP4 ADD MSTORE PUSH2 0x1422 DUP2 PUSH2 0x13E9 JUMP JUMPDEST SWAP1 POP SWAP2 SWAP1 POP JUMP JUMPDEST PUSH32 0x545745455420484153204E4F204C494B45530000000000000000000000000000 PUSH0 DUP3 ADD MSTORE POP JUMP JUMPDEST PUSH0 PUSH2 0x145D PUSH1 0x12 DUP4 PUSH2 0xDF1 JUMP JUMPDEST SWAP2 POP PUSH2 0x1468 DUP3 PUSH2 0x1429 JUMP JUMPDEST PUSH1 0x20 DUP3 ADD SWAP1 POP SWAP2 SWAP1 POP JUMP JUMPDEST PUSH0 PUSH1 0x20 DUP3 ADD SWAP1 POP DUP2 DUP2 SUB PUSH0 DUP4 ADD MSTORE PUSH2 0x148A DUP2 PUSH2 0x1451 JUMP JUMPDEST SWAP1 POP SWAP2 SWAP1 POP JUMP JUMPDEST PUSH32 0x4E487B7100000000000000000000000000000000000000000000000000000000 PUSH0 MSTORE PUSH1 0x11 PUSH1 0x4 MSTORE PUSH1 0x24 PUSH0 REVERT JUMPDEST PUSH0 PUSH2 0x14C8 DUP3 PUSH2 0xD58 JUMP JUMPDEST SWAP2 POP PUSH0 DUP3 SUB PUSH2 0x14DA JUMPI PUSH2 0x14D9 PUSH2 0x1491 JUMP JUMPDEST JUMPDEST PUSH1 0x1 DUP3 SUB SWAP1 POP SWAP2 SWAP1 POP JUMP JUMPDEST PUSH0 PUSH1 0x80 DUP3 ADD SWAP1 POP PUSH2 0x14F8 PUSH0 DUP4 ADD DUP8 PUSH2 0xDD8 JUMP JUMPDEST PUSH2 0x1505 PUSH1 0x20 DUP4 ADD DUP7 PUSH2 0xDD8 JUMP JUMPDEST PUSH2 0x1512 PUSH1 0x40 DUP4 ADD DUP6 PUSH2 0xDC9 JUMP JUMPDEST PUSH2 0x151F PUSH1 0x60 DUP4 ADD DUP5 PUSH2 0xDC9 JUMP JUMPDEST SWAP6 SWAP5 POP POP POP POP POP JUMP JUMPDEST PUSH32 0x594F5520415245204E4F5420544845204F574E45522100000000000000000000 PUSH0 DUP3 ADD MSTORE POP JUMP JUMPDEST PUSH0 PUSH2 0x155C PUSH1 0x16 DUP4 PUSH2 0xDF1 JUMP JUMPDEST SWAP2 POP PUSH2 0x1567 DUP3 PUSH2 0x1528 JUMP JUMPDEST PUSH1 0x20 DUP3 ADD SWAP1 POP SWAP2 SWAP1 POP JUMP JUMPDEST PUSH0 PUSH1 0x20 DUP3 ADD SWAP1 POP DUP2 DUP2 SUB PUSH0 DUP4 ADD MSTORE PUSH2 0x1589 DUP2 PUSH2 0x1550 JUMP JUMPDEST SWAP1 POP SWAP2 SWAP1 POP JUMP JUMPDEST PUSH0 PUSH2 0x159A DUP3 PUSH2 0xD58 JUMP JUMPDEST SWAP2 POP PUSH32 0xFFFFFFFFFFFFFFFFFFFFFFFFFFFFFFFFFFFFFFFFFFFFFFFFFFFFFFFFFFFFFFFF DUP3 SUB PUSH2 0x15CC JUMPI PUSH2 0x15CB PUSH2 0x1491 JUMP JUMPDEST JUMPDEST PUSH1 0x1 DUP3 ADD SWAP1 POP SWAP2 SWAP1 POP JUMP JUMPDEST PUSH32 0x5468697320547765657420697320746F6F206C6F6E6721000000000000000000 PUSH0 DUP3 ADD MSTORE POP JUMP JUMPDEST PUSH0 PUSH2 0x160B PUSH1 0x17 DUP4 PUSH2 0xDF1 JUMP JUMPDEST SWAP2 POP PUSH2 0x1616 DUP3 PUSH2 0x15D7 JUMP JUMPDEST PUSH1 0x20 DUP3 ADD SWAP1 POP SWAP2 SWAP1 POP JUMP JUMPDEST PUSH0 PUSH1 0x20 DUP3 ADD SWAP1 POP DUP2 DUP2 SUB PUSH0 DUP4 ADD MSTORE PUSH2 0x1638 DUP2 PUSH2 0x15FF JUMP JUMPDEST SWAP1 POP SWAP2 SWAP1 POP JUMP JUMPDEST PUSH0 DUP2 SWAP1 POP DUP2 PUSH0 MSTORE PUSH1 0x20 PUSH0 KECCAK256 SWAP1 POP SWAP2 SWAP1 POP JUMP JUMPDEST PUSH0 PUSH1 0x20 PUSH1 0x1F DUP4 ADD DIV SWAP1 POP SWAP2 SWAP1 POP JUMP JUMPDEST PUSH0 DUP3 DUP3 SHL SWAP1 POP SWAP3 SWAP2 POP POP JUMP JUMPDEST PUSH0 PUSH1 0x8 DUP4 MUL PUSH2 0x169B PUSH32 0xFFFFFFFFFFFFFFFFFFFFFFFFFFFFFFFFFFFFFFFFFFFFFFFFFFFFFFFFFFFFFFFF DUP3 PUSH2 0x1660 JUMP JUMPDEST PUSH2 0x16A5 DUP7 DUP4 PUSH2 0x1660 JUMP JUMPDEST SWAP6 POP DUP1 NOT DUP5 AND SWAP4 POP DUP1 DUP7 AND DUP5 OR SWAP3 POP POP POP SWAP4 SWAP3 POP POP POP JUMP JUMPDEST PUSH0 DUP2 SWAP1 POP SWAP2 SWAP1 POP JUMP JUMPDEST PUSH0 PUSH2 0x16E0 PUSH2 0x16DB PUSH2 0x16D6 DUP5 PUSH2 0xD58 JUMP JUMPDEST PUSH2 0x16BD JUMP JUMPDEST PUSH2 0xD58 JUMP JUMPDEST SWAP1 POP SWAP2 SWAP1 POP JUMP JUMPDEST PUSH0 DUP2 SWAP1 POP SWAP2 SWAP1 POP JUMP JUMPDEST PUSH2 0x16F9 DUP4 PUSH2 0x16C6 JUMP JUMPDEST PUSH2 0x170D PUSH2 0x1705 DUP3 PUSH2 0x16E7 JUMP JUMPDEST DUP5 DUP5 SLOAD PUSH2 0x166C JUMP JUMPDEST DUP3 SSTORE POP POP POP POP JUMP JUMPDEST PUSH0 SWAP1 JUMP JUMPDEST PUSH2 0x1721 PUSH2 0x1715 JUMP JUMPDEST PUSH2 0x172C DUP2 DUP5 DUP5 PUSH2 0x16F0 JUMP JUMPDEST POP POP POP JUMP JUMPDEST JUMPDEST DUP2 DUP2 LT ISZERO PUSH2 0x174F JUMPI PUSH2 0x1744 PUSH0 DUP3 PUSH2 0x1719 JUMP JUMPDEST PUSH1 0x1 DUP2 ADD SWAP1 POP PUSH2 0x1732 JUMP JUMPDEST POP POP JUMP JUMPDEST PUSH1 0x1F DUP3 GT ISZERO PUSH2 0x1794 JUMPI PUSH2 0x1765 DUP2 PUSH2 0x163F JUMP JUMPDEST PUSH2 0x176E DUP5 PUSH2 0x1651 JUMP JUMPDEST DUP2 ADD PUSH1 0x20 DUP6 LT ISZERO PUSH2 0x177D JUMPI DUP2 SWAP1 POP JUMPDEST PUSH2 0x1791 PUSH2 0x1789 DUP6 PUSH2 0x1651 JUMP JUMPDEST DUP4 ADD DUP3 PUSH2 0x1731 JUMP JUMPDEST POP POP JUMPDEST POP POP POP JUMP JUMPDEST PUSH0 DUP3 DUP3 SHR SWAP1 POP SWAP3 SWAP2 POP POP JUMP JUMPDEST PUSH0 PUSH2 0x17B4 PUSH0 NOT DUP5 PUSH1 0x8 MUL PUSH2 0x1799 JUMP JUMPDEST NOT DUP1 DUP4 AND SWAP2 POP POP SWAP3 SWAP2 POP POP JUMP JUMPDEST PUSH0 PUSH2 0x17CC DUP4 DUP4 PUSH2 0x17A5 JUMP JUMPDEST SWAP2 POP DUP3 PUSH1 0x2 MUL DUP3 OR SWAP1 POP SWAP3 SWAP2 POP POP JUMP JUMPDEST PUSH2 0x17E5 DUP3 PUSH2 0xDE7 JUMP JUMPDEST PUSH8 0xFFFFFFFFFFFFFFFF DUP2 GT ISZERO PUSH2 0x17FE JUMPI PUSH2 0x17FD PUSH2 0x10F5 JUMP JUMPDEST JUMPDEST PUSH2 0x1808 DUP3 SLOAD PUSH2 0x1364 JUMP JUMPDEST PUSH2 0x1813 DUP3 DUP3 DUP6 PUSH2 0x1753 JUMP JUMPDEST PUSH0 PUSH1 0x20 SWAP1 POP PUSH1 0x1F DUP4 GT PUSH1 0x1 DUP2 EQ PUSH2 0x1844 JUMPI PUSH0 DUP5 ISZERO PUSH2 0x1832 JUMPI DUP3 DUP8 ADD MLOAD SWAP1 POP JUMPDEST PUSH2 0x183C DUP6 DUP3 PUSH2 0x17C1 JUMP JUMPDEST DUP7 SSTORE POP PUSH2 0x18A3 JUMP JUMPDEST PUSH1 0x1F NOT DUP5 AND PUSH2 0x1852 DUP7 PUSH2 0x163F JUMP JUMPDEST PUSH0 JUMPDEST DUP3 DUP2 LT ISZERO PUSH2 0x1879 JUMPI DUP5 DUP10 ADD MLOAD DUP3 SSTORE PUSH1 0x1 DUP3 ADD SWAP2 POP PUSH1 0x20 DUP6 ADD SWAP5 POP PUSH1 0x20 DUP2 ADD SWAP1 POP PUSH2 0x1854 JUMP JUMPDEST DUP7 DUP4 LT ISZERO PUSH2 0x1896 JUMPI DUP5 DUP10 ADD MLOAD PUSH2 0x1892 PUSH1 0x1F DUP10 AND DUP3 PUSH2 0x17A5 JUMP JUMPDEST DUP4 SSTORE POP JUMPDEST PUSH1 0x1 PUSH1 0x2 DUP9 MUL ADD DUP9 SSTORE POP POP POP JUMPDEST POP POP POP POP POP POP JUMP JUMPDEST PUSH0 PUSH1 0x80 DUP3 ADD SWAP1 POP PUSH2 0x18BE PUSH0 DUP4 ADD DUP8 PUSH2 0xDC9 JUMP JUMPDEST PUSH2 0x18CB PUSH1 0x20 DUP4 ADD DUP7 PUSH2 0xDD8 JUMP JUMPDEST DUP2 DUP2 SUB PUSH1 0x40 DUP4 ADD MSTORE PUSH2 0x18DD DUP2 DUP6 PUSH2 0xE1F JUMP JUMPDEST SWAP1 POP PUSH2 0x18EC PUSH1 0x60 DUP4 ADD DUP5 PUSH2 0xDC9 JUMP JUMPDEST SWAP6 SWAP5 POP POP POP POP POP JUMP INVALID LOG2 PUSH5 0x6970667358 0x22 SLT KECCAK256 0xC9 0xF8 MULMOD MSTORE EXTCODESIZE EQ DUP16 COINBASE 0x21 PUSH30 0xA02F97F14CDBB3F6488B259692AA6180F8EF82E77E0264736F6C63430008 BYTE STOP CALLER "
				},
				"gasEstimates": {
					"creation": {
						"codeDepositCost": "1288600",
						"executionCost": "49871",
						"totalCost": "1338471"
					},
					"external": {
						"MAX_TWEET_LENGTH()": "2485",
						"changeTweetLength(uint16)": "26909",
						"createTweet(string)": "infinite",
						"getAllTweets()": "infinite",
						"getTweet(uint256)": "infinite",
						"likeTweet(address,uint256)": "infinite",
						"owner()": "2574",
						"tweets(address,uint256)": "infinite",
						"unlikeTweet(address,uint256)": "infinite"
					}
				},
				"methodIdentifiers": {
					"MAX_TWEET_LENGTH()": "6eb10797",
					"changeTweetLength(uint16)": "58bfa4ab",
					"createTweet(string)": "7c9cd2bc",
					"getAllTweets()": "53256135",
					"getTweet(uint256)": "c3ad5ecb",
					"likeTweet(address,uint256)": "63378216",
					"owner()": "8da5cb5b",
					"tweets(address,uint256)": "05a1b4a9",
					"unlikeTweet(address,uint256)": "3d9b569f"
				}
			},
			"storageLayout": {
				"storage": [
					{
						"astId": 4,
						"contract": "contracts/Twitter.sol:Twitter",
						"label": "MAX_TWEET_LENGTH",
						"offset": 0,
						"slot": "0",
						"type": "t_uint16"
					},
					{
						"astId": 21,
						"contract": "contracts/Twitter.sol:Twitter",
						"label": "tweets",
						"offset": 0,
						"slot": "1",
						"type": "t_mapping(t_address,t_array(t_struct(Tweet)15_storage)dyn_storage)"
					},
					{
						"astId": 23,
						"contract": "contracts/Twitter.sol:Twitter",
						"label": "owner",
						"offset": 0,
						"slot": "2",
						"type": "t_address"
					}
				],
				"types": {
					"t_address": {
						"encoding": "inplace",
						"label": "address",
						"numberOfBytes": "20"
					},
					"t_array(t_struct(Tweet)15_storage)dyn_storage": {
						"base": "t_struct(Tweet)15_storage",
						"encoding": "dynamic_array",
						"label": "struct Twitter.Tweet[]",
						"numberOfBytes": "32"
					},
					"t_mapping(t_address,t_array(t_struct(Tweet)15_storage)dyn_storage)": {
						"encoding": "mapping",
						"key": "t_address",
						"label": "mapping(address => struct Twitter.Tweet[])",
						"numberOfBytes": "32",
						"value": "t_array(t_struct(Tweet)15_storage)dyn_storage"
					},
					"t_string_storage": {
						"encoding": "bytes",
						"label": "string",
						"numberOfBytes": "32"
					},
					"t_struct(Tweet)15_storage": {
						"encoding": "inplace",
						"label": "struct Twitter.Tweet",
						"members": [
							{
								"astId": 6,
								"contract": "contracts/Twitter.sol:Twitter",
								"label": "id",
								"offset": 0,
								"slot": "0",
								"type": "t_uint256"
							},
							{
								"astId": 8,
								"contract": "contracts/Twitter.sol:Twitter",
								"label": "author",
								"offset": 0,
								"slot": "1",
								"type": "t_address"
							},
							{
								"astId": 10,
								"contract": "contracts/Twitter.sol:Twitter",
								"label": "content",
								"offset": 0,
								"slot": "2",
								"type": "t_string_storage"
							},
							{
								"astId": 12,
								"contract": "contracts/Twitter.sol:Twitter",
								"label": "timestamp",
								"offset": 0,
								"slot": "3",
								"type": "t_uint256"
							},
							{
								"astId": 14,
								"contract": "contracts/Twitter.sol:Twitter",
								"label": "likes",
								"offset": 0,
								"slot": "4",
								"type": "t_uint256"
							}
						],
						"numberOfBytes": "160"
					},
					"t_uint16": {
						"encoding": "inplace",
						"label": "uint16",
						"numberOfBytes": "2"
					},
					"t_uint256": {
						"encoding": "inplace",
						"label": "uint256",
						"numberOfBytes": "32"
					}
				}
			},
			"userdoc": {
				"kind": "user",
				"methods": {},
				"version": 1
			}
		}
	}
}